:0200000407FCF7
:100000006058FC07F93EFC070D3FFC07273FFC0743
:10001000413FFC07413FFC07413FFC07413FFC07D4
:10002000000000000000000000000000413FFC074D
:100030000000000000000000413FFC07EB12FC073D
:100040000510FC072D3AFC07A526F007ED12FC076A
:100050001912FC07413FFC07C90FFC07413FFC0791
:10006000D50FFC07413FFC07AD10FC07B710FC079C
:10007000C110FC07CB10FC07D510FC07413FFC0763
:100080008113FC07413FFC07413FFC07413FFC0750
:10009000413FFC07413FFC07413FFC07413FFC0754
:0800A00000008E070E000000B5
:0200000407FCF7
:100110000348854600F040FF004800475523FC0790
:100120006058FC07F8B507460120002302460090FE
:100130001946032049F766F9044602218030017010
:10014000FF4DFE482A6843881146FF31F7310B8680
:1001500080884886FB48066A0123DB069E431E43CF
:100160000662FF320020FF32383250829082D08205
:100170001D200882F4484884F448C882F448088363
:1001800000204882384649F77DFC01462868FF3048
:10019000F730C28B920992010A43C283ED4841684D
:1001A00000208847002C02D0204648F714FD204646
:1001B000F8BDFFB58BB0064616980027022821D05F
:1001C0000D9801881498814278D371880846403888
:1001D0003F2802D8159855F711FD0C98361D008858
:1001E000149A80190E995EF787FF0C98018814986D
:1001F00008180C9908800D9801881498081A0D9910
:1002000008805CE100200E9D079069782C78090237
:1002100021433180E978AC780902214371808C4612
:10022000403904242D1D024603468E46402900D342
:100230002878614604291FD0052914D0062918D032
:1002400070463F283DD8159855F7D8FC0006000E9B
:1002500004D0C148008D0006C00F30D00223012019
:10026000BE4A002712E0697800290FD0BC4A172344
:100270000CE0BC4A0F2309E0522802D0D22802D059
:1002800002E0142000E01520B74A1F23002A1AD0EC
:10029000984218D2800010580490002813D00020F3
:1002A0000890059070884038402803D328780524AA
:1002B00030716D1C701D00900498B5E0FEE0302791
:1002C000F0E03327EEE07088042872D10627E9E0D9
:1002D000522862D00CDC4B283FD004DC41286AD085
:1002E000422858D111E04C2820D0502853D140E06A
:1002F000632830D004DC572818D061284BD19BE00C
:100300006C2864D0772846D109E0009829780170DC
:100310000098641C401CA4B26D1C009081E00498FD
:10032000401C04900178089881427AD10098A41C5E
:10033000401C41084900881C009068782A78000217
:10034000104308800599AD1CA4B2002969D008901B
:100350000020059065E00120FBE710222946009867
:100360005EF7CAFE009810341030A4B21035009029
:1003700057E0204640301499039088420BD8402221
:10038000294600985EF7B8FE009840300090039828
:10039000403584B245E0342743E0082229460098DE
:1003A0005EF7AAFE009808340830A4B20835009021
:1003B00037E068E0FFE70622294600985EF79CFEDA
:1003C0000098A41D801DA4B2AD1D009029E01498D2
:1003D000001B80B203903088001B001D81B20120F9
:1003E00007900498401C04900098401C400840006E
:1003F00000900498007857281CD04228CBD1009850
:100400000170090A417000982946801C0090039AE7
:100410005EF772FE03980399201884B20098401882
:1004200000900498401C0490007800281ED0002FF3
:1004300017D01BE04908E2E71498001B81B200982E
:100440000391401C40084000009001200A4607909C
:10045000294600985EF750FE0399601884B2009810
:10046000DDE70D990988A14200D331E70D98008896
:10047000A04208D304990978002904D107990029DA
:1004800003D1A04201D034270CE00D99001B088055
:100490000C9801880098801B001F08180C99002FE9
:1004A00008800CD07088042809D0062807D040386E
:1004B000402804D30E984079707100E03427384604
:1004C0000FB0F0BDFFB581B01F4616460C46104672
:1004D0005CF7D6FC00257F2802D02189062909D0A7
:1004E0003B4632462146019855F71BFF05462846F4
:1004F00005B0F0BDC00601D50225F8E72078002838
:10050000F5D1300AA11D42F7A4F8F0E7F1B598B093
:10051000189842F79CFA0446189805210079134A66
:100520004006C00F099068460184618B08460A386E
:10053000904276D2E08A062873D319E030BCFC07DB
:100540004CB9FC07C00000401080000029410000A9
:100550007671000058BFFC0748BEFC073803F2075D
:100560004003F2079C03F207D803F207770C000060
:100570001922D201904254D8228BFF23F5339A429C
:100580004FD8521C9300D2184243521C0A235210D7
:1005900059438A4245DC217F00290CD1617F002923
:1005A00009D1A17F002906D1E17F002903D12021B3
:1005B000095DC90635D0274620377978C906C90EA6
:1005C000491F0C292DD2A18A81422AD8E17C002919
:1005D00027D0421E082A01D9082000E0401E81428F
:1005E0001FD8684646F7F4FA00281AD1FE4D0622B5
:1005F000286221460AA85EF77FFDA8792E46803E34
:1006000000287DD06079800901280BD00AA80999BB
:100610004CF7ADFD010003D03820405C002870D0BD
:100620009BE008E1F06A807A012808D0042806D00F
:100630000AA84CF709FE286200284ED054E0686AE8
:1006400006220AA932305EF77BFD002806D00AA8F0
:100650004CF7FAFD2862002802D012E0686AF9E738
:1006600000210AA84CF706FE2862F16A897A01295E
:1006700005D18B071A6849068A430A431A60002885
:1006800011D0F16A286A0622253010315EF758FD34
:10069000002808D1286AF16A2030C07AC97B8842D4
:1006A00001D1286A1EE0D148D1490088C96880B2CA
:1006B00006225043081842F7CFF9014614A8062233
:1006C00002305EF719FD13AA00213C2042F791FC8D
:1006D0000121B06D47F7B8FEA9E011A90AA84CF7AF
:1006E000C9FD2862002838D00146253106220FA80E
:1006F0005EF702FD286A08AA2030C17A0FA801E03F
:1007000041E024E04CF716FC002812D0286A203083
:10071000C07A002809D16846B649008C4BF77DFBAA
:1007200008AA0121B3484CF705FC68460AA9008CC9
:100730000AE008AA012111A84CF7FCFB00280CD004
:10074000296A6846008C32314BF77DFB05E00A18B8
:10075000527D002A08D010286DDBF06A407A02280A
:1007600006D0032804D00EE0401C1028EFDBF4E78D
:100770006846008C052806D308AA0AA809994CF7F0
:10078000D9FB002857D00022694620464CF77BFC55
:10079000002850D1F06A407A02280BD0032809D0F3
:1007A0000023684602880AA809994CF78DFC0028A6
:1007B00002D02FE00123F4E7E18A68460181218B12
:1007C0004181618B81817878062241096846817573
:1007D0007878C106C90E6846417521460E305EF72D
:1007E0008BFC189800794006C10F68460175038894
:1007F000214602A8B26D47F7CDF90146B06502A8BF
:1008000042F745FC0020B065214668461C3100884F
:1008100046F731FA49F7B0FA734C2034207A0028B1
:1008200005D0002109205CF76EFC00202072002119
:1008300008465CF710FB19B0F0BDF8B56E4C0646E3
:1008400085000F4660594C21095C24290ED140696E
:100850001022791D2E305EF74FFC61592520403162
:10086000087300221146304654F71BFB60594C2197
:10087000095C0C291FD140691022791D2E305EF7CA
:100880003BFC60595F214069095C09072DD4014692
:100890002E3110221E305EF753FC00280CD0605918
:1008A000092140300173304655F718F801460022FF
:1008B000304653F775FEF8BD0421684601706A465C
:1008C0000521304654F716F8684601786020014348
:1008D00068460170304655F701F8014668460278CF
:1008E0000123304653F771FFF8BD304654F7F6FF49
:1008F000012809D0605907214030017300221146B8
:10090000304654F7CEFAF8BD615900204969C0312C
:10091000887160590421426930461E3253F7EAFF5C
:10092000605941694031897F002907D01A21403040
:1009300001730021304654F73EFBF8BD1B214030C7
:100940000173304654F78CFBF8BDF8B52A4C0546C8
:100950008600A0594C22125C192A11D140224D3038
:10096000491D5EF7C9FBA059402224494D305EF76E
:10097000E7FB002805D02149284620395BF74BFDCD
:10098000F8BD0B21684601706A460521284653F7D9
:10099000B1FF68460178602001436846017028462F
:1009A00054F79CFF0146684602780123284653F716
:1009B0000CFFF8BDFFB581B003980C46060A002570
:1009C0005CF75EFA002827D0132825D0142823D0FE
:1009D0000B48B700C0592030407BC00637D503987C
:1009E0005CF74EFA15280DE030BCFC0768B9FC072F
:1009F00060BBFC0750F5F1073CBEFC07FCBDFC07E3
:100A000078BBFC070CD0A07942F714F8304647F7C2
:100A1000AFF8032806D015E0A07942F70BF81FE0E5
:100A200002251DE03248C0592030407B400704D5E4
:100A30003D21304642F7FCFC04E03D2200213046D7
:100A400042F705FD3D21304646F7DAF808E020463A
:100A5000103828490181468120464EF7C3FD012503
:100A6000284645E524485222006864308188C37EC8
:100A70005143224A12688918FF225F32525AFF31CD
:100A8000120AD21A01310B8CD2B2DB0B09D00B8CBB
:100A90005B045B0C0B84002A03D18088184A012177
:100AA00011547047FFB51746140A81B0104A0298D6
:100AB000A100515840780026114D002907D0295D2A
:100AC000002905D0002803D1204643F715FF2E55F5
:100AD0003A46049B0299019844F79FFE08E50A48AC
:100AE000084901600949416070477047704700003C
:100AF00078BBFC070608000084BBFC074CB9FC0768
:100B0000C98BFC070459F007C0000840490C00BF1E
:100B10007FB5E4486B460188428889186A4611808F
:100B200001214C0022181546403DED8F065B52888E
:100B3000AD19AA18491CC9B21A530729F1D38189E2
:100B4000C089081881B2D981D888002821D0188995
:100B5000002820D0988800281FD0588900281ED04F
:100B6000988900281DD0588800281CD000291CD046
:100B7000188800280BD00720062254001C5B8C42EA
:100B800001D22146D0B2521E52B2002AF5DA04B088
:100B900070BD0320FBE70420F9E70220F7E70520FA
:100BA000F5E70620F3E70120F1E70720EFE7F0B5CE
:100BB00095B0EFF310801090012080F31088BA48B0
:100BC000816B4A07520F69460A800A92816B0122A3
:100BD000C908C9008163B5498B8869464B800224E6
:100BE000B24B00219980C16A09078B0F69468B803F
:100BF0000F93C16A0C2399430831C162052109078B
:100C000009880906CB0F6946CB800521090709939E
:100C100009888023194305231B071980A449898A61
:100C20004906CB0F69460B81A1490893898A402365
:100C300019439F4B9982016A09074B0F69464B8103
:100C40000C93036A0E218B4303629B4D99486860A5
:100C5000FF204030A8602888A0432880974841683A
:100C60000B071B0F69468B810B934168090909012A
:100C700008314160416849064B0F6946CB810D93AD
:100C8000416870239943603141608748403801686A
:100C90008904CB0F69460B820293036841140B430E
:100CA00003600168CB07DB0F69464B820E93016836
:100CB0001143016041688903CA0D69468A82039223
:100CC0004168CA05D20D6946CA82049281688903C7
:100CD000CA0D69460A8301928168CA05D20D694628
:100CE0004A8305924168764A11400322D20389184B
:100CF00041604168490A4902FF31413141608168E0
:100D00006F4A11400322D203891881608168490A21
:100D10004902FF3141318160642000F02DF9A8893A
:100D200069468007C00F8883A8892043A8810024D2
:100D3000604F288800260121084328800A2000F0FF
:100D40001BF9FF205F4941303A680A4200D0761C07
:100D5000401E3F1D0004000CF6D1A88A8004FCD17F
:100D60005149886B671CC208D2007807400F0243C4
:100D70008A630A2000F000F960004A49FCB20E5272
:100D8000082CD5D348480A99826BD208D2000A436E
:100D900082636946454A498891800F998A00C16AF1
:100DA0000C2399431143C1620999CA01052109071E
:100DB000098880239943114305221207118008995D
:100DC0008A013B49898A402399431143384A9182D9
:100DD0000C994A00016A0E23994311430162374876
:100DE0000B994268120912010A4342600D99426848
:100DF000090170239A430A434260029841032A483A
:100E00004038006801225203904308432649403984
:100E100008600E9809684908490001432248403893
:100E20000160039842022048403840682449084045
:100E300010431D4A403A506004985268520A5202C8
:100E400002431948403842600198174A4002403A2C
:100E500092680A400243144840388260124905985B
:100E600040398968490A490201430F484038816086
:100E70001098002800D0012080F3108815B0F0BD34
:100E800010B5114C2078002808D0FFF790FEFFF72E
:100E90003FFE0E4908700020207010BD02F0B2FB2A
:100EA0000120F9E7F84FFC078010004000120040D5
:100EB00020300050F84AFC07003500504020004028
:100EC000FF01FCFFC0C0C0C05C8DFC075A8DFC0751
:100ED00010B5FF22154901320A60BFF34F8FBFF3EF
:100EE0006F8F13490A6013490B6840241B0A1B02C9
:100EF00023430B601049898A0021C30700D03521A4
:100F0000830702D57D231B021943430702D57523AE
:100F10001B041943000702D53D2000060143064883
:100F20002038016301488038026010BD80E100E094
:100F300080E200E008E400E0A010004010B50620C8
:100F400000F01AF810BD10B5092000F015F810BD1A
:100F500010B5812000F010F810BD10B5044800F065
:100F60000BF810BD10B5034800F006F810BD0000E6
:100F7000010200000108000000280CD000BF00BFE3
:100F800000BF00BF00BF00BF00BF00BF00BF00BF69
:100F900000BF401EF0D170471CB5094800900948B9
:100FA000019005460126009C05E0E36807CC334329
:100FB0000C3C98471034AC42F7D3FFF7ADF8000073
:100FC000C44AFC07F44AFC0701480121018070472C
:100FD0000E1500500A48011F0988CA0706D002886A
:100FE00007239A43E44B9B7A13430380490706D5B2
:100FF000018807229143E04A527B0A4302807047EE
:10100000B8100040B0B50520000701883022114318
:101010000180038803210B430380204B1C88640755
:10102000FCD403889343038003888B430380D24C12
:10103000E38B4380238C9D1E194B5D8007251D800B
:1010400005881543058005880D4305801D886D07BB
:10105000FCD403889343038002888A430280428938
:10106000920702D042898A434281018980220A4341
:101070000281018A042291430182818A8907FCD579
:1010800041F74FF9606B0749086007480168490755
:1010900000D500BE01684907FCD5B0BD083300503B
:1010A00000160050080200401000004080B50A20E1
:1010B00000F04CF880BD80B50B2000F047F880BDF3
:1010C00080B50C2000F042F880BD80B50D2000F006
:1010D0003DF880BD80B50E2000F038F880BD0000DE
:1010E000F8B51746009105460126002130462A46EC
:1010F0005EF746F8EC4A536E0B40146E04401C43F6
:1011000000D100BE546E0C40136E0340002F06D079
:10111000234300D100BEAE400B4C268005E02343A4
:1011200000D100BEAE40084C6680536E0B40116E7D
:101130000140194300D100BE6800201803210902B4
:10114000009A51188180F8BD02300050F0B5034676
:101150000A3B01210A469A4093B20B4D5C19661C6A
:101160005E400A4B1C8800272E4203D07F1C760865
:10117000B6B2F9E79443BAB20D46954025431D80B7
:10118000814052480160F0BDFEFF01000E14005086
:10119000F8B5044601273E0205200507688DC00505
:1011A00006D51B2002F004FE4A480188394301801D
:1011B0008036288840013040698A474A0A40024305
:1011C0006A8221681348016061684160A16881609A
:1011D000E168C1602169016161694161A169816161
:1011E000E169C16104623E490A6842624A688262FA
:1011F0008A68C2624A690263CA6842630969816394
:10120000334808210180A88AC00600D4FEE700BE4A
:10121000F8BDC0460090FC07024800882B4810210A
:10122000016070472C130050F8B5044605200507EF
:10123000288A0421014329822889402101432981E8
:101240002248012707602248082101803E02688D5C
:10125000C00506D51B2002F0ABFD1E4801883943AE
:1012600001808036288840013040698A1A4A0A4045
:1012700002436A8221681948016061684160A1687F
:101280008160E168C1602169016161694161A169B1
:101290008161E169C161046211490A6842624A6878
:1012A00082628A68C2624A690263CA6842630969E3
:1012B0008163A88AC00600D4FEE700BE688A094997
:1012C00008404018001D6882F8BDC04680E200E07A
:1012D00000330050800000507FFE00005090FC075B
:1012E00028ED00E0FC7F00007047704770B5214C8E
:1012F0006D4D224EA1880F200840022809D00428F5
:1013000004D00C2820D00128F4D132E002F072FD84
:10131000F0E72A8BA88B90421DD2E96A9042E9D26D
:10132000A288C0231340C02B03D13288920703D474
:10133000E0E7228A9206DDD5421CAA83085C221FC0
:1013400010802A8BA88BE9E702F054FD2088012148
:1013500088432080CEE7208802218843208020888F
:10136000802188432080296B0029C3D0288B88479F
:10137000C0E770BD04110050508DFC077C11005077
:1013800005210807028830239A430280028803233C
:101390009A430280828812050DD5184A13880B40A3
:1013A000052B08D1108804210143118010880121E8
:1013B0008843108070478188C90606D510498A88FD
:1013C000D20702D00A88120610D48088C0060CD535
:1013D0000B488188890708D50188C90505D50221F0
:1013E00081800188074A0A40028070470120888076
:1013F00008888022904308807047C0460002005051
:1014000000010050FFFE000070B537480921042498
:10141000182322465BF7EEFA05461B202870FD26AE
:10142000304662F739F90021A982E96029616C60D0
:101430006E80687028465BF7F8FA70BD1FB51446D9
:10144000002202920192069A00921A46234661F700
:101450004FFF04B010BD000010B5F548C17B134A22
:10146000CCB20C236343D45CFF2C06D0D318491CA8
:10147000C1735B68002BF3D00DE0017C0C4ACCB249
:101480001C236343D45CFF2C08D0D318491C01747F
:10149000DB68002BF3D09847002010BD0021C173FA
:1014A0000174012010BDC046508DFC075C46FC074E
:1014B000F041FC0770B50C48092104240A23224698
:1014C0005BF798FA05461B2028701426304662F711
:1014D000E3F8FF21743129816C606E8068702846C2
:1014E0005BF7A3FA70BDC0461B0D00001FB5144684
:1014F00001220292044A0192069A00921A46234659
:1015000061F7F6FE04B010BDAC40FC0770B5124D9B
:101510002C68002C19D11148092104222C235BF7D7
:1015200069FA04462860172020840D482080002690
:10153000668020460A3011215DF7F7FD2685E68496
:101540006684E683A6832020E07620465BF76DFA6A
:101550000020286070BDC0466C8CFC07040D0000A4
:10156000030A000010B5154C206800281CD114484F
:101570000921042252235BF73DFA02462B20002169
:101580001154226091720F48D08090800D201080FD
:10159000D172FF200830108110460B300C320B2125
:1015A000094B61F7B7FF20685BF73FFA0020206026
:1015B000042002215BF74FFC10BDC046688CFC077D
:1015C0000D0D00004C040000204AFC07F8B5009205
:1015D0000D468100104A56585418002E0AD10102B7
:1015E0000A310E4804271E233A465BF703FA0646E3
:1015F00007702060B71C102138465DF796FD38460D
:101600002946009A5DF778FD0120707030465BF73F
:101610000CFA00202060F8BDA08CFC07140E00001E
:101620001FB514460E220292044A0192069A0092B5
:101630001A46234661F75CFE04B010BDB440FC07B7
:1016400010B5014601200A4A914210D3121D914261
:101650000DD8029CF231C8B28100064A50580028C9
:1016600003D0511800220A6080470020207010BD6E
:101670000E040000888CFC071FB514460722029256
:10168000044A0192069A00921A46234661F730FEF8
:1016900004B010BD4041FC0770B50C464F4988426C
:1016A0003ED04F4A90421CD04E49884249D12078C2
:1016B000401E092865D88000D7490818416A4F4A5A
:1016C000914260D04948814200D081E044480421E1
:1016D00008230A465BF78EF9217801706168416042
:1016E00074E02578681E092849D88000CA4908187E
:1016F000416A3E4B99426BD1C16C243001606468F1
:101700003B480188090644D53A490968090440D490
:1017100058490988C9073CD1A818042122460DE080
:101720006268002A01D100BE62682F48824201D35C
:1017300000BE626820782A49401804215BF799FCB2
:1017400046E0531C0121984245D30A32904242D8C8
:10175000C1B2091F8900B04A5218516A002937D016
:10176000224B994234D0254B994231D01346243331
:10177000C01E00241C60D464C0B2884728E000BEAC
:1017800026E000BE24E00146243100220A60C26443
:101790001EE0EFF31083012181F31088008800061A
:1017A00003D4154806880E430680002B02D081F32F
:1017B000108802E0002080F31088901E80B204217F
:1017C00008230A465BF716F9446005705BF72DF9AC
:1017D000049800210170084670BDC0460104000055
:1017E0000304000002040000FDFF3F00E33DFC078E
:1017F000080000503000004008330050E13DFC0775
:10180000A9488178491C81700178002900D070476F
:1018100018490023CB7018490A780B70012A01D0AF
:10182000012100E00221022A00D10321017070474A
:10183000508DFC079C488178002904D0491E817096
:10184000090600D070474178012902D100210180AA
:10185000704701780029F5D000220270FE20084070
:101860000228EFD103480122C270481E02490870C5
:101870007047C04654BAFC07B4BAFC07B0B50C4672
:101880000025202D04D041F73AF860556D1CF8E78B
:101890000020B0BD10B504460548064970225DF72A
:1018A0002BFC0548001B054908801430488010BDFA
:1018B00070A0FC077841FC07B8A0FFFF78A0FC07E8
:1018C00010B507480188074A1368114C234059187E
:1018D00011604088516821400818506010BDC04612
:1018E000183000408CA0FC0710B507480188074A53
:1018F0001368074C234059181160408851682140F3
:101900000818506010BDC0463830004098A0FC0751
:101910000000FFFF07481E214180018803220A437F
:101920000280018804220A4302805F480121C170BD
:101930007047C046001600507047000070B514464E
:101940000D4610465BF79CFA01282ED1287801023B
:101950000831AA791648002A0CD089B206232246FB
:101960005BF748F80646A87860F760FD3080A879F4
:10197000307113E0AA8889B2921D93B222465BF7B8
:1019800039F80646A87860F751FD002131713080A2
:10199000AA887280701DE91D5DF7AEFB30465BF7CB
:1019A00044F8002120465BF756FA002070BDC0467F
:1019B000140C0000FD2801D000207047004870473B
:1019C000F041FC077047704710B5044640793F2846
:1019D0000FD840F794FF2070010EE170010CA17048
:1019E000000A607040F78BFF2071000AC02101439C
:1019F000617110BD80B5FFF7B5FD80BD4E49498CC2
:101A00000180704780B54C490A780270401C491C1F
:101A10005DF772FB80BDC046C48DFC077D21C1808F
:101A20000021818010214180082101807047000041
:101A300070B504467A206043ED4A16184D78357724
:101A40003046143008210A4661F78AFC102D04D86C
:101A5000B01C1022294661F783FC40F750FF7082CA
:101A60003078012101433170204600F059FC317F6C
:101A70000177718A4182F18AB28A738B358B058333
:101A800043838282C182B11C801C10225DF734FB2B
:101A9000204600F045FC5AF7C8FFA000F34908189B
:101AA0000021C16470BDC046508DFC0770B5810037
:101AB0000D4A54585518002C10D101020A310B4818
:101AC00004221E235AF796FF04460126067028605A
:101AD000801C074907225DF70FFB667020465AF706
:101AE000A4FF0020286070BD9C8CFC07140E000031
:101AF000BC4AFC0780B561F7E3FC002801D0FFF782
:101B000031FD80BD10B50C46017801290BD00029AC
:101B10000ED1428808490A704B1C011DD2B21846EA
:101B20005DF7EAFA02E0408803494884002000E0BB
:101B30004820207010BDC046C48DFC07E0B54A782F
:101B4000032A14D87A44127952009744010A0307F1
:101B500008A104E006490091694605E0891C1022AD
:101B600003E00349019101A90422FFF72FFD8CBD79
:101B700040E20100000102030405060708090A0B00
:101B80000C0D0E0F002088804880012008707047DF
:101B900080B55FF7F1F980BDF8B56946C870020AF3
:101BA0008A70020C4A70000E087008465FF7CCF984
:101BB0008FBD000080B5494800210160FFF7C8F9DA
:101BC000444800781F214901414A13688B43C006ED
:101BD000800DC018106080BD80B53F4802210170A3
:101BE000FFF7ACF980BDC046F8B51F460C46087833
:101BF00008281CD80725002100911AA678440079EE
:101C00004000874419040C0406060F0912001A4EFE
:101C100012E00D25174E0FE0062514A60CE00A254C
:101C200016A609E008251AA606E017A604E000BEDD
:101C30000026012000903546AB1C184839465AF75B
:101C4000D9FE0746207838707D700098002804D1AE
:101C5000B81C31462A465DF74FFA38465AF7E5FE7A
:101C60000020F8BD52656E6573617300FFEEDDCC38
:101C7000BBAA0000C249FC07AE49FC07312E302E3A
:101C8000302E302D4C45000001D2008005000100AF
:101C9000123456FFFE9ABCDE000000000314000060
:101CA00080B50B4801688905C90E0A4A11701F21C9
:101CB000490102688A430260074801210170074810
:101CC000016803220A430260FFF742F980BDC04663
:101CD0004C120040F44AFC0706100040AC100040D3
:101CE00070B50C78A51E052D27D81C0A7D442D79CA
:101CF0006D00AF440233222544527A2060433C4AAF
:101D00001518887878216854C0070ED00C206043DD
:101D100085490E1831466D312846713006225DF72F
:101D2000EBF96C20305C772168540C2060437E49CD
:101D3000081873210022425441E002F0A7F83EE067
:101D40007A2565432A4C60193A30891C17225DF7C1
:101D5000D3F9605D04210143615530E07A2060438E
:101D6000234908187821002242540C2060436E4910
:101D7000081873214254204661F702FC1FE07A25BF
:101D800065431B4E70196130891C102422465DF793
:101D9000B3F9705D2043705511E07A206043144A16
:101DA00015188B1C488A00280BD028461E301C2290
:101DB00019465DF7A1F92878022101432970002016
:101DC00070BDA81C1C2219465DF796F928780121E0
:101DD0000143297007A05EF791FF112008A4461E59
:101DE000EDD0295C20465EF789FF3046F7E7C04614
:101DF000A48CFC07200D0A204C544B3A203078006C
:101E0000253032780000000080B50A78072A24D8EF
:101E1000180A920001A39A589746C0463D1EFC0737
:101E20005B1EFC075B1EFC075B1EFC075F1EFC07BE
:101E3000691EFC07691EFC07651EFC077A214143E9
:101E40003F4A002353540C214143374A511873220F
:101E500001238B54FFF72AFE06E000BE04E0FFF7E3
:101E60006DFE01E0FFF7E4FD002080BD508DFC0712
:101E700010B50C78012C03D0092C09D04C7802E065
:101E80004C78432C02D0002C00D000BE01F0FEFFA5
:101E9000002010BDF8B51C4610460D465AF7F0FF5D
:101EA000022828D1240A00D000BE0C206043E94952
:101EB0000F186837BC70FF2C19D00126FE70042063
:101EC00003215AF7C8FF28883880687A3871781D4E
:101ED0000A35062229465DF70FF97A206043184932
:101EE00008187821415C2046324661F7FDFA204609
:101EF00001F0DEFF00E000BE0020F8BD10B51C467A
:101F000010465AF7BDFF03280AD1200A0C2141438D
:101F1000F94840186A21FF224252FFF723FB00E0F4
:101F200000BE002010BDC046508DFC07180A7A2262
:101F30004243034880180978782281540020704772
:101F4000A48CFC0700207047F0B589B01D461446EC
:101F5000087802282CD001281FD000283AD101AEE1
:101F6000202130465DF7E1F81D480778411C3046D6
:101F70003A465DF7C1F83B460A33184829462246DF
:101F80005AF738FD0446478000202070201D314656
:101F90003A465DF7B1F820461AE01148468C0F48E2
:101FA0000A23294622465AF725FD468001210EE0E4
:101FB0000A480A23294622465AF71CFD7D21018141
:101FC0000021C180102181800821418002210170FF
:101FD0005AF72BFD002009B0F0BDC0460B0E0000E3
:101FE000C48DFC0780B561F727F980BD80B561F726
:101FF00003F980BD80B561F73AF980BD80B561F71E
:102000004EF880BD80B561F7BDF880BD00207047F7
:1020100080B561F737F880BD70B50C78172C0FD8F4
:102020000125A5400D4E354201D0002070BD012C88
:1020300009D0032C04D14878002809D000BEF4E769
:1020400001F024FFF1E74878002804D000BEECE757
:10205000FFF750FDE9E7FFF759FAE6E700F08E00D9
:1020600010B510465AF70CFF002801D000BE09E059
:10207000054809210422012423465AF7BBFC0470B9
:102080005AF7D3FC002010BD020D000080B561F7A7
:102090009AF880BD002070470020704780B561F736
:1020A000D8F880BDF0B589B0039316460C46FD20E4
:1020B0005FF79EF80290002800D100BE08A9002713
:1020C0000F70208860F7C0F905466088002800D0AE
:1020D00000BE002D78D1FD20FFF76CFC002800D158
:1020E00000BE0399090A009108A90A7814215143F6
:1020F000436859180B79022B24D109680988394B98
:1021000099421FD1002005900490208860F737F98C
:10211000002800D100BE07A9002204AB4EF724FF1F
:102120000120400207990140480A214660F712F950
:10213000C5B2002D29D1E28808A80178009860F77F
:10214000E4FA22E001968669002E3D4606D0A58875
:102150006188A31D10462A46B04705460597049797
:10216000208804A94EF77BFC002D019E0DD108208C
:102170000499085E002807D46288A1882088A31DDE
:102180004EF7D7FC054600E00025002D1CD1029833
:10219000009F39465FF74AF80146A088801D83B248
:1021A000114832465AF726FC0546801DA288A11D1B
:1021B0005CF7A2FF08A800786880A088A8802F702C
:1021C00028465AF732FC0025084804230399324672
:1021D0005AF710FC8570218801805AF726FC0020F0
:1021E00009B0F0BD022900000AFD0000160C000035
:1021F00070B5EFF31085012484F3108805200607DD
:10220000708DC00509D55148447201F0C7FD1249CF
:1022100008701248008820404870308880210143AF
:1022200031800F48016807229143016041684907E6
:10223000FCD53188090600D400BE0A4901610A496B
:102240004161002D02D084F3108870BD002080F31E
:10225000108870BD508DFC070850FC0780000050AE
:102260000000F4070F009909090404A470B5174E83
:10227000B06800F02DF835498A6B00238B63151880
:10228000084C284621465CF7BDFE70610649414373
:10229000481901D0201A80B230613068082101430A
:1022A000316070BD710200008FFDFFFF80B50648F0
:1022B0000021016001F03AFD0120C00703490A68CE
:1022C00082430A6080BDC046A8B9FC0730000040C8
:1022D00080B50246C00B09D01C48806C00210B461B
:1022E0005CF7BAFE8905800A401880BD1748806CEB
:1022F0004243900A80BDC046508DFC0780B5FFF771
:10230000E7FF80BD80B51149096C414302480818B8
:1023100002495CF777FE80BD20A1070040420F0014
:1023200010B501468000094A1418E06C002800D05E
:1023300010BD4C3409020A31054804221E235AF705
:1023400059FBFF2108310180206010BD508DFC0732
:10235000140E000000B59FB0E549C8201490088015
:1023600000204880E34908230B80E34C1C901C9814
:10237000002811DC00201E901E991C980B2909DCF6
:102380003021414360181E998900002242501E9856
:10239000401CF0E7401CE9E71093A5690020C24308
:1023A0000123002D179300D0134619929A01D34EA2
:1023B000376E1743199A716E189137661A939F0EEC
:1023C000002D134600D12B469B01DB19189D2B4392
:1023D000CA4D6B666568002D179900D01146CB0F6A
:1023E000002D109F00D12A465200D218736E13435D
:1023F000326E73664B00134333661A9AA2616160B2
:10240000706630661C901C98002834DC00201E90FA
:102410001E980B282CDC1E981C990B2828D83020DD
:102420001C99414361181E9A92008958491C00D199
:1024300000BE1C99414361181E9A920089580029D8
:1024400013D01C99484320181E9989004058C11781
:102450001E9A5CF795FE1C9A12015CF791FE726E53
:102460000A43316E7266014331661E98401CCEE706
:102470001C98401CC6E7A24D28881BAC20802088F1
:10248000C046C046208804211A91C943084202D0A0
:102490000020288003E0A88901218843A8813B46C9
:1024A000A88B9849014007201590C0020818A883FE
:1024B000954F388818433880F88D06229043F88568
:1024C0000124A003A98B0143A98338888F490140C7
:1024D000398078880A9210439843788005202B46EB
:1024E0000E900507698D0F2001900202F88D904330
:1024F0007D22D200C9058649189409921BD4032174
:1025000049020843F8858348401CF98D0143F98549
:10251000988B109988439883988B042188439883DB
:1025200078887D4901407980F88D2043F885688D51
:102530004007FCD516E010181830F885F88D0840D3
:10254000E1034018F885988B109908439883988B7D
:102550001A9988439883F88DA043F885988B402179
:1025600088439883189A100212906549888B032338
:1025700003931843888338882023184340241394F6
:10258000E44320403880088C179318432040088487
:10259000E88A80210C9108432040E882288EFF21A0
:1025A0000B9188432886288F1A9B1843182108917D
:1025B00088432887288FA02101430F942140298731
:1025C00056480380A88856490140A98010045549FF
:1025D0000860FFF70DFE544A1068159908401CA9C1
:1025E0000870087802281ED0688D129908420E9C47
:1025F00011D001F0D3FB0A2802D80B2001F0D8FB40
:10260000F88DC007484A06D1F88D18990843F88517
:10261000688D4007FCD5106802210143A143116079
:1026200050684007FCD541480068C1B20C20AA2977
:10263000014600D01A992A88824388182880C0460B
:10264000C0463B4800683B49098868233A4F00224E
:102650000D921193FA523246503291803065189C97
:102660002046C046C0463548001F006834498842AD
:1026700000D057E101980707042000210791169721
:1026800003462E4A1118081FEC32904200D34CE149
:102690001A9300681E901E9B3B40092004071E9A57
:1026A000A34260D11E9B1E0AF3B21993D2B2531EED
:1026B000162B00D9F9E05B007B449B885B009F44AC
:1026C0000E010E01F4000E01F4004100B800F40008
:1026D000F400F400F400F400F400F400F400F4005A
:1026E000CB009A00E0009300F400EE00AE00C0467C
:1026F0000031005002330050208DFC07508DFC0744
:1027000004030050FFC3000052000050FFBF000050
:10271000FF0F0000FFEF0000FFF900000002005073
:10272000FFF7000080E200E00000F407D07FF80728
:10273000D47FF807D87FF807CC8BFC07D47EF80746
:10274000A5A5A5A5BD4C119FE05DC0002018199A54
:1027500092005CF7D1FCE05D8019E055C0B205281D
:1027600078D300BE76E0900F11D01E98B44988420D
:102770000DD81A9B18460830294628311E9A8A42DD
:10278000189C26D1AF495958AF4A118078E71E9856
:102790003840159909078842189C05D10020C04689
:1027A000C0461A98001D6BE71E983840E107884222
:1027B0001A9A0CD01E9838400E994907884206D0C4
:1027C0001E98384003994907884200D099E0101DAF
:1027D00056E7A91C1E9A8A4200D088E099495958A8
:1027E0006622964B99524BE796481A9908586221EF
:1027F000924A505273E0934A1A9B995848439A5808
:10280000120C801A00B2C0085A238C4CE052501AA5
:1028100081088E4A11400818401C58212FE0894831
:102820001A9908586421854A5052000457D100BEB5
:1028300055E06924814F385DC00038181030199A6E
:1028400092005CF759FC385D80193855C0B20D28EC
:1028500000D300BE169F42E07A4A1A9B995848431B
:102860009A58120C801A00B2C0085623734CE052DA
:10287000501A8108754A11400818401C54216052B2
:102880002DE0079CA0001CAA1018199EB2005CF74E
:1028900033FC34190794032C21D300BE1FE0694890
:1028A0001A9908586549086519E01E2A17D1199820
:1028B0004008020613D00B684A68083100242646F7
:1028C0000836382E08D05D4F3C1924699C423446A6
:1028D000F6D15A4B9B19DA60401E169FE9E719980A
:1028E00080001A990818001D594E189CC8E6294600
:1028F00024311E9A8A420AD152495958524A51806B
:10290000BEE61E98401C10D000BE1046B8E6294610
:1029100020311E9A8A4200D0B2E64A4959584A4AA2
:102920009180ADE666203F5A37E05C201C99434F0A
:10293000395209201D9948430A0C801A00B2C00878
:102940006023F852501A8108404A11400818401C70
:102950005E217852119AB85CC10701D000BEB85C04
:102960004008B8546920395CCA0701D000BE395C00
:10297000490839546420395A002901D1099939523A
:1029800066203F5A002F08D132490968C9B2AA29E6
:102990000C9F00D06E2729490F52F783A88CA043C3
:1029A000A8840D20FEF7E8FA6889204302211191DE
:1029B0008843688168894006FCD56F800998FEF7D6
:1029C000DBFA688903998843688168890006FCD529
:1029D0007F2030711F4880691F498860EFF310879E
:1029E00084F3108828880C99084328801B490868BC
:1029F000159A904308600D9B48684007FCD518481D
:102A000008611848486128880C9988432880688D97
:102A1000129908420CD073720F4E307801F0C8F949
:102A20000D9B7078002803D10F49C88DA043C8853D
:102A3000002F1BD084F310881BE0C046CC8BFC0712
:102A40004C420050D47EF807A000FC07FF3F000076
:102A5000508DFC07D07FF8070850FC070000F407F2
:102A60000F009909090404A452000050002080F3CB
:102A700010880E9C944800689449884200D0C6E0B3
:102A8000934894495CF751FB1598010292485CF712
:102A90004CFBFEF72BF8944890490160904891490F
:102AA00030273A465CF728FBFC480026C671867141
:102AB00046710671C670867046703F21199101708B
:102AC000F748F8A1139A5CF717FBE8480670E84846
:102AD000E8490160E848E9490160E949E9480860D6
:102AE000E9480A210170E9481A960670E84832213F
:102AF0000E910170E7480460E748189A0260F948AF
:102B00000460F9480A990160F84815990160F8488D
:102B1000109E06601298801DF6490860F64908600C
:102B2000F6486B490160144600F044FC288902977E
:102B3000B843288128890C99084328812889304383
:102B40002881288CA0432884688908998843688153
:102B50002889139908432881288A042188432882D8
:102B6000A88A8007FCD5E88CED4908400B21169116
:102B700009020143E984E88C2043E88468891099BC
:102B8000084310210D9188436881688CA0436884B4
:102B90002889139988432881E2483730A2071168B1
:102BA00001401592116019984002DF4A1168814373
:102BB000600308181060DD48401C11680143116073
:102BC000D4480068D4498842D94E3CD0D3480068E4
:102BD000D5498860D74A90681071010ED171010CF7
:102BE0009171000A50711298C030D3490A460028EA
:102BF00017D0401E435C16783446039F3C40CD4FAF
:102C00003C1924795C4074401470521CEFE7CB48A7
:102C1000C9496202934200D932E71A585A501B1D23
:102C2000F7E7C44C1C34C4491C2220465EF7F8F96F
:102C30000028BF4E00D000BE20465EF785F9B5489B
:102C4000B5490160189CB54800683FF703FBBC4FCD
:102C50001A983871F87015990868129A104308602C
:102C6000FEF758FE204600F095FC307800282046FC
:102C7000344601D0607003E00020F870B14908705C
:102C80001A9FA766E7662767AF4E169A3270701CC8
:102C9000AE495CF731FA77840426AD4930465AF7DD
:102CA000A8F8204668300B99817016963046394650
:102CB0005AF7D1F860F71CFD20780028159E15D032
:102CC000189F6770149C18E09CB8FC076587341245
:102CD00000A0FC07AC14000000B9FC073446FC0758
:102CE00000BAFC077CFCF10760BAFC07002094499D
:102CF000C87094490870149C189FFFF7D7FA0520F4
:102D0000FEF7E6F8934A148093481099018093489F
:102D100093490818934940188008401E0B90780288
:102D20000890199880020A90F80319901746844970
:102D30002889000600D4A9E1306B199A104200D00E
:102D4000A4E10888C00700D0A0E15AF756FB002490
:102D5000204600F01FFC7648C07A042800D091E19C
:102D6000189800F017FC1C941CA8042631464AF75A
:102D7000E5FE002800D183E118987B4908600868C7
:102D80000028FCD11598C069694B596A884201D264
:102D90005C622146411ACA09197B182A00D8AFE0A3
:102DA000C90700D0AFE0714F398807917988069143
:102DB000B9880591F98804913C800899103179808F
:102DC000139ABA805C216A4B595AB98158494862B2
:102DD000B88910430299C9430840B8816548026028
:102DE000BFF34F8FBFF36F8F388810433880F88858
:102DF00010430840F8803888B0433880B888C0B2A3
:102E0000B880F88870210140402900D0BEE06220DF
:102E1000185A00285849189C00D00146454841805E
:102E20005648401C3988014339801920FEF7A4F820
:102E30003888089A104338803888139908433880B6
:102E400078883043788078884D49084078800198A8
:102E5000400279880143798078884A49084012996C
:102E60000818803078804848A5E0C046FDB9FC07C6
:102E700050B9FC07603FF20754B9FC07DC47FC0778
:102E800058B9FC07AC46FC07B0B9FC07B1B9FC0760
:102E9000D9B9FC075CB9FC0760B9FC07DAB9FC07D3
:102EA000B0BCFC072000800000C0000000008400CF
:102EB00000002822000000000000040000F7FFFFCF
:102EC0007F00000030F0FF0F000000000004000051
:102ED00000000000000000000000000000000000F2
:102EE0000000000064B9FC0768B9FC076CB9FC0776
:102EF00070B9FC0748B9FC0744B9FC074CB9FC079A
:102F0000C80700D1BCE00A49886A401C886200F00A
:102F1000EFFCB5E09CB8FC07658734124CB9FC07A0
:102F2000FFF00000C8FEFFFF00020040FFFF1F008F
:102F3000508DFC070850FC07388EFC0700B0FC07DA
:102F400054BAFC07B4BAFC07C48DFC07204AFC073E
:102F50008C40FC070031005002330050E84900006B
:102F60001001FC07030004F8FC00004000150050AD
:102F7000CC8BFC0780E100E040760000FF0F0000F2
:102F8000FF1F00003FFE0000FCFF00003888E349FF
:102F9000084038807888EE4908407880788803991E
:102FA00088437880E64A10464038398801403980A5
:102FB0001046189C089AE34949880140E14841803D
:102FC00000882043DF4908800998173009890140AB
:102FD000D04E7182DB4949890140B182D9480089CC
:102FE0000A9908401043D74B1881D64840890840B9
:102FF0001043D4494881D348008811990843D149E6
:10300000088008888007FCD4CC81088A0F46C5490F
:103010004988728A3B890A9C234013433B81B28AC8
:103020007B89234013437B81401A0999414300283F
:1030300004DCC84A8918C017084001E0C6480818CF
:10304000C6495BF7F5FF8409193430797F280DD024
:10305000201A41B2C9114840401A40B20528B94867
:1030600006DBB06A401CB06200F042FC3471B54827
:1030700006994180059981800499C1800799018052
:10308000A24F159E5DF74CFE149CAB4972B60879B1
:1030900002281A9802D0A4480068806A1C909C48B4
:1030A000C088C00700D02DE159F773FAA249002863
:1030B00000D127E1C878012800D0ACE0A88AC00779
:1030C00000D091E00888002800D0A4E0A448806ADD
:1030D000002803D094480068806A1C9000F026FE07
:1030E000954FB9781CA85AF74CF839460028874FF5
:1030F00000D190E03069400600D58CE08E488178A0
:103100001CA84AF71BFD8C49002800D183E00A98CF
:10311000FF308D4A11880140129F394311801C985D
:10312000002806D0316A814A8918DA2901D8401E60
:103130001C90D648008CD74AD16808181061F06BF3
:10314000884B18400843F063F06B87490840516989
:1031500089020143F163F06B764908401169490522
:103160000818F0631C9A8148824200D300BEC74908
:10317000886DC96D00235BF76FFF0903000D4118CF
:10318000C4484069821C8A4200D0481E6A490979B5
:103190004A1E914146F7E8FB7548C06A8047199975
:1031A000306B0842FCD0624908683842FCD008689D
:1031B0000A460C998843106055480089452805D86F
:1031C0004621534A1181081AB04988633FF77DF8B8
:1031D000574A9068AD494863114608680006FCD517
:1031E00028890C998843288154480178288A169B9D
:1031F00018432882554A106818431060464A1089BF
:10320000189FB8431081688A012906D10D99884317
:103210006882129F2FE030BF74E00D9E30436882B9
:10322000688A18436882FEF7E3FF688A3043688241
:103230003B480B990162EFF3108087F310882988CF
:103240000C9A91432980002802D087F3108802E06D
:10325000002080F31088688D129F3842159E0AD096
:103260000020E04948720B2000F0A2FD8849C88D7B
:10327000189A1043C88500202883688D384206D1EB
:1032800083490888139A1043179A9043088022496B
:10329000088C139A1043179A90430884A88C189F9F
:1032A000B843A8840D20FDF767FE6889384311995B
:1032B0008843688168894006FCD50E986880A88A92
:1032C000C00603D51248801E1099018030BFA88A1D
:1032D000C0060E4F02D50E48109901806C4908882F
:1032E000179A10430F9B184008800B49088C104315
:1032F0001840088400F05EF814490868169A904354
:1033000008600D4962B63C8012E5C04600310050AD
:1033100002330050508DFC0704030050FFEF000003
:103320000000F4070850FC0758B9FC07C8FEFFFF6F
:1033300000020040FFFF1F0054BAFC07B4BAFC07AC
:103340003FFE0000001500503830005010ED00E046
:10335000FFE100002BFDFFFFD5020000AA050000E1
:1033600074BEFC0700FCFFFFFF03E0FF40420F00BC
:1033700058BFFC0710B569210D48415C143000228C
:103380008A4206D20368041F246823600830521C56
:10339000F6E710BD10B568210548415C00228A425D
:1033A00004D218C81C600030521CF8E710BDC0469B
:1033B000CC8BFC0770B5334DE88CC005324E1AD566
:1033C0003248407A012803D100F0E8FC1B2812D8CB
:1033D0002F4C2088C00400D4B08AFF201C302D4917
:1033E00008801B2000F0E4FCE08D01210143E18511
:1033F000E88C4007FCD5284828A118225BF77CFE02
:103400002CA02F491CC81CC1FDF769FB2D482E4973
:103410000160EFF31080012484F310882988402292
:103420000A432A80002802D084F3108802E000209A
:1034300080F310882548018825498A8980231A430A
:103440008A81244A0B25158008220A8000258D8058
:103450008A899A438A8103228A81848305848584A8
:103460000A48056304721D2120462246FDF738FEF6
:10347000062004212A46FDF733FE308820433080A1
:1034800070BDC046040000500C030050508DFC0776
:10349000520000500850FC0720000840F99DF0073A
:1034A00000000000E3A1F107000000004FA4F107B5
:1034B000000000000D05FC073B08FC074B09FC075A
:1034C000C000FC0700000840070010007C110050FD
:1034D00000110050C01100500549884200D000BEC4
:1034E00004480188044A11408918091D0180704769
:1034F0001111111112000050FC7F0000F8B50446B4
:103500000026234F302E0FD0BD19E88AFD2801D1A7
:10351000064969605DF7F2FE002803D082682846FC
:10352000214690471836EDE7F8BDC046AC45FC078C
:10353000B0B50025164C002826D1012D26D8FF2035
:10354000E082002020606060A060E06020611020C8
:103550002843C0B2A082214659F74BFC18346D1C99
:10356000EBE7E08A5DF7CAFE002802D041682046FA
:1035700088470020E0816060A060FF20E082207D1D
:1035800059F791FC18346D1C012DEAD9B0BDC04625
:10359000388CFC07B0B5D04DE978012921D112490A
:1035A000002803D008884007FCD402E008884007C0
:1035B00017D40023EB70C8888988000444181F20A2
:1035C0004006492122465FF74BFFA865E965642163
:1035D0004143080C286405486043800B401C4008A8
:1035E000A864B0BD508DFC070016005011110100F9
:1035F00010B5F24C082020701120FDF7BDFC03200F
:10360000607010BDFEB5624803250570614C204610
:103610001438016814220A436B218A430260A06AAD
:103620005D4988610020C043A06220683F21884333
:103630002060206859490840206060685849084067
:103640000121019189020291401860606068402167
:103650000143302081436160A069524908400B2139
:1036600049064018A061A0694F4908406902401806
:10367000A061A0691821014327208143A161432053
:1036800020714A4880474A4880474A488047404816
:103690000570009548480668484880474848804774
:1036A000206848490840F105401820603B4E4036EC
:1036B00020683040490C401820604127277160681D
:1036C00037490840029940186060384880473848B8
:1036D0008047384880472E48057037480568374886
:1036E000804737488047206836490840E905401838
:1036F000206020683040490C4018206027716068C5
:1037000027490840029940186060284880472848A7
:103710008047284880471E48009901702648006865
:103720002168284A1140C20589182160216831406A
:10373000254D0540A801081820606068019988435C
:103740006060154EB069A06220681C2101432320EF
:10375000814321602068114908402060A069114917
:103760000840072189064018A061A0690E49084059
:103770000F21C9014018A061A0691E210143212029
:103780008143A1610D4880470D488047F586FEBD05
:1037900005100040183000400850FC07FF7FFFFF75
:1037A000FFF9FFFFFFFFFFC03FF0FFFFD91BFC0742
:1037B000A11CFC075B0FFC0788300040B51BFC0711
:1037C000470FFC07FFFF7F00FF010000704700006C
:1037D000F0B58BB03022002181541F221204344BEB
:1037E0001D68954301246204AA181A60324B334DB8
:1037F0004561334D334E344F344AC26106624362F1
:103800002C4A8262C562324A07604260E004C74ABD
:10381000136883431360282903D001A84154491C2D
:10382000F9E72C480068403001A928225BF764FCC6
:10383000C24DAC73FFF7DCFEFFF7ACFDFFF79AFD5E
:1038400000F07EF900F00AFB00F06AF8FFF7DAFEFC
:103850002C7322480088072101406973FDF710FB93
:10386000FEF72EF8FEF740F81D490B881D48046846
:103870001D4A1440E31803601C4B1C8885691540E1
:103880002C1984615B88C4691440E318C3614B8AB6
:10389000046A1440E3180362898A436A1340591882
:1038A0004162A44802218170002101800BB0F0BD6B
:1038B000740000401D39FC071939FC07053AFC0764
:1038C000E939FC07E912FC07C139FC07C339FC07D9
:1038D000CD37FC074CB9FC07508DFC07B8100040F1
:1038E0001030004088A0FC070000FFFF643000405B
:1038F00080B5FFF77DFEFFF73DFD00F021F900F0F8
:10390000ADFAFDF7BDFAFDF7DBFF8A4802218170B1
:103910000021018080BDC046002070477047000034
:103920000E4908880E4A024001204302D2180A803C
:1039300041057E4A13688B431360810700224A6762
:103940001F2212044B6F93434004181848670868FD
:10395000E0220243102082430A6070473830005052
:10396000FFFC000080B51F20000401218A07536F6F
:103970008343480418185067106807218843106073
:103980000D48018808220A430280FFF731FEFFF745
:1039900001FDFFF7EFFC00F0D3F800F05FFAFFF74E
:1039A000BFFFFDF7A1FF6348022181700021018064
:1039B0000520FDF78DFA80BD08000050041000407E
:1039C000704780B5E62800D3E620282800D82820B4
:1039D000F9214A0042437D20C10010465BF712FBEB
:1039E0007F38C0B280BD00000548016807220A4345
:1039F0000260012080044D490A6882430A607047D2
:103A000030000040022902D0012900D000BE002869
:103A100002D0FF2804D000BE022901D10C2070473B
:103A2000D848807B002800D009207047F8B53F486F
:103A30000168C90703D0016802220A430260012419
:103A40000168490203D5A10502680A430260270202
:103A5000650237490095084608380668002E63D08D
:103A6000300606D58020086049F711FFFDF752FFA8
:103A70002F49B00704D50220086045F706FE2C49FF
:103A8000300714D508200860FCF7ECFF3D462746B8
:103A90000024204645F7B2FD25490420EB4AD072A8
:103AA0000220244A907014803C462F46009D3E42DE
:103AB00004D00F60012045F7A1FD1D492E4203D01F
:103AC0000D6049F74DFF1A49700604D54020086083
:103AD00045F78FFD1649F00604D51020086044F71D
:103AE0004BF9134970070FD5042008601249088864
:103AF000A043088059F7E8FC3EF7A2FDFDF70AFF56
:103B00000B490020F14AD072F00707D00C6059F73A
:103B1000F7FC49F7BCFE0649EC48C472B0069AD5DA
:103B20002020086000BE96E7F8BDC04600020040B5
:103B3000180000400410004008330050508DFC076E
:103B4000FCB57F2000025A4A516981430B200002D4
:103B500008185061106880B256494018106090698A
:103B6000554C044001235803009020189061032015
:103B700001900002146B04431463908F10240443DB
:103B80009487908818439080BD484C4A02604C4A04
:103B9000104610384B4CA58B054015204301E81802
:103BA0005030A0836069484D05404848281860613E
:103BB000A069474D0540092040022818A0612068EF
:103BC000444D05404448281820606068434D054036
:103BD000434828186060A068424D054042482818B4
:103BE000A060E068414D054041482818E060B748B2
:103BF000807B002802D1C120400100E03D483E4DBD
:103C00002860052080023D4F3880401DB880388CE8
:103C100055260643AA2086433E84FF266C3630464E
:103C2000C9303885364908460E30B885354838865B
:103C3000B986C01D388734482085A06B33490140C0
:103C400033480818A063334C2680208F10401F464D
:103C50002037C01920873048018811408919D53193
:103C6000018081881140C918818001891140C919DA
:103C700001812136A680294801881140C918603188
:103C80000180818A19220A4306218A438282A88FF1
:103C90002349014000980818A88722480168019A22
:103CA00011430422914301601F486866FCBDC04671
:103CB0002030004000008888FF00FEFF59055C07A7
:103CC0001FFCFFFF042000400000E0FF09581A001D
:103CD000FEE1FFFFE0E000000809294900000303BE
:103CE000696A686C031FFFFF70600000E0E0E0E0BD
:103CF0000B0A0A0820180009001000402813004091
:103D0000260A000051080000070F00002F64E0FEA3
:103D1000101A0601001200404412004088120040B0
:103D2000FF9F00008010004050015001F8B5642052
:103D300013490E5A654F3C6C304660431249401897
:103D400012495BF75FF9054638843C3666430E48F6
:103D500030180E495BF756F9001D0D49C860281848
:103D6000C01D48610B4A1278022A01D11130486106
:103D7000FEF7AEFA0849401880B259F7CFFBF8BDFC
:103D8000CC8BFC07508DFC0720A1070040420F00A0
:103D90000850FC07B4BAFC07E20400000D48018893
:103DA000890918220A4000888004400F8018704753
:103DB00008490A88084B1340F822024092011A432E
:103DC0000A800A88054B13404007800C18180880A9
:103DD0007047C04654000050FFF90000FFC70000C4
:103DE00070477047024801884906FCD57047C046B5
:103DF0001411005016480188012291430180704738
:103E000010B5324B00249C83D8621A6319836E4923
:103E100008200860BFF34F8FBFF36F8F0C490A88EB
:103E2000022414430C800A88802414430C80197ADD
:103E30004A1E9141C907FF221206064B1C68944393
:103E4000611819600449086010BDC046508DFC0718
:103E50000411005000E400E000E100E018B508485B
:103E6000016800910099074A009B1A40FF2424042E
:103E70000C40D9B20919044BC9181143016018BD8F
:103E80008000004000FF00FF0A000A00B0B50C46A9
:103E90000649884209D1481C022519462B4658F785
:103EA000A9FDA188018058F7C0FDB0BD0D0C000030
:103EB00080B50C214143054840186A21405CFF2829
:103EC00000D080BDFDF74EFB80BDC046508DFC0785
:103ED00080B5FDF747FB80BD02E008C8121F08C18E
:103EE000002AFAD170477047002001E001C1121F7B
:103EF000002AFBD170470000034880F3098800F0D6
:103F000025F8FCF705F9C0466058FC070420714607
:103F1000084203D0EFF309800A490847EFF308800D
:103F200008490847704704207146084203D0EFF360
:103F3000098005490847EFF308800349084770479F
:103F4000FEE700002912FC079111FC071A49888836
:103F5000072290438880052000078A89D2070DD068
:103F6000098800290AD115490A8802854A8882846D
:103F700089880184418A124A0A40428211490622F4
:103F80000A800121CA03104B1A60BFF34F8FBFF3A1
:103F90006F8F02221A60BFF34F8FBFF36F8F1960CC
:103FA000BFF34F8FBFF36F8F41890422914341814B
:103FB0000021018062B6704704030050A000FC0796
:103FC0007FFE00000034005080E100E017B96798E0
:103FD0004C664C01963331B1915900152368EC526F
:103FE0001E6244749A1BD18BAB75B66E9EE7BA08FD
:103FF000B9A948ABA1AC031C2E0D296C20EE8D0C89
:10400000E1F04A0CB325DC536A68862D28D5E1C15E
:10401000E1C54729B55765C3BA47159E4F43313CA3
:10402000939242E6A876FA3BEFB4875A8C09E0D126
:10403000815442408E4FD2B377E32A7720EE8D0C25
:10404000E1F04A0CB325DC536A68862C4F43313CBF
:10405000939242E6A876FA3BEFB4875917B967986E
:104060004C664C01963331B1915900142368EC52DF
:104070001E6244749A1BD18BAB75B66D28D5E1C115
:10408000E1C54729B55765C3BA47159D0000000033
:104090009C40FC07708CFC0704000100A440FC0756
:1040A00001000000FFFF0000A932F2070214000027
:1040B000E91BFC07010D00006120FC07000D00005A
:1040C0001920FC07000E0000711EFC07010E000005
:1040D000951EFC07030E0000FD1EFC070A0E0000E3
:1040E000491FFC070C0E00000520FC071C0D0000FA
:1040F0008D20FC07100D00001120FC070F0E0000A2
:10410000ED1FFC072C0E0000E51FFC07120C000041
:104110009D20FC07080E0000F51FFC071B0E000089
:10412000FD1FFC072116FC079916FC074116FC072A
:104130007916FC07ED14FC073D14FC07F80000009D
:10414000130E0000091EFC07150E0000E11CFC0701
:10415000170E0000451FFC07190E00002D1FFC075D
:10416000150D00000D20FC07210D00009920FC0713
:10417000220D00009520FC070800049000000000BC
:1041800000000000030005D08B0035F010005CF04B
:10419000000010B0000018B000001AB0030051F089
:1041A000000038B000003AB0000064B0000066B013
:1041B000000022B0000024B0010005D00000000083
:1041C0000A00008008030490000004F0030006D0F9
:1041D000000000000A00008008030490000004F0C2
:1041E000030006D00000000003280028022901294E
:1041F000FD0000002842FC072D0000000914FC0708
:10420000000000000000000000000000FF000000AF
:10421000000000000000000000000000000000009E
:104220000000000000000000EA41FC071000000050
:1042300001000000100010000146FC07E841FC07E7
:10424000020000000100000000000000000000006B
:10425000FC3FFC0710000000080002000100000005
:1042600000000000EE41FC07020000000100000019
:104270000D000D00104AFC07E841FC070200000099
:104280000100000000000000000000001C40FC07CE
:104290001000000008800000018000000000000005
:1042A000EE41FC07020000000100000009000900C7
:1042B000EE49FC07E841FC07020000000100000095
:1042C0000000000000000000CC3FFC0710000000D0
:1042D000010200000200000000000000EC41FC07A9
:1042E00002000000090002000200000000000000BF
:1042F000EE41FC0702000000010000000B000B0073
:10430000A249FC07E841FC07020000000100000090
:104310000000000000000000DC3FFC07100000006F
:10432000010000000200000000000000EE41FC0758
:1043300002000000010000000B000B00B649FC0762
:10434000E841FC070200000001000000000000003E
:1043500000000000EC3FFC0710000000010200001C
:104360000100000000000000EC41FC07020000001A
:10437000090002000200000000000000EE41FC07FE
:1043800002000000010000000C000C00F849FC07CE
:10439000E841FC07020000000100000000000000EE
:1043A000000000000C40FC0710000000410000006D
:1043B0001400000000000000EC41FC0702000000B7
:1043C000090002000200000000000000EE41FC07AE
:1043D00002000000010000000C000C00D049FC07A6
:1043E000E841FC070200000001000000000000009E
:1043F000000000002C40FC07100000000902020031
:104400003200000000000000EC41FC070200000048
:10441000090002000200000000000000EE41FC075D
:1044200002000000010000000A000A00054AFC0723
:10443000EA41FC071000000001000000100010001D
:104440001146FC07E841FC070200000001000000E3
:1044500000000000000000003C40FC0710000000CD
:10446000080002000180000000000000EE41FC078F
:10447000020000000100000008000800E549FC07F8
:10448000E841FC07020000000100000000000000FD
:10449000000000004C40FC071000000008800000F5
:1044A0000100000000000000EE41FC0702000000D7
:1044B00001000000110011007F49FC07EA41FC07E0
:1044C0001000000001000000100010002146FC0751
:1044D000E841FC07020000000100000000000000AD
:1044E000000000005C40FC0710000000010200001A
:1044F0000200000000000000EC41FC070200000088
:10450000090002000200000000000000EE41FC076C
:104510000200000001000000100010009149FC079B
:10452000E841FC070200000001000000000000005C
:10453000000000006C40FC071000000001000000BB
:104540000200000000000000EE41FC070200000035
:104550000100000007000700DD49FC07E841FC07F7
:104560000200000001000000000000000000000048
:104570007C40FC0710000000410000000200000029
:1045800000000000EC41FC070200000009000200EE
:104590000200000000000000EE41FC0702000000E5
:1045A00001000000120012006C49FC07B445FC0732
:1045B00009000000130C00004B29F207150C000045
:1045C000A520FC07170C0000572BF207000C000079
:1045D0002328F20706FD00005728F20703FD00001C
:1045E0003728F20708FD0000B328F2070EFD00008F
:1045F0000F29F20705FD00003D19FC07001A212DC7
:1046000003595A08E4862A9E8FE911BC7C984342DC
:1046100018595A08E4862A9E8FE911BC7C7C4642D0
:1046200018595A08E4862A9E08E911BC7CD04742F2
:104630001800000001000001B509FC07010000029C
:10464000A50AFC070000000000000000F4011700AC
:10465000F4352348F40108C4140A000014000000D3
:10466000B514FC0700000000FF000000000000007F
:104670000000000014000000ED14F207FD0000002F
:104680002126F207FF000000000000000D15FC07C6
:104690005914FC072C4AFC078D3EFC072441FC07FB
:1046A000B88DFC07A48CFC07718CFC07050000008A
:1046B0006058FC07000400004492FC07AC020000B4
:1046C000388EFC0700040000FC94FC077005000015
:1046D0002003000000A60E0004000000D20000002D
:1046E000320000003C00000001000000010000005A
:1046F00002000000020000000400000003000000AF
:10470000060000000000000002000000020000009F
:104710000000000000000000030000000300000093
:104720000500000005000000060000000A0000006F
:104730000A000000C8000000B80B000002000000E2
:10474000B80B0000B80B000010000000D4010000FE
:10475000CC010000700200006A00000004000000AC
:1047600001000000200000000A000000010000001D
:10477000E20400008A020000DC050000AF00000037
:104780005849FC079847FC07CC47FC076049FC07E1
:104790008C46FC07A847FC07A8B8FC07A0B8FC0794
:1047A000B8B8FC07F8B8FC075E50FC07C08BFC07E4
:1047B000C18BFC07C48BFC07C88BFC07013EFC07C0
:1047C000E53DFC073518FC070118FC07FC45FC0714
:1047D0000046FC072842FC07B519FC07D137FC0747
:1047E0006539FC0793DEF007F1DEF007F9DEF0072C
:1047F00049DFF00761DFF00777DFF00799DFF007A7
:1048000019E3F007BDE5F007FDE3F0071DE4F0074D
:104810003DE4F0077BE4F0078BE4F007F5F9F007DF
:10482000B1F7F007CFF7F007EBF7F00705F8F0075F
:1048300019F8F00797F8F007AFF8F007DFCDF107A8
:1048400067D0F107DBB9F007CD0DF207B10EF20723
:10485000AD0EF207A90EF2078D21F007D934FC073F
:104860006D22FC07AD22FC070523FC07FD22FC0797
:10487000B57EF007837DF0072501FC07599EF107FF
:10488000634CF1073135FC07D110F207FD34FC070A
:10489000B111F2074112F2077912F207000000008D
:1048A000C519FC07C719FC07B9C6F007D592F1076F
:1048B000B301FC075F9DF1075F9CF107C504FC078E
:1048C000EB72F107B922F1076B04F1073919FC0704
:1048D0002BA4F007F1D2F0075FBDF007D5BDF007BC
:1048E00085BEF007DB2DF007752EF0071581F00768
:1048F000DF7FF0070937F00700000000911BFC077D
:10490000991BFC077D18FC07F3C3F10775C4F10779
:1049100003C5F1079518FC07000000000000000027
:104920000000000000000000000000000000000087
:104930000000000000000000000000000000000077
:104940000000000000000000000000000000000067
:1049500000000000000000004C46FC07A08DFC0792
:104960007446FC07388CFC07020000005265616445
:10497000206D652028696E6469636174652900573C
:1049800072697465206D6520286E6F2072737029BE
:104990000052656164206D6520286E6F74696679C8
:1049A00029004144432056616C7565203100444123
:1049B0003134353331004144432056616C756520F4
:1049C0003200765F362E302E32342E3134363400BB
:1049D000496E64696361746561626C65005265610A
:1049E00064206D65005772697465206D65004C45E3
:1049F0004420537461746500427574746F6E205363
:104A000074617465004C6F6E672056616C7565004B
:104A1000436F6E74726F6C20506F696E740000008B
:104A20004449414C4F472D544D504C00B13EFC077A
:104A3000D13EFC070000000000000000F51AFC0752
:104A4000000000000000000000000000F519FC0755
:104A5000000000000000000000000000051AFC0734
:104A6000FD19FC071D1AFC07051BFC0700000000D0
:104A7000851BFC07C919FC070000000000000000AE
:104A800000000000AD1AFC073D1BFC070000000001
:104A900000000000311AFC070000000000000000C8
:104AA0000000000000000000000000000000000006
:104AB00000000000000000000000000003000010E3
:104AC00000010000F84AFC07F84AFC0768060000ED
:104AD000E83EFC07F84AFC076051FC0700070000AD
:104AE000E83EFC07C08BFC07C08BFC077802000087
:084AF000E83EFC070E00000087
:0400000507FC0111E2
:00000001FF
