:0200000407FCF7
:10000000F857FC07B940FC07CD40FC07E740FC0768
:100010000141FC070141FC070141FC070141FC07CC
:100020000000000000000000000000000141FC078B
:1000300000000000000000000141FC077B13FC07EA
:100040000510FC07793AFC07A526F0077D13FC078D
:10005000A912FC070141FC07C90FFC070141FC077D
:10006000D50FFC070141FC074511FC074F11FC07A8
:100070005911FC076311FC076D11FC070141FC07D6
:100080001114FC070141FC070141FC07B110FC07FA
:100090000141FC070141FC070141FC070141FC074C
:0800A00000008E070E000000B5
:0200000407FCF7
:100110000348854600F040FF00480047BD22FC0729
:10012000F857FC07F8B50746012000230246009067
:100130001946032049F766F9044602218030017010
:10014000FF4DFE482A6843881146FF31F7310B8680
:1001500080884886FB48066A0123DB069E431E43CF
:100160000662FF320020FF32383250829082D08205
:100170001D200882F4484884F448C882F448088363
:1001800000204882384649F77DFC01462868FF3048
:10019000F730C28B920992010A43C283ED4841684D
:1001A00000208847002C02D0204648F714FD204646
:1001B000F8BDFFB58BB0064616980027022821D05F
:1001C0000D9801881498814278D371880846403888
:1001D0003F2802D8159855F711FD0C98361D008858
:1001E000149A80190E995EF787FF0C98018814986D
:1001F00008180C9908800D9801881498081A0D9910
:1002000008805CE100200E9D079069782C78090237
:1002100021433180E978AC780902214371808C4612
:10022000403904242D1D024603468E46402900D342
:100230002878614604291FD0052914D0062918D032
:1002400070463F283DD8159855F7D8FC0006000E9B
:1002500004D0C148008D0006C00F30D00223012019
:10026000BE4A002712E0697800290FD0BC4A172344
:100270000CE0BC4A0F2309E0522802D0D22802D059
:1002800002E0142000E01520B74A1F23002A1AD0EC
:10029000984218D2800010580490002813D00020F3
:1002A0000890059070884038402803D328780524AA
:1002B00030716D1C701D00900498B5E0FEE0302791
:1002C000F0E03327EEE07088042872D10627E9E0D9
:1002D000522862D00CDC4B283FD004DC41286AD085
:1002E000422858D111E04C2820D0502853D140E06A
:1002F000632830D004DC572818D061284BD19BE00C
:100300006C2864D0772846D109E0009829780170DC
:100310000098641C401CA4B26D1C009081E00498FD
:10032000401C04900178089881427AD10098A41C5E
:10033000401C41084900881C009068782A78000217
:10034000104308800599AD1CA4B2002969D008901B
:100350000020059065E00120FBE710222946009867
:100360005EF7CAFE009810341030A4B21035009029
:1003700057E0204640301499039088420BD8402221
:10038000294600985EF7B8FE009840300090039828
:10039000403584B245E0342743E0082229460098DE
:1003A0005EF7AAFE009808340830A4B20835009021
:1003B00037E068E0FFE70622294600985EF79CFEDA
:1003C0000098A41D801DA4B2AD1D009029E01498D2
:1003D000001B80B203903088001B001D81B20120F9
:1003E00007900498401C04900098401C400840006E
:1003F00000900498007857281CD04228CBD1009850
:100400000170090A417000982946801C0090039AE7
:100410005EF772FE03980399201884B20098401882
:1004200000900498401C0490007800281ED0002FF3
:1004300017D01BE04908E2E71498001B81B200982E
:100440000391401C40084000009001200A4607909C
:10045000294600985EF750FE0399601884B2009810
:10046000DDE70D990988A14200D331E70D98008896
:10047000A04208D304990978002904D107990029DA
:1004800003D1A04201D034270CE00D99001B088055
:100490000C9801880098801B001F08180C99002FE9
:1004A00008800CD07088042809D0062807D040386E
:1004B000402804D30E984079707100E03427384604
:1004C0000FB0F0BDFFB581B01F4616460C46104672
:1004D0005CF7D6FC00257F2802D02189062909D0A7
:1004E0003B4632462146019855F71BFF05462846F4
:1004F00005B0F0BDC00601D50225F8E72078002838
:10050000F5D1300AA11D42F7A4F8F0E7F1B598B093
:10051000189842F79CFA0446189805210079134A66
:100520004006C00F099068460184618B08460A386E
:10053000904276D2E08A062873D319E030BCFC07DB
:100540004CB9FC07C00000401080000029410000A9
:100550007671000058BFFC0748BEFC073803F2075D
:100560004003F2079C03F207D803F207770C000060
:100570001922D201904254D8228BFF23F5339A429C
:100580004FD8521C9300D2184243521C0A235210D7
:1005900059438A4245DC217F00290CD1617F002923
:1005A00009D1A17F002906D1E17F002903D12021B3
:1005B000095DC90635D0274620377978C906C90EA6
:1005C000491F0C292DD2A18A81422AD8E17C002919
:1005D00027D0421E082A01D9082000E0401E81428F
:1005E0001FD8684646F7F4FA00281AD1FE4D0622B5
:1005F000286221460AA85EF77FFDA8792E46803E34
:1006000000287DD06079800901280BD00AA80999BB
:100610004CF7ADFD010003D03820405C002870D0BD
:100620009BE008E1F06A807A012808D0042806D00F
:100630000AA84CF709FE286200284ED054E0686AE8
:1006400006220AA932305EF77BFD002806D00AA8F0
:100650004CF7FAFD2862002802D012E0686AF9E738
:1006600000210AA84CF706FE2862F16A897A01295E
:1006700005D18B071A6849068A430A431A60002885
:1006800011D0F16A286A0622253010315EF758FD34
:10069000002808D1286AF16A2030C07AC97B8842D4
:1006A00001D1286A1EE0D148D1490088C96880B2CA
:1006B00006225043081842F7CFF9014614A8062233
:1006C00002305EF719FD13AA00213C2042F791FC8D
:1006D0000121B06D47F7B8FEA9E011A90AA84CF7AF
:1006E000C9FD2862002838D00146253106220FA80E
:1006F0005EF702FD286A08AA2030C17A0FA801E03F
:1007000041E024E04CF716FC002812D0286A203083
:10071000C07A002809D16846B649008C4BF77DFBAA
:1007200008AA0121B3484CF705FC68460AA9008CC9
:100730000AE008AA012111A84CF7FCFB00280CD004
:10074000296A6846008C32314BF77DFB05E00A18B8
:10075000527D002A08D010286DDBF06A407A02280A
:1007600006D0032804D00EE0401C1028EFDBF4E78D
:100770006846008C052806D308AA0AA809994CF7F0
:10078000D9FB002857D00022694620464CF77BFC55
:10079000002850D1F06A407A02280BD0032809D0F3
:1007A0000023684602880AA809994CF78DFC0028A6
:1007B00002D02FE00123F4E7E18A68460181218B12
:1007C0004181618B81817878062241096846817573
:1007D0007878C106C90E6846417521460E305EF72D
:1007E0008BFC189800794006C10F68460175038894
:1007F000214602A8B26D47F7CDF90146B06502A8BF
:1008000042F745FC0020B065214668461C3100884F
:1008100046F731FA49F7B0FA734C2034207A0028B1
:1008200005D0002109205CF76EFC00202072002119
:1008300008465CF710FB19B0F0BDF8B56E4C0646E3
:1008400085000F4660594C21095C24290ED140696E
:100850001022791D2E305EF74FFC61592520403162
:10086000087300221146304654F71BFB60594C2197
:10087000095C0C291FD140691022791D2E305EF7CA
:100880003BFC60595F214069095C09072DD4014692
:100890002E3110221E305EF753FC00280CD0605918
:1008A000092140300173304655F718F801460022FF
:1008B000304653F775FEF8BD0421684601706A465C
:1008C0000521304654F716F8684601786020014348
:1008D00068460170304655F701F8014668460278CF
:1008E0000123304653F771FFF8BD304654F7F6FF49
:1008F000012809D0605907214030017300221146B8
:10090000304654F7CEFAF8BD615900204969C0312C
:10091000887160590421426930461E3253F7EAFF5C
:10092000605941694031897F002907D01A21403040
:1009300001730021304654F73EFBF8BD1B214030C7
:100940000173304654F78CFBF8BDF8B52A4C0546C8
:100950008600A0594C22125C192A11D140224D3038
:10096000491D5EF7C9FBA059402224494D305EF76E
:10097000E7FB002805D02149284620395BF74BFDCD
:10098000F8BD0B21684601706A460521284653F7D9
:10099000B1FF68460178602001436846017028462F
:1009A00054F79CFF0146684602780123284653F716
:1009B0000CFFF8BDFFB581B003980C46060A002570
:1009C0005CF75EFA002827D0132825D0142823D0FE
:1009D0000B48B700C0592030407BC00637D503987C
:1009E0005CF74EFA15280DE030BCFC0768B9FC072F
:1009F00060BBFC0750F5F1073CBEFC07FCBDFC07E3
:100A000078BBFC070CD0A07942F714F8304647F7C2
:100A1000AFF8032806D015E0A07942F70BF81FE0E5
:100A200002251DE03248C0592030407B400704D5E4
:100A30003D21304642F7FCFC04E03D2200213046D7
:100A400042F705FD3D21304646F7DAF808E020463A
:100A5000103828490181468120464EF7C3FD012503
:100A6000284645E524485222006864308188C37EC8
:100A70005143224A12688918FF225F32525AFF31CD
:100A8000120AD21A01310B8CD2B2DB0B09D00B8CBB
:100A90005B045B0C0B84002A03D18088184A012177
:100AA00011547047FFB51746140A81B0104A0298D6
:100AB000A100515840780026114D002907D0295D2A
:100AC000002905D0002803D1204643F715FF2E55F5
:100AD0003A46049B0299019844F79FFE08E50A48AC
:100AE000084901600949416070477047704700003C
:100AF00078BBFC070608000084BBFC074CB9FC0768
:100B0000C98BFC070459F007C0000840490C00BF1E
:100B10007FB5E4486B460188428889186A4611808F
:100B200001214C0022181546403DED8F065B52888E
:100B3000AD19AA18491CC9B21A530729F1D38189E2
:100B4000C089081881B2D981D888002821D0188995
:100B5000002820D0988800281FD0588900281ED04F
:100B6000988900281DD0588800281CD000291CD046
:100B7000188800280BD00720062254001C5B8C42EA
:100B800001D22146D0B2521E52B2002AF5DA04B088
:100B900070BD0320FBE70420F9E70220F7E70520FA
:100BA000F5E70620F3E70120F1E70720EFE7F0B5CE
:100BB00095B0EFF310801090012080F31088BA48B0
:100BC000816B4A07520F69460A800A92816B0122A3
:100BD000C908C9008163B5498B8869464B800224E6
:100BE000B24B00219980C16A09078B0F69468B803F
:100BF0000F93C16A0C2399430831C162052109078B
:100C000009880906CB0F6946CB800521090709939E
:100C100009888023194305231B071980A449898A61
:100C20004906CB0F69460B81A1490893898A402365
:100C300019439F4B9982016A09074B0F69464B8103
:100C40000C93036A0E218B4303629B4D99486860A5
:100C5000FF204030A8602888A0432880974841683A
:100C60000B071B0F69468B810B934168090909012A
:100C700008314160416849064B0F6946CB810D93AD
:100C8000416870239943603141608748403801686A
:100C90008904CB0F69460B820293036841140B430E
:100CA00003600168CB07DB0F69464B820E93016836
:100CB0001143016041688903CA0D69468A82039223
:100CC0004168CA05D20D6946CA82049281688903C7
:100CD000CA0D69460A8301928168CA05D20D694628
:100CE0004A8305924168764A11400322D20389184B
:100CF00041604168490A4902FF31413141608168E0
:100D00006F4A11400322D203891881608168490A21
:100D10004902FF3141318160642000F02DF9A8893A
:100D200069468007C00F8883A8892043A8810024D2
:100D3000604F288800260121084328800A2000F0FF
:100D40001BF9FF205F4941303A680A4200D0761C07
:100D5000401E3F1D0004000CF6D1A88A8004FCD17F
:100D60005149886B671CC208D2007807400F0243C4
:100D70008A630A2000F000F960004A49FCB20E5272
:100D8000082CD5D348480A99826BD208D2000A436E
:100D900082636946454A498891800F998A00C16AF1
:100DA0000C2399431143C1620999CA01052109071E
:100DB000098880239943114305221207118008995D
:100DC0008A013B49898A402399431143384A9182D9
:100DD0000C994A00016A0E23994311430162374876
:100DE0000B994268120912010A4342600D99426848
:100DF000090170239A430A434260029841032A483A
:100E00004038006801225203904308432649403984
:100E100008600E9809684908490001432248403893
:100E20000160039842022048403840682449084045
:100E300010431D4A403A506004985268520A5202C8
:100E400002431948403842600198174A4002403A2C
:100E500092680A400243144840388260124905985B
:100E600040398968490A490201430F484038816086
:100E70001098002800D0012080F3108815B0F0BD34
:100E800010B5114C2078002808D0FFF790FEFFF72E
:100E90003FFE0E4908700020207010BD02F0D8FB04
:100EA0000120F9E7904FFC0780100040001200403D
:100EB00020300050904AFC07003500504020004090
:100EC000FF01FCFFC0C0C0C0DC8CFC07DA8CFC0753
:100ED00010B5FF22154901320A60BFF34F8FBFF3EF
:100EE0006F8F13490A6013490B6840241B0A1B02C9
:100EF00023430B601049898A0021C30700D03521A4
:100F0000830702D57D231B021943430702D57523AE
:100F10001B041943000702D53D2000060143064883
:100F20002038016301488038026010BD80E100E094
:100F300080E200E008E400E0A010004010B50620C8
:100F400000F01AF810BD10B5092000F015F810BD1A
:100F500010B5812000F010F810BD10B5044800F065
:100F60000BF810BD10B5034800F006F810BD0000E6
:100F7000010200000108000000280CD000BF00BFE3
:100F800000BF00BF00BF00BF00BF00BF00BF00BF69
:100F900000BF401EF0D170471CB5094800900948B9
:100FA000019005460126009C05E0E36807CC334329
:100FB0000C3C98471034AC42F7D3FFF7ADF8000073
:100FC0005C4AFC078C4AFC070148012101807047FC
:100FD0000E1500500A48011F0988CA0706D002886A
:100FE00007239A432E4B9B7A13430380490706D568
:100FF0000188072291432A4A527B0A4302807047A4
:10100000B8100040B0B5D64B082018800520000766
:101010000188302211430180048803210C4304809D
:101020001C896407FCD403889343038003888B43A3
:101030000380F54C638C4380A38C9D1E194B5D800F
:1010400007251D8005881543058005880D4305800B
:101050001D886D07FCD403889343038002888A436C
:1010600002804289920702D042898A4342810189E3
:1010700080220A430281018A042291430182818AEB
:101080008907FCD541F74DF9A06B0749086007486F
:101090000168490700D500BE01684907FCD5B0BD0D
:1010A000D08CFC07001600500802004010000040E1
:1010B000FEB51F48058801200190C004029000245D
:1010C0001C4E1D4F002D32D0042C30D2E80729D001
:1010D000B889000605D438897989401A41424141CE
:1010E00000E000210198A040114A50803889029AFE
:1010F000124B1A60BFF34F8FBFF36F8F002907D0D9
:10110000B989019A9143B981B98908229143B9817A
:101110003268002A03D0411C706889B29047029857
:1011200007490860103708366D08641CCAE7FEBD21
:1011300082360050388CFC070036005080E100E019
:1011400000E100E080B50A2000F04CF880BD80B5D9
:101150000B2000F047F880BD80B50C2000F042F86D
:1011600080BD80B50D2000F03DF880BD80B50E201B
:1011700000F038F880BD0000F8B51746009105462C
:101180000126002130462A465DF7FAFFD44A53680B
:101190000B40146804401C4300D100BE54680C404E
:1011A00013680340002F06D0234300D100BEAE4099
:1011B0000B4C268005E0234300D100BEAE40084C16
:1011C000668053680B4011680140194300D100BE8E
:1011D0006800201803210902009A51188180F8BD87
:1011E00002300050F0B503460A3B01210A469A40FE
:1011F00093B20B4D5C19661C5E400A4B1C8800279D
:101200002E4203D07F1C7608B6B2F9E79443BAB2F7
:101210000D46954025431D80814050480160F0BD3A
:10122000FEFF01000E140050F8B5044601273E02EF
:1012300005200507688DC00506D51B2002F0E0FDDE
:101240004848018839430180803628884001304071
:10125000698A454A0A4002436A822168114801604E
:1012600061684160A1688160E168C16021690161D4
:1012700061694161A1698161E169C16104623C49BF
:101280000A6842624A6882628A68C2624A69026384
:10129000CA68426309698163A88AC00600D4FEE770
:1012A00000BEF8BD0090FC07024800882B481021C2
:1012B000016070472C130050F8B50446052005075F
:1012C000288A042101432982288940210143298158
:1012D0002248012707602248082101803E02688DCC
:1012E000C00506D51B2002F08BFD1E48018839433E
:1012F00001808036288840013040698A1A4A0A40B5
:1013000002436A8221681948016061684160A168EE
:101310008160E168C1602169016161694161A16920
:101320008161E169C161046211490A6842624A68E7
:1013300082628A68C2624A690263CA684263096952
:101340008163A88AC00600D4FEE700BE688A094906
:1013500008404018001D6882F8BDC04680E200E0E9
:1013600000330050800000507FFE00005090FC07CA
:1013700028ED00E0FC7F00007047704770B5214CFD
:10138000DB4D224EA1880F200840022809D00428F6
:1013900004D00C2820D00128F4D132E002F052FD14
:1013A000F0E7AA8B288C90421DD2296B9042E9D29B
:1013B000A288C0231340C02B03D13288920703D4E4
:1013C000E0E7228A9206DDD5421C2A84085C221FAF
:1013D0001080AA8B288CE9E702F034FD20880121D7
:1013E00088432080CEE720880221884320802088FF
:1013F000802188432080696B0029C3D0A88B88474F
:10140000C0E770BD04110050D08CFC077C11005067
:1014100005210807028830239A43028002880323AB
:101420009A430280828812050DD5184A13880B4012
:10143000052B08D110880421014311801088012157
:101440008843108070478188C90606D510498A886C
:10145000D20702D00A88120610D48088C0060CD5A4
:101460000B488188890708D50188C90505D502215F
:1014700081800188074A0A400280704701208880E5
:1014800008888022904308807047C04600020050C0
:1014900000010050FFFE0000F8B51620944F3856AA
:1014A0000F4C2546143533340028294600DA2146EE
:1014B0007F2210400E1801F01DFF394664310622CC
:1014C00030465DF719FEFB7CB97C2846224662F760
:1014D00033F80448044900F019F93875F8BDC046DE
:1014E000488DFC07B80B00009914FC0770B536480E
:1014F00009210424182322465BF77CFA05461B20A9
:101500002870FD26304662F7C7F80021A982E960FD
:1015100029616C606E80687028465BF786FA70BD42
:101520001FB51446002202920192069A00921A46B2
:10153000234661F7DDFE04B010BD000010B5F4488D
:10154000C17B124ACCB20C236343D45CFF2C06D07F
:10155000D318491CC1735B68002BF3D00DE0017CEC
:101560000B4ACCB21C236343D45CFF2C08D0D318A5
:10157000491C0174DB68002BF3D09847002010BD94
:101580000021C1730174012010BDC0461C46FC0738
:101590001843FC0770B50C48092104240A2322468D
:1015A0005BF728FA05461B2028701426304662F7A0
:1015B00073F8FF21743129816C606E806870284651
:1015C0005BF733FA70BDC0461B0D00001FB5144613
:1015D00001220292044A0192069A00921A46234678
:1015E00061F786FE04B010BD1C42FC07F8B5C84F79
:1015F000786D00283FD12248092104222C235BF773
:10160000F9F904467865172020841E4820800120BF
:10161000A0760025658020460A3010215DF785FD03
:10162000201D00901848461D1849062230465DF7D7
:1016300087FD002801D000BE04E03E465E363046FD
:1016400000F052FA0622009831465DF755FD658498
:10165000E583A5832020E0767E210D48415AFB29B1
:1016600000D3FB21E1848021405A0A49884200D3FB
:1016700008462085786D5BF7D8F900207865F8BDBD
:10168000040D0000030A0000304AFC07DCF1F107FA
:10169000B0BBFC074808000070B5154DE86C002889
:1016A00000D070BD13480921042252235BF7A2F930
:1016B0000446E864072020720F48E080A0800D20D7
:1016C00020800026A6721622E27201206072204657
:1016D0000C300A495DF710FD2B20265420462B3094
:1016E0002C34082106A3224661F714FFE86C70BD74
:1016F000D08CFC070D0D00004C040000C049FC0715
:10170000444C472D5052504800000000B0B50246EE
:101710000024604823460A2B0BD00568002D02D018
:10172000001D5B1CF7E701605C1CE0B2114600F095
:1017300053F9E0B2B0BDC046F8B50446401E0928D2
:101740001BD8A00053494018071F3868002816D03E
:10175000524DA84213D04D482018401C0426314653
:101760005BF7D1FC3D6008234848314632465BF7C1
:1017700041F904705BF759F9F8BD00BEF8BD00BE31
:10178000F8BDC0461FB514460D220292044A0192CC
:10179000069A00921A46234661F7AAFD04B010BDCE
:1017A0002442FC07B0B50C46A749884231D0364ADE
:1017B00090421CD0354988423CD12078401E0928EF
:1017C00056D88000334A1158344B994252D032488F
:1017D000814253D12C48042108230A465BF70AF9B9
:1017E00021780170616841605BF71FF946E020785D
:1017F000411ECAB2092A39D88900264A5358264DB3
:10180000AB423BD151188A6A0A60616800F0E4F883
:1018100034E06268002A01D100BE62681C4882423E
:1018200001D300BE626820781749401804215BF795
:1018300020FC23E0531C0121984222D30A3290421B
:101840001FD8C1B2091F8A00124B9958002915D020
:10185000114CA14212D0114CA1420FD09A18C01EB7
:10186000002313609362C0B2884707E000BE05E022
:1018700000BE03E01018002101608162049800217D
:1018800001700846B0BDC046030400000204000019
:10189000FDFF3F00C08DFC07333EFC07313EFC07D7
:1018A0004C488178491C81700178002900D070472C
:1018B00067490023CB7017490A780B70012A01D0C1
:1018C000012100E00221022A00D1032101707047AA
:1018D00040488178002904D0491E8170090600D053
:1018E00070474178012902D10021018070470178B9
:1018F0000029F5D000220270FE2008400228EFD116
:1019000053480122C270481E024908707047C04601
:10191000D08CFC07B4BAFC07B0B50C460025202DCE
:1019200004D040F7ECFF60556D1CF8E70020B0BD17
:1019300010B504460548064970225DF7DDFB0548F1
:10194000001B054908801430488010BD70A0FC07BA
:10195000A042FC07B8A0FFFF78A0FC0710B507481D
:101960000188074A1368114C2340591811604088B8
:10197000516821400818506010BDC0461830004022
:101980008CA0FC0710B507480188074A1368074C6C
:101990002340591811604088516821400818506050
:1019A00010BDC0463830004098A0FC070000FFFF83
:1019B00007481E214180018803220A4302800188D2
:1019C00004220A43028003480121C1707047C046C7
:1019D00000160050D08CFC0770B50C46054619491E
:1019E0000888000618480ED5184A126812040AD44E
:1019F000174A1288D20706D14019801C04212246BA
:101A00005BF737FB70BDEFF31083012282F3108880
:101A10000988090603D40F490E8816430E80002B4F
:101A200002D082F3108802E0002181F310880421A3
:101A300008230A465AF7DEFF446005705AF7F5FF9F
:101A400070BDC04608000050010400003000004096
:101A500054BAFC07083300507047000070B51446B4
:101A60000D4610465BF70CFA01282ED128780102AA
:101A70000831AA791648002A0CD089B206232246DA
:101A80005AF7B8FF0646A87860F7D0FC3080A879EE
:101A9000307113E0AA8889B2921D93B222465AF798
:101AA000A9FF0646A87860F7C1FC0021317130809B
:101AB000AA887280701DE91D5DF71EFB30465AF73B
:101AC000B4FF002120465BF7C6F9002070BDC04678
:101AD000140C0000FD2801D000207047004870471A
:101AE0001843FC077047704710B5044640793F28FB
:101AF0000FD840F704FF2070010EE170010CA170B7
:101B0000000A607040F7FBFE2071000AC02101430B
:101B1000617110BD80B502F0E1F980BD7421F04A19
:101B2000515A01807047C04680B55222EC498A5C08
:101B30000270401C53315DF7DFFA80BD7D21C1800A
:101B4000002181801021418008210180704780B5EB
:101B500061F7B6FC002801D002F0C0F980BD00009A
:101B600010B50C46017801290CD0002910D142880B
:101B70005221DB4B5A545333011DD2B218465DF744
:101B8000BBFA03E040887421D54A5052002000E09F
:101B90004820207010BDC046002088804880012069
:101BA0000870704780B55FF7E7F980BDF8B5694602
:101BB000C870020A8A70020C4A70000E087008464B
:101BC0005FF7C2F98FBD000080B599480021016020
:101BD000FFF7BEF9944800781F214901914A136824
:101BE0008B43C006800DC018106080BD80B58F4843
:101BF00002210170FFF7A2F980BDC046F8B51F466B
:101C00000C46087808281CD80725002100911AA640
:101C1000784400794000874419040C0406060F0933
:101C200012001A4E12E00D25174E0FE0062514A6DD
:101C30000CE00A2516A609E008251AA606E017A654
:101C400004E000BE0026012000903546AB1C184879
:101C500039465AF7CFFE0746207838707D700098D5
:101C6000002804D1B81C31462A465DF745FA3846AB
:101C70005AF7DBFE0020F8BD52656E657361730094
:101C8000FFEEDDCCBBAA00003449FC072C49FC0761
:101C9000312E302E302E302D4C45000001D20080E8
:101CA00005000100123456FFFE9ABCDE0000000061
:101CB00003140000F0B50A79530140241C401301BD
:101CC00080251D401609360275192C19D2002025D1
:101CD0001540621910241C4012190B785B0008246F
:101CE0001C40121906241C401219CB79DB079B0CEF
:101CF0004C796508ED07ED0CEB18E407240D1B1972
:101D0000134383818A790F2A43D0354A82180423EA
:101D1000DA41931E022B1BD3012A3AD8EFF310832A
:101D2000012282F310888D792E4C2688F6B236096E
:101D3000B54203D12688F0273743278026880F270E
:101D4000BE432E432680002B1CD082F3108820E057
:101D5000EFF31083012282F31088224C27880F268C
:101D600037408D79AF4202D12788374327802688B4
:101D7000F027BE432D0135432580002B06D082F38A
:101D8000108806E0002282F3108802E0002282F32D
:101D900010888A680280120C4280CA688280120C05
:101DA000C2800A8A521E42814A88002A00D10A8AC9
:101DB000430838241C404B690B4D2B51521E0281A5
:101DC000281989694160FF20000608490A68824392
:101DD0000120C307D2180A60C00405490860F0BD9D
:101DE00000CAFFAF80360050388CFC0710E400E0DA
:101DF00000E100E080B50B4801688905C90E0A4A78
:101E000011701F21490102688A43026007480121BD
:101E100001700748016803220A430260FFF798F83F
:101E200080BDC0464C1200408C4AFC0706100040A2
:101E3000AC10004010B50C78012C03D0092C09D04F
:101E40004C7802E04C78432C02D0002C00D000BE2D
:101E500002F0D6F8002010BDF8B51D4610460C461D
:101E60005BF70EF8022824D12D0A00D000BE0C200A
:101E7000684343490F18BD72FF2D15D0083701265E
:101E8000FE70042003215AF7E6FF20883880607A2C
:101E90003871781D21460A3106225DF72DF900219F
:101EA0002846324661F720FB2846214602F06CF8AE
:101EB00000E000BE0020F8BD10B51C4610465AF7E1
:101EC000DFFF032809D1200A0C2141432C48401888
:101ED000FF21418102F084F800E000BE002010BD27
:101EE000488DFC07F0B589B01D46144608780228D5
:101EF0002ED0012820D000283CD101AE2021304630
:101F00005DF713F952201E490F5C533130463A46B3
:101F10005DF7F2F83B460A331848294622465AF73D
:101F200069FD0446478000202070201D31463A4656
:101F30005DF7E2F820461BE0742011490E5A0F4865
:101F40000A23294622465AF755FD468001210EE014
:101F50000A480A23294622465AF74CFD7D21018171
:101F60000021C1801021818008214180022101705F
:101F70005AF75BFD002009B0F0BDC0460B0E000013
:101F8000488DFC0780B561F757F980BD80B561F7D2
:101F900033F980BD80B561F76AF980BD80B561F71E
:101FA000F1F880BD80B561F76DF880BDB0B50C78F3
:101FB000641E122C1ED8C0467C4424796400A744B9
:101FC0000B191019191919191919190915090919CC
:101FD000090909000020B0BD487800280DD000BED6
:101FE000F8E7487800280BD000BEF3E7487801F006
:101FF000C5FFEFE702F004F8ECE7FFF7F7FAE9E7CF
:10200000FFF7A5FDE6E7000010B510465AF738FFC8
:10201000002801D000BE09E005480921042201245E
:1020200023465AF7E7FC04705AF7FFFC002010BD66
:10203000020D000080B561F7C6F880BD80B561F77C
:1020400008F980BDF0B589B0039316460C46FD2013
:102050005FF7CEF80290002800D100BE08A9002743
:102060000F70208860F7F0F905466088002800D0DE
:1020700000BE002D78D1FD20FFF72CFD002800D1F7
:1020800000BE0399090A009108A90A781421514356
:10209000436859180B79022B24D109680988394BF8
:1020A00099421FD1002005900490208860F767F9BD
:1020B000002800D100BE07A9002204AB4EF754FF50
:1020C0000120400207990140480A214660F742F981
:1020D000C5B2002D29D1E28808A80178009860F7E0
:1020E00014FB22E001968669002E3D4606D0A588A5
:1020F0006188A31D10462A46B047054605970497F8
:10210000208804A94EF7ABFC002D019E0DD10820BC
:102110000499085E002807D46288A1882088A31D3E
:102120004EF707FD054600E00025002D1CD1029862
:10213000009F39465FF77AF80146A088801D83B278
:10214000114832465AF756FC0546801DA288A11D4B
:102150005CF7D2FF08A800786880A088A8802F705C
:1021600028465AF762FC00250848042303993246A2
:102170005AF740FC8570218801805AF756FC0020F0
:1021800009B0F0BD022900000AFD0000160C000095
:1021900070B5EFF31085012484F31088052006073D
:1021A000708DC00509D54248447201F01FFE1149E7
:1021B0000870114800882040487030888021014311
:1021C00031800E4801680722914301604168490748
:1021D000FCD53188090600D400BE094901610949CE
:1021E0004161002D02D084F3108870BD002080F37F
:1021F000108870BDA04FFC07800000500000F4075D
:102200000F009909090404A470B5174EB06800F0D6
:102210002DF82749CA6B0023CB631518084C2846B4
:1022200021465CF7EFFE706106494143481901D031
:10223000201A80B23061306808210143316070BDDE
:10224000710200008FFDFFFF80B50648002101608C
:1022500001F092FD0120C00703490A6882430A6029
:1022600080BDC046A8B9FC073000004080B50246DA
:10227000C00B09D00E48806C00210B465CF7ECFEC9
:102280008905800A401880BD0948806C4243900A45
:1022900080BDC04680B5FFF7E9FF80BD80B5044929
:1022A000096C41430348081803495CF7ABFE80BD45
:1022B000D08CFC0720A1070040420F0000B59DB064
:1022C000ED48082303800020EC4C1A901A9800284F
:1022D00011DC00201C901C991A980B2909DC302174
:1022E000414360181C998900002242501C98401CF0
:1022F000F0E7401CE9E70B93A5690020C2430121E8
:10230000002D18910E4600D01646B101DC4F3B68F7
:102310000B43796816913B601796B60E002D134655
:1023200000D12B4699018919169B19437960666A79
:10233000002E189D00D01546EB0D002E114600D141
:1023400031464902C9187B680B4339687B606B02D0
:102350000B433B606668002E00D018921899CB0F93
:10236000002E00D132465100C9187A680A433968F4
:102370007A60189B5A000A433A601799A161656216
:102380006360786038601A901A98002834DC002066
:102390001C901C980B282CDC1C981A990B2828D808
:1023A00030201A99414361181C9A92008958491C9F
:1023B00000D100BE1A99414361181C9A92008958B5
:1023C000002913D01A99484320181C9989004058B5
:1023D000C1171C9A5CF7D4FE1A9A12015CF7D0FE62
:1023E0007A680A4339687A60014339601C98401C56
:1023F000CEE71A98401CC6E7A24D288819AC208069
:102400002088C046C046208804211891C94308424C
:1024100002D00020288003E0A88901218843A881F8
:102420000B9EA88B9849014007200D90C002081808
:10243000A883964C208830432080E08D062290436C
:10244000E08501239803A98B0143A9832088904943
:1024500001402180608807921043B04360800520CE
:102460000E900607718D0F2000900202E08D9043C0
:102470007D22D200C9058749169308921BD40321F7
:1024800049020843E0858448401CE18D0143E18511
:10249000A88B0B998843A883A88B04218843A88321
:1024A00060887E4901406180E08D1843E085708D31
:1024B0004007FCD516E010181830E085E08D084084
:1024C000D9034018E085A88B0B990843A883A88BF3
:1024D00018998843A883E08D9843E085A88B402114
:1024E0008843A883169A100211906649888B0323AB
:1024F000039318438883208820231843402512958E
:10250000ED4328402080088C149318432840088409
:10251000F08A80210C9108432840F082308EFF2100
:10252000099188433086308F189B184318210691F3
:1025300088433087308FA02101430F952940318790
:1025400057480380B08857490140B180100456496C
:102550000860FFF71DFE554A10680D9908401AA93A
:1025600008700878022821D0708D119908420E9CBD
:1025700014D001F03BFC0A2802D80B2001F040FCEB
:102580004248C08DC007494A08D14049C88D169AB3
:102590001043464AC885708D4007FCD5106802215B
:1025A0000143A143116050684007FCD540480068D2
:1025B000C1B20C20AA29014600D018993288824362
:1025C00088183080C046C0463A4800683A490988B1
:1025D00068233A4C00220A921093E252384D2A4660
:1025E00058329180A8651698C046C0463548001FED
:1025F00000683549884200D05CE1009800071790D8
:1026000004200021059103462E4A1118081FEC32C0
:10261000904200D351E1189300681C901C9B1798BE
:102620000340092004071C9AA34262D11C9B1D0A87
:10263000EBB21593D2B2531E162B00D9FCE05B000F
:102640007B449B885B009F4412011201F70012013A
:10265000F7004100BB00F700F700F700F700F700B4
:10266000F700F700F700F700CE009D00E3009600AA
:10267000F700F100B100C04600330050A08CFC0709
:10268000488DFC0704030050FFC3000052000050B7
:10269000FFBF0000FF0F0000FFEF0000FFF9000088
:1026A00000020050FFF7000080E200E00000F407A5
:1026B000D07FF807D47FF807D87FF807CC8BFC07CA
:1026C000D08CFC07D47EF807A5A5A5A5C04A109C10
:1026D000105DC0001018159A92005CF70DFDBC4902
:1026E000085D40190855C0B2052800D2BFE000BE01
:1026F000BDE0900F11D01C98B64988420DD8189BA8
:1027000018460830314628311C9A8A42B04C28D1EC
:10271000B1495958B14A118075E71C98179A104071
:102720000D9909078842AA4C05D10020C046C04631
:102730001898001D67E71C9810401699C907884231
:10274000189B0CD01C9810400E994907884206D05F
:102750001C98104003994907884200D099E0181D41
:1027600051E7B11C1C9A8A4200D088E09A49595816
:102770006622A15247E79848189908586221944A5E
:10278000505274E0944A189B995848439A58120C36
:10279000801A00B2C0085A238D4CE052501A8108AA
:1027A0008F4A11400818401C58212FE08A48189978
:1027B00008586421864A5052000458D100BE56E0A1
:1027C0006924834A105DC00010181030159A9200D9
:1027D0005CF792FC7E49085D40190855C0B20D288F
:1027E00045D300BE43E07C4A189B995848439A5809
:1027F000120C801A00B2C0085623754CE052501AD1
:102800008108774A11400818401C542160522EE07C
:10281000059CA0001AAA1018159DAA005CF76CFC74
:102820002C190594032C22D300BE20E06A48189985
:102830000858674908651AE01E2A18D115984008FB
:10284000020614D00B684A6813920831002425460A
:102850000835382D09D05E4A141924699C422C464B
:10286000F6D15B4B5B19139ADA60401EE8E71598C6
:10287000800018990818001D554C5A4DC3E6314682
:1028800024311C9A8A420AD153495958534A5180DB
:10289000B9E61C98401C10D000BE1846B3E631467D
:1028A00020311C9A8A4200D0ADE64B4959584B4A18
:1028B0009180A8E66620245A36E05C201A992152BD
:1028C00009201B9948430A0C801A00B2C0086023F3
:1028D000E052501A8108424A11400818401C5E21FB
:1028E0006052109AA05CC10701D000BEA05C4008F5
:1028F000A0546920215CCA0701D000BE215C4908B0
:1029000021546420215A002901D1089921526620BE
:10291000245A002C08D134490968C9B2AA290C9C50
:1029200000D06E242A490C526C84B08C169DA843AA
:10293000B0840D20FEF720FB7089284302211091FE
:102940008843708170894006FCD574800898FEF732
:1029500013FB708903998843708170890006FCD548
:102960007F20204B18712048806920498860EFF350
:102970001084169880F3108830880C9908433080B2
:102980001B4A10680D9988431060119950684007E0
:10299000FCD5184810611848506130880C9A904353
:1029A0003080708D08420DD00A9858720F4D2878EB
:1029B00001F026FA11496878002803D1C88D169ACB
:1029C0009043C885002C1BD0169880F310881AE01D
:1029D000CC8BFC074C420050D47EF807A000FC07CB
:1029E000FF3F0000D08CFC07D07FF807A04FFC070A
:1029F0000000F4070F009909090404A452000050D4
:102A0000002080F310880E9D0A9BA1480068A14910
:102A1000884200D0C6E0A048A0495CF786FB0D982C
:102A200001029F485CF781FBFEF760F89D489E49D4
:102A300001609E489E49302202925CF75DFB9D48F2
:102A40000024C471847144710471C4708470447032
:102A50003F2117910170984898A1129A5CF74CFB9E
:102A6000A6480470A648A7490160A748A749016085
:102A7000A749A8480860A8480A210170A7481894E7
:102A80000470A74832210E910170A6480560A6483F
:102A900016990160A5480560A54807990160A548F9
:102AA0000D990160A4480B9C04601198801DA349F6
:102AB0000860A3490860A3487749016000F078FCEA
:102AC0002246308902998843308130890C99084325
:102AD0003081308920433081308C1699884330848E
:102AE0007089069988437081308912990843308132
:102AF000308A042188433082B08A8007FCD5F08C6C
:102B0000F54908400B2109020143F184F08C169B22
:102B10001843F0847089104310210D91884370810F
:102B2000708C984370843089129988433081EB48C7
:102B300037309C0721680140216017984002E84A1D
:102B400011688143580308181060E648401C11685A
:102B500001431160DE480068DE498842E24D159469
:102B60003CD0D5480068DE498860E04A9068107122
:102B7000010ED171010C9171000A50711198C03091
:102B8000DB4A002818D0401ED949435C11780C4616
:102B9000039D2C40D54D2C1924795C404C40147079
:102BA000521CEEE7D348D2496A02934200D932E779
:102BB0001A585A501B1DF7E7CC4C1C34CC491C2228
:102BC00020465EF72DFA0028C74D00D000BE2046F3
:102BD0005EF7BAF9BE48BF490160159CB648006867
:102BE0003FF738FBC44918980871C87020681199DC
:102BF00008432060FEF7DCFE169C204600F0F0FC47
:102C00002878002801D06C7004E00020BA49C87010
:102C1000BA4908705220BA493952189CBC60FC600D
:102C20003C61394653314822CA7150228A71487139
:102C30000A712D20C870472088704C204870384693
:102C4000523044840425AF4928465AF7D2F80998EF
:102C5000B8721395284621465AF7FDF8A24D28462A
:102C600064308480A84868666C741437A7491624B9
:102C7000384622465CF740FA6C8260F739FD2878C6
:102C8000002861D02846169D4570A14F63E0C046DC
:102C90009CB8FC076587341200A0FC07AC14000048
:102CA00000B9FC0760BAFC07F445FC0700BAFC0752
:102CB0007CFCF107DAB9FC07B0BCFC0720008000FF
:102CC00000C0000000008400000028220000000076
:102CD0000000040000F7FFFF7F00000030F0FF0F4E
:102CE00000000000000400000000000000000000E0
:102CF000000000000000000000000000FDB9FC071B
:102D000050B9FC07603FF20754B9FC079C47FC0729
:102D100058B9FC076C46FC07B0B9FC07B1B9FC0711
:102D2000D9B9FC075CB9FC0760B9FC0764B9FC07BA
:102D300068B9FC076CB9FC0770B9FC0748B9FC0717
:102D400044B9FC074CB9FC0700206B49C8706B49BB
:102D500008706F4F169DFFF777FA0520FEF7B8F859
:102D60006C486D4908186D4940188008401E0A904B
:102D700068020190179880020990E80317905A4D55
:102D8000159C5D493089000600D452E1206B179AEA
:102D9000104200D04DE10888C00700D049E15AF741
:102DA0002CFB0024204600F01BFCE87A042800D00D
:102DB0003BE1169800F014FC1A941AA8042739462F
:102DC0004AF7BCFE002800D12EE11698544908604D
:102DD00008680028FCD11598C069A96A884201D208
:102DE000AC622146411ACA09297B182A00D865E03D
:102DF000C90700D065E04B4D298807916988069185
:102E0000A9880591E98804912C80019C2146103104
:102E10006980129AAA805C21434B595AA981324990
:102E20008862A88910430299C9430840A8813F4895
:102E30000260BFF34F8FBFF36F8F28881043288045
:102E4000E88810430840E8802888B8432880A8888C
:102E5000C0B2A880E88870210140402900D071E00C
:102E60006220185A0028324900D001461F4841808C
:102E70003048401C2988014329801920FEF77CF83E
:102E80002888204328802888129908432880688849
:102E90003843688068882849084068800098400264
:102EA0006988014369806888244908401199081895
:102EB00080306880224858E04CB9FC07C80700D130
:102EC000B2E0E86A401CE86200F038FDACE0C046C1
:102ED0009CB8FC0765873412FFF00000C8FEFFFFB6
:102EE00000020040FFFF1F00D08CFC07A04FFC0732
:102EF000108EFC0700B0FC0754BAFC07B4BAFC07FC
:102F000008440000FC41FC0705FFCDABC049FC07AD
:102F100000330050804900001001FC07030004F852
:102F2000FC00004000150050CC8BFC0780E100E065
:102F300040760000FF0F0000FF1F00003FFE000072
:102F4000FCFF00002888D549084028806888E049AF
:102F5000084068806888039988436880D84A10468A
:102F600040382988014029801046698801406980DD
:102F70002888169A1043288008981730298901401C
:102F8000E44F398369890140798328890999084088
:102F90002043288168890840204368812888109947
:102FA0000843288028888007FCD4EA81288ABD4904
:102FB0004988D84C228B2B89099F3B401343C14A37
:102FC0001381628BBF4B5B893B40BE4D13436B81CA
:102FD000401A08994143002804DCBE4A8918C017EA
:102FE000084001E0BC480818BC495CF721F8840996
:102FF0001934ED4F38797F280CD0201A41B2C9110D
:103000004840401A40B2052805DBF86A401CF862C7
:1030100000F094FC3C71069868800598A88004989C
:10302000E88007982880E04D9A4F5DF779FE159C5F
:10303000A14972B608790228189802D09A48006807
:10304000806A1A903889C00700D020E159F7A1FAA8
:103050009949002800D11AE1C878012800D0A5E0DC
:10306000B08AC00700D089E00888002800D09DE021
:103070009B48806A002803D08B480068806A1A90B9
:1030800000F07AFE8C4DA9781AA85AF77AF82946EA
:103090000028C54D00D189E02069400600D585E0B3
:1030A000854881781AA84AF749FD834900287DD0D0
:1030B0000998FF30844A118801401198014311801A
:1030C0001A98002806D0216A784A8918DA2901D886
:1030D000401E1A90A88C734AD16808181061E06BE2
:1030E000804B18400843E063E06B7F49084051691A
:1030F00089020143E163E06B6E49084011694905AB
:103100000818E0631A9A7948824200D300BE286FFB
:10311000696F00235BF7A0FF0903000D4118ED481C
:103120004069821C8A4200D0481E634909794A1EC0
:10313000914146F719FC6E48C06A80471799206B89
:103140000842FCD011995A4A10680842FCD0106815
:103150000C99884310607889452803D846217981E5
:10316000081AE8633FF7B1F851498868A86308680E
:103170000006FCD530890C99884330814F4801788E
:10318000308A139B18433082504A106818431060ED
:10319000414C2089169DA8432081708A012907D1BE
:1031A0000D99884370821199159C30E030BF6EE014
:1031B0000D9C20437082708A18437082FEF7E8FFEE
:1031C000708A2043708236480A990162EFF31080BA
:1031D00085F3108831880C9A91433180002802D001
:1031E00085F3108802E0002080F310881199B74A17
:1031F000708D0842159C0AD0002050720B2000F000
:10320000FFFDB349C88D169A1043C8851199002057
:103210003083708D084206D1AD490888129A104358
:10322000149A904308801C4A108C129908431499F0
:1032300088431084B08C169DA843B0840D20FDF700
:103240009BFE7089284310998843708170894006DD
:10325000FCD50E987080B08AC0069D49139D01D59B
:103260000B98388030BFB08A0888149A10430F9B9F
:10327000184008800849088C10431840088400F062
:1032800097F812490868A8430860E94D0A4962B6F0
:1032900078E5C0460033005004030050FFEF000003
:1032A0000000F407A04FFC0758B9FC07C8FEFFFF59
:1032B00000020040FFFF1F0054BAFC07B4BAFC072D
:1032C0003FFE0000001500503830005010ED00E0C7
:1032D000FFE100002BFDFFFFD5020000AA05000062
:1032E00074BEFC0700FCFFFFFF03E0FF40420F003D
:1032F00058BFFC07CE48014664318A88521C0A71C7
:10330000130A4B7191B2044A914202D16821002202
:1033100042527047D08CFC07FFFF000010B56921B6
:103320000D48415C143000228A4206D20368041F13
:10333000246823600830521CF6E710BD10B56821E0
:103340000548415C00228A4204D218C81C60003043
:10335000521CF8E710BDC046CC8BFC07B0B5B44C8E
:10336000617D002900D000BE88002518286D5035E9
:10337000002813D109020A310C4804220E2359F700
:1033800039FB092101702860102181800021818191
:1033900041817D220281C1800821418059F745FB8E
:1033A000002060742860B0BDD08CFC070E0E0000B9
:1033B000F0B58BB0434DE88CC005434E1AD5434859
:1033C000407A012803D100F011FD1B2812D8404C8F
:1033D0002088C00400D4B08AFF201C303D490880FA
:1033E0001B2000F00DFDE08D01210143E185E88CFB
:1033F0004007FCD5384839A118225BF77DFE3DA077
:103400003F491CC81CC1FDF76AFB3E483E490160AC
:10341000EFF31080012686F31088298840220A43A2
:103420002A80002802D086F3108802E0002080F372
:10343000108836480188364CA18980221143A18129
:1034400034490B230B80082121800025A580A18908
:103450009143A18103210291A18186830584858402
:1034600004AF3D827D800420039038700A95099551
:1034700007950694284805900196284E304639460F
:10348000FEF718FCFD71029838710794103630462B
:103490003946FEF70FFC0D484563019A02721D2163
:1034A0001F4C10461646A047062003992A46A047FF
:1034B000092029462A46A047034908883043088046
:1034C0000BB0F0BD040000500C030050D08CFC0782
:1034D00052000050A04FFC0720000840F99DF00763
:1034E00000000000E3A1F107000000004FA4F10775
:1034F000000000000D05FC073B08FC074B09FC071A
:10350000C000FC0700000840070010007C110050BC
:1035100000110050C011005005000300003600509B
:103520007911FC070549884200D000BE0448018893
:10353000044A11408918091D0180704711111111A9
:1035400012000050FC7F0000F8B504460026234F0F
:10355000302E0FD0BD19E88AFD2801D106496960D7
:103560005DF7CCFE002803D08268284621469047AC
:103570001836EDE7F8BDC0468045FC07B0B500251C
:10358000164C002826D1012D26D8FF20E0820020ED
:1035900020606060A060E060206110202843C0B21D
:1035A000A082214659F725FC18346D1CEBE7E08A10
:1035B0005DF7A4FE002802D041682046884700201D
:1035C000E0816060A060FF20E082207D59F76BFC05
:1035D00018346D1C012DEAD9B0BDC046588CFC07CB
:1035E000B0B5D04DE978012921D11249002803D086
:1035F00008884007FCD402E00888400717D400235D
:10360000EB70C8888988000444181F2040064921AF
:1036100022465FF725FF2867696764214143080C4C
:10362000286405486043800B401C4008A864B0BD76
:10363000D08CFC07001600501111010010B5F24C9F
:10364000082020701120FDF797FC0320607010BD4A
:10365000FEB5624803250570614C204614380168A8
:1036600014220A436B218A430260A06A5D49886183
:103670000020C043A06220683F218843206020686A
:10368000594908402060606858490840012101916B
:103690008902029140186060606840210143302037
:1036A00081436160A069524908400B2149064018D6
:1036B000A061A0694F49084069024018A061A06953
:1036C0001821014327208143A161432020714A48EA
:1036D00080474A4880474A488047404805700095DF
:1036E0004848066848488047484880472068484915
:1036F0000840F105401820603B4E403620683040BD
:10370000490C4018206041272771606837490840FC
:1037100002994018606038488047384880473848E8
:1037200080472E4805703748056837488047374836
:103730008047206836490840E90540182060206825
:103740003040490C401820602771606827490840C4
:1037500002994018606028488047284880472848D8
:1037600080471E4800990170264800682168284A51
:103770001140C2058918216021683140254D05405E
:10378000A801081820606068019988436060154EA0
:10379000B069A06220681C2101432320814321607D
:1037A0002068114908402060A0691149084007219C
:1037B00089064018A061A0690E4908400F21C9017F
:1037C0004018A061A0691E21014321208143A1610D
:1037D0000D4880470D488047F586FEBD0510004026
:1037E00018300040A04FFC07FF7FFFFFFFF9FFFFED
:1037F000FFFFFFC03FF0FFFFED1BFC07F51DFC07BF
:103800005B0FFC0788300040C91BFC07470FFC0713
:10381000FFFF7F00FF01000070470000F0B58BB094
:103820003022002181541F221204344B1D6895431D
:1038300001246204AA181A60324B334D4561334D9E
:10384000334E344F344AC261066243622C4A82626C
:10385000C562324A07604260E004C74A1368834386
:103860001360282903D001A84154491CF9E72C48CA
:103870000068403001A928225BF73EFCC24DAC73C2
:10388000FFF7DCFEFFF75AFDFFF748FD00F07EF979
:1038900000F00CFB00F06AF8FFF7DAFE2C73224808
:1038A0000088072101406973FDF7EAFAFEF756F830
:1038B000FEF768F81D490B881D4804681D4A14402E
:1038C000E31803601C4B1C88856915402C19846122
:1038D0005B88C4691440E318C3614B8A046A1440CE
:1038E000E3180362898A436A134059184162A44865
:1038F00002218170002101800BB0F0BD74000040F6
:103900006939FC076539FC07513AFC07353AFC0771
:103910007913FC070D3AFC070F3AFC071938FC072E
:103920004CB9FC07D08CFC07B810004010300040A8
:1039300088A0FC070000FFFF6430004080B5FFF75F
:103940007DFEFFF7EBFC00F021F900F0AFFAFDF788
:1039500097FAFEF703F88A4802218170002101805E
:1039600080BDC04600207047704700000E4908889F
:103970000E4A024001204302D2180A8041057E4AC5
:1039800013688B431360810700224A671F221204C9
:103990004B6F93434004181848670868E0220243BD
:1039A000102082430A60704738300050FFFC00004E
:1039B00080B51F20000401218A07536F8343480408
:1039C0001818506710680721884310600D48018857
:1039D00008220A430280FFF731FEFFF7AFFCFFF732
:1039E0009DFC00F0D3F800F061FAFFF7BFFFFDF790
:1039F000C9FF634802218170002101800520FDF785
:103A000067FA80BD0800005004100040704780B580
:103A1000E62800D3E620282800D82820F9214A00EB
:103A200042437D20C10010465BF7ECFA7F38C0B2FC
:103A300080BD00000548016807220A43026001209A
:103A400080044D490A6882430A6070473000004094
:103A5000022902D0012900D000BE002802D0FF2890
:103A600004D000BE022901D10C207047D848807BC9
:103A7000002800D009207047F8B53F480168C90701
:103A800003D0016802220A4302600124016849024E
:103A900003D5A10502680A4302602702650237497F
:103AA0000095084608380668002E63D0300606D513
:103AB0008020086049F7EBFEFDF77AFF2F49B00739
:103AC00004D50220086045F7E0FD2C49300714D5E5
:103AD00008200860FCF7C6FF3D4627460024204624
:103AE00045F78CFD25490420EC4AD0720220244A77
:103AF000907014803C462F46009D3E4204D00F60DB
:103B0000012045F77BFD1D492E4203D00D6049F78A
:103B100027FF1A49700604D54020086045F769FD63
:103B20001649F00604D51020086044F725F913491A
:103B300070070FD50420086012490888A043088048
:103B400059F7C2FC3EF77CFDFDF732FF0B49002020
:103B5000D24AD072F00707D00C6059F7D1FC49F770
:103B600096FE0649CD48C472B0069AD5202008605A
:103B700000BE96E7F8BDC0460002004018000040B5
:103B80000410004008330050D08CFC07FCB57F20A7
:103B900000025A4A516981430B2000020818506103
:103BA000106880B25649401810609069554C044026
:103BB0000123580300902018906103200190000217
:103BC000146B04431463908F1024044394879088EB
:103BD00018439080BE484C4A02604C4A1046103848
:103BE0004B4CA58B054015204301E8185030A083AD
:103BF0006069484D0540484828186061A069474DF4
:103C00000540092040022818A0612068444D054065
:103C10004448281820606068434D054043482818F0
:103C20006060A068424D054042482818A060E068E6
:103C3000414D054041482818E060F048807B00284D
:103C400002D1C120400100E03D483E4D28600520E2
:103C500080023D4F3880401DB880388C5526064381
:103C6000AA2086433E84FF266C363046C93038850C
:103C7000364908460E30B88535483886B986C01DA5
:103C8000388734482085A06B3349014033480818F1
:103C9000A063334C2680208F10401F462037C01968
:103CA00020873048018811408919D53101808188E9
:103CB0001140C918818001891140C919018121363B
:103CC000A680294801881140C91860310180818A85
:103CD00019220A4306218A438282A88F2349014080
:103CE00000980818A88722480168019A1143042205
:103CF000914301601F486866FCBDC046203000400B
:103D000000008888FF00FEFF59055C071FFCFFFFCD
:103D1000042000400000E0FF09581A00FEE1FFFF08
:103D2000E0E000000809294900000303696A686CA3
:103D3000031FFFFF70600000E0E0E0E00B0A0A08EC
:103D4000201800090010004028130040260A000037
:103D500051080000070F00002F64E0FE101A060152
:103D6000001200404412004088120040FF9F0000F3
:103D70008010004050015001F8B5642013490E5ADC
:103D80009E4F3C6C304660431249401812495BF725
:103D900039F90546B8843C3666430E4830180E495A
:103DA0005BF730F9001D0D49C8602818C01D486137
:103DB0000B4A1278022A01D111304861FEF756FAF7
:103DC0000849401880B259F7A9FBF8BDCC8BFC0715
:103DD000D08CFC0720A1070040420F00A04FFC0739
:103DE000B4BAFC07E2040000704700000D480188E7
:103DF000890918220A4000888004400F8018704703
:103E000008490A88084B1340F822024092011A43DD
:103E10000A800A88054B13404007800C1818088058
:103E20007047C04654000050FFF90000FFC7000073
:103E300070477047024801884906FCD57047C04664
:103E400014110050164801880122914301807047E7
:103E500010B56A4B00241C8418635A639983CA49BD
:103E600008200860BFF34F8FBFF36F8F0C490A889B
:103E7000022414430C800A88802414430C80197A8D
:103E80004A1E9141C907FF221206064B1C68944343
:103E9000611819600449086010BDC046D08CFC0749
:103EA0000411005000E400E000E100E018B508480B
:103EB000016800910099074A009B1A40FF242404DE
:103EC0000C40D9B20919044BC9181143016018BD3F
:103ED0008000004000FF00FF0A000A00F8B52548F6
:103EE0002549FDF713FC454E3075FDF7D5FB04461B
:103EF000C57A162D0AD860190C3031466431062275
:103F00005BF7FAF8AA1DE272B57517E02B20275C63
:103F1000192F11D820462B300090E0192C30314653
:103F2000643106225BF7E8F8B81D0099087080201C
:103F30003843B0752A4601E000BEE27AB274534DB0
:103F40002846143021460C315BF7D6F82B20225C32
:103F5000F27433352C34284621465BF7CDF8FDF753
:103F60009BFB58F762FD0020F0640420022158F703
:103F700072FFF8BDB80B00009914FC0780B5442807
:103F800001D1FFF7ABFF80BD70B50C460C2141435A
:103F90003E4A5518A97A0A35FF2916D0174E707572
:103FA000307DFDF7C9FB6088082807D3102805D8A5
:103FB000A088002802D1E0887D2808D07D20C0009C
:103FC0000649FDF7A3FB707401E0FFF787FF28782F
:103FD000FF2800D070BDFFF781FF70BD5D33FC0787
:103FE00010B5064C607C002803D0FDF7A5FB00202F
:103FF0006074FFF77FF9FFF771FF10BDD08CFC07ED
:10400000B0B50C461D4988422DD01D49884216D0B6
:104010001C49884231D11C48082519462B4658F7BF
:10402000E9FC032181710021818061884180217830
:104030000C224A4315498918897A01701BE01448FB
:10404000082519462B4658F7D5FC21780C224A43FF
:104050000E498918897A0170618841800021818028
:104060008021817107E00B48022519462B4658F73D
:10407000C1FCA188018058F7D8FCB0BD0D0C000030
:1040800004FD00000DFD00000EFD0000488DFC0742
:1040900005FD00000E0C000002E008C8121F08C158
:1040A000002AFAD170477047002001E001C1121FB9
:1040B000002AFBD170470000034880F3098800F014
:1040C00025F8FCF725F8C046F857FC070420714690
:1040D000084203D0EFF309800A490847EFF308804C
:1040E00008490847704704207146084203D0EFF39F
:1040F000098005490847EFF30880034908477047DE
:10410000FEE70000B912FC072912FC071A4988884B
:10411000072290438880052000078A89D2070DD0A6
:10412000098800290AD115490A8802854A888284AB
:1041300089880184418A124A0A4042821149062232
:104140000A800121CA03104B1A60BFF34F8FBFF3DF
:104150006F8F02221A60BFF34F8FBFF36F8F19600A
:10416000BFF34F8FBFF36F8F418904229143418189
:104170000021018062B6704704030050A000FC07D4
:104180007FFE00000034005080E100E04F43313CEE
:10419000939242E6A876FA3BEFB4875A17B967982C
:1041A0004C664C01963331B19159001517B9679897
:1041B0004C664C01963331B19159001520EE8D0CAF
:1041C000E1F04A0CB325DC536A68862D9EE7BA08F5
:1041D000B9A948ABA1AC031C2E0D296C20EE8D0CA7
:1041E000E1F04A0CB325DC536A68862C4F43313C1E
:1041F000939242E6A876FA3BEFB48759000000009C
:104200000C42FC07888CFC07040001001442FC07E8
:1042100001000000FFFF0000A932F20702140000B5
:10422000FD1BFC07010D00000920FC07000D00002C
:10423000AD1FFC07000E0000351EFC07010E00003C
:10424000591EFC07030E0000B91EFC070A0E0000F1
:10425000E51EFC070C0E00009D1FFC071C0D000056
:104260003520FC07100D0000A51FFC070F0E0000F5
:104270008D1FFC072C0E0000851FFC07120C000090
:104280003D20FC07080E0000951FFC078517FC0762
:10429000A517FC07CD15FC072115FC07F800000049
:1042A000080004900000000000000000030005D09A
:1042B0008B0035F010005CF0000010B0000018B06A
:1042C00000001AB0030051F0000038B000003AB00E
:1042D000000064B0000066B0000022B0000024B00E
:1042E000010005D0000000000A00008008030490CF
:1042F000000004F0030006D0000000000A00008067
:1043000008030490000004F0030006D00000000041
:104310000328002802290129FD0000005043FC0762
:104320001C000000ED14FC0700000000000000006D
:1043300000000000FF00000000000000000000007E
:10434000000000000000000000000000000000006D
:104350001243FC07100000000100000010001000D4
:10436000D445FC071043FC070200000001000000D8
:104370000000000000000000BC41FC07100000002D
:104380000900020001000000000000001643FC07C5
:104390000200000001000000110011004249FC076A
:1043A0001043FC07020000000100000000000000B4
:1043B000000000008C41FC0710000000000200001B
:1043C00000800800000000001443FC070200000009
:1043D0000900020002000000000000001643FC0774
:1043E00002000000010000000F000F005449FC070C
:1043F0001043FC0702000000010000000000000064
:10440000000000009C41FC071000000000020000BA
:1044100000800800000000001443FC0702000000B8
:104420000900020002000000000000001643FC0723
:1044300002000000010000000F000F006449FC07AB
:104440001043FC0702000000010000000000000013
:1044500000000000AC41FC0710000000000200005A
:1044600000800800000000001443FC070200000068
:104470000900020002000000000000001643FC07D3
:1044800002000000010000000F000F007449FC074B
:104490001043FC07020000000100000000000000C3
:1044A00000000000CC41FC071000000000020000EA
:1044B00000800600000000001443FC07020000001A
:1044C0000900020002000000000000001643FC0783
:1044D00002000000010000000E000E008449FC07ED
:1044E0001243FC0710000000010000001000100043
:1044F000E445FC071043FC07020000000100000037
:104500000000000000000000DC41FC07100000007B
:104510000900020001000000000000001643FC0733
:10452000020000000100000019001900A449FC0766
:104530001043FC0702000000010000000000000022
:1045400000000000EC41FC07100000000002000029
:1045500000800900000000001443FC070200000076
:104560000900020002000000000000001643FC07E2
:104570000200000001000000100010009349FC0739
:104580008845FC0709000000130C00004B29F207C6
:10459000150C00004520FC07170C0000572BF207F4
:1045A000000C00002328F20706FD00005728F20740
:1045B00003FD00003728F20708FD0000B328F207CA
:1045C0000EFD00000F29F20705FD00005D1AFC0733
:1045D00000141C02595A08E4862A9E8FE911BC7CFB
:1045E00098434218595A08E4862A9E8FE911BC7CE8
:1045F0007C46421801000001B509FC0701000002D9
:10460000A50AFC070000000000000000F4010B00F8
:10461000F4352348F40108C4140A00001400000013
:104620009515FC0700000000FF00000000000000DE
:104630000000000014000000ED14F207FD0000006F
:104640002126F207FF00000000000000ED15FC0726
:104650003D15FC07D849FC070140FC078C42FC07CC
:10466000508DFC0700000000898CFC07050000004D
:10467000F857FC07000400001C92FC07AC02000085
:10468000108EFC0700040000D494FC0770050000A5
:104690002003000000A60E0004000000D20000006D
:1046A000320000003C00000001000000010000009A
:1046B00002000000020000000400000003000000EF
:1046C00006000000000000000200000002000000E0
:1046D00000000000000000000300000003000000D4
:1046E0000500000005000000060000000A000000B0
:1046F0000A000000C8000000B80B00000200000023
:10470000B80B0000B80B000010000000D40100003E
:10471000CC010000700200006A00000004000000EC
:1047200001000000200000000A000000010000005D
:10473000E20400008A020000DC050000AF00000077
:104740001849FC075847FC078C47FC072049FC0721
:104750004C46FC076847FC07A8B8FC07A0B8FC0754
:10476000B8B8FC07F8B8FC07F64FFC07C08BFC078D
:10477000C18BFC07C48BFC07C88BFC07513EFC07B0
:10478000353EFC07D118FC07A118FC07D045FC07F3
:10479000D345FC075043FC07D51AFC071D38FC071E
:1047A000B139FC0793DEF007F1DEF007F9DEF00720
:1047B00049DFF00761DFF00777DFF00799DFF007E7
:1047C00019E3F007BDE5F007FDE3F0071DE4F0078E
:1047D0003DE4F0077BE4F0078BE4F007F5F9F00720
:1047E000B1F7F007CFF7F007EBF7F00705F8F007A0
:1047F00019F8F00797F8F007AFF8F007DFCDF107E9
:1048000067D0F107DBB9F007CD0DF207B10EF20763
:10481000AD0EF207A90EF2078D21F0072535FC0732
:104820000922FC074922FC079D22FC079522FC0770
:10483000B57EF007837DF0072501FC07599EF1073F
:10484000634CF1077D35FC07D110F2074935FC07B1
:10485000B111F2074112F2077912F20700000000CD
:10486000E51AFC07E71AFC07B9C6F007D592F1076D
:10487000B301FC075F9DF1075F9CF107C504FC07CE
:10488000EB72F107B922F1076B04F107591AFC0723
:104890002BA4F007F1D2F0075FBDF007D5BDF007FC
:1048A00085BEF007DB2DF007752EF0071581F007A8
:1048B000DF7FF0070937F00700000000A51BFC07A9
:1048C000AD1BFC071919FC07F3C3F10775C4F10709
:1048D000E93DFC073119FC07000000000000000062
:1048E00000000000000000000000000000000000C8
:1048F00000000000000000000000000000000000B8
:1049000000000000000000000000000000000000A7
:1049100000000000000000000C46FC07288DFC078A
:104920003446FC07588CFC07020000004441313437
:1049300035333100765F362E302E32342E31343618
:104940003400436F6E74726F6C20506F696E742008
:1049500041434300416363656C65726F6D657465C7
:1049600072205800416363656C65726F6D65746594
:1049700072205900416363656C65726F6D65746583
:1049800072205A004779726F73636F7065204461BB
:1049900074610054656D7065726174757265204450
:1049A00061746100436F6E74726F6C20506F696E3A
:1049B000742054656D7065726174757265000000D5
:1049C00003030A181107595A08E4862A9E8FE91131
:1049D000BC7C984342180000893FFC07E13FFC077C
:1049E00000000000000000004F1BFC07000000005A
:1049F0007D3FFC0700000000151BFC0700000000C5
:104A00000000000000000000291BFC071D1BFC0724
:104A10003D1BFC07611BFC0700000000991BFC0705
:104A2000E91AFC0700000000000000000000000080
:104A30000A0017000100000000000000983A000181
:104A400002030405060708090A0B0C0D0E0F2000CF
:104A5000000000000000FB0048080000904AFC072E
:104A6000904AFC0768060000A840FC07904AFC0733
:104A7000F850FC0700070000A840FC07C08BFC07AB
:104A8000C08BFC0750020000A840FC070E0000008D
:0400000507FC0111E2
:00000001FF
