:0200000407FCF7
:10000000E06BFC07C952FC07DD52FC07F752FC0706
:100010001153FC071153FC071153FC071153FC0744
:100020000000000000000000000000001153FC0769
:1000300000000000000000001153FC072317FC071C
:10004000A913FC072546FC07A526F0072517FC0782
:100050005116FC071153FC076D13FC071153FC07E5
:100060007913FC071153FC07E914FC07F314FC0790
:10007000FD14FC070715FC071115FC071153FC07BD
:10008000B917FC071153FC071153FC075514FC0763
:100090001153FC071153FC071153FC071153FC07C4
:0800A00000008E070E000000B5
:0200000407FCF7
:100110000348854601F05AF800480047F52BFC07D4
:10012000E06BFC07F8B5074601200023024600906B
:100130001946032049F766F9044602218030017010
:10014000FF4DFE482A6843881146FF31F7310B8680
:1001500080884886FB48066A0123DB069E431E43CF
:100160000662FF320020FF32383250829082D08205
:100170001D200882F4484884F448C882F448088363
:1001800000204882384649F77DFC01462868FF3048
:10019000F730C28B920992010A43C283ED4841684D
:1001A00000208847002C02D0204648F714FD204646
:1001B000F8BDFFB58BB0064616980027022821D05F
:1001C0000D9801881498814278D371880846403888
:1001D0003F2802D8159855F711FD0C98361D008858
:1001E000149A80190E995EF787FF0C98018814986D
:1001F00008180C9908800D9801881498081A0D9910
:1002000008805CE100200E9D079069782C78090237
:1002100021433180E978AC780902214371808C4612
:10022000403904242D1D024603468E46402900D342
:100230002878614604291FD0052914D0062918D032
:1002400070463F283DD8159855F7D8FC0006000E9B
:1002500004D0C148008D0006C00F30D00223012019
:10026000BE4A002712E0697800290FD0BC4A172344
:100270000CE0BC4A0F2309E0522802D0D22802D059
:1002800002E0142000E01520B74A1F23002A1AD0EC
:10029000984218D2800010580490002813D00020F3
:1002A0000890059070884038402803D328780524AA
:1002B00030716D1C701D00900498B5E0FEE0302791
:1002C000F0E03327EEE07088042872D10627E9E0D9
:1002D000522862D00CDC4B283FD004DC41286AD085
:1002E000422858D111E04C2820D0502853D140E06A
:1002F000632830D004DC572818D061284BD19BE00C
:100300006C2864D0772846D109E0009829780170DC
:100310000098641C401CA4B26D1C009081E00498FD
:10032000401C04900178089881427AD10098A41C5E
:10033000401C41084900881C009068782A78000217
:10034000104308800599AD1CA4B2002969D008901B
:100350000020059065E00120FBE710222946009867
:100360005EF7CAFE009810341030A4B21035009029
:1003700057E0204640301499039088420BD8402221
:10038000294600985EF7B8FE009840300090039828
:10039000403584B245E0342743E0082229460098DE
:1003A0005EF7AAFE009808340830A4B20835009021
:1003B00037E068E0FFE70622294600985EF79CFEDA
:1003C0000098A41D801DA4B2AD1D009029E01498D2
:1003D000001B80B203903088001B001D81B20120F9
:1003E00007900498401C04900098401C400840006E
:1003F00000900498007857281CD04228CBD1009850
:100400000170090A417000982946801C0090039AE7
:100410005EF772FE03980399201884B20098401882
:1004200000900498401C0490007800281ED0002FF3
:1004300017D01BE04908E2E71498001B81B200982E
:100440000391401C40084000009001200A4607909C
:10045000294600985EF750FE0399601884B2009810
:10046000DDE70D990988A14200D331E70D98008896
:10047000A04208D304990978002904D107990029DA
:1004800003D1A04201D034270CE00D99001B088055
:100490000C9801880098801B001F08180C99002FE9
:1004A00008800CD07088042809D0062807D040386E
:1004B000402804D30E984079707100E03427384604
:1004C0000FB0F0BDFFB581B01F4616460C46104672
:1004D0005CF7D6FC00257F2802D02189062909D0A7
:1004E0003B4632462146019855F71BFF05462846F4
:1004F00005B0F0BDC00601D50225F8E72078002838
:10050000F5D1300AA11D42F7A4F8F0E7F1B598B093
:10051000189842F79CFA0446189805210079134A66
:100520004006C00F099068460184618B08460A386E
:10053000904276D2E08A062873D319E030BCFC07DB
:100540004CB9FC07C00000401080000029410000A9
:100550007671000058BFFC0748BEFC073803F2075D
:100560004003F2079C03F207D803F207770C000060
:100570001922D201904254D8228BFF23F5339A429C
:100580004FD8521C9300D2184243521C0A235210D7
:1005900059438A4245DC217F00290CD1617F002923
:1005A00009D1A17F002906D1E17F002903D12021B3
:1005B000095DC90635D0274620377978C906C90EA6
:1005C000491F0C292DD2A18A81422AD8E17C002919
:1005D00027D0421E082A01D9082000E0401E81428F
:1005E0001FD8684646F7F4FA00281AD1FE4D0622B5
:1005F000286221460AA85EF77FFDA8792E46803E34
:1006000000287DD06079800901280BD00AA80999BB
:100610004CF7ADFD010003D03820405C002870D0BD
:100620009BE008E1F06A807A012808D0042806D00F
:100630000AA84CF709FE286200284ED054E0686AE8
:1006400006220AA932305EF77BFD002806D00AA8F0
:100650004CF7FAFD2862002802D012E0686AF9E738
:1006600000210AA84CF706FE2862F16A897A01295E
:1006700005D18B071A6849068A430A431A60002885
:1006800011D0F16A286A0622253010315EF758FD34
:10069000002808D1286AF16A2030C07AC97B8842D4
:1006A00001D1286A1EE0D148D1490088C96880B2CA
:1006B00006225043081842F7CFF9014614A8062233
:1006C00002305EF719FD13AA00213C2042F791FC8D
:1006D0000121B06D47F7B8FEA9E011A90AA84CF7AF
:1006E000C9FD2862002838D00146253106220FA80E
:1006F0005EF702FD286A08AA2030C17A0FA801E03F
:1007000041E024E04CF716FC002812D0286A203083
:10071000C07A002809D16846B649008C4BF77DFBAA
:1007200008AA0121B3484CF705FC68460AA9008CC9
:100730000AE008AA012111A84CF7FCFB00280CD004
:10074000296A6846008C32314BF77DFB05E00A18B8
:10075000527D002A08D010286DDBF06A407A02280A
:1007600006D0032804D00EE0401C1028EFDBF4E78D
:100770006846008C052806D308AA0AA809994CF7F0
:10078000D9FB002857D00022694620464CF77BFC55
:10079000002850D1F06A407A02280BD0032809D0F3
:1007A0000023684602880AA809994CF78DFC0028A6
:1007B00002D02FE00123F4E7E18A68460181218B12
:1007C0004181618B81817878062241096846817573
:1007D0007878C106C90E6846417521460E305EF72D
:1007E0008BFC189800794006C10F68460175038894
:1007F000214602A8B26D47F7CDF90146B06502A8BF
:1008000042F745FC0020B065214668461C3100884F
:1008100046F731FA49F7B0FA734C2034207A0028B1
:1008200005D0002109205CF76EFC00202072002119
:1008300008465CF710FB19B0F0BDF8B56E4C0646E3
:1008400085000F4660594C21095C24290ED140696E
:100850001022791D2E305EF74FFC61592520403162
:10086000087300221146304654F71BFB60594C2197
:10087000095C0C291FD140691022791D2E305EF7CA
:100880003BFC60595F214069095C09072DD4014692
:100890002E3110221E305EF753FC00280CD0605918
:1008A000092140300173304655F718F801460022FF
:1008B000304653F775FEF8BD0421684601706A465C
:1008C0000521304654F716F8684601786020014348
:1008D00068460170304655F701F8014668460278CF
:1008E0000123304653F771FFF8BD304654F7F6FF49
:1008F000012809D0605907214030017300221146B8
:10090000304654F7CEFAF8BD615900204969C0312C
:10091000887160590421426930461E3253F7EAFF5C
:10092000605941694031897F002907D01A21403040
:1009300001730021304654F73EFBF8BD1B214030C7
:100940000173304654F78CFBF8BDF8B52A4C0546C8
:100950008600A0594C22125C192A11D140224D3038
:10096000491D5EF7C9FBA059402224494D305EF76E
:10097000E7FB002805D02149284620395BF74BFDCD
:10098000F8BD0B21684601706A460521284653F7D9
:10099000B1FF68460178602001436846017028462F
:1009A00054F79CFF0146684602780123284653F716
:1009B0000CFFF8BDFFB581B003980C46060A002570
:1009C0005CF75EFA002827D0132825D0142823D0FE
:1009D0000B48B700C0592030407BC00637D503987C
:1009E0005CF74EFA15280DE030BCFC0768B9FC072F
:1009F00060BBFC0750F5F1073CBEFC07FCBDFC07E3
:100A000078BBFC070CD0A07942F714F8304647F7C2
:100A1000AFF8032806D015E0A07942F70BF81FE0E5
:100A200002251DE03248C0592030407B400704D5E4
:100A30003D21304642F7FCFC04E03D2200213046D7
:100A400042F705FD3D21304646F7DAF808E020463A
:100A5000103828490181468120464EF7C3FD012503
:100A6000284645E524485222006864308188C37EC8
:100A70005143224A12688918FF225F32525AFF31CD
:100A8000120AD21A01310B8CD2B2DB0B09D00B8CBB
:100A90005B045B0C0B84002A03D18088184A012177
:100AA00011547047FFB51746140A81B0104A0298D6
:100AB000A100515840780026114D002907D0295D2A
:100AC000002905D0002803D1204643F715FF2E55F5
:100AD0003A46049B0299019844F79FFE08E50A48AC
:100AE000084901600949416070477047704700003C
:100AF00078BBFC070608000084BBFC074CB9FC0768
:100B0000C98BFC070459F007C0000840490C00BF1E
:100B10007FB5E4486B460188428889186A4611808F
:100B200001214C0022181546403DED8F065B52888E
:100B3000AD19AA18491CC9B21A530729F1D38189E2
:100B4000C089081881B2D981D888002821D0188995
:100B5000002820D0988800281FD0588900281ED04F
:100B6000988900281DD0588800281CD000291CD046
:100B7000188800280BD00720062254001C5B8C42EA
:100B800001D22146D0B2521E52B2002AF5DA04B088
:100B900070BD0320FBE70420F9E70220F7E70520FA
:100BA000F5E70620F3E70120F1E70720EFE7F0B5CE
:100BB00095B0EFF310801090012080F31088BA48B0
:100BC000816B4A07520F69460A800A92816B0122A3
:100BD000C908C9008163B5498B8869464B800224E6
:100BE000B24B00219980C16A09078B0F69468B803F
:100BF0000F93C16A0C2399430831C162052109078B
:100C000009880906CB0F6946CB800521090709939E
:100C100009888023194305231B071980A449898A61
:100C20004906CB0F69460B81A1490893898A402365
:100C300019439F4B9982016A09074B0F69464B8103
:100C40000C93036A0E218B4303629B4D99486860A5
:100C5000FF204030A8602888A0432880974841683A
:100C60000B071B0F69468B810B934168090909012A
:100C700008314160416849064B0F6946CB810D93AD
:100C8000416870239943603141608748403801686A
:100C90008904CB0F69460B820293036841140B430E
:100CA00003600168CB07DB0F69464B820E93016836
:100CB0001143016041688903CA0D69468A82039223
:100CC0004168CA05D20D6946CA82049281688903C7
:100CD000CA0D69460A8301928168CA05D20D694628
:100CE0004A8305924168764A11400322D20389184B
:100CF00041604168490A4902FF31413141608168E0
:100D00006F4A11400322D203891881608168490A21
:100D10004902FF3141318160642000F02DF9A8893A
:100D200069468007C00F8883A8892043A8810024D2
:100D3000604F288800260121084328800A2000F0FF
:100D40001BF9FF205F4941303A680A4200D0761C07
:100D5000401E3F1D0004000CF6D1A88A8004FCD17F
:100D60005149886B671CC208D2007807400F0243C4
:100D70008A630A2000F000F960004A49FCB20E5272
:100D8000082CD5D348480A99826BD208D2000A436E
:100D900082636946454A498891800F998A00C16AF1
:100DA0000C2399431143C1620999CA01052109071E
:100DB000098880239943114305221207118008995D
:100DC0008A013B49898A402399431143384A9182D9
:100DD0000C994A00016A0E23994311430162374876
:100DE0000B994268120912010A4342600D99426848
:100DF000090170239A430A434260029841032A483A
:100E00004038006801225203904308432649403984
:100E100008600E9809684908490001432248403893
:100E20000160039842022048403840682449084045
:100E300010431D4A403A506004985268520A5202C8
:100E400002431948403842600198174A4002403A2C
:100E500092680A400243144840388260124905985B
:100E600040398968490A490201430F484038816086
:100E70001098002800D0012080F3108815B0F0BD34
:100E800010B5114C2078002808D0FFF790FEFFF72E
:100E90003FFE0E4908700020207010BD03F0AEF92F
:100EA0000120F9E77863FC07801000400012004041
:100EB00020300050785EFC07003500504020004094
:100EC000FF01FCFFC0C0C0C0DC8CFC07DA8CFC0753
:100ED00010B5FF22154901320A60BFF34F8FBFF3EF
:100EE0006F8F13490A6013490B6840241B0A1B02C9
:100EF00023430B601049898A0021C30700D03521A4
:100F0000830702D57D231B021943430702D57523AE
:100F10001B041943000702D53D2000060143064883
:100F20002038016301488038026010BD80E100E094
:100F300080E200E008E400E0A010004010B50620C8
:100F400000F01AF810BD10B5092000F015F810BD1A
:100F500010B5812000F010F810BD10B5044800F065
:100F60000BF810BD10B5034800F006F810BD0000E6
:100F7000010200000108000000280CD000BF00BFE3
:100F800000BF00BF00BF00BF00BF00BF00BF00BF69
:100F900000BF401EF0D17047F0B5074608465840E4
:100FA00087B0C00F049048000E4659004008490819
:100FB000BC1A884105D2384631461E4617460B46B4
:100FC00002465800400810434CD0300D03904005B5
:100FD0005900400D490D0590401A0290402872DAE0
:100FE00018030121000B09050843019004980092A1
:100FF000002805D0019952420020884100920190BA
:10100000029840210A1A019900985EF7B9F805463E
:101010000C466B4607CB00F0F1F8C0197141039AFA
:101020000E0D0023D71756401A467A40164344D077
:10103000049A002A2DD0029A012A039A15DC12057F
:10104000C01A914101263605001C7141D20F059E40
:10105000D2070093019202962A46234600F0EEF84A
:1010600007B0F0BD38463146FAE71605224A0F466A
:10107000B218C01AB74101210905001C4F410018E0
:101080007F41114618187941E20F10436D196441F0
:1010900013E0E2076D0815436408C2071443039A7E
:1010A00001261205C01A91413605001C7141CE0778
:1010B000400830434908C01851412A46234600F0F1
:1010C000B0F8CDE7FFE7049801224000C117121ADB
:1010D00000238B4104983146C417381AA141EEE72A
:1010E00030B40124E407634030BC55E730B4012438
:1010F000E407614030BC4FE70000E0FFF0B51FB4EB
:1011000088B00B990998002448400999C00F4900FC
:1011100049080991C0070B990090490049080B91B3
:1011200009990898A64608431CD00B990A980843C9
:1011300018D0099801244000420D4800410D09983B
:1011400024050003000B204309900B980003000BBB
:1011500020430B9050181C4940180022019014465F
:10116000104605E0002001460DB0F0BD032801DA6D
:10117000034600E003239C46C11A0AAE0AE05F0062
:1011800008ADED5B4F00F75B7D430027AA187C415B
:10119000491C5B1E6145F2DD410004AB5A5221043B
:1011A000120C0A43240C401C0828DFDB0198029033
:1011B0000099704601910090059B049A0799069842
:1011C00000F03CF8D0E700000DFCFFFF1CB509481B
:1011D00000900948019005460126009C05E0E3685F
:1011E00007CC33430C3C98471034AC42F7D3FEF79E
:1011F00093FF0000445EFC07745EFC0710B5202AD4
:1012000006DBCB170846203A1041C1170B4306E016
:101210000B461341D0402024A21A9140084319469E
:1012200010BD10B5002B08DA0024401C6141921853
:101230005B411A4301D14008400010BDF0B51FB416
:1012400082B005460C0003D0084603F063FE02E0BE
:1012500003F060FE203002460090214628465DF7EC
:101260008FFF049B059A04460F4618431143084319
:1012700014D0184610431BD0009840210A1A184673
:10128000059962F7DCF805460E46009A0599049820
:101290005DF776FF084305D0012004E0204639467B
:1012A00007B0F0BD0020C11705430E432C43374360
:1012B00000990E986305401A7905E40A00220C4350
:1012C000FD0A0A3002D500200146E9E701051019A0
:1012D00069410C9C0D9D00196941FFF7A2FFDFE7F2
:1012E0000EB5C217C10F5040CA0740180021054B68
:1012F0000293019200910A460B46FFF79FFF03B04D
:1013000000BD0000330400000EB505490291002124
:1013100000910A460B460191FFF790FF03B000BD14
:101320003304000070B5CD0F4A0009030123090BF7
:101330001B0519430B4BED070024520D9A4201DAAD
:10134000002070BD074B34339A4203DC9A1A62F7CF
:1013500076F802E00449511888402C43F1D040420D
:1013600070BD0000FF030000CDFBFFFF014801211D
:10137000018070470E1500500A48011F0988CA07EE
:1013800006D0028807239A432E4B9B7A134303808F
:10139000490706D50188072291432A4A527B0A430E
:1013A00002807047B8100040B0B5D74B08201880B5
:1013B00005200007018830221143018004880321A1
:1013C0000C4304801C896407FCD403889343038086
:1013D00003888B430380F64C638C4380A38C9D1E53
:1013E000194B5D8007251D800588154305800588FC
:1013F0000D4305801D886D07FCD40388934303804B
:1014000002888A4302804289920702D042898A4335
:101410004281018980220A430281018A0422914388
:101420000182818A8907FCD540F77BFFE06B074981
:10143000086007480168490700D500BE01684907F0
:10144000FCD5B0BDD08CFC0700160050080200404F
:1014500010000040FEB51F48058801200190C0041F
:10146000029000241C4E1D4F002D32D0042C30D28F
:10147000E80729D0B889000605D438897989401A47
:101480004142414100E000210198A040114A5080B2
:101490003889029A124B1A60BFF34F8FBFF36F8FD8
:1014A000002907D0B989019A9143B981B9890822E5
:1014B0009143B9813268002A03D0411C706889B217
:1014C0009047029807490860103708366D08641C79
:1014D000CAE7FEBD82360050388CFC07003600504B
:1014E00080E100E000E100E080B50A2000F04EF865
:1014F00080BD80B50B2000F049F880BD80B50C2080
:1015000000F044F880BD80B50D2000F03FF880BDAC
:1015100080B50E2000F03AF880BD0000FEB50193C2
:1015200002920091064601270021384632465DF7B7
:1015300027FED54AD3680B40956805401D4300D16E
:1015400000BED3680B4095680540019C002C06D076
:101550001D4300D100BEB7400B4D2F8005E01D4359
:1015600000D100BEB740084D6F80D3680B40916832
:101570000140194300D100BE029800990143700058
:1015800028188180FEBDC04602300050F0B50346E9
:101590000A3B01210A469A4093B20B4D5C19661C26
:1015A0005E400A4B1C8800272E4203D07F1C760821
:1015B000B6B2F9E79443BAB20D46954025431D8073
:1015C000814050480160F0BDFEFF01000E14005044
:1015D000F8B5044601273E0205200507688DC005C1
:1015E00006D51B2003F0E2F9484801883943018001
:1015F0008036288840013040698A454A0A400243C3
:101600006A8221681148016061684160A168816057
:10161000E168C1602169016161694161A16981611C
:10162000E169C16104623C490A6842624A688262B7
:101630008A68C2624A690263CA684263096981634F
:10164000A88AC00600D4FEE700BEF8BD0090FC07E3
:10165000024800882B481021016070472C1300506D
:10166000F8B5044605200507288A0421014329828C
:101670002889402101432981224801270760224807
:10168000082101803E02688DC00506D51B2003F0AD
:101690008DF91E4801883943018080362888400131
:1016A0003040698A1A4A0A4002436A82216819480E
:1016B000016061684160A1688160E168C160216981
:1016C000016161694161A1698161E169C16104628E
:1016D00011490A6842624A6882628A68C2624A693B
:1016E0000263CA68426309698163A88AC00600D49C
:1016F000FEE700BE688A094908404018001D68825C
:10170000F8BDC04680E200E0003300508000005089
:101710007FFE00005090FC0728ED00E0FC7F0000F9
:101720007047704770B5214CDB4D224EA1880F20C9
:101730000840022809D0042804D00C2820D0012811
:10174000F4D132E003F054F9F0E7AA8B288C9042F0
:101750001DD2696B9042E9D2A288C0231340C02BEE
:1017600003D13288920703D4E0E7228A9206DDD5BE
:10177000421C2A84085C221F1080AA8B288CE9E76F
:1017800003F036F92088012188432080CEE72088A5
:101790000221884320802088802188432080A96BF3
:1017A0000029C3D0A88B8847C0E770BD0411005042
:1017B000D08CFC077C1100500521080702883023DB
:1017C0009A430280028803239A430280828812058A
:1017D0000DD5184A13880B40052B08D11088042119
:1017E000014311801088012188431080704781884F
:1017F000C90606D510498A88D20702D00A8812067F
:1018000010D48088C0060CD50B488188890708D57C
:101810000188C90505D5022181800188074A0A404F
:1018200002807047012088800888802290430880C9
:101830007047C0460002005000010050FFFE00004B
:10184000F8B51620944F38560F4C254626354534AA
:101850000028294600DA21467F2210400E1802F0A7
:1018600049FA39466C31062230465DF745FCFB7C6F
:10187000B97C2846224661F75FFE0448044900F01F
:1018800019F93875F8BDC046488DFC07B80B000043
:101890004118FC0770B53648092104241823224654
:1018A0005BF7A8F805461B202870FD26304661F737
:1018B000F3FE0021A982E96029616C606E80687086
:1018C00028465BF7B2F870BD1FB51446002202929D
:1018D0000192069A00921A46234661F709FD04B068
:1018E00010BD000010B5E748C17B124ACCB20C23F2
:1018F0006343D45CFF2C06D0D318491CC1735B68CA
:10190000002BF3D00DE0017C0B4ACCB21C236343C7
:10191000D45CFF2C08D0D318491C0174DB68002B61
:10192000F3D09847002010BD0021C173017401203D
:1019300010BDC0462C58FC072855FC0770B50C4854
:10194000092104240A2322465BF754F805461B208C
:1019500028701426304661F79FFEFF2174312981DB
:101960006C606E80687028465BF75FF870BDC0469B
:101970001B0D00001FB5144601220292044A019279
:10198000069A00921A46234661F7B2FC04B010BDD5
:101990002C54FC07F8B5CC4FF86D00283FD12248F5
:1019A000092104222C235BF725F80446F86517204B
:1019B00020841E4820800120A076002565802046D6
:1019C0000A3010215DF7B1FB201D00901848461D1C
:1019D0001849062230465DF7B3FB002801D000BE4F
:1019E00004E03E466636304600F0B8FC0622009819
:1019F00031465DF781FB6584E583A5832020E07691
:101A00007E210D48415AFB2900D3FB21E18480212E
:101A1000405A0A49884200D308462085F86D5BF792
:101A200004F80020F865F8BD040D0000030A00006A
:101A3000185EFC07DCF1F107B0BBFC0748080000AA
:101A400070B5154D686D002800D070BD1348092190
:101A5000042252235AF7CEFF0446686507202072FD
:101A60000F48E080A0800D2020800026A67216225C
:101A7000E2720120607220460C300A495DF73CFB9F
:101A80002B20265420462B302C34082106A3224636
:101A900061F740FD686D70BDD08CFC070D0D000036
:101AA0004C040000A85DFC07444C472D50525048A0
:101AB00000000000B0B502466348243000242346ED
:101AC0000A2B0BD00568002D02D0001D5B1CF7E728
:101AD00001605C1CE0B2114600F0B8FBE0B2B0BDA2
:101AE000F8B50446401E09281BD8A00056494718DF
:101AF000386A002817D0564DA84214D020375048D5
:101B00002018401C042631465BF7FDFA3D6008238F
:101B10004B48314632465AF76DFF04705AF785FF3D
:101B2000F8BD00BEF8BD00BEF8BDC0461FB51446E6
:101B30000D220292044A0192069A00921A46234606
:101B400061F7D6FB04B010BD3454FC0710B50C4649
:101B50003949884233D0394A90421DD038498842A9
:101B60003ED12078401E09285AD8800036490818EE
:101B7000416A374A914255D03448814257D12F4863
:101B8000042108230A465AF735FF2178017061685D
:101B900041605AF74AFF4AE02078411ECAB2092A3A
:101BA0003CD88900284A51184A6A284B9A423ED1AB
:101BB000CA6C24310A60616800F048FB37E0626853
:101BC000002A01D100BE62681E48824201D300BED5
:101BD000626820781949401804215BF74AFA26E028
:101BE000531C0121984225D30A32904222D8C1B217
:101BF000091F8900144A5218516A002917D0134B43
:101C0000994214D0124B994211D013462433C01E6E
:101C100000241C60D464C0B2884708E000BE06E01F
:101C200000BE04E00146243100220A60C26402982A
:101C300000210170084610BD0104000003040000EB
:101C400002040000FDFF3F00AC8DFC07DF49FC07EC
:101C5000DD49FC074E488178491C817001780029D4
:101C600000D0704719490023CB7019490A780B70CE
:101C7000012A01D0012100E00221022A00D1032122
:101C800001707047D08CFC0741488178002904D04E
:101C9000491E8170090600D070474178012902D1A0
:101CA00000210180704701780029F5D000220270E0
:101CB000FE2008400228EFD104480122C270481ECD
:101CC000034908707047C046D08CFC0754BAFC0723
:101CD000B4BAFC07B0B50C460025202D04D040F75F
:101CE0000EFE60556D1CF8E70020B0BD10B504462F
:101CF0000548064970225DF7FFF90548001B0549B4
:101D000008801430488010BD70A0FC07B054FC0758
:101D1000B8A0FFFF78A0FC0710B507480188074A64
:101D20001368114C234059181160408851682140B4
:101D30000818506010BDC046183000408CA0FC0749
:101D400010B507480188074A1368074C2340591803
:101D500011604088516821400818506010BDC0468D
:101D60003830004098A0FC070000FFFF07481E2104
:101D70004180018803220A430280018804220A4329
:101D80000280D1480121C1707047C0460016005042
:101D9000D08CFC07F0B593B03F208002C7490A8879
:101DA000024053320A800EAE32200C90307012ACDA
:101DB0000020207003460990012710AA0D9230469A
:101DC0003946BF4DA847BF4B204639460D9D2A4690
:101DD00098473320307020780790304639462A469D
:101DE0002E46099BB64DA847204639463246B54B8C
:101DF0009847207805900EAE3420307012AC099BC5
:101E0000237010AA0D9230463946AD4DA8472046A2
:101E100039460D9D2A46AB4B9847352030702078C7
:101E20000490304639462A462E46099BA44DA847C1
:101E3000204639463246A34B9847207803900EAE91
:101E40003620307012AC099B237010AA0D923046D8
:101E500039469B4DA847204639460D9D2A46994B49
:101E600098473720307020780290304639462A460D
:101E7000099E3346924DA847204639460D9A914B0C
:101E800098472078009012A80C99017010AC089720
:101E90003946224633468A4DA8470EA806210A91A4
:101EA0002246884B984705200190C7438648002F5B
:101EB00029D0C0197821415C7922805C0002441845
:101EC0000EA8C1190D910A98085EFFF709FA0C9047
:101ED0000B9120B2FFF704FA002632467B4BFFF746
:101EE0000DF904460D460C980B993246784BFFF7D6
:101EF00005F922462B46FFF74FF8FFF713FA0D9925
:101F0000C880BF1CD2E772300EA906910A9A5DF70D
:101F1000F3F8059800020799401806B203980002EA
:101F20000499401802B204920098000202994018E5
:101F300003B2059367A031465EF7E0FEFD256B4CCA
:101F40002846A04727460146B248042207920E239E
:101F50000D93674CA047044608200C90A080019880
:101F60006080089800020B9020803046FFF7B8F997
:101F7000604A614BFFF7C2F8FFF7D4F910A9089146
:101F80005E4A9047119860811099E180000CA08111
:101F9000080C20815A4920468847099EA680668001
:101FA000268011961096574857498847039528462A
:101FB000B84701469748079F3A460D9B4C4CA047AF
:101FC00004460C98A080092060800B98208004981B
:101FD000FFF786F9474A484BFFF790F8FFF7A2F959
:101FE0000899464A9047119860811099E180000C49
:101FF000A081080C2081204641498847A680668040
:102000002680119610963F483F4988472846374911
:10201000884701467F483A460D9B354CA047044609
:102020000C98A0800D2060800B9F27800598FFF7FB
:1020300057F9304A304BFFF761F8FFF773F9089909
:102040002E4A9047119860811099E180000CA08180
:10205000080C208120462A498847A6806680268071
:10206000284E30462849884703982049884701462A
:102070000C236848079D2A461D4CA04704460A9A2F
:102080008280112060802780A01D06995DF734F8BA
:1020900020461B49884730461B4988475EF740FE6B
:1020A00028465AF7EDFE032806D14B208000174939
:1020B000FFF700FD0449C88413B0F0BD04130050BD
:1020C000D52AFC07752AFC07D08CFC070000D03FFE
:1020D0000000E83F583A2025642C20593A20256416
:1020E0002C205A3A2025640D0A000000C727F0076B
:1020F000F5C9F1073333333333330F40394EFC071F
:102100002BCAF1078B5BFC07110DF207951DFC072D
:10211000F0B587B0FD2040F756FB01463D4804224C
:102120000F2304925AF766FC03903F2080023A493D
:102130000A8802401F320A8006AC0520207005ADD7
:1021400000262E800121204602912A46334600F0C7
:10215000C1FC022120462A4600F08CFC207808278A
:10216000074061780007000D4018FFF7CDF82B4BB2
:102170003246FEF7C3FF04460D46294B0196324610
:10218000FEF70AFF002F00D00446002F00D00D46B6
:1021900020462946FFF7C6F80746FFF7A1F8024692
:1021A0000B4620462946FEF79BFF1E4B019AFEF781
:1021B000A5FFFFF7B7F805461BA039462A465EF78C
:1021C0009DFD00951C4D103509261CA22846314660
:1021D0003B4602F083FE039CA68019206080029893
:1021E00000022080A01D294632465CF785FF20466C
:1021F0005AF71BFC5EF794FD04985AF741FE03283A
:1022000005D1C8200F49FFF755FC0F49088507B0D5
:10221000F0BDC04606FD0000041300500000B03FB2
:10222000000070C00088C34054656D703A2025647A
:102230002E25640D0A000000488DFC0725642E251C
:10224000303464001121FC07D08CFC0770B50C46BB
:10225000054619490888000618480ED5184A12681C
:1022600012040AD4174A1288D20706D14019801CDA
:10227000042122465AF7FDFE70BDEFF310830122C0
:1022800082F310880988090603D40F490E88164383
:102290000E80002B02D082F3108802E0002181F32F
:1022A0001088042108230A465AF7A4FB44600570ED
:1022B0005AF7BBFB70BDC046080000500104000087
:1022C0003000004054BAFC0708330050704700004B
:1022D00070B514460D4610465AF7D2FD01282ED18E
:1022E000287801020831AA791648002A0CD089B250
:1022F000062322465AF77EFB0646A87860F796F832
:102300003080A879307113E0AA8889B2921D93B207
:1023100022465AF76FFB0646A87860F787F8002137
:1023200031713080AA887280701DE91D5CF7E4FE6F
:1023300030465AF77AFB002120465AF78CFD0020E0
:1023400070BDC046140C0000FD2801D0002070476D
:10235000004870472855FC077047704710B5044681
:1023600040793F280FD840F7CAFA2070010EE1707B
:10237000010CA170000A607040F7C1FA2071000AD8
:10238000C0210143617110BD80B502F07FFB80BDAB
:102390001C49498C0180704780B51A490A7802703F
:1023A000401C491C5CF7A8FE80BDC0467D21C18051
:1023B000002181801021418008210180704780B573
:1023C00061F77EF8002801D002F060FB80BD0000BC
:1023D00010B50C46017801290BD000290ED1428896
:1023E00008490A704B1C011DD2B218465CF784FEE6
:1023F00002E0408803494884002000E04820207023
:1024000010BDC046AC8DFC070020888048800120AC
:102410000870704780B55EF7AFFD80BDF8B56946BE
:10242000C870020A8A70020C4A70000E08700846D2
:102430005EF78AFD8FBD000080B5994800210160DC
:10244000FEF786FD944800781F214901914A1368E0
:102450008B43C006800DC018106080BD80B58F48CA
:1024600002210170FEF76AFD80BDC046F8B51F4627
:102470000C46087808281CD80725002100911AA6C8
:10248000784400794000874419040C0406060F09BB
:1024900012001A4E12E00D25174E0FE0062514A665
:1024A0000CE00A2516A609E008251AA606E017A6DC
:1024B00004E000BE0026012000903546AB1C184801
:1024C00039465AF797FA0746207838707D70009899
:1024D000002804D1B81C31462A465CF70DFE384668
:1024E0005AF7A3FA0020F8BD52656E657361730058
:1024F000FFEEDDCCBBAA00001E5DFC07165DFC07ED
:10250000312E302E302E302D4C45000001D200806F
:1025100005000100123456FFFE9ABCDE00000000E8
:1025200003140000F0B50A79530140241C40130144
:1025300080251D401609360275192C19D200202558
:102540001540621910241C4012190B785B000824F6
:102550001C40121906241C401219CB79DB079B0C76
:102560004C796508ED07ED0CEB18E407240D1B19F9
:10257000134383818A790F2A43D0354A8218042372
:10258000DA41931E022B1BD3012A3AD8EFF31083B2
:10259000012282F310888D792E4C2688F6B23609F6
:1025A000B54203D12688F0273743278026880F2796
:1025B000BE432E432680002B1CD082F3108820E0DF
:1025C000EFF31083012282F31088224C27880F2614
:1025D00037408D79AF4202D127883743278026883C
:1025E000F027BE432D0135432580002B06D082F312
:1025F000108806E0002282F3108802E0002282F3B5
:1026000010888A680280120C4280CA688280120C8C
:10261000C2800A8A521E42814A88002A00D10A8A50
:10262000430838241C404B690B4D2B51521E02812C
:10263000281989694160FF20000608490A68824319
:102640000120C307D2180A60C00405490860F0BD24
:1026500000CAFFAF80360050388CFC0710E400E061
:1026600000E100E080B50B4801688905C90E0A4AFF
:1026700011701F21490102688A4302600748012145
:1026800001700748016803220A430260FEF760FCFC
:1026900080BDC0464C120040745EFC07061000402E
:1026A000AC10004010B50C78012C03D0092C09D0D7
:1026B0004C7802E04C78432C02D0002C00D000BEB5
:1026C00002F0B6FA002010BDF8B51D4610460C46C3
:1026D0005AF7D6FB022824D12D0A00D000BE0C20C8
:1026E00068431B490F183D77FF2D15D01A37012677
:1026F000FE70042003215AF7AEFB20883880607AF0
:102700003871781D21460A3106225CF7F5FC00215C
:102710002846324660F7E8FE2846214602F02EFAA7
:1027200000E000BE0020F8BD10B51C4610465AF768
:10273000A7FB032809D1200A0C2141430448401873
:10274000FF21818302F056FA00E000BE002010BD98
:10275000488DFC07F0B589B01D461446087802285C
:102760002CD001281FD000283AD101AE20213046BC
:102770005CF7DBFC1D480778411C30463A465CF7A5
:10278000BBFC3B460A331848294622465AF732F921
:102790000446478000202070201D31463A465CF7F1
:1027A000ABFC20461AE01148468C0F480A23294604
:1027B00022465AF71FF9468001210EE00A480A23F3
:1027C000294622465AF716F97D2101810021C18050
:1027D0001021818008214180022101705AF725F9DA
:1027E000002009B0F0BDC0460B0E0000AC8DFC0708
:1027F00080B560F721FD80BD80B560F7FDFC80BD30
:1028000080B560F734FD80BD80B560F7BBFC80BD4E
:1028100080B560F737FC80BDB0B50C78641E122C13
:102820001ED8C0467C4424796400A7440B191019B3
:102830001919191919191909150909190909090085
:102840000020B0BD487800280DD000BEF8E74878D9
:1028500000280BD000BEF3E7487802F07BF9EFE7E1
:1028600002F0E6F9ECE7FFF795F8E9E7FFF7A7FDD7
:10287000E6E7000010B510465AF702FB002801D029
:1028800000BE09E0054809210422012423465AF725
:10289000B1F804705AF7C9F8002010BD020D00000D
:1028A00080B560F790FC80BD80B560F7D2FC80BD3C
:1028B000F0B589B0039316460C46FD205EF798FCF0
:1028C0000290002800D100BE08A900270F702088C0
:1028D0005FF7BAFD05466088002800D000BE002DD5
:1028E00078D1FD20FFF730FD002800D100BE03990C
:1028F000090A009108A90A7814215143436859181C
:102900000B79022B24D109680988394B99421FD1D0
:1029100000200590049020885FF731FD002800D149
:1029200000BE07A9002204AB4EF71EFB01204002A7
:1029300007990140480A21465FF70CFDC5B2002DFA
:1029400029D1E28808A8017800985FF7DEFE22E02E
:1029500001968669002E3D4606D0A5886188A31D94
:1029600010462A46B047054605970497208804A9D3
:102970004EF775F8002D019E0DD108200499085ED0
:10298000002807D46288A1882088A31D4EF7D1F8BB
:10299000054600E00025002D1CD10298009F394615
:1029A0005EF744FC0146A088801D83B21148324680
:1029B0005AF720F80546801DA288A11D5CF79CFBF4
:1029C00008A800786880A088A8802F7028465AF749
:1029D0002CF8002508480423039932465AF70AF8D0
:1029E0008570218801805AF720F8002009B0F0BDD9
:1029F000022900000AFD0000160C000070B5EFF37C
:102A00001085012484F3108805200607708DC00509
:102A100009D57548447201F0BFFF1149087011488B
:102A200000882040487030888021014331800E4862
:102A3000016807229143016041684907FCD531884C
:102A4000090600D400BE0949016109494161002D10
:102A500002D084F3108870BD002080F3108870BD10
:102A60008863FC07800000500000F4070F009909FC
:102A7000090404A4F8B500920022304D144C174606
:102A800016468F421DD28E420ED2A38B9B070BD5CA
:102A9000761C8E4201D0012300E003231B022B8011
:102AA000F1E72B88C3557F1C8F4204D2A38C9B0671
:102AB000F7D1BFB200E00F46A38D002BE1D02088F4
:102AC00000E013460098002800D00380F8BDC046FF
:102AD00054130050FCB501925A0000931A4302258A
:102AE00015400026144C154B0F0416D0491E27889C
:102AF000BF07FCD58AB257425741002D01D12F465E
:102B000000E07F02825D3A431A80761C278A002FFC
:102B1000EAD01C3C208801990AE000270098C007F1
:102B2000019905D020884007FCD520888006FCD478
:102B3000002900D00F80FCBD70130050101300500E
:102B400070B5174EB06800F02DF827490A6C0023C5
:102B50000B641518084C284621465CF753FA70613F
:102B600006494143481901D0201A80B230613068CB
:102B700008210143316070BD710200008FFDFFFF2D
:102B800080B506480021016001F0CCFE0120C0079D
:102B900003490A6882430A6080BDC046A8B9FC07A1
:102BA0003000004080B50246C00B09D00E48006DD1
:102BB00000210B465CF750FA8905800A401880BD59
:102BC0000948006D4243900A80BDC04680B5FFF7BA
:102BD000E9FF80BD80B50449896C4143034808186A
:102BE00003495CF70FFA80BDD08CFC0720A10700D9
:102BF00040420F0000B59DB0A84808230380002084
:102C0000A74C1A901A98002811DC00201C901C99DF
:102C10001A980B2909DC3021414360181C9989005E
:102C2000002242501C98401CF0E7401CE9E70B933F
:102C300061690020C343012200291892154600D083
:102C40001D466A01F94FBE6816432A46FD68BE60FC
:102C50001592D60E00291F4600D10F467901891919
:102C60002943F24FF96061680029189A00D01A468A
:102C70001792D50F00291E4600D10E467100491942
:102C8000FA680A43B968FA60179A52000A43BA60B0
:102C900021690029189A00D01A461692150F0029AA
:102CA0001E4600D10E4631014919FA680A43B96837
:102CB000FA60169A12010A43BA60216800291D467B
:102CC00000D10D46FA682A43BD68FA600029189FB2
:102CD00000D01F463D43D5498D60E568002D189909
:102CE00000D019464E0F002D1A4600D12A46D200B8
:102CF0009219CE4EF5681543B268F560CD001543C4
:102D0000B5602760179A6260E16016992161159994
:102D10006161256A002D189900D019460A02B7682A
:102D20001743F2681792B7600F0E002D1A4600D1B4
:102D30002A461202D219179D2A43BC4FFA6021621B
:102D4000616A002900D01893189D6A02BE68164374
:102D5000FA68BE60EE0D002900D10B4659028919B0
:102D60001143F96018996162F860B8601A901A9876
:102D7000002834DC00201C901C980B282CDC1C98AC
:102D80001A990B2828D830201A99414361181C9AA7
:102D900092008958491C00D100BE1A99414361181C
:102DA0001C9A92008958002913D01A994843201878
:102DB0001C9989004058C1171C9A5CF7E1F91A9ACE
:102DC00012015CF7DDF9FA680A43B968FA60014359
:102DD000B9601C98401CCEE71A98401CC6E7A04E6C
:102DE000308819AC20802088C046C0462088042145
:102DF0001891C943084202D00020308003E0B08916
:102E000001218843B0810B9BB08B9649014007207C
:102E10001390C0020818B083934F38881843388045
:102E2000F88D06229043F8850124A003B18B01435D
:102E3000B18338888D4901403980788809921043E0
:102E40009843788005200E900507698D0F2000902B
:102E50000202F88D90437D22D200C9058449049274
:102E600020D4032149020843F8858248401CF98D8B
:102E70000143F985B08B9843B083B08B042188431C
:102E8000B08378887C4901407980F88D2043F885AB
:102E90002646688D4007FCD51BE0C0460033005035
:102EA000A08CFC0710181830F885F88D0840E10355
:102EB0004018F885B08B1843B083B08B18998843BD
:102EC000B083F88DA043F885B08B40218843B08350
:102ED0002646300211906249888B032203921043E8
:102EE000888338882022104340231293DB43184004
:102EF0003880088C1492104318400884E88A802196
:102F00000C9108431840E882288EFF210A918843DB
:102F10002886288F189A10431821089188432887FB
:102F2000288FA02101430F9319402987534802801D
:102F3000A88853490140A980300452490860FFF72E
:102F40005DFD514A1068139908401AA90870087865
:102F500002280E9C1CD0688D1199084210D001F0F7
:102F60001BFD0A2802D80B2001F020FDF88DC007B8
:102F7000454A05D1F88D3043F885688D4007FCD56A
:102F8000106802210143A143116050684007FCD53D
:102F90003E480068C1B20C20AA29014600D0189909
:102FA0002A88824388182880C046C046384800686E
:102FB000384909886823384C00220D921093E25258
:102FC000364B1A466032918018663046C046C0467D
:102FD0003348001F006833498842169600D052E1FA
:102FE00000980707042000210791159703462C4AF3
:102FF0001118081FEC32904200D347E11893006883
:103000001C901C9B3B40092004071C9AA3425CD1E6
:103010001C9B1E0AF3B21793D2B2531E162B00D973
:10302000F4E003A45B00E35A5B009F44488DFC0777
:1030300009010901EF000901EF003D00B300EF00B5
:10304000EF00EF00EF00EF00EF00EF00EF00EF0008
:10305000C6009500DB008E00EF00E900A900C04625
:1030600004030050FFC3000052000050FFBF0000E7
:10307000FF0F0000FFEF0000FFF90000000200500A
:10308000FFF7000080E200E00000F407D07FF807BF
:10309000D47FF807D87FF807CC8BFC07D08CFC07CF
:1030A000D47EF807A5A5A5A5C04C109FE05DC00083
:1030B0002018179A92005CF71FF8E05D8019E05520
:1030C000C0B2052877D300BE75E0900F11D01C98D0
:1030D000B74988420DD8189B184608302946283130
:1030E0001C9A8A42B14C26D1B2495958B24A118031
:1030F0007CE71C983840139909078842AB4C05D1EE
:103100000020C046C0461898001D6FE71C98384044
:10311000F1078842189A0CD01C9838400E9949073C
:10312000884206D01C98384003994907884200D04D
:1031300098E0101D5AE7A91C1C9A8A4200D087E02B
:103140009C4959586622A15250E79A481899085844
:103150006221964A505273E0964A189B9958484308
:103160009A58120C801A00B2C0085A238F4CE052B1
:10317000501A8108914A11400818401C58212FE02C
:103180008C48189908586421884A5052000457D135
:1031900000BE55E06924854F385DC00038181030F6
:1031A000179A92005BF7A8FF385D80193855C0B2B6
:1031B0000D2800D300BE159F42E07E4A189B995807
:1031C00048439A58120C801A00B2C0085623774C14
:1031D000E052501A8108794A11400818401C5421C5
:1031E00060522DE0079CA0001AAA1018179EB2008A
:1031F0005BF782FF34190794032C21D300BE1FE034
:103200006C48189908586949086519E01E2A17D1B1
:1032100017984008020613D00B684A68083100244A
:1032200026460836382E08D0604F3C1924699C4247
:103230003446F6D15D4B9B19DA60401E159FE9E7D5
:103240001798800018990818001D169E574CCDE657
:10325000294624311C9A8A420AD156495958564A5D
:103260005180C3E61C98401C10D000BE1046BDE63D
:10327000294620311C9A8A4200D0B7E64D49595858
:103280004D4A9180B2E66620265A36E05C201A99B3
:10329000215209201B9948430A0C801A00B2C00829
:1032A0006023E052501A8108444A11400818401C1B
:1032B0005E216052109AA05CC10701D000BEA05CE4
:1032C0004008A0546920215CCA073D4F049A01D0F0
:1032D00000BE215C490821546420215A002900D1F4
:1032E00022526620265A002E07D136490968C9B2F3
:1032F000AA290C9E00D06E26265233484684A88CFC
:10330000169CA043A8840D20FDF736FE6889204353
:10331000022110918843688168894006FCD56E803F
:103320000498FDF729FE68890399884368810E9CFB
:1033300068890006FCD57F202349087121488069EF
:1033400022498860EFF31086169880F31088288849
:103350000C99084328801E4A10681399884310600E
:1033600011990D9B50684007FCD51A4810611A4806
:10337000506128880C9A90432880688D08420ED0AE
:1033800011484372114C207801F010FB0D9B6078BE
:103390000E9C002803D1F88D16998843F885002EDD
:1033A0001CD0169880F310881BE0C046CC8BFC071D
:1033B0004C420050D47EF807A000FC07FF3F0000FD
:1033C00052000050D07FF807D08CFC078863FC07C0
:1033D0000000F4070F009909090404A4002080F3F9
:1033E00010889F4E9F4800689F49884200D0C6E0E1
:1033F0009E489F495BF799FE139801029D485BF731
:1034000094FEFDF773FB9C489C4901609C489D49D4
:10341000302202925BF770FE9B4827460024C4715D
:10342000847144710471C470847044703F21179199
:103430000170964896A1129A5BF75EFEA44804704C
:10344000A448A5490160A548A5490160A549A64829
:103450000860A6480A210170A54818940470A54880
:1034600032210E910170A4480760A44816990160AA
:10347000A3480760A34809990160A3481399016014
:10348000A2480B9C04601198801DA1490860A149C5
:103490000860A1487549016000F08AFC28890299FA
:1034A0008843288128890C9908432881288920434A
:1034B0002881288C1699884328846889089988432C
:1034C00068812889129908432881288A0421884321
:1034D0002882A88A8007FCD5E88CF64908400B2191
:1034E00009020143E984E88C169B1843E884688943
:1034F000204310210D9188436881688C984368842B
:103500002889129988432881EB4837309C07216825
:103510000140216017984002E84A1168814358032E
:1035200008181060E648401C116801431160DF482C
:103530000068DF498842E34F15943DD0D4480068C5
:10354000DE498860E04A90681071010ED171010C6B
:103550009171000A50711198C030DC490A46002868
:1035600017D0401E435C16783446039F3C40D64F2C
:103570003C1924795C4074401470521CEFE7D44825
:10358000D2496202934200D932E71A585A501B1DA1
:10359000F7E7CD4C1C34CD491C2220465DF740FD99
:1035A0000028C14EC74F00D000BE20465DF7CCFCBE
:1035B000BE48BF490160159CB54800683EF74AFE09
:1035C000C44918980871C870206811990843206090
:1035D000FEF7CCFB169C204600F0D8FD387800287A
:1035E00001D07C7004E00020BA49C870BA49087064
:1035F000BA481A300C215BF798FDB948482101728E
:103600005021C1715222827141712D210171189C8A
:103610004484B44901600427B349384659F7E9FBAB
:103620000A98AE49087713973846214659F713FC94
:10363000A44F38466C308480AC48F8667C74A74848
:103640002630AB49162422465BF756FD7C8260F794
:103650004FF83878002861D03846169F477063E0ED
:10366000003300509CB8FC076587341200A0FC07AB
:10367000AC14000000B9FC0760BAFC070458FC0752
:1036800000BAFC077CFCF107DAB9FC07B0BCFC0708
:103690002000800000C000000000840000002822FC
:1036A000000000000000040000F7FFFF7F000000A2
:1036B00030F0FF0F000000000004000000000000D8
:1036C00000000000000000000000000000000000FA
:1036D000FDB9FC0750B9FC07603FF20754B9FC077D
:1036E000AC59FC0758B9FC077C58FC07B0B9FC077B
:1036F000B1B9FC07D9B9FC075CB9FC0760B9FC0794
:1037000064B9FC0768B9FC076CB9FC0770B9FC0721
:1037100048B9FC0744B9FC074CB9FC0700206D49C7
:10372000C8706D490870169F72A05DF7F1FAFFF737
:1037300027FA0520FDF7CCFB734874490818744933
:1037400040188008401E0A90780201901798800265
:103750000990F80317905B4F159C5E492889000675
:1037600000D461E1206B179A104200D05CE1088818
:10377000C00700D058E159F740FE0024204600F071
:1037800005FDF87A042800D04AE1169800F0FEFC06
:103790001A941AA8042631464AF7D0F9002800D115
:1037A0003DE116985B49086008680028FCD115982F
:1037B000C069F96A884201D2FC622146411ACA09ED
:1037C000397B182A00D865E0C90700D065E0524F60
:1037D0003988089179880791B9880691F988059107
:1037E0003C80019C214610317980129ABA805C217C
:1037F0004A4B595AB9813349C862B8891043029972
:10380000C9430840B88146480260BFF34F8FBFF3F9
:103810006F8F388810433880F88810430840F8804C
:103820003888B0433880B888C0B2B880F888702132
:103830000140402900D07FE06220185A0028394911
:1038400000D00146204841803748401C3988014358
:1038500039801920FDF790FB38882043388038885C
:1038600012990843388078883043788078882F49C7
:1038700008407880009840027988014379807888F0
:103880002B4908401199081880307880294866E053
:103890004CB9FC07C80700D1C1E0386B401C386345
:1038A00000F022FEBBE0C046003300509CB8FC078D
:1038B00065873412FFF00000C8FEFFFF00020040E1
:1038C000FFFF1F00D08CFC078863FC07208EFC07DD
:1038D00000B0FC0754BAFC07B4BAFC07488DFC07DB
:1038E000AC8DFC0708444C470C54FC0705FFCDABDE
:1038F000A85DFC0741707020496E697469616C694C
:103900007A65640D0A000000685D00001001FC0784
:10391000030004F8FC00004000150050CC8BFC07AD
:1039200080E100E040760000FF0F0000FF1F000074
:103930003FFE0000FCFF00003888D849084038806E
:103940007888E349084078807888039988437880AC
:10395000DB4A1046403839880140398010462346FA
:103960007988014079803888169A10433880049C01
:103970002046173039890140E64E3183798901406C
:10398000718338890999084018433881788908403B
:103990001843788138881099084338803888800720
:1039A000FCD4FA81388ABF494988DA4E328B3B8988
:1039B0003746099E33401343C24A13817A8BC14B69
:1039C0005B893340BF4E13437381401A2146414304
:1039D000002804DCBF4A8918C017084001E0BE482F
:1039E0000818BE495BF724FB8409193438797F280D
:1039F0000CD0201A41B2C9114840401A40B20528E3
:103A000005DB386B401C386300F06EFD3C71079895
:103A100070800698B0800598F080089830809B4EA2
:103A20005DF77EF9159CA44972B6087902281898AA
:103A300002D09D480068806A1A903089C00700D083
:103A400021E158F7A6FD9C49002800D11BE1C87868
:103A5000012800D0A5E0A88AC00700D089E0088826
:103A6000002800D09DE09E48806A002803D08E4840
:103A70000068806A1A9000F055FF8F4FB9781AA835
:103A800059F77FFB39460028C74F00D189E02069EC
:103A9000400600D585E0884881781AA84AF74EF894
:103AA000854900287DD00998FF30874A1188014058
:103AB0001198014311801A98002806D0216A7B4A88
:103AC0008918DA2901D8401E1A90B88C754AD16835
:103AD00008181061E06B834B18400843E063E06B0B
:103AE00081490840516989020143E163E06B7149F2
:103AF0000840116949050818E0631A9A7B48824218
:103B000000D300BE624903C900235BF7A5FA09038D
:103B1000000D411863484069821C8A4200D0481E4B
:103B2000654909794A1E914145F71EFF7048C06AF0
:103B300080471799206B0842FCD011995C4A1068A5
:103B40000842FCD010680C998843106070894528A1
:103B500003D846217181081A38643EF7B6FB5449F0
:103B60008868F86308680006FCD528890C998843A2
:103B7000288152480178288A139B18432882534A87
:103B8000106818431060434E3089169FB843308147
:103B9000688A012907D10D998843688211993B4EA3
:103BA00031E030BF6FE00D9C20436882688A184383
:103BB0006882FEF723FF688A2043688238480A99A2
:103BC0000162EFF3108087F3108829880C9A9143E3
:103BD0002980002802D087F3108802E0002080F3BB
:103BE00010881199704A294E688D0842159C0AD098
:103BF000002050720B2000F0D9FE2749C88D169A7C
:103C00001043C885119900202883688D084206D189
:103C100021490888129A1043149A904308801D4A3B
:103C2000108C12990843149988431084A88C169F0D
:103C3000B843A8840D20FDF79FF96889384310998F
:103C40008843688168894006FCD50E986880A88AF8
:103C5000C006139F01D50B98308030BFA88AF14968
:103C60000888149A10430F9B184008800949088C53
:103C700010431840088400F09BF814490868B843C2
:103C80000860E74F0C4962B668E5C0460033005053
:103C9000488DFC070403005052000050FFEF000065
:103CA0000000F4078863FC0758B9FC07C8FEFFFF53
:103CB00000020040FFFF1F0054BAFC07B4BAFC0723
:103CC0003FFE0000001500503830005010ED00E0BD
:103CD000FFE100002BFDFFFFD5020000AA05000058
:103CE00074BEFC0700FCFFFFFF03E0FF40420F0033
:103CF00058BFFC07CA4801466C318A88521C0A71B9
:103D0000130A4B7191B2044A914202D170210022F0
:103D100042527047D08CFC07FFFF000010B56921AC
:103D20000D48415C143000228A4206D20368041F09
:103D3000246823600830521CF6E710BD10B56821D6
:103D40000548415C00228A4204D218C81C60003039
:103D5000521CF8E710BDC046CC8BFC07B0B5B04C88
:103D6000617D002900D000BE88002518A86D583557
:103D7000002813D109020A310C4804220E2358F7F7
:103D800039FE092101702860102181800021818184
:103D900041817D220281C1800821418058F745FE82
:103DA000002060742860B0BDD08CFC070E0E0000AF
:103DB000F0B591B0974DE88997490140E981E88CC9
:103DC000C005964E1AD59648407A012803D100F0D6
:103DD000E3FD1B2812D8934C2088C00400D4B08A7D
:103DE000FF201C30904908801B2000F0DFFDE08D93
:103DF00001210143E185E88C4007FCD58B488CA16B
:103E000018225BF779F990A092491CC81CC1FCF7F5
:103E100066FE914891490160EFF31080012383F31E
:103E2000108829884022039211432980002802D05B
:103E300083F3108802E0002080F31088884801880E
:103E4000884DA98980242143A98187490B220A80B2
:103E50000821029129800027AF80A9890494A143F9
:103E6000A98103210591A98183830784878407AEF3
:103E7000378277800420019030700D970C970A9755
:103E800009957A4808900693794C20463146FEF70A
:103E900049FBF771059D357172480A901034204630
:103EA0003146FEF73FFB5E488763069901722E029A
:103EB0000520704D3146019C22463B46A8471D22F5
:103EC00006983146069BA8471C22204631463B46B1
:103ED000A8471B22384631463B46A8471A22059878
:103EE00039463B46A84709240298064639462246E9
:103EF0003B46A8470A222046069C39463B46A8472F
:103F00004649088820430880EFF3108084F3108826
:103F1000404B1A8820210A431A80002802D084F3DB
:103F2000108801E087F3108853480288A24302807A
:103F30000288D207FCD1514D2F864822AA824F22F7
:103F40002A833746AE8317222A842A8806239A4377
:103F50002A801F22D243AB8F1340AB872B8F134095
:103F60002B872A8822432A802A88039B1A432A8087
:103F70002A880A432A802A8810218A432A80AA880C
:103F80003F4B13401F33AB800288224302803F2205
:103F900096020288D207FCD03A480268049B1A4372
:103FA0007F239A4302603848016007A80599417051
:103FB000077010AA0224354F21462346B84734A083
:103FC0005CF7A6FE3848FCF7D7FFA888304053219D
:103FD0000143A98007A83549018010AF34493980D1
:103FE0000FAA0692334911800EAE2146324623466F
:103FF000264DA8473846214632462346A84706980C
:10400000214632462346A8472BA05CF781FE11B01B
:10401000F0BDC046040000507FFE00000C030050BD
:10402000D08CFC07520000508863FC072000084039
:10403000F99DF00700000000E3A1F1070000000077
:104040004FA4F107000000000D05FC073B08FC072A
:104050004B09FC07C000FC070000084007001000E7
:104060007C11005000110050C011005005000300E9
:10407000003600501D15FC076C1300500013005053
:1040800000FCFFFF04E400E000E100E0D52AFC07AB
:104090004D43503938303820696E697469616C69F4
:1040A0007A65640D0A000000983A00002D080000AF
:1040B000310B00002C0A00004144584C33343520A9
:1040C000696E697469616C697A65640D0A00000043
:1040D0000549884200D000BE04480188044A1140C6
:1040E0008918091D0180704711111111120000502B
:1040F000FC7F0000F8B504460026234F302E0FD079
:10410000BD19E88AFD2801D1064969605DF7F6F816
:10411000002803D082682846214690471836EDE7EC
:10412000F8BDC0469057FC07B0B50025164C0028D6
:1041300026D1012D26D8FF20E0820020206060607B
:10414000A060E060206110202843C0B2A082214618
:1041500058F74FFE18346D1CEBE7E08A5DF7CEF898
:10416000002802D04168204688470020E081606036
:10417000A060FF20E082207D58F795FE18346D1C6A
:10418000012DEAD9B0BDC046588CFC07B0B5D04D62
:10419000E978012921D11149002803D00888400776
:1041A000FCD402E00888400717D40023EB70C888CD
:1041B0008988000444181F204006492122465FF7E1
:1041C0004FF9074A03C264214143080CA86405481B
:1041D0006043800B401C40082865B0BD00160050AD
:1041E000488DFC071111010010B5F24C0820207019
:1041F0001120FCF7C1FE0320607010BDFEB56248BF
:1042000003250570614C20461438016814220A43C6
:104210006B218A430260A06A5D4988610020C04327
:10422000A06220683F2188432060206859490840E7
:10423000206060685849084001210191890202917B
:104240004018606060684021014330208143616014
:10425000A069524908400B2149064018A061A06995
:104260004F49084069024018A061A0691821014324
:1042700027208143A161432020714A4880474A4852
:1042800080474A488047404805700095484806687E
:104290004848804748488047206848490840F10519
:1042A000401820603B4E403620683040490C401892
:1042B00020604127277160683749084002994018FB
:1042C00060603848804738488047384880472E48E3
:1042D0000570374805683748804737488047206869
:1042E00036490840E9054018206020683040490CF4
:1042F00040182060277160682749084002994018DB
:1043000060602848804728488047284880471E48E2
:1043100000990170264800682168284A1140C205AA
:104320008918216021683140254D0540A8010818F1
:1043300020606068019988436060154EB069A06292
:1043400020681C21014323208143216020681149FA
:1043500008402060A06911490840072189064018DB
:10436000A061A0690E4908400F21C9014018A06151
:10437000A0691E21014321208143A1610D4880478E
:104380000D488047F586FEBD0510004018300040FE
:104390008863FC07FF7FFFFFFFF9FFFFFFFFFFC000
:1043A0003FF0FFFF5D24FC076526FC075B0FFC0761
:1043B000883000403924FC07470FFC07FFFF7F00CF
:1043C000FF01000070470000F0B58BB030220021E3
:1043D00081541F221204344B1D689543012462044A
:1043E000AA181A60324B334D4561334D334E344F6A
:1043F000344AC261066243622C4A8262C562324A12
:1044000007604260E004C74A1368834313602829A9
:1044100003D001A84154491CF9E72C4800684030FA
:1044200001A928225AF768FEC24DAC73FFF7DCFEE3
:10443000FFF784FCFFF772FC00F07EF900F00EFB42
:1044400000F06AF8FFF7DAFE2C7322480088072193
:1044500001406973FCF714FDFDF75EFCFDF770FC8D
:104460001D490B881D4804681D4A1440E318036069
:104470001C4B1C88856915402C1984615B88C469B4
:104480001440E318C3614B8A046A1440E3180362C2
:10449000898A436A134059184162A44802218170F5
:1044A000002101800BB0F0BD740000401545FC07F1
:1044B0001145FC07FD45FC07E145FC072117FC07FA
:1044C000B945FC07BB45FC07C543FC074CB9FC07D5
:1044D000D08CFC07B81000401030004088A0FC07CA
:1044E0000000FFFF6430004080B5FFF77DFEFFF75E
:1044F00015FC00F021F900F0B1FAFCF7C1FCFDF762
:104500000BFC8A48022181700021018080BDC046D9
:1045100000207047704700000E4908880E4A02408C
:1045200001204302D2180A8041057E4A13688B435A
:104530001360810700224A671F2212044B6F9343C6
:104540004004181848670868E0220243102082439C
:104550000A60704738300050FFFC000080B51F2013
:10456000000401218A07536F8343480418185067D9
:1045700010680721884310600D48018808220A430B
:104580000280FFF731FEFFF7D9FBFFF7C7FB00F012
:10459000D3F800F063FAFFF7BFFFFDF7D1FB6348E4
:1045A00002218170002101800520FCF791FC80BD73
:1045B0000800005004100040704780B5E62800D382
:1045C000E620282800D82820F9214A0042437D20EF
:1045D000C10010465AF716FD7F38C0B280BD0000FA
:1045E0000548016807220A430260012080044D4902
:1045F0000A6882430A60704730000040022902D0F6
:10460000012900D000BE002802D0FF2804D000BE3F
:10461000022901D10C207047D848807B002800D0A7
:1046200009207047F8B53F480168C90703D0016801
:1046300002220A43026001240168490203D5A10550
:1046400002680A430260270265023749009508465E
:1046500008380668002E63D0300606D58020086032
:1046600049F715F9FDF782FB2F49B00704D5022061
:10467000086045F70AF82C49300714D5082008606F
:10468000FCF7F0F93D4627460024204644F7B6FFE4
:1046900025490420EC4AD0720220244A90701480EC
:1046A0003C462F46009D3E4204D00F60012044F757
:1046B000A5FF1D492E4203D00D6049F751F91A4953
:1046C000700604D54020086044F793FF1649F006B1
:1046D00004D51020086043F74FFB134970070FD52E
:1046E0000420086012490888A043088058F7ECFEAF
:1046F0003DF7A6FFFDF73AFB0B490020D24AD072E6
:10470000F00707D00C6058F7FBFE49F7C0F80649E0
:10471000CD48C472B0069AD52020086000BE96E746
:10472000F8BDC046000200401800004004100040E0
:1047300008330050D08CFC07FCB57F2000025A4A99
:10474000516981430B20000208185061106880B243
:104750005649401810609069554C04400123580395
:10476000009020189061032001900002146B044314
:104770001463908F1024044394879088184390808A
:10478000BF484C4A02604C4A104610384B4CA58B2F
:10479000054015204301E8185030A0836069484D5A
:1047A0000540484828186061A069474D0540092028
:1047B00040022818A0612068444D0540444828184C
:1047C00020606068434D0540434828186060A06839
:1047D000424D054042482818A060E068414D054020
:1047E00041482818E060D348807B002802D1C120CE
:1047F000400100E03D483E4D2860052080023D4FCD
:104800003880401DB880388C55260643AA20864340
:104810003E84FF266C363046C93038853649084616
:104820000E30B88535483886B986C01D388734487B
:104830002085A06B3349014033480818A063334CEE
:104840002680208F10401F462037C019208730480F
:10485000018811408919D531018081881140C9181A
:10486000818001891140C91901812136A68029481A
:1048700001881140C91860310180818A19220A43D8
:1048800006218A438282A88F234901400098081894
:10489000A88722480168019A1143042291430160CC
:1048A0001F486866FCBDC046203000400000888874
:1048B000FF00FEFF59055C071FFCFFFF04200040BE
:1048C0000000E0FF09581A00FEE1FFFFE0E00000F1
:1048D0000809294900000303696A686C031FFFFF88
:1048E00070600000E0E0E0E00B0A0A082018000910
:1048F0000010004028130040260A00005108000064
:10490000070F00002F64E0FE101A0601001200409D
:104910004412004088120040FF9F000080100040B9
:1049200050015001F8B5642013490E5ABF4FBC6CBA
:10493000304660431249401812495AF763FB054656
:10494000B8843C3666430E4830180E495AF75AFB75
:10495000001D0D49C8602818C01D48610B4A127817
:10496000022A01D111304861FEF71CF908494018AC
:1049700080B258F7D3FDF8BDCC8BFC07D08CFC0778
:1049800020A1070040420F008863FC07B4BAFC076F
:10499000E2040000704700000D48018889091822D0
:1049A0000A4000888004400F8018704708490A8830
:1049B000084B1340F822024092011A430A800A88E9
:1049C000054B13404007800C181808807047C046FC
:1049D00054000050FFF90000FFC700007047704707
:1049E000024801884906FCD57047C04614110050A2
:1049F00017480188012291430180704710B58B4B05
:104A000000241C8458639A63998310490820086025
:104A1000BFF34F8FBFF36F8F0D490A8802241443F1
:104A20000C800A88802414430C80197A4A1E914114
:104A3000C907FF221206074B1C68944361181960CE
:104A40000549086010BDC046D08CFC0780E100E03D
:104A50000411005000E400E000E100E018B508484F
:104A6000016800910099074A009B1A40FF24240422
:104A70000C40D9B20919044BC9181143016018BD83
:104A80008000004000FF00FF0A000A00F8B5274838
:104A90002749FDF70FF8274E3075FCF7D1FF044684
:104AA000C57A162D0AD860190C3031466C310622B1
:104AB0005AF722FBAA1DE272B57517E02B20275C7E
:104AC000192F11D820462B300090E0192C30314698
:104AD0006C3106225AF710FBB81D0099087080202F
:104AE0003843B0752A4601E000BEE27AB274124D36
:104AF0002846263021460C315AF7FEFA2B20225C3C
:104B0000F27445352C34284621465AF7F5FAFCF75D
:104B100097FF57F78AFF002070650420022158F79D
:104B20009AF906A05CF7F4F8F8BDC046B80B00008F
:104B30004118FC07D08CFC07488DFC074164766562
:104B400072746973696E6720537461727465640D61
:104B50000A00000010B5044603A05CF7D9F8442C05
:104B600001D1FFF793FF10BD4164766572746973DC
:104B7000696E6720456E6465640D0A0070B50C4669
:104B80000C214143144A5518297F1C35FF2919D09F
:104B9000124E7075307DFCF7A3FF6088082807D39C
:104BA000102805D8A088002802D1E0887D2805D0EB
:104BB0007D20C0000A49FCF77DFF707409A05CF7F6
:104BC000A7F801E0FFF762FF2878FF2800D070BD4A
:104BD000FFF75CFF70BDC046488DFC07D08CFC071A
:104BE0005D3DFC0741707020436F6E6E65637465B8
:104BF000640D0A0010B508A05CF78AF8864C607C4A
:104C0000002803D0FCF76CFF00206074FFF772F8F7
:104C1000FFF73CFF10BDC0464170702044697363CC
:104C20006F6E6E65637465640D0A0000D08CFC07BE
:104C30007CB50C464C49884228D04C4988423AD130
:104C40006088801E0221C841062834D87844007943
:104C5000400087440340363B31455C006D460026EA
:104C60002E70A288A11D28465AF746FA28780028F7
:104C700060D0012850D16E485CF74AF84B20800084
:104C80006C49FCF717FF6449C8847CBD3848082587
:104C900019462B4657F7AEFE21780C224A43354978
:104CA0008918097F017061884180002181808021FD
:104CB000817157F7BAFE7CBDA07901282ED14F48EB
:104CC00035E0A07901282BD1504830E0A0790128A7
:104CD00028D14C482BE0A079012825D14D4826E069
:104CE00001AD00262E70A288A11D28465AF704FAAD
:104CF000287800282BD001280ED149485CF708F805
:104D0000C8204849FCF7D6FE434908857CBDA079F8
:104D100001280BD123A00AE0434808E02BA006E0BD
:104D2000394804E0364802E0394800E012A05BF759
:104D3000EFFF7CBD384CE08C0028BCD03B485BF7D3
:104D4000E7FF2620205CFCF7CBFEE6847CBD324CDE
:104D5000208D0028AFD031485BF7DAFF2820205C97
:104D6000FCF7BEFE26857CBD04FD00000AFD0000A8
:104D700005FD0000488DFC0744697361626C656441
:104D8000204E6F74696669636174696F6E73206623
:104D90006F722054656D70657261747572650D0A6D
:104DA00000000000456E61626C6564204E6F74699E
:104DB0006669636174696F6E7320666F72205465F3
:104DC0006D70657261747572650D0A004469736176
:104DD000626C6564204E6F74696669636174696FA3
:104DE0006E7320666F7220416363656C65726F6DD0
:104DF0006574657220470D0A000000005F5BFC07C8
:104E0000755CFC07495CFC071C5CFC07F05BFC075D
:104E1000C35BFC07975BFC07D08CFC07F85CFC07C6
:104E2000BE5CFC071121FC073C5BFC07DA5CFC075D
:104E3000A25CFC07951DFC07F8B50C46002801D4C0
:104E4000202100E02D21217001B2C9134840401AF1
:104E500007B221488742BEB208DB1F4930465AF7E5
:104E6000D1F8302101436170022504E07D20C000AB
:104E7000012587422BDB7D20C10030465AF7C2F85E
:104E80000A215AF7BFF83020084360556D1C642191
:104E900030465AF7B7F80A215AF7B4F830200843D9
:104EA00060556D1C30463E460A2739465AF7AAF827
:104EB000394637465AF7A6F83020084360556D1C2E
:104EC0000A2138465AF7B4F830316155F8BD642FDD
:104ED000DDDA0A2FE6DAF3E7102700000FB47CB51D
:104EE0000C0009AD01D0611E00E00021019100908D
:104EF000074B6A462946089800F032F8002C02D089
:104F0000009A002111707CBC08BC04B01847000056
:104F1000B152FC072021020C01D010211046020AD8
:104F200001D010460839020901D01046091F820835
:104F300001D01046891E420801D0881E7047081A09
:104F4000704702E008C8121F08C1002AFAD1704752
:104F50007047002001E001C1121F002AFBD17047F9
:104F6000FFB58FB00546002606E025280AD0129A24
:104F7000119990476D1C761C28780028F5D1304691
:104F800013B0F0BD002402940121B54A009400E062
:104F900004436D1C2B780846203B98401042F7D103
:104FA00028782A280ED0022228780146303909298B
:104FB00016D802990A2359433039401814436D1CFE
:104FC0000290F1E7109802C802911090002904DACB
:104FD00001204003044348420290022004436D1C18
:104FE00028782E2817D10420044368786D1C2A28BD
:104FF0000CD110986D1C02C8009110900BE0009924
:105000000A225143303940186D1C0090287801461F
:1050100030390929F3D928786C2810D006DC4C28BF
:105020001AD068280ED06A2817D104E0742813D04B
:105030007A2812D110E00120400504430CE0012140
:10504000090501E0032109050C436978814203D178
:105050000120000524186D1C6D1C2878692874D067
:1050600006DC00288BD0632827D0642806D16CE0AA
:105070006E2808D073282CD0752878D0129A1199F0
:105080009047761C5FE06002400F022809D0032899
:105090000DD00428109801680DD00E60001D1090EE
:1050A00051E01098F21701680E604A60F6E7109818
:1050B00001680E80F2E70E70F0E710986A460178FA
:1050C0001173001D10900020507303A8019001205F
:1050D00005E0109802C8019110900020C0436107BC
:1050E0000CD5002700E07F1C00998F420FDA874221
:1050F000F9DB0199C95D0029F5D108E0002700E03E
:105100007F1C8742FCDB0199C95D0029F8D1029818
:105110002146C01B0290129B119A00F0B3F880192F
:10512000C61907E0019801990078491C0191129A6B
:10513000119990477F1EF5D22146129B119A029831
:1051400000F090F886196D1C16E70A20019010995E
:1051500001C910916102490F032900D100B204294D
:1051600000D140B2002803DA40422D2103E00DE0D7
:10517000210504D52B216A461173012103E0E107C3
:1051800011D02021F7E70CAF0C9114E00A20019018
:10519000109901C910916102490F032900D180B211
:1051A000042900D1C0B20021EDE7019959F72AFF87
:1051B00030317F1E39700028F7D104A8C01B203081
:1051C0000190600704D5012000048443009801E0A9
:1051D000012000900199884201DD401A00E0002082
:1051E000411800900C9809180298401A0290E003A8
:1051F00006D42146129B119A029800F043F88619B2
:1052000000200D9008E003A9085C129A11999047BC
:105210000D98401C761C0D900C998842F3DBE0033E
:105220000CD52146129B119A029800F02BF8861992
:1052300004E0129A302011999047761C0099481E7C
:1052400000900029F5DC05E03878129A7F1C11994E
:105250009047761C0199481E01900029F4DC6BE709
:1052600009280100F8B5044600251E4617468804A3
:1052700004D405E039462020B0476D1C641EF9D5E2
:105280002846F8BDFFB50446002581B01E46C80378
:1052900001D5302700E02027880404D505E03846F2
:1052A0000399B0476D1C641EF9D5284605B0F0BDC2
:1052B0004A68002A06D00A68531C0B6010704868C0
:1052C000401E486070470000034880F3098800F0E2
:1052D00025F8FAF71DFFC046E06BFC070420714675
:1052E000084203D0EFF309800A490847EFF308802A
:1052F00008490847704704207146084203D0EFF37D
:10530000098005490847EFF30880034908477047BB
:10531000FEE700006116FC07D115FC071A498888D2
:10532000072290438880052000078A89D2070DD084
:10533000098800290AD115490A8802854A88828489
:1053400089880184418A124A0A4042821149062210
:105350000A800121CA03104B1A60BFF34F8FBFF3BD
:105360006F8F02221A60BFF34F8FBFF36F8F1960E8
:10537000BFF34F8FBFF36F8F418904229143418167
:105380000021018062B6704704030050A000FC07B2
:105390007FFE00000034005080E100E04F43313CCC
:1053A000939242E6A876FA3BEFB4875A17B967980A
:1053B0004C664C01963331B1915900152368EC527B
:1053C0001E6244749A1BD18BAB75B66E20EE8D0CA9
:1053D000E1F04A0CB325DC536A68862D9EE7BA08D3
:1053E000B9A948ABA1AC031C2E0D296C20EE8D0C85
:1053F000E1F04A0CB325DC536A68862C4F43313CFC
:10540000939242E6A876FA3BEFB487590000000079
:105410001C54FC07888CFC07040001002454FC0782
:1054200001000000FFFF0000A932F2070214000093
:105430006D24FC07010D00007528FC07000D00001D
:105440001928FC07000E0000A526FC07010E00002D
:10545000C926FC07030E00002927FC070A0E0000DE
:105460005527FC070C0E00000928FC071C0D000046
:10547000A128FC07100D00001128FC070F0E0000EA
:10548000F927FC072C0E0000F127FC07120C000086
:10549000A928FC07080E00000128FC072D1BFC07AB
:1054A0004D1BFC077519FC07C918FC07F800000024
:1054B000080004900000000000000000030005D078
:1054C0008B0035F010005CF0000010B0000018B048
:1054D00000001AB0030051F0000038B000003AB0EC
:1054E000000064B0000066B0000022B0000024B0EC
:1054F000010005D0000000000A00008008030490AD
:10550000000004F0030006D0000000000A00008044
:1055100008030490000004F0030006D0000000001F
:105520000328002802290129FD0000006055FC071E
:105530001C0000009518FC0700000000000000009F
:1055400000000000FF00000000000000000000005C
:10555000000000000000000000000000000000004B
:105560002255FC0710000000010000001000100090
:10557000E457FC072055FC07020000000100000072
:105580000000000000000000CC53FC0710000000E9
:105590000900020001000000000000002655FC0781
:1055A0000200000001000000110011002C5DFC074A
:1055B0002055FC0702000000010000000000000070
:1055C000000000009C53FC071000000000020000D7
:1055D00000800800000000002455FC0702000000C5
:1055E0000900020002000000000000002655FC0730
:1055F00002000000010000000F000F003E5DFC07EC
:105600002055FC070200000001000000000000001F
:1056100000000000AC53FC07100000000002000076
:1056200000800800000000002455FC070200000074
:105630000900020002000000000000002655FC07DF
:1056400002000000010000000F000F004E5DFC078B
:105650002055FC07020000000100000000000000CF
:1056600000000000BC53FC07100000000002000016
:1056700000800800000000002455FC070200000024
:105680000900020002000000000000002655FC078F
:1056900002000000010000000F000F005E5DFC072B
:1056A0002055FC070200000001000000000000007F
:1056B00000000000DC53FC071000000000020000A6
:1056C00000800600000000002455FC0702000000D6
:1056D0000900020002000000000000002655FC073F
:1056E00002000000010000000E000E006E5DFC07CD
:1056F0002255FC07100000000100000010001000FF
:10570000F457FC072055FC070200000001000000D0
:105710000000000000000000EC53FC071000000037
:105720000900020001000000000000002655FC07EF
:105730000200000001000000190019008E5DFC0746
:105740002055FC07020000000100000000000000DE
:1057500000000000FC53FC071000000000020000E5
:1057600000800900000000002455FC070200000032
:105770000900020002000000000000002655FC079E
:105780000200000001000000100010007D5DFC0719
:105790009857FC0709000000130C00004B29F20782
:1057A000150C0000B128FC07170C0000572BF2075E
:1057B000000C00002328F20706FD00005728F2071E
:1057C00003FD00003728F20708FD0000B328F207A8
:1057D0000EFD00000F29F20705FD0000D122FC0795
:1057E00000141C02595A08E4862A9E8FE911BC7CD9
:1057F00098434218595A08E4862A9E8FE911BC7CC6
:105800007C46421801000001B509FC0701000002B6
:10581000A50AFC070000000000000000F4010B00D6
:10582000F4352348F40108C4140A000014000000F1
:105830003D19FC0700000000FF0000000000000010
:105840000000000014000000ED14F207FD0000004D
:105850002126F207FF000000000000009519FC0758
:10586000E518FC07C05DFC07314CFC079C54FC07A5
:10587000628DFC0700000000898CFC070500000019
:10588000E06BFC07000400002C92FC07AC02000057
:10589000208EFC0700040000E494FC077005000063
:1058A0002003000000A60E0004000000D20000004B
:1058B000320000003C000000010000000100000078
:1058C00002000000020000000400000003000000CD
:1058D00006000000000000000200000002000000BE
:1058E00000000000000000000300000003000000B2
:1058F0000500000005000000060000000A0000008E
:105900000A000000C8000000B80B00000200000000
:10591000B80B0000B80B000010000000D40100001C
:10592000CC010000700200006A00000004000000CA
:1059300001000000200000000A000000010000003B
:10594000E20400008A020000DC050000AF00000055
:10595000285BFC076859FC079C59FC07305BFC0777
:105960005C58FC077859FC07A8B8FC07A0B8FC07EE
:10597000B8B8FC07F8B8FC07DE63FC07C08BFC076F
:10598000C18BFC07C48BFC07C88BFC07FD49FC07D7
:10599000E149FC07891CFC07551CFC07E057FC0784
:1059A000E357FC076055FC074923FC07C943FC0784
:1059B0005D45FC0793DEF007F1DEF007F9DEF00746
:1059C00049DFF00761DFF00777DFF00799DFF007C5
:1059D00019E3F007BDE5F007FDE3F0071DE4F0076C
:1059E0003DE4F0077BE4F0078BE4F007F5F9F007FE
:1059F000B1F7F007CFF7F007EBF7F00705F8F0077E
:105A000019F8F00797F8F007AFF8F007DFCDF107C6
:105A100067D0F107DBB9F007CD0DF207B10EF20741
:105A2000AD0EF207A90EF2078D21F007D140FC0759
:105A3000412BFC07812BFC07D52BFC07CD2BFC074A
:105A4000B57EF007837DF0072501FC07599EF1071D
:105A5000634CF1072941FC07D110F207F540FC0720
:105A6000B111F2074112F2077912F20700000000AB
:105A70005923FC075B23FC07B9C6F007D592F10751
:105A8000B301FC075F9DF1075F9CF107C504FC07AC
:105A9000EB72F107B922F1076B04F107CD22FC0785
:105AA0002BA4F007F1D2F0075FBDF007D5BDF007DA
:105AB00085BEF007DB2DF007752EF0071581F00786
:105AC000DF7FF0070937F007000000001524FC070E
:105AD0001D24FC07D51CFC07F3C3F10775C4F107AF
:105AE0009549FC07ED1CFC070000000000000000C9
:105AF00000000000000000000000000000000000A6
:105B00000000000000000000000000000000000095
:105B10000000000000000000000000000000000085
:105B200000000000000000001C58FC07308DFC073E
:105B30004458FC07588CFC0702000000496E76614F
