:0200000407FCF7
:10000000E86CFC07B953FC07CD53FC07E753FC072A
:100010000154FC070154FC070154FC070154FC0780
:100020000000000000000000000000000154FC0778
:1000300000000000000000000154FC078B17FC07C3
:10004000D513FC074D47FC07A526F0078D17FC07C5
:10005000B916FC070154FC079913FC070154FC076F
:10006000A513FC070154FC071515FC071F15FC0719
:100070002915FC073315FC073D15FC070154FC0747
:100080001D18FC070154FC070154FC078114FC07F0
:100090000154FC070154FC070154FC070154FC0700
:0800A00000008E070E000000B5
:0200000407FCF7
:100110000348854601F05AF800480047A92DFC071E
:10012000E86CFC07F8B50746012000230246009062
:100130001946032049F766F9044602218030017010
:10014000FF4DFE482A6843881146FF31F7310B8680
:1001500080884886FB48066A0123DB069E431E43CF
:100160000662FF320020FF32383250829082D08205
:100170001D200882F4484884F448C882F448088363
:1001800000204882384649F77DFC01462868FF3048
:10019000F730C28B920992010A43C283ED4841684D
:1001A00000208847002C02D0204648F714FD204646
:1001B000F8BDFFB58BB0064616980027022821D05F
:1001C0000D9801881498814278D371880846403888
:1001D0003F2802D8159855F711FD0C98361D008858
:1001E000149A80190E995EF787FF0C98018814986D
:1001F00008180C9908800D9801881498081A0D9910
:1002000008805CE100200E9D079069782C78090237
:1002100021433180E978AC780902214371808C4612
:10022000403904242D1D024603468E46402900D342
:100230002878614604291FD0052914D0062918D032
:1002400070463F283DD8159855F7D8FC0006000E9B
:1002500004D0C148008D0006C00F30D00223012019
:10026000BE4A002712E0697800290FD0BC4A172344
:100270000CE0BC4A0F2309E0522802D0D22802D059
:1002800002E0142000E01520B74A1F23002A1AD0EC
:10029000984218D2800010580490002813D00020F3
:1002A0000890059070884038402803D328780524AA
:1002B00030716D1C701D00900498B5E0FEE0302791
:1002C000F0E03327EEE07088042872D10627E9E0D9
:1002D000522862D00CDC4B283FD004DC41286AD085
:1002E000422858D111E04C2820D0502853D140E06A
:1002F000632830D004DC572818D061284BD19BE00C
:100300006C2864D0772846D109E0009829780170DC
:100310000098641C401CA4B26D1C009081E00498FD
:10032000401C04900178089881427AD10098A41C5E
:10033000401C41084900881C009068782A78000217
:10034000104308800599AD1CA4B2002969D008901B
:100350000020059065E00120FBE710222946009867
:100360005EF7CAFE009810341030A4B21035009029
:1003700057E0204640301499039088420BD8402221
:10038000294600985EF7B8FE009840300090039828
:10039000403584B245E0342743E0082229460098DE
:1003A0005EF7AAFE009808340830A4B20835009021
:1003B00037E068E0FFE70622294600985EF79CFEDA
:1003C0000098A41D801DA4B2AD1D009029E01498D2
:1003D000001B80B203903088001B001D81B20120F9
:1003E00007900498401C04900098401C400840006E
:1003F00000900498007857281CD04228CBD1009850
:100400000170090A417000982946801C0090039AE7
:100410005EF772FE03980399201884B20098401882
:1004200000900498401C0490007800281ED0002FF3
:1004300017D01BE04908E2E71498001B81B200982E
:100440000391401C40084000009001200A4607909C
:10045000294600985EF750FE0399601884B2009810
:10046000DDE70D990988A14200D331E70D98008896
:10047000A04208D304990978002904D107990029DA
:1004800003D1A04201D034270CE00D99001B088055
:100490000C9801880098801B001F08180C99002FE9
:1004A00008800CD07088042809D0062807D040386E
:1004B000402804D30E984079707100E03427384604
:1004C0000FB0F0BDFFB581B01F4616460C46104672
:1004D0005CF7D6FC00257F2802D02189062909D0A7
:1004E0003B4632462146019855F71BFF05462846F4
:1004F00005B0F0BDC00601D50225F8E72078002838
:10050000F5D1300AA11D42F7A4F8F0E7F1B598B093
:10051000189842F79CFA0446189805210079134A66
:100520004006C00F099068460184618B08460A386E
:10053000904276D2E08A062873D319E030BCFC07DB
:100540004CB9FC07C00000401080000029410000A9
:100550007671000058BFFC0748BEFC073803F2075D
:100560004003F2079C03F207D803F207770C000060
:100570001922D201904254D8228BFF23F5339A429C
:100580004FD8521C9300D2184243521C0A235210D7
:1005900059438A4245DC217F00290CD1617F002923
:1005A00009D1A17F002906D1E17F002903D12021B3
:1005B000095DC90635D0274620377978C906C90EA6
:1005C000491F0C292DD2A18A81422AD8E17C002919
:1005D00027D0421E082A01D9082000E0401E81428F
:1005E0001FD8684646F7F4FA00281AD1FE4D0622B5
:1005F000286221460AA85EF77FFDA8792E46803E34
:1006000000287DD06079800901280BD00AA80999BB
:100610004CF7ADFD010003D03820405C002870D0BD
:100620009BE008E1F06A807A012808D0042806D00F
:100630000AA84CF709FE286200284ED054E0686AE8
:1006400006220AA932305EF77BFD002806D00AA8F0
:100650004CF7FAFD2862002802D012E0686AF9E738
:1006600000210AA84CF706FE2862F16A897A01295E
:1006700005D18B071A6849068A430A431A60002885
:1006800011D0F16A286A0622253010315EF758FD34
:10069000002808D1286AF16A2030C07AC97B8842D4
:1006A00001D1286A1EE0D148D1490088C96880B2CA
:1006B00006225043081842F7CFF9014614A8062233
:1006C00002305EF719FD13AA00213C2042F791FC8D
:1006D0000121B06D47F7B8FEA9E011A90AA84CF7AF
:1006E000C9FD2862002838D00146253106220FA80E
:1006F0005EF702FD286A08AA2030C17A0FA801E03F
:1007000041E024E04CF716FC002812D0286A203083
:10071000C07A002809D16846B649008C4BF77DFBAA
:1007200008AA0121B3484CF705FC68460AA9008CC9
:100730000AE008AA012111A84CF7FCFB00280CD004
:10074000296A6846008C32314BF77DFB05E00A18B8
:10075000527D002A08D010286DDBF06A407A02280A
:1007600006D0032804D00EE0401C1028EFDBF4E78D
:100770006846008C052806D308AA0AA809994CF7F0
:10078000D9FB002857D00022694620464CF77BFC55
:10079000002850D1F06A407A02280BD0032809D0F3
:1007A0000023684602880AA809994CF78DFC0028A6
:1007B00002D02FE00123F4E7E18A68460181218B12
:1007C0004181618B81817878062241096846817573
:1007D0007878C106C90E6846417521460E305EF72D
:1007E0008BFC189800794006C10F68460175038894
:1007F000214602A8B26D47F7CDF90146B06502A8BF
:1008000042F745FC0020B065214668461C3100884F
:1008100046F731FA49F7B0FA734C2034207A0028B1
:1008200005D0002109205CF76EFC00202072002119
:1008300008465CF710FB19B0F0BDF8B56E4C0646E3
:1008400085000F4660594C21095C24290ED140696E
:100850001022791D2E305EF74FFC61592520403162
:10086000087300221146304654F71BFB60594C2197
:10087000095C0C291FD140691022791D2E305EF7CA
:100880003BFC60595F214069095C09072DD4014692
:100890002E3110221E305EF753FC00280CD0605918
:1008A000092140300173304655F718F801460022FF
:1008B000304653F775FEF8BD0421684601706A465C
:1008C0000521304654F716F8684601786020014348
:1008D00068460170304655F701F8014668460278CF
:1008E0000123304653F771FFF8BD304654F7F6FF49
:1008F000012809D0605907214030017300221146B8
:10090000304654F7CEFAF8BD615900204969C0312C
:10091000887160590421426930461E3253F7EAFF5C
:10092000605941694031897F002907D01A21403040
:1009300001730021304654F73EFBF8BD1B214030C7
:100940000173304654F78CFBF8BDF8B52A4C0546C8
:100950008600A0594C22125C192A11D140224D3038
:10096000491D5EF7C9FBA059402224494D305EF76E
:10097000E7FB002805D02149284620395BF74BFDCD
:10098000F8BD0B21684601706A460521284653F7D9
:10099000B1FF68460178602001436846017028462F
:1009A00054F79CFF0146684602780123284653F716
:1009B0000CFFF8BDFFB581B003980C46060A002570
:1009C0005CF75EFA002827D0132825D0142823D0FE
:1009D0000B48B700C0592030407BC00637D503987C
:1009E0005CF74EFA15280DE030BCFC0768B9FC072F
:1009F00060BBFC0750F5F1073CBEFC07FCBDFC07E3
:100A000078BBFC070CD0A07942F714F8304647F7C2
:100A1000AFF8032806D015E0A07942F70BF81FE0E5
:100A200002251DE03248C0592030407B400704D5E4
:100A30003D21304642F7FCFC04E03D2200213046D7
:100A400042F705FD3D21304646F7DAF808E020463A
:100A5000103828490181468120464EF7C3FD012503
:100A6000284645E524485222006864308188C37EC8
:100A70005143224A12688918FF225F32525AFF31CD
:100A8000120AD21A01310B8CD2B2DB0B09D00B8CBB
:100A90005B045B0C0B84002A03D18088184A012177
:100AA00011547047FFB51746140A81B0104A0298D6
:100AB000A100515840780026114D002907D0295D2A
:100AC000002905D0002803D1204643F715FF2E55F5
:100AD0003A46049B0299019844F79FFE08E50A48AC
:100AE000084901600949416070477047704700003C
:100AF00078BBFC070608000084BBFC074CB9FC0768
:100B0000C98BFC070459F007C0000840490C00BF1E
:100B10007FB5E4486B460188428889186A4611808F
:100B200001214C0022181546403DED8F065B52888E
:100B3000AD19AA18491CC9B21A530729F1D38189E2
:100B4000C089081881B2D981D888002821D0188995
:100B5000002820D0988800281FD0588900281ED04F
:100B6000988900281DD0588800281CD000291CD046
:100B7000188800280BD00720062254001C5B8C42EA
:100B800001D22146D0B2521E52B2002AF5DA04B088
:100B900070BD0320FBE70420F9E70220F7E70520FA
:100BA000F5E70620F3E70120F1E70720EFE7F0B5CE
:100BB00095B0EFF310801090012080F31088BA48B0
:100BC000816B4A07520F69460A800A92816B0122A3
:100BD000C908C9008163B5498B8869464B800224E6
:100BE000B24B00219980C16A09078B0F69468B803F
:100BF0000F93C16A0C2399430831C162052109078B
:100C000009880906CB0F6946CB800521090709939E
:100C100009888023194305231B071980A449898A61
:100C20004906CB0F69460B81A1490893898A402365
:100C300019439F4B9982016A09074B0F69464B8103
:100C40000C93036A0E218B4303629B4D99486860A5
:100C5000FF204030A8602888A0432880974841683A
:100C60000B071B0F69468B810B934168090909012A
:100C700008314160416849064B0F6946CB810D93AD
:100C8000416870239943603141608748403801686A
:100C90008904CB0F69460B820293036841140B430E
:100CA00003600168CB07DB0F69464B820E93016836
:100CB0001143016041688903CA0D69468A82039223
:100CC0004168CA05D20D6946CA82049281688903C7
:100CD000CA0D69460A8301928168CA05D20D694628
:100CE0004A8305924168764A11400322D20389184B
:100CF00041604168490A4902FF31413141608168E0
:100D00006F4A11400322D203891881608168490A21
:100D10004902FF3141318160642000F02DF9A8893A
:100D200069468007C00F8883A8892043A8810024D2
:100D3000604F288800260121084328800A2000F0FF
:100D40001BF9FF205F4941303A680A4200D0761C07
:100D5000401E3F1D0004000CF6D1A88A8004FCD17F
:100D60005149886B671CC208D2007807400F0243C4
:100D70008A630A2000F000F960004A49FCB20E5272
:100D8000082CD5D348480A99826BD208D2000A436E
:100D900082636946454A498891800F998A00C16AF1
:100DA0000C2399431143C1620999CA01052109071E
:100DB000098880239943114305221207118008995D
:100DC0008A013B49898A402399431143384A9182D9
:100DD0000C994A00016A0E23994311430162374876
:100DE0000B994268120912010A4342600D99426848
:100DF000090170239A430A434260029841032A483A
:100E00004038006801225203904308432649403984
:100E100008600E9809684908490001432248403893
:100E20000160039842022048403840682449084045
:100E300010431D4A403A506004985268520A5202C8
:100E400002431948403842600198174A4002403A2C
:100E500092680A400243144840388260124905985B
:100E600040398968490A490201430F484038816086
:100E70001098002800D0012080F3108815B0F0BD34
:100E800010B5114C2078002808D0FFF790FEFFF72E
:100E90003FFE0E4908700020207010BD03F042FA9A
:100EA0000120F9E78064FC07801000400012004038
:100EB00020300050805FFC0700350050402000408B
:100EC000FF01FCFFC0C0C0C0DB8CFC07D98CFC0755
:100ED00010B5FF22154901320A60BFF34F8FBFF3EF
:100EE0006F8F13490A6013490B6840241B0A1B02C9
:100EF00023430B601049898A0021C30700D03521A4
:100F0000830702D57D231B021943430702D57523AE
:100F10001B041943000702D53D2000060143064883
:100F20002038016301488038026010BD80E100E094
:100F300080E200E008E400E0A010004010B50620C8
:100F400000F01AF810BD10B5092000F015F810BD1A
:100F500010B5812000F010F810BD10B5044800F065
:100F60000BF810BD10B5034800F006F810BD0000E6
:100F7000010200000108000000280CD000BF00BFE3
:100F800000BF00BF00BF00BF00BF00BF00BF00BF69
:100F900000BF401EF0D17047F0B5074608465840E4
:100FA00087B0C00F049048000E4659004008490819
:100FB000BC1A884105D2384631461E4617460B46B4
:100FC00002465800400810434CD0300D03904005B5
:100FD0005900400D490D0590401A0290402872DAE0
:100FE00018030121000B09050843019004980092A1
:100FF000002805D0019952420020884100920190BA
:10100000029840210A1A019900985EF7B9F805463E
:101010000C466B4607CB00F0F1F8C0197141039AFA
:101020000E0D0023D71756401A467A40164344D077
:10103000049A002A2DD0029A012A039A15DC12057F
:10104000C01A914101263605001C7141D20F059E40
:10105000D2070093019202962A46234600F0EEF84A
:1010600007B0F0BD38463146FAE71605224A0F466A
:10107000B218C01AB74101210905001C4F410018E0
:101080007F41114618187941E20F10436D196441F0
:1010900013E0E2076D0815436408C2071443039A7E
:1010A00001261205C01A91413605001C7141CE0778
:1010B000400830434908C01851412A46234600F0F1
:1010C000B0F8CDE7FFE7049801224000C117121ADB
:1010D00000238B4104983146C417381AA141EEE72A
:1010E00030B40124E407634030BC55E730B4012438
:1010F000E407614030BC4FE70000E0FFF0B51FB4EB
:1011000088B00B990998002448400999C00F4900FC
:1011100049080991C0070B990090490049080B91B3
:1011200009990898A64608431CD00B990A980843C9
:1011300018D0099801244000420D4800410D09983B
:1011400024050003000B204309900B980003000BBB
:1011500020430B9050181C4940180022019014465F
:10116000104605E0002001460DB0F0BD032801DA6D
:10117000034600E003239C46C11A0AAE0AE05F0062
:1011800008ADED5B4F00F75B7D430027AA187C415B
:10119000491C5B1E6145F2DD410004AB5A5221043B
:1011A000120C0A43240C401C0828DFDB0198029033
:1011B0000099704601910090059B049A0799069842
:1011C00000F03CF8D0E700000DFCFFFF1CB509481B
:1011D00000900948019005460126009C05E0E3685F
:1011E00007CC33430C3C98471034AC42F7D3FEF79E
:1011F00093FF00004C5FFC077C5FFC0710B5202AC2
:1012000006DBCB170846203A1041C1170B4306E016
:101210000B461341D0402024A21A9140084319469E
:1012200010BD10B5002B08DA0024401C6141921853
:101230005B411A4301D14008400010BDF0B51FB416
:1012400082B005460C0003D0084603F0D7FE02E04A
:1012500003F0D4FE203002460090214628465DF778
:101260008FFF049B059A04460F4618431143084319
:1012700014D0184610431BD0009840210A1A184673
:10128000059962F7DCF805460E46009A0599049820
:101290005DF776FF084305D0012004E0204639467B
:1012A00007B0F0BD0020C11705430E432C43374360
:1012B00000990E986305401A7905E40A00220C4350
:1012C000FD0A0A3002D500200146E9E701051019A0
:1012D00069410C9C0D9D00196941FFF7A2FFDFE7F2
:1012E00010B5002904DB0C460121C9074042A14189
:1012F000002B04DB1C460123DB075242A341101ADA
:101300008B4101D2012010BD002010BD0EB5C217C7
:10131000C10F5040CA0740180021054B02930192AB
:1013200000910A460B46FFF789FF03B000BD00009D
:10133000330400000EB505490291002100910A46D0
:101340000B460191FFF77AFF03B000BD33040000A4
:1013500070B5CD0F4A0009030123090B1B05194382
:101360000B4BED070024520D9A4201DA002070BDAC
:10137000074B34339A4203DC9A1A62F760F802E0B2
:101380000449511888402C43F1D0404270BD000000
:10139000FF030000CDFBFFFF0148012101807047E2
:1013A0000E1500500A48011F0988CA0706D0028896
:1013B00007239A432E4B5B7A13430380490706D5D4
:1013C0000188072291432A4A127B0A430280704710
:1013D000B8100040B0B50520000701883022114345
:1013E0000180038803210B430380204B1C88640782
:1013F000FCD403889343038003888B4303801C4CF5
:10140000638C4380A38C9D1E1A4B5D8007251D8035
:1014100005881543058005880D4305801D886D07E7
:10142000FCD403889343038002888A430280428964
:10143000920702D042898A434281018980220A436D
:101440000281018A042291430182818A8907FCD5A5
:1014500040F767FFE06B08490860084801684907E2
:1014600000D500BE01684907FCD5B0BD0833005067
:10147000D08CFC070016005008020040100000400D
:10148000FEB51F48058801200190C0040290002489
:101490001C4E1D4F002D32D0042C30D2E80729D02D
:1014A000B889000605D438897989401A41424141FA
:1014B00000E000210198A040114A50803889029A2A
:1014C000124B1A60BFF34F8FBFF36F8F002907D005
:1014D000B989019A9143B981B98908229143B981A7
:1014E0003268002A03D0411C706889B29047029884
:1014F00007490860103708366D08641CCAE7FEBD4E
:1015000082360050388CFC070036005080E100E045
:1015100000E100E080B50A2000F068F880BD80B5E9
:101520000B2000F063F880BD80B50C2000F05EF861
:1015300080BD80B50D2000F059F880BD80B50E202B
:1015400000F054F880BD0000FEB5019302920C46F5
:1015500006460120002132465DF712FE07460D4681
:10156000E249C868284089683940014300D100BE7B
:101570000198002803D0304600F014F802E030460D
:1015800000F022F8D949C8682840896839400143E9
:1015900000D100BE02980443700001494452FEBDD0
:1015A0000630005010B50446D0498868C968224604
:1015B00061F745FFC00700D100BE0120A0400149EE
:1015C000088010BD0230005010B50446C749886835
:1015D000C968224661F733FFC00700D100BE012071
:1015E000A0400149088010BD04300050F0B503460A
:1015F0000A3B01210A469A4093B20B4D5C19661CC6
:101600005E400A4B1C8800272E4203D07F1C7608C0
:10161000B6B2F9E79443BAB20D46954025431D8012
:10162000814052480160F0BDFEFF01000E140050E1
:10163000F8B5044601273E0205200507688DC00560
:1016400006D51B2003F046FA4A4801883943018039
:101650008036288840013040698A474A0A40024360
:101660006A8221681348016061684160A1688160F5
:10167000E168C1602169016161694161A1698161BC
:10168000E169C16104623E490A6842624A68826255
:101690008A68C2624A690263CA68426309698163EF
:1016A000334808210180A88AC00600D4FEE700BEA6
:1016B000F8BDC0460090FC07024800882B48102166
:1016C000016070472C130050F8B50446052005074B
:1016D000288A042101432982288940210143298144
:1016E0002248012707602248082101803E02688DB8
:1016F000C00506D51B2003F0EDF91E4801883943CB
:1017000001808036288840013040698A1A4A0A40A0
:1017100002436A8221681948016061684160A168DA
:101720008160E168C1602169016161694161A1690C
:101730008161E169C161046211490A6842624A68D3
:1017400082628A68C2624A690263CA68426309693E
:101750008163A88AC00600D4FEE700BE688A0949F2
:1017600008404018001D6882F8BDC04680E200E0D5
:1017700000330050800000507FFE00005090FC07B6
:1017800028ED00E0FC7F00007047704770B5214CE9
:10179000D94D214EA1880F200840022809D00428E5
:1017A00004D00C2820D00128F4D132E003F0B4F9A1
:1017B000F0E7AA8B288C90421DD2696B9042E9D247
:1017C000A288C0231340C02B03D13288920703D4D0
:1017D000E0E7228A9206DDD5421C2A84085C221F9B
:1017E0001080AA8B288CE9E703F096F92088012164
:1017F00088432080CEE720880221884320802088EB
:10180000802188432080A96B0029C3D0A88B8847FA
:10181000C0E770BD041100507C110050052108077D
:10182000028830239A430280028803239A4302806D
:10183000828812050DD5184A13880B40052B08D154
:1018400010880421014311801088012188431080F1
:1018500070478188C90606D510498A88D20702D008
:101860000A88120610D48088C0060CD50B488188DF
:10187000890708D50188C90505D50221818001881D
:10188000074A0A4002807047012088800888802229
:10189000904308807047C04600020050000100508D
:1018A000FFFE0000F8B51420934F38560F4C254624
:1018B0002E354D340028294600DA21467F2210407B
:1018C0000E1802F027FB39466C31062230465DF7D0
:1018D00013FCBB7C797C2846224661F72DFE044828
:1018E000044900F017F9F874F8BDC046488DFC07AC
:1018F000DC050000A518FC0770B535480921042453
:10190000182322465BF776F805461B202870FD2633
:10191000304661F7C1FE0021A982E96029616C604F
:101920006E80687028465BF780F870BD1FB514465E
:10193000002202920192069A00921A46234661F70B
:10194000D7FC04B010BD000010B5E648817B114AF9
:10195000CCB20C236343D45CFF2C06D0D318491CB3
:1019600081735B68002BF3D00DE0C17B0A4ACCB2D7
:101970001C236343D45CFF2C08D0D318491CC173CB
:10198000DB68002BF3D09847002010BD0021C181F7
:10199000012010BD3C59FC071856FC0770B50C48D7
:1019A000092104240A2322465BF724F805461B205C
:1019B00028701426304661F76FFEFF2174312981AB
:1019C0006C606E80687028465BF72FF870BDC0466B
:1019D0001B0D00001FB5144601220292044A019219
:1019E000069A00921A46234661F782FC04B010BDA5
:1019F0001C55FC07F8B5CD4FF86D00283FD12248A3
:101A0000092104222C235AF7F5FF0446F865172014
:101A100020841E4820800120A07600256580204675
:101A20000A3010215DF781FB201D00901848461DEB
:101A30001849062230465DF783FB002801D000BE1E
:101A400004E03E466636304600F0C0FC06220098B0
:101A500031465DF751FB6584E583A5832020E07660
:101A60007E210D48415AFB2900D3FB21E1848021CE
:101A7000405A0A49884200D308462085F86D5AF733
:101A8000D4FF0020F865F8BD040D0000030A000033
:101A9000205FFC07DCF1F107B0BBFC074808000041
:101AA00070B5154D686D002800D070BD1348092130
:101AB000042252235AF79EFF0446686507202072CD
:101AC0000F48E080A0800D2020800026A6721622FC
:101AD000E2720120607220460C300A495DF70CFB6F
:101AE0002B20265420462B302C34082106A32246D6
:101AF00061F710FD686D70BDD08CFC070D0D000006
:101B00004C040000B05EFC07444C472D5052504836
:101B100000000000B0B5024663482430002423468C
:101B20000A2B0BD00568002D02D0001D5B1CF7E7C7
:101B300001605C1CE0B2114600F0C0FBE0B2B0BD39
:101B4000F8B50446401E09281BD8A000564947187E
:101B5000386A002817D0564DA84214D02037504874
:101B60002018401C042631465BF7CDFA3D6008235F
:101B70004B48314632465AF73DFF04705AF755FF3D
:101B8000F8BD00BEF8BD00BEF8BDC0461FB5144686
:101B90000D220292044A0192069A00921A462346A6
:101BA00061F7A6FB04B010BD2455FC0710B50C4628
:101BB0003949884233D0394A90421DD03849884249
:101BC0003ED12078401E09285AD88000364908188E
:101BD000416A374A914255D03448814257D12F4803
:101BE000042108230A465AF705FF2178017061682D
:101BF00041605AF71AFF4AE02078411ECAB2092A0A
:101C00003CD88900284A51184A6A284B9A423ED14A
:101C1000CA6C24310A60616800F050FB37E06268EA
:101C2000002A01D100BE62681E48824201D300BE74
:101C3000626820781949401804215BF71AFA26E0F7
:101C4000531C0121984225D30A32904222D8C1B2B6
:101C5000091F8900144A5218516A002917D0134BE2
:101C6000994214D0124B994211D013462433C01E0E
:101C700000241C60D464C0B2884708E000BE06E0BF
:101C800000BE04E00146243100220A60C2640298CA
:101C900000210170084610BD01040000030400008B
:101CA00002040000FDFF3F00B48DFC07074BFC075A
:101CB000054BFC07F8488178491C817001780029A0
:101CC00000D070471A490023CB701A490A780B706C
:101CD000012A01D0012100E00221022A00D10321C2
:101CE00001707047D08CFC07EB488178002904D044
:101CF000491E8170090600D070474178002904D040
:101D0000002242700322114003E001780029F3D041
:101D1000491E00220270481EC0B20128ECD80448B7
:101D20000122C270034801707047C046D08CFC0786
:101D300054BAFC07B4BAFC07B0B50C460025202DF8
:101D400004D040F7DCFD60556D1CF8E70020B0BD05
:101D500010B504460548064970225DF7CDF90548DF
:101D6000001B054908801430488010BD70A0FC0796
:101D7000A055FC07B8A0FFFF78A0FC0710B50748E6
:101D80000188074A1368114C234059181160408894
:101D9000516821400818506010BDC04618300040FE
:101DA0008CA0FC0710B507480188074A1368074C48
:101DB000234059181160408851682140081850602C
:101DC00010BDC0463830004098A0FC070000FFFF5F
:101DD00007481E214180018803220A4302800188AE
:101DE00004220A430280AC480121C1707047C046FA
:101DF00000160050F0B591B0A049C8688868400648
:101E000000D400BE9E484021039101809D4800F00F
:101E100067FE0CA89C49018010AF9C4939800FAA2D
:101E20000B929B4911800EAE022421463246234676
:101E3000984DA8473846214632462346954FB84725
:101E40000B98214632462346B8470FA8322101702D
:101E5000012110AD00230B912A460A93B8470CA824
:101E6000062109912A4600F0CDFE05200790C043C7
:101E7000894E002817D00CA909188A79CB791B0242
:101E80009A1812B20323534332187825555D7927E7
:101E9000D25D1202521912B29A18930ACB719208AB
:101EA0008A71801CE5E7304672300CAD02952946F8
:101EB000099A5DF721F90A98285E06902E5F009630
:101EC00004202F5E01970546049010A82D21018063
:101ED0000FAA2146234600F0C5FE00F0F9FE6FA0D0
:101EE000069C214632466C4E3B465EF707FFFD20BE
:101EF0000590704988470146E0480E2308936E4FCD
:101F00002A46B8470546707D28700B986870079878
:101F1000688008200790A8802046FFF7F7F9674AF5
:101F2000674BFFF7EBF8FFF713FA0246534C2046D6
:101F3000103006906349644B984720696169698154
:101F4000E880090CA981000C28816049284688474F
:101F50000A9820616061059F3846564988470146C6
:101F6000C648049C2246089B534DA8470546707DF1
:101F700028700B986870092068800798A8800098DE
:101F8000FFF7C4F94D4A4E4BFFF7B8F8FFF7E0F9F9
:101F9000024606984B494C4B9847384E3069716958
:101FA0006981E880090CA981000C288128464749ED
:101FB00088470A9830617061064638463D4988472F
:101FC0000146AE482246089B3B4DA847054632488D
:101FD000407D28700B9F6F700D2068800798A88047
:101FE0000198FFF793F9354A354BFFF787F8FFF76C
:101FF000AFF9024606983349334B98471F4C206986
:1020000061696981E880090CA981000C2881284652
:102010002E4988472661666105982649884701460A
:102020000C239648049D2A46234CA0471A4E04468A
:10203000707D2070677011206080099AA280A01DB9
:1020400002995DF759F82046204988475EF768FEF7
:1020500028465AF715FF032805D14B2080001C495C
:10206000FFF758FDF0840549C8688868400600D429
:1020700000BE03480399418011B0F0BD488DFC07B4
:1020800002300050F458FC072D080000310B00000E
:102090002C0A0000652CFC07D08CFC07583A202540
:1020A000642C20593A2025642C205A3A2025640DAE
:1020B0000A000000C727F007F5C9F10733333333AF
:1020C00033330F40925EFC07D54FFC072BCAF10754
:1020D000F51DFC07F0B58FB0FD2040F774FB0146FD
:1020E000664804220F235AF785FC07906449C868A4
:1020F0008868400600D400BE6248402208920280F0
:10210000084618300027069007728F61CF615E483D
:1021100000F0E6FC0EA801210A9181704770017061
:102120000BAA1780032605960224584D31462346F4
:10213000A8470DA846700821099101700CAA0494C3
:1021400021462346A8470EAE052030700DAD2F80E6
:1021500030460A992A463B464C4CA0473046049CE0
:1021600021462A4600F04EFD757836780EA8877015
:1021700047700A9901700DAA05992346434CA04760
:10218000099C34403007000D4019FFF7D3F8404B4D
:102190003A46FEF7B3FF05460E463E4B09973A46D0
:1021A000FEF7FAFE2246002C00D00546002A00D099
:1021B0000E4628463146099A1346FFF791F80490D7
:1021C00028463146FFF7C4F80590FFF79FF804460C
:1021D0000F462846314622463B46FEF781FF0290D5
:1021E0000391204639462A463346FEF779FF049A82
:1021F000002A00D10298002A00D10399264B099A9F
:10220000FEF77CFFFFF7A4F8044600F061FD23A071
:10221000059D294622465EF771FD0094092423A2FC
:10222000069E304621462B4602F0B8FE079DAC8044
:10223000192068800A9800022880A81D314622468D
:102240005CF75AFF28465AF7F0FB5EF769FD042059
:102250005AF716FE032805D1C8201649FFF75AFC85
:10226000154908850649C8688868400600D400BE3C
:102270000448089941800FB0F0BDC04606FD00003B
:10228000488DFC07023000500459FC07652CFC0700
:102290000000B03F000070C00088C34054656D70FE
:1022A0003A2025642E25640D0A00000025642E25A1
:1022B00030346400D520FC07D08CFC0770B50C4688
:1022C000054619490888000618480ED5184A1268AC
:1022D00012040AD4174A1288D20706D14019801C6A
:1022E000042122465AF7C5FE70BDEFF31083012288
:1022F00082F310880988090603D40F490E88164313
:102300000E80002B02D082F3108802E0002181F3BE
:102310001088042108230A465AF76CFB44600570B4
:102320005AF783FB70BDC04608000050010400004E
:102330003000004054BAFC070833005070470000DA
:1023400070B514460D4610465AF79AFD01282ED155
:10235000287801020831AA791648002A0CD089B2DF
:10236000062322465AF746FB0646A87860F75EF831
:102370003080A879307113E0AA8889B2921D93B297
:1023800022465AF737FB0646A87860F74FF8002137
:1023900031713080AA887280701DE91D5CF7ACFE37
:1023A00030465AF742FB002120465AF754FD0020E0
:1023B00070BDC046140C0000FD2801D000207047FD
:1023C000004870471856FC077047704710B5044620
:1023D00040793F280FD840F792FA2070010EE17043
:1023E000010CA170000A607040F789FA2071000AA0
:1023F000C0210143617110BD80B502F0DBFB80BDDF
:102400001C49498C0180704780B51A490A780270CE
:10241000401C491C5CF770FE80BDC0467D21C18018
:10242000002181801021418008210180704780B502
:1024300061F746F8002801D002F0BCFB80BD000027
:1024400010B50C46017801290BD000290ED1428825
:1024500008490A704B1C011DD2B218465CF74CFEAD
:1024600002E0408803494884002000E048202070B2
:1024700010BDC046B48DFC07002088804880012034
:102480000870704780B55EF777FD80BDF8B5694686
:10249000C870020A8A70020C4A70000E0870084662
:1024A0005EF752FD8FBD000080B5994800210160A4
:1024B000FEF74EFD944800781F214901914A1368A8
:1024C0008B43C006800DC018106080BD80B58F485A
:1024D00002210170FEF732FD80BDC046F8B51F46EF
:1024E0000C46087808281CD80725002100911AA658
:1024F000784400794000874419040C0406060F094B
:1025000012001A4E12E00D25174E0FE0062514A6F4
:102510000CE00A2516A609E008251AA606E017A66B
:1025200004E000BE0026012000903546AB1C184890
:1025300039465AF75FFA0746207838707D70009860
:10254000002804D1B81C31462A465CF7D5FD384630
:102550005AF76BFA0020F8BD52656E65736173001F
:10256000FFEEDDCCBBAA0000225EFC071A5EFC0772
:10257000312E302E302E302D4C45000001D20080FF
:1025800005000100123456FFFE9ABCDE0000000078
:1025900003140000F0B50A79530140241C401301D4
:1025A00080251D401609360275192C19D2002025E8
:1025B0001540621910241C4012190B785B00082486
:1025C0001C40121906241C401219CB79DB079B0C06
:1025D0004C796508ED07ED0CEB18E407240D1B1989
:1025E000134383818A790F2A43D0354A8218042302
:1025F000DA41931E022B1BD3012A3AD8EFF3108342
:10260000012282F310888D792E4C2688F6B2360985
:10261000B54203D12688F0273743278026880F2725
:10262000BE432E432680002B1CD082F3108820E06E
:10263000EFF31083012282F31088224C27880F26A3
:1026400037408D79AF4202D12788374327802688CB
:10265000F027BE432D0135432580002B06D082F3A1
:10266000108806E0002282F3108802E0002282F344
:1026700010888A680280120C4280CA688280120C1C
:10268000C2800A8A521E42814A88002A00D10A8AE0
:10269000430838241C404B690B4D2B51521E0281BC
:1026A000281989694160FF20000608490A688243A9
:1026B0000120C307D2180A60C00405490860F0BDB4
:1026C00000CAFFAF80360050388CFC0710E400E0F1
:1026D00000E100E080B50B4801688905C90E0A4A8F
:1026E00011701F21490102688A43026007480121D5
:1026F00001700748016803220A430260FEF728FCC4
:1027000080BDC0464C1200407C5FFC0706100040B4
:10271000AC10004010B50C78012C03D0092C09D066
:102720004C7802E04C78432C02D0002C00D000BE44
:1027300002F02EFB002010BDF8B51D4610460C46D9
:102740005AF79EFB022824D12D0A00D000BE0C208F
:1027500068431B490F182237BD70FF2D14D0012686
:10276000FE70042003215AF776FB20883880607AB7
:102770003871781D21460A3106225CF7BDFC002124
:102780002846324660F7B0FE2846214602F08AFA13
:1027900000E000BE0020F8BD10B51C4610465AF7F8
:1027A0006FFB032809D1200A0C214143044840183B
:1027B000FF21818402F0CEFA00E000BE002010BDAF
:1027C000488DFC07F0B589B01D46144608780228EC
:1027D0002CD001281FD000283AD101AE202130464C
:1027E0005CF7A3FC1D480778411C30463A465CF76D
:1027F00083FC3B460A331848294622465AF7FAF822
:102800000446478000202070201D31463A465CF780
:1028100073FC20461AE01148468C0F480A232946CB
:1028200022465AF7E7F8468001210EE00A480A23BB
:10283000294622465AF7DEF87D2101810021C18018
:102840001021818008214180022101705AF7EDF8A2
:10285000002009B0F0BDC0460B0E0000B48DFC078F
:1028600080B560F7E9FC80BD80B560F7C5FC80BD30
:1028700080B560F7FCFC80BD80B560F783FC80BD4F
:1028800080B560F7FFFB80BDB0B50C78641E122CDC
:102890001ED8C0467C4424796400A7440B19101943
:1028A0001919191919191909150909190909090015
:1028B0000020B0BD487800280DD000BEF8E7487869
:1028C00000280BD000BEF3E7487802F0D7F9EFE715
:1028D00002F05EFAECE7FFF78DF8E9E7FFF7A7FDF6
:1028E000E6E7000010B510465AF7CAFA002801D0F2
:1028F00000BE09E0054809210422012423465AF7B5
:1029000079F804705AF791F8002010BD020D00000C
:1029100080B560F758FC80BD80B560F79AFC80BD3B
:10292000F0B589B0039316460C46FD205EF760FCB7
:102930000290002800D100BE08A900270F7020884F
:102940005FF782FD05466088002800D000BE002D9C
:1029500078D1FD20FFF730FD002800D100BE03999B
:10296000090A009108A90A781421514343685918AB
:102970000B79022B24D109680988394B99421FD160
:1029800000200590049020885FF7F9FC002800D112
:1029900000BE07A9002204AB4EF7E6FA0120400270
:1029A00007990140480A21465FF7D4FCC5B2002DC3
:1029B00029D1E28808A8017800985FF7A6FE22E0F6
:1029C00001968669002E3D4606D0A5886188A31D24
:1029D00010462A46B047054605970497208804A963
:1029E0004EF73DF8002D019E0DD108200499085E98
:1029F000002807D46288A1882088A31D4EF799F883
:102A0000054600E00025002D1CD10298009F3946A4
:102A10005EF70CFC0146A088801D83B21148324647
:102A200059F7E8FF0546801DA288A11D5CF764FBED
:102A300008A800786880A088A8802F70284659F7D9
:102A4000F4FF0025084804230399324659F7D2FFC2
:102A500085702188018059F7E8FF002009B0F0BD9A
:102A6000022900000AFD0000160C000070B5EFF30B
:102A70001085012484F3108805200607708DC00599
:102A800007D502F01DF81149087011480088204050
:102A9000487030888021014331800E480168072248
:102AA0009143016041684907FCD53188090600D48B
:102AB00000BE0949016109494161002D02D084F33A
:102AC000108870BD002080F3108870BD9064FC07F2
:102AD000800000500000F4070F009909090404A4C5
:102AE000F8B5EFF31082012181F31088804B1D8827
:102AF000202425431D80002A02D081F3108802E0A3
:102B0000002282F31088794A13888B43138013883C
:102B1000DB07FCD1384B00251D8605889D82458842
:102B20001D8385889D83C5881D841D880626B54321
:102B3000467A76002E431E80857B002D00D100BE94
:102B4000C57B002D00D100BE1F25ED439E8F2E407A
:102B5000877B7F1E37439F871E8F2E40C57B6D1E50
:102B600035431D873F25AD02867A012E0FD1868918
:102B700000961F880F431F801F8840263E431E80FB
:102B80001F88A743C47A012C15D1204614E08489FC
:102B90001E888E431E801E884027BE431E801E88CE
:102BA0000827BE43C07AC0003043188018892840E7
:102BB000204318810FE0007AC0B2400107431F8014
:102BC00018881026B043240104431C8098882840AC
:102BD000009C204398801088084310801088C0070C
:102BE000FCD00648016880220A437F218A430260A4
:102BF000034810210160F8BD0013005004E400E018
:102C000000E100E0F8B500920022304D144C174668
:102C100016468F421DD28E420ED2A38B9B070BD538
:102C2000761C8E4201D0012300E003231B022B807F
:102C3000F1E72B88C3557F1C8F4204D2A38C9B06DF
:102C4000F7D1BFB200E00F46A38D002BE1D0208862
:102C500000E013460098002800D00380F8BDC0466D
:102C600054130050FCB501925A0000931A430225F8
:102C700015400026144C154B0F0416D0491E27880A
:102C8000BF07FCD58AB257425741002D01D12F46CC
:102C900000E07F02825D3A431A80761C278A002F6B
:102CA000EAD01C3C208801990AE000270098C00760
:102CB000019905D020884007FCD520888006FCD4E7
:102CC000002900D00F80FCBD70130050101300507D
:102CD000064801880122914301800188C907FCD17F
:102CE0000348018820229143018070476C130050F3
:102CF0000400005070B5174EB06800F02DF8274959
:102D00000A6C00230B641518084C284621465CF712
:102D100079F9706106494143481901D0201A80B2FF
:102D20003061306808210143316070BD71020000DC
:102D30008FFDFFFF80B506480021016001F086FE8F
:102D40000120C00703490A6882430A6080BDC0466B
:102D5000A8B9FC073000004080B50246C00B09D07E
:102D60000E48006D00210B465CF776F98905800A54
:102D7000401880BD0948006D4243900A80BDC0469E
:102D800080B5FFF7E9FF80BD80B50449896C4143F8
:102D90000348081803495CF735F980BDD08CFC075F
:102DA00020A1070040420F0000B5A1B0B749C823D9
:102DB0000B8000204880B64908250D80B54C1E9038
:102DC0001E98002811DC0020209020991E980B29C5
:102DD00009DC3021414360182099890000224250CB
:102DE0002098401CF0E7401CE9E713951C936169AB
:102DF0000020C343012200291B92154600D01D4626
:102E00006A01A54FBE6816432A46FD68BE60199246
:102E1000D60E00291F4600D10F4679018919294392
:102E20009D4AD160616800291B9F00D01F46FD0F9D
:102E300000291E4600D10E4671004919964DEA68D8
:102E40000A43A968EA607A000A43AA602169002956
:102E50001B9A00D01A461A92150F00291E4600D15F
:102E60000E461897310149198B4EF2680A43B16832
:102E7000F2601A9A12010A43B260216800291D46C5
:102E800000D10D46F2682A43B568F26000291B9F05
:102E900000D01F463D43B560E568002D1B9900D06A
:102EA00019464E0F002D1A4600D12A46D20092191B
:102EB000794EF5681543B268F560CD001543B560ED
:102EC0002760189A6260E1601A992161199961611D
:102ED000256A002D1B9900D019460A02B7681743CE
:102EE0003246F66897600F0E002D1A4600D12A462A
:102EF0001202D2193243684EF2602162656A002DD7
:102F00001B9900D019464A02B76817433246F66843
:102F10009760CF0D002D1A4600D12A465202D219D1
:102F200032435D4FFA606162A169002900D01B93B2
:102F30001B9DAA01BE681643FA68BE60AE0E00294A
:102F4000139F00D10B46990189191143524DE96035
:102F50001B99A161E860A8601E901E98002834DCCF
:102F60000020209020980B282CDC20981E990B28FC
:102F700028D830201E9941436118209A9200895820
:102F8000491C00D100BE1E9941436118209A92004D
:102F90008958002913D01E99484320182099890088
:102FA0004058C117209A5CF7EBF81E9A12015CF7A3
:102FB000E7F8EA680A43A968EA600143A960209833
:102FC000401CCEE71E98401CC6E7A24E30881DACC0
:102FD00020802088C046C04620880422D143084271
:102FE0001B9202D00020308003E0B0890121884389
:102FF000B0813C46B08B9849014007200F90C00239
:103000000818B083954F388820433880F88D062201
:103010009043F88533460126B003998B0143998389
:1030200038888F490140398078880C921043A0433A
:103030007880052012900407618D0F200290020213
:10304000F88D90437D22D200C9058649864D0A92AB
:1030500024D4032149020843F885681CF98D0143F3
:10306000F985988B139988439883988B042188431A
:10307000988378887D4901407980F88D3043F885C0
:103080001B9D608D4007FCD51FE0C04600310050FD
:1030900002330050A08CFC07488DFC071018183034
:1030A000F885F88D0840F1034018F885988B13993E
:1030B00008439883988B1B9DA8439883F88DB04351
:1030C000F885988B40218843988330021590614998
:1030D000888B03220492104388833888202210436F
:1030E00040231693DB4318403880088C1792104316
:1030F00018400884E08A80210E9108431840E0823D
:10310000208EFF210D9188432086208F284318218F
:103110000B9188432087208FA021014311931940F0
:10312000218753480580A08852490140A18030047E
:1031300051490860FFF79AFC504A10680F990840FF
:103140001EA90870087802281DD0608D15990842C4
:1031500010D001F0B5FC0A2802D80B2001F0BAFC0F
:10316000F88DC007454A05D1F88D3043F885608D4C
:103170004007FCD510680221014312988143116079
:1031800050684007FCD53E480068C1B20C20AA290F
:10319000014600D029462288824388182080C046F4
:1031A000C04638480068384909886823374D0022EE
:1031B00010921493EA52364B1A4660329180186688
:1031C00001201990C046C0463248001F00683249AD
:1031D000884200D050E1029807070420002109919D
:1031E0000A9E189703462B4A1118081FEC3290428A
:1031F00000D347E11B9300682090209B3B400920AF
:103200000507209AAB425AD1209B1E0AF3B21A93AB
:10321000D2B2531E162B00D9F2E05B007B449B8890
:103220005B009F4407010701ED000701ED003B0033
:10323000B100ED00ED00ED00ED00ED00ED00ED0062
:10324000ED00ED00C4009300D9008C00ED00E70014
:10325000A700C04604030050FFC300005200005006
:10326000FFBF0000FF0F0000FFEF0000FFF90000AC
:1032700000020050FFF7000080E200E00000F407C9
:10328000D07FF807D47FF807D87FF807CC8BFC07EE
:10329000D08CFC07D47EF807A5A5A5A5BE4D149F2C
:1032A000E85DC00028181A9A92005BF725FFE85DD8
:1032B0008019E855C0B2052877D300BE75E0900F9D
:1032C00010D02098B54988420CD81B9B184608306E
:1032D00021462831209A8A4226D1B1495958B14A0B
:1032E00011807FE7209838400F9909078842199983
:1032F00005D10020C046C0461B98001D72E72098EB
:103300003840C90788421B9A0CD02098384012993F
:103310004907884206D020983840049949078842D6
:1033200000D098E0101D5DE7A11C209A8A4200D0D1
:1033300087E09B4959586622974B995252E7984823
:103340001B9908586221944A505273E0944A1B9B7F
:10335000995848439A58120C801A00B2C0085A2350
:103360008D4DE852501A81088F4A11400818401CB0
:1033700058212FE08A481B9908586421864A5052E8
:10338000000457D100BE55E06925834F785DC00029
:10339000381810301A9A92005BF7AEFE785D8019EB
:1033A0007855C0B20D2800D300BE189F42E07C4A79
:1033B0001B9B995848439A58120C801A00B2C008B7
:1033C0005623754DE852501A8108774A1140081863
:1033D000401C542168522DE0099DA8001EAA101817
:1033E0001A9EB2005BF788FE75190995032D21D34B
:1033F00000BE1FE06A481B9908586749086519E034
:103400001E2A17D11A984008020613D00B684A6882
:10341000083100252E460836382E08D05E4F7D191B
:103420002D699D423546F6D15B4B9B19DA60401EF3
:10343000189FE9E71A9880001B990818001D0A9E3A
:10344000D0E621462431209A8A420AD1544959585B
:10345000544A5180C6E62098401C13D000BE104646
:10346000C0E621462031209A8A4200D0BAE64C4973
:1034700059584C4A9180B5E666202F5A4B4A199EFE
:10348000109D39E05C201E99434D295209201F9957
:1034900048430A0C801A00B2C0086023E852501A50
:1034A0008108414A11400818401C5E216852149A54
:1034B000A85CC10701D000BEA85C4008A8546920E0
:1034C000295CCA07394A01D000BE295C4908295441
:1034D0006420295A002900D12E5266202F5A002F2D
:1034E000199E109D08D132490968C9B2AA290E9FB8
:1034F00000D06E2728490F525784A08CB043A08477
:103500000D20FDF739FD6089304302211491884375
:10351000608160894006FCD567800A98FDF72CFD24
:10352000608904998843608160890006FCD57F200A
:103530001E4908711E4880691E498860EFF3108695
:10354000199B83F3108820880E99084320801A491C
:1035500008680F9A9043086048684007FCD51748F0
:1035600008611748486120880E9988432080608D43
:10357000159908420BD00F4F387801F0ABFA199B20
:1035800078781049002802D1C88D9843C885002E4C
:103590001AD083F310881AE0CC8BFC074C42005001
:1035A000D47EF807A000FC07FF3F0000D08CFC078A
:1035B000D07FF8079064FC070000F4070F0099091A
:1035C000090404A452000050002080F31088129EC9
:1035D000B3480068B349884200D0C6E0B248B34956
:1035E0005BF7A3FD0F980102B1485BF79EFDFDF765
:1035F0007DFAB048B0490160B048B14930273A4639
:103600005BF77AFDAF480025C5718571457105717D
:10361000C570857045703F211A910170AA48ABA111
:10362000169A5BF769FD8B4805708B488B490160E2
:103630008B488C4901608C498C4808608C480A2171
:1036400001708C48129505708B48322110910170E1
:103650008A4806608A48199901608A4806608A4843
:103660000C99016089480F9901608948139D056094
:10367000199800020190801D8649086086490860FB
:1036800086488949016000F0A5FC20890397B8436A
:10369000208120890E990843208120892843199D83
:1036A0002081208CA843208460890B998843608105
:1036B0002089169908432081208A0421884320828A
:1036C000A08A8007FCD5E08CF44908400B21090250
:1036D0000143E184E08C2843E08460891399084326
:1036E00010210F9188436081608CA84360842089F9
:1036F000169988432081EA483730AE073168014087
:1037000031601A984002E74A11688143680308183B
:103710001060E548401C116801431160DD4F3868B6
:10372000DD49884218963CD05C480068DD498860D5
:10373000DE4A90681071010ED171010C9171000A7E
:1037400050710198C030DA4A1746002817D0401E41
:10375000C35D1678354604990D40D4494D192D792D
:103760005D4075401570521CEFE7D248D049720297
:10377000954200D932E72A586A502D1DF7E7CB4D04
:103780001C35CB491C2228465DF74AFC0028189EB0
:1037900000D000BE28465DF7D7FBBF48BD49086092
:1037A000199D3E4800683EF755FDC34F1298387189
:1037B000F8703068019908433060FEF709FB28462D
:1037C00000F076FDBD490878002802D00E984870B8
:1037D00003E00020F870BA490870BA4822301B9004
:1037E0000C215BF7A2FCB848482101725021C1713D
:1037F0005222827141712D210171129D4584B3497C
:1038000001600427B249384659F7F3FA0D981B991D
:1038100088701B973846294659F71DFBA74F384635
:103820006C308580AB48F8663D74A6482E30AA49B6
:1038300016220D925BF760FCBD740D9878745FF7EB
:1038400057FF3878002861D081207870A34D199FE8
:1038500062E0C046FDB9FC0750B9FC07603FF207C3
:1038600054B9FC07BC5AFC0758B9FC078C59FC0733
:10387000B0B9FC07B1B9FC07D9B9FC075CB9FC07C2
:1038800060B9FC0764B9FC0768B9FC076CB9FC07B0
:1038900070B9FC0748B9FC0744B9FC074CB9FC07F0
:1038A0009CB8FC076587341200A0FC07AC1400002C
:1038B00000B9FC0760BAFC071459FC0700BAFC0702
:1038C0007CFCF107DAB9FC07B0BCFC0720008000E3
:1038D00000C000000000840000002822000000005A
:1038E0000000040000F7FFFF7F00000030F0FF0F32
:1038F00000000000000400000000000000000000C4
:10390000000000000000000000000000199F6A484D
:10391000C7706B480770714D71A05DF7F9F9FFF73B
:1039200009FA0520FDF7D4FA1C98288071481399EC
:103930000180714871490818714940188008401E7B
:103940000D90780209901A9880020B90F8031A9053
:10395000129F59492089000600D468E1306B1A9AF9
:10396000104200D063E10888C00700D05FE159F73A
:1039700044FD0026304600F09BFC5048807A042825
:1039800000D050E1199800F093FC1E961EA8042563
:1039900029464AF7D3F8002800D143E1199859493C
:1039A0000860464B08680028FCD11898C069D96A9D
:1039B000884201D2DE623146411ACA09D97A182AF0
:1039C00000D8B1E0C90700D0B0E00C954E4D298871
:1039D000089169880791A9880691E98805912E8048
:1039E000099910316980169AAA805C21474B595A6F
:1039F000A9813249C862A88910430399C943084084
:103A0000A88143480260BFF34F8FBFF36F8F2888B0
:103A100010432880E88810430840E88028880C99E3
:103A200088432880A888C0B2A880E8887021014017
:103A3000402900D081E06220185A0028354900D082
:103A400001461A4841803448401C29880143298096
:103A50001920FDF791FA2888099E3043288028888C
:103A600016990843288068880C99084368806888FC
:103A70002A490840688002984002698801436980A9
:103A800068882749084015990818803068802548BB
:103A90000A9B67E09CB8FC0765873412FFF00000C2
:103AA000C8FEFFFF00020040FFFF1F009064FC07FC
:103AB000288EFC0700B0FC0754BAFC07D08CFC072A
:103AC000B4BAFC07488DFC07B48DFC0708444C478A
:103AD000FC54FC0705FFCDABB05EFC070031005085
:103AE00041707020496E697469616C697A65640D12
:103AF0000A00000002330050705E00001001FC0755
:103B0000030004F8FC00004000150050CC8BFC07BB
:103B100080E100E040760000FF0F0000FF1F000082
:103B20003FFE0000FCFF0000C8077BD0E449086BA3
:103B3000401C086300F06CFD74E02888DE490840F2
:103B400028806888EA490840688068880499884322
:103B50006880E34A10464038298801402980104691
:103B60000A9B099E6988014069802888199A104338
:103B700028801846173029890140EE4BD98269897F
:103B80000140198328890B990840304328816889AE
:103B90000840304368812888149908432880288881
:103BA0008007FCD4EA81288AC6494988DA8A1D46FA
:103BB000CC4B1B890B9E33401343CA4A13812A8B7B
:103BC000C84D6B89334013436B81401A0A994143B6
:103BD000002804DCC74A8918C017084001E0C6481D
:103BE0000818C6495BF724FA85091935F74A107990
:103BF0007F280DD0281A41B2C9114840401A40B25E
:103C0000052806DB106B401C106300F001FDEF4A35
:103C10001571B44807994180069981800599C18042
:103C2000089901809F4D5DF77BF8189EAA4972B6EE
:103C300008790228384602D0A3480068806A1E909E
:103C40009948C088C00700D027E158F7A2FC1B9B09
:103C5000A149002800D120E1C878012800D0A7E0C0
:103C6000A08AC00700D08EE00888002800D09FE01E
:103C7000A348806A002803D093480068806A1E9099
:103C800000F0E4FE944881781EA859F77AFA924928
:103C9000002800D18CE03069400600D588E08E48CD
:103CA00081781EA849F74AFF8B49002800D17FE0A0
:103CB0000B98FF308C4A1188014015980143118000
:103CC0001E98002806D0316A804A8918DA2901D85E
:103CD000401E1E90BD48808C7A4AD1680818106139
:103CE000F06B884B18400843F063F06B864908403E
:103CF000516989020143F163F06B7649084011690B
:103D000049050818F0631E9A80488242704F00D31C
:103D100000BE664903C900235BF79EF90903000D45
:103D2000411868484069821C8A4200D0481E6A498E
:103D300009794A1E914145F717FE7548C06A8047C8
:103D40001A99306B0842FCD0019938680842FCD0BF
:103D500038680E998843386053480089452805D84B
:103D60004621514A1181081A984908643EF7ADFA74
:103D7000B8689649C86338680006FCD520890E9952
:103D8000884320811B9B55480178208A1843208254
:103D9000564A106818431060454A1089199FB84365
:103DA0001081608A012905D10F99884360822CE037
:103DB00030BF72E00F9E30436082608A1843608299
:103DC000FEF754FE608A304360823C480D990162E0
:103DD000EFF3108087F3108821880E9A9143218099
:103DE000002802D087F3108802E0002080F31088BA
:103DF000608D15990842189E07D00B2000F06AFECE
:103E00002C49C88D199A1043C88500202083608DE5
:103E10001599084206D127490888169A1043179A1F
:103E2000904308802249088C169A1043179A9043B1
:103E30000884A08C199FB843A0840D20FDF79CF83E
:103E40006089384314998843608160894006FCD5B5
:103E500010986080A08AC006129F03D51248801E69
:103E60001399018030BFA08AC00602D50E4813996D
:103E7000018010490888179A1043119B1840088048
:103E80000B49088C10431840088400F0A3F8174A27
:103E900010681B99884310600F4962B61C982880EF
:103EA00058E5C0460031005002330050488DFC07F1
:103EB0000403005052000050FFEF00000000F40720
:103EC000D08CFC079064FC0758B9FC07C8FEFFFFC4
:103ED00000020040FFFF1F0054BAFC07B4BAFC0701
:103EE0003FFE0000001500503830005010ED00E09B
:103EF000FFE100002BFDFFFFD5020000AA05000036
:103F000074BEFC0700FCFFFFFF03E0FF40420F0010
:103F100058BFFC07FA4801466C318A88521C0A7166
:103F2000130A4B7191B2044A914202D170210022CE
:103F300042527047D08CFC07FFFF000010B569218A
:103F40000D48415C143000228A4206D20368041FE7
:103F5000246823600830521CF6E710BD10B56821B4
:103F60000548415C00228A4204D218C81C60003017
:103F7000521CF8E710BDC046CC8BFC0770B5E04D75
:103F8000697D002900D000BE88002E18B06D58361B
:103F9000002815D109020A310D4804240E232246B7
:103FA00058F728FD092101703060C8218180002167
:103FB00081814181192109010181C480A0214180B1
:103FC00058F733FD00202874306070BDD08CFC079A
:103FD0000E0E0000F0B58BB06F4CE0896F490140C8
:103FE000E1816F486FA118225BF786F873A07649CC
:103FF0002CC82CC1FCF773FD744875490160EFF3C0
:104000001080012585F31088218840220A432280F0
:10401000002802D085F3108802E0002080F3108889
:104020006C4801886C4CA18980221143A1816B49A5
:104030000B230B800821029121800026A680A189F4
:104040009143A18103210191A18185830684868406
:10405000039504AD2E826E800420009028700A968D
:104060000996079606945E4805905E4F38462946A5
:10407000FEF790FAEE71019C2C71574807901037AB
:1040800038462946FEF786FA9D488663039D0572E9
:10409000240205202146009A3346534FB8471D227B
:1040A000284621462B46504DA8471C220098214601
:1040B0003346A8471B22304621463346A8471A22DA
:1040C000019831463346A8470927029831463A46B7
:1040D0003346A8470A22384631463346A8470620C9
:1040E000214632463346A84740480188039B19437E
:1040F000018002980294214632461C46A847384661
:10410000314632462346A8472402394D7E4E002FC1
:104110001BD0F068B068800500D400BE28888005F8
:1041200013D4F068B068204200D100BEAC800520F6
:10413000FCF722FFF068B068204200D100BE6C801E
:104140000520FCF719FF7F1EE1E7092000220299F4
:104150001346FDF7F9F90320FCF70EFFF068B0688D
:10416000204200D100BE6C8003252846FCF704FFE6
:10417000092400260A2220463146039F3B46FDF7CC
:10418000E3F92846FCF7F8FE0820314622463B4674
:10419000FDF7DAF90BB0F0BD040000507FFE00001F
:1041A00020000840F99DF00700000000E3A1F1079E
:1041B000000000004FA4F107000000000D05FC07FF
:1041C0003B08FC074B09FC07C000FC070000084047
:1041D000070010007C11005000110050C011005069
:1041E00005000300003600504915FC070C03005081
:1041F000003000500549884200D000BE04480188C4
:10420000044A11408918091D0180704711111111CC
:1042100012000050FC7F0000F8B504460026234F32
:10422000302E0FD0BD19E88AFD2801D106496960FA
:104230005DF764F8002803D082682846214690473D
:104240001836EDE7F8BDC0468058FC07B0B500252C
:10425000164C002826D1012D26D8FF20E082002010
:1042600020606060A060E060206110202843C0B240
:10427000A082214658F7BDFD18346D1CEBE7E08A9B
:104280005DF73CF8002802D04168204688470020AE
:10429000E0816060A060FF20E082207D58F703FE8F
:1042A00018346D1C012DEAD9B0BDC046588CFC07EE
:1042B000B0B5D14DE978012921D11249002803D0A8
:1042C00008884007FCD402E00888400717D4002380
:1042D000EB70C8888988000444181F2040064921D3
:1042E00022465FF7BDF8084A03C264214143080C27
:1042F000A86406486043800B401C40082865B0BD98
:10430000D08CFC0700160050488DFC0711110100ED
:1043100010B5F24C082020701120FCF72DFE032070
:10432000607010BDFEB5624803250570614C2046E3
:104330001438016814220A436B218A430260A06A80
:104340005D4988610020C043A06220683F21884306
:10435000206020685949084020606068584908403A
:10436000012101918902029140186060606840213A
:104370000143302081436160A069524908400B210C
:1043800049064018A061A0694F49084069024018D9
:10439000A061A0691821014327208143A161432026
:1043A00020714A4880474A4880474A4880474048E9
:1043B0000570009548480668484880474848804747
:1043C000206848490840F105401820603B4E4036BF
:1043D00020683040490C40182060412727716068F0
:1043E000374908400299401860603848804738488B
:1043F0008047384880472E48057037480568374859
:10440000804737488047206836490840E90540180A
:10441000206020683040490C401820602771606897
:10442000274908400299401860602848804728487A
:104430008047284880471E48009901702648006838
:104440002168284A1140C20589182160216831403D
:10445000254D0540A801081820606068019988432F
:104460006060154EB069A06220681C2101432320C2
:10447000814321602068114908402060A0691149EA
:104480000840072189064018A061A0690E4908402C
:104490000F21C9014018A061A0691E2101432120FC
:1044A0008143A1610D4880470D488047F586FEBDD8
:1044B00005100040183000409064FC07FF7FFFFFAC
:1044C000FFF9FFFFFFFFFFC03FF0FFFFCD24FC0718
:1044D000D526FC075B0FFC0788300040A924FC07A9
:1044E000470FFC07FFFF7F00FF010000704700003F
:1044F000F0B58BB03022002181541F221204344BBE
:104500001D68954301246204AA181A60324B334D8A
:104510004561334D334E344F344AC26106624362C3
:104520002C4A8262C562324A07604260E004C74A90
:10453000136883431360282903D001A84154491C00
:10454000F9E72C480068403001A928225AF7D4FD29
:10455000C24D6C73FFF7DCFEFFF700FDFFF7EEFCCA
:1045600000F07EF900F00EFB00F06AF8FFF7DAFECB
:10457000EC7222480088072101402973FCF780FC77
:10458000FDF7FCFBFDF70EFC1D490B881D48046878
:104590001D4A1440E31803601C4B1C8885691540B4
:1045A0002C1984615B88C4691440E318C3614B8A89
:1045B000046A1440E3180362898A436A1340591855
:1045C0004162A44802218170002101800BB0F0BD3E
:1045D000740000403D46FC073946FC072547FC07B0
:1045E0000947FC078917FC07E146FC07E346FC077F
:1045F000ED44FC074CB9FC07D08CFC07B810004018
:104600001030004088A0FC070000FFFF643000402D
:1046100080B5FFF77DFEFFF791FC00F021F900F077
:10462000B1FAFCF72DFCFDF7A9FB8A480221817045
:104630000021018080BDC046002070477047000007
:104640000E4908880E4A024001204302D2180A800F
:1046500041057E4A13688B431360810700224A6735
:104660001F2212044B6F93434004181848670868D0
:10467000E0220243102082430A6070473830005025
:10468000FFFC000080B51F20000401218A07536F42
:104690008343480418185067106807218843106046
:1046A0000D48018808220A430280FFF731FEFFF718
:1046B00055FCFFF743FC00F0D3F800F063FAFFF776
:1046C000BFFFFDF76FFB634802218170002101806D
:1046D0000520FCF7FDFB80BD0800005004100040E1
:1046E000704780B5E62800D3E620282800D8282087
:1046F000F9214A0042437D20C10010465AF782FC4E
:104700007F38C0B280BD00000548016807220A4317
:104710000260012080044D490A6882430A607047A4
:1047200030000040022902D0012900D000BE00283C
:1047300002D0FF2804D000BE022901D10C2070470E
:10474000D848407B002800D009207047F8B53F4882
:104750000168C90703D0016802220A4302600124EC
:104760000168490203D5A10502680A4302602702D5
:10477000650237490095084608380668002E63D060
:10478000300606D58020086049F781F8FDF720FB48
:104790002F49B00704D50220086044F776FF2C4962
:1047A000300714D508200860FCF75CF93D46274621
:1047B0000024204644F722FF25490420EC4A907249
:1047C0000220244A907014803C462F46009D3E42B1
:1047D00004D00F60012044F711FF1D492E4203D081
:1047E0000D6049F7BDF81A49700604D540200860ED
:1047F00044F7FFFE1649F00604D51020086043F781
:10480000BBFA134970070FD50420086012490888C5
:10481000A043088058F758FE3DF712FFFDF7D8FA7D
:104820000B490020D24A9072F00707D00C6058F76D
:1048300067FE49F72CF80649CD488472B0069AD530
:104840002020086000BE96E7F8BDC0460002004088
:10485000180000400410004008330050D08CFC07C2
:10486000FCB57F2000025A4A516981430B200002A7
:1048700008185061106880B256494018106090695D
:10488000554C0440012358030090201890610320E8
:1048900001900002146B04431463908F10240443AE
:1048A0009487908818439080BF484C4A02604C4AD5
:1048B000104610384B4CA58B054015204301E818D5
:1048C0005030A0836069484D054048482818606111
:1048D000A069474D0540092040022818A0612068C2
:1048E000444D05404448281820606068434D054009
:1048F000434828186060A068424D05404248281887
:10490000A060E068414D054041482818E060D34868
:10491000407B002802D1C120400100E03D483E4DCF
:104920002860052080023D4F3880401DB880388CBB
:1049300055260643AA2086433E84FF266C36304621
:10494000C9303885364908460E30B885354838862E
:10495000B986C01D388734482085A06B3349014093
:1049600033480818A063334C2680208F10401F4620
:104970002037C01920873048018811408919D53166
:10498000018081881140C918818001891140C919AD
:1049900001812136A680294801881140C91860315B
:1049A0000180818A19220A4306218A438282A88FC4
:1049B0002349014000980818A88722480168019AF5
:1049C00011430422914301601F486866FCBDC04644
:1049D0002030004000008888FF00FEFF59055C077A
:1049E0001FFCFFFF042000400000E0FF09581A00F0
:1049F000FEE1FFFFE0E00000080929490000030391
:104A0000696A686C031FFFFF70600000E0E0E0E08F
:104A10000B0A0A0820180009001000402813004063
:104A2000260A000051080000070F00002F64E0FE76
:104A3000101A060100120040441200408812004083
:104A4000FF9F00008010004050015001F8B5642025
:104A500013490E5ACD4FBC6C304660431249401882
:104A600012495AF7CFFA0546B8843C3666430E48D9
:104A700030180E495AF7C6FA001D0D49C8602818AB
:104A8000C01D48610B4A1278022A01D111304861D9
:104A9000FEF762F90849401880B258F73FFDF8BDAB
:104AA000CC8BFC07D08CFC0720A1070040420F00F4
:104AB0009064FC07B4BAFC07E204000070470000F1
:104AC0000D480188890918220A4000888004400F97
:104AD0008018704708490A88084B1340F8220240A2
:104AE00092011A430A800A88054B13404007800C44
:104AF000181808807047C04654000050FFF90000A5
:104B0000FFC7000070477047024801884906FCD57E
:104B10007047C04614110050174801880122914384
:104B20000180704710B5994B00241C8458639A6328
:104B30009983104908200860BFF34F8FBFF36F8F30
:104B40000D490A88022414430C800A8880241443E7
:104B50000C80197A4A1E9141C907FF221206074BA1
:104B60001C689443611819600549086010BDC0466F
:104B7000D08CFC0780E100E00411005000E400E06C
:104B800000E100E018B50848016800910099074A63
:104B9000009B1A40FF2424040C40D9B20919044B8D
:104BA000C9181143016018BD8000004000FF00FFDC
:104BB0000A000A00F8B527482749FCF7ABFF274E43
:104BC000F074FCF76DFF0446C57A162D0AD86019FB
:104BD0000C3031466C3106225AF78EFAAA1DE27269
:104BE000357517E02B20275C192F11D820462B3064
:104BF0000090E0192C3031466C3106225AF77CFACD
:104C0000B81D009908708020384330752A4601E0AD
:104C100000BEE27A7274124D28462E3021460C31C5
:104C20005AF76AFA2B20225CB2744D352C34284690
:104C300021465AF761FAFCF733FF57F7F6FE0020DA
:104C400070650420022158F706F906A05CF760F8A9
:104C5000F8BDC046DC050000A518FC07D08CFC0799
:104C6000488DFC074164766572746973696E6720CC
:104C7000537461727465640D0A00000010B5044637
:104C800003A05CF745F8442C01D1FFF793FF10BD5A
:104C90004164766572746973696E6720456E6465F8
:104CA000640D0A0070B50C460C214143174A551893
:104CB0002421695C2435FF291ED0154E7075F07CC7
:104CC000FCF73EFF6088A02809D3C82807D8A08831
:104CD000042804D119200001E188814208D07D20F8
:104CE00080000C49FCF716FF30740BA05CF710F83D
:104CF00014A05CF70DF801E0FFF75CFF2878FF28AF
:104D000000D070BDFFF756FF70BDC046488DFC0750
:104D1000D08CFC077D3FFC07436F6E6E6563746942
:104D20006F6E20506172616D65746572732075706D
:104D30006461746520696E697469617465640D0AE3
:104D40000000000041707020436F6E6E65637465F3
:104D5000640D0A0010B508A05BF7DAFF874C207CD1
:104D6000002803D0FCF7ECFE00202074FFF7D2F8F7
:104D7000FFF720FF10BDC046417070204469736387
:104D80006F6E6E65637465640D0A0000D08CFC075D
:104D90007CB50C464D49884228D04D4988423BD1CC
:104DA0006088801E0221C841062835D878440079E1
:104DB000400087440341373C32465D006D46002683
:104DC0002E70A288A11D28465AF796F92878002847
:104DD00061D0012851D16F485BF79AFF4B208000CA
:104DE0006D49FCF797FE6549C8847CBD39480825A4
:104DF00019462B4657F7FEFD21780C224A433649C7
:104E000089182422895C0170618841800021818099
:104E10008021817157F709FE7CBDA07901282ED130
:104E20004F4835E0A07901282BD1514830E0A079D6
:104E3000012828D14C482BE0A079012825D14E48E3
:104E400026E001AD00262E70A288A11D28465AF743
:104E500053F9287800282BD001280ED149485BF758
:104E600057FFC8204849FCF755FE444908857CBDDA
:104E7000A07901280BD124A00AE0444808E02CA026
:104E800006E03A4804E0374802E03A4800E013A060
:104E90005BF73EFF7CBD394CE08C0028BCD03C4821
:104EA0005BF736FF2620205CFCF74AFEE6847CBDDB
:104EB000324C208D0028AFD031485BF729FF2820E5
:104EC000205CFCF73DFE26857CBDC04604FD00004D
:104ED0000AFD000005FD0000488DFC074469736170
:104EE000626C6564204E6F74696669636174696F92
:104EF0006E7320666F722054656D70657261747593
:104F000072650D0A00000000456E61626C656420E8
:104F10004E6F74696669636174696F6E7320666F42
:104F2000722054656D70657261747572650D0A004A
:104F300044697361626C6564204E6F74696669636D
:104F40006174696F6E7320666F7220416363656C74
:104F500065726F6D6574657220470D0A0000000070
:104F60006F5CFC07795DFC074D5DFC07205DFC076D
:104F7000F45CFC07C75CFC079B5CFC07D08CFC075F
:104F8000FC5DFC07C25DFC07D520FC074C5CFC0700
:104F9000DE5DFC07A65DFC07F51DFC070FB47CB5C4
:104FA0000C0009AD01D0611E00E0002101910090CC
:104FB000074B6A462946089800F046F8002C02D0B4
:104FC000009A002111707CBC08BC04B01847000096
:104FD0009953FC070FB410B504A9074B02AA039814
:104FE00000F032F8044602A9002000F0E0F9204663
:104FF00010BC08BC04B01847AF53FC072021020CBA
:1050000001D010211046020A01D0104608390209C9
:1050100001D01046091F820801D01046891E42089F
:1050200001D0881E7047081A704702E008C8121F96
:1050300008C1002AFAD170477047002001E001C181
:10504000121F002AFBD17047FFB58FB0054600261E
:1050500006E025280AD0129A119990476D1C761CFB
:1050600028780028F5D1304613B0F0BD0024029412
:105070000121B54A009400E004436D1C2B780846DA
:10508000203B98401042F7D128782A280ED00222DF
:10509000287801463039092916D802990A2359433C
:1050A0003039401814436D1C0290F1E7109802C883
:1050B00002911090002904DA012040030443484281
:1050C0000290022004436D1C28782E2817D104205A
:1050D000044368786D1C2A280CD110986D1C02C8F6
:1050E000009110900BE000990A225143303940188A
:1050F0006D1C00902878014630390929F3D92878A9
:105100006C2810D006DC4C281AD068280ED06A28EB
:1051100017D104E0742813D07A2812D110E00120AE
:10512000400504430CE00121090501E003210905C4
:105130000C436978814203D10120000524186D1CBD
:105140006D1C2878692874D006DC00288BD0632871
:1051500027D0642806D16CE06E2808D073282CD0A4
:10516000752878D0129A11999047761C5FE06002FA
:10517000400F022809D003280DD004281098016898
:105180000DD00E60001D109051E01098F2170168CC
:105190000E604A60F6E7109801680E80F2E70E7024
:1051A000F0E710986A4601781173001D10900020F6
:1051B000507303A80190012005E0109802C80191E6
:1051C00010900020C04361070CD5002700E07F1C31
:1051D00000998F420FDA8742F9DB0199C95D0029F6
:1051E000F5D108E0002700E07F1C8742FCDB019935
:1051F000C95D0029F8D102982146C01B0290129B7C
:10520000119A00F0B3F88019C61907E001980199C6
:105210000078491C0191129A119990477F1EF5D28E
:105220002146129B119A029800F090F886196D1C85
:1052300016E70A200190109901C910916102490FE7
:10524000032900D100B2042900D140B2002803DABA
:1052500040422D2103E00DE0210504D52B216A46B3
:105260001173012103E0E10711D02021F7E70CAF12
:105270000C9114E00A200190109901C9109161026B
:10528000490F032900D180B2042900D1C0B2002106
:10529000EDE7019959F7B6FE30317F1E39700028CD
:1052A000F7D104A8C01B20300190600704D501206D
:1052B00000048443009801E0012000900199884295
:1052C00001DD401A00E00020411800900C980918F8
:1052D0000298401A0290E00306D42146129B119ACC
:1052E000029800F043F8861900200D9008E003A909
:1052F000085C129A119990470D98401C761C0D90ED
:105300000C998842F3DBE0030CD52146129B119ADD
:10531000029800F02BF8861904E0129A30201199B7
:105320009047761C0099481E00900029F5DC05E0A6
:105330003878129A7F1C11999047761C0199481E63
:1053400001900029F4DC6BE709280100F8B5044658
:1053500000251E461746880404D405E0394620205F
:10536000B0476D1C641EF9D52846F8BDFFB504464C
:10537000002581B01E46C80301D5302700E0202754
:10538000880404D505E038460399B0476D1C641EB7
:10539000F9D5284605B0F0BD4A68002A06D00A684B
:1053A000531C0B6010704868401E486070470A68C4
:1053B000531C0B6010707047034880F3098800F09D
:1053C00025F8FAF7A5FEC046E86CFC0704207146F4
:1053D000084203D0EFF309800A490847EFF3088039
:1053E00008490847704704207146084203D0EFF38C
:1053F000098005490847EFF30880034908477047CB
:10540000FEE70000C916FC073116FC071A49888818
:10541000072290438880052000078A89D2070DD093
:10542000098800290AD115490A8802854A88828498
:1054300089880184418A124A0A404282114906221F
:105440000A800121CA03104B1A60BFF34F8FBFF3CC
:105450006F8F02221A60BFF34F8FBFF36F8F1960F7
:10546000BFF34F8FBFF36F8F418904229143418176
:105470000021018062B6704704030050A000FC07C1
:105480007FFE00000034005080E100E04F43313CDB
:10549000939242E6A876FA3BEFB4875A17B9679819
:1054A0004C664C01963331B1915900152368EC528A
:1054B0001E6244749A1BD18BAB75B66E20EE8D0CB8
:1054C000E1F04A0CB325DC536A68862D9EE7BA08E2
:1054D000B9A948ABA1AC031C2E0D296C20EE8D0C94
:1054E000E1F04A0CB325DC536A68862C4F43313C0B
:1054F000939242E6A876FA3BEFB487590000000089
:105500000C55FC07888CFC07040001001455FC07AF
:1055100001000000FFFF0000A932F20702140000A2
:10552000DD24FC07010D0000E528FC07000D00004C
:105530008928FC07000E00001527FC07010E00005B
:105540003927FC07030E00009927FC070A0E00000C
:10555000C527FC070C0E00007928FC071C0D000075
:105560001129FC07100D00008128FC070F0E000018
:105570006928FC072C0E00006128FC07120C0000B3
:105580001929FC07080E00007128FC078D1BFC0779
:10559000AD1BFC07D519FC072D19FC07F80000000E
:1055A000080004900000000000000000030005D087
:1055B0008B0035F010005CF0000010B0000018B057
:1055C00000001AB0030051F0000038B000003AB0FB
:1055D000000064B0000066B0000022B0000024B0FB
:1055E000010005D0000000000A00008008030490BC
:1055F000000004F0030006D0000000000A00008054
:1056000008030490000004F0030006D0000000002E
:105610000328002802290129FD0000005056FC073C
:105620001C000000F918FC0700000000000000004A
:1056300000000000FF00000000000000000000006B
:10564000000000000000000000000000000000005A
:105650001256FC07100000000100000010001000AE
:10566000D458FC071056FC0702000000010000009F
:105670000000000000000000BC54FC071000000007
:105680000900020001000000000000001656FC079F
:10569000020000000100000011001100305EFC0754
:1056A0001056FC070200000001000000000000008E
:1056B000000000008C54FC071000000001020000F4
:1056C00008000000000000001456FC070200000063
:1056D0000900020002000000000000001656FC074E
:1056E00002000000010000000F000F00425EFC07F6
:1056F0001056FC070200000001000000000000003E
:10570000000000009C54FC07100000000102000093
:1057100008000000000000001456FC070200000012
:105720000900020002000000000000001656FC07FD
:1057300002000000010000000F000F00525EFC0795
:105740001056FC07020000000100000000000000ED
:1057500000000000AC54FC07100000000102000033
:1057600008000000000000001456FC0702000000C2
:105770000900020002000000000000001656FC07AD
:1057800002000000010000000F000F00625EFC0735
:105790001056FC070200000001000000000000009D
:1057A00000000000CC54FC071000000001020000C3
:1057B00006000000000000001456FC070200000074
:1057C0000900020002000000000000001656FC075D
:1057D00002000000010000000E000E00725EFC07D7
:1057E0001256FC071000000001000000100010001D
:1057F000E458FC071056FC070200000001000000FE
:105800000000000000000000DC54FC071000000055
:105810000900020001000000000000001656FC070D
:10582000020000000100000019001900955EFC074D
:105830001056FC07020000000100000000000000FC
:1058400000000000EC54FC07100000000102000002
:1058500009000000000000001456FC0702000000D0
:105860000900020002000000000000001656FC07BC
:10587000020000000100000010001000815EFC0723
:105880008858FC0709000000130C00004B29F207A0
:10589000150C00002129FC07170C0000572BF207FC
:1058A000000C00002328F20706FD00005728F2072D
:1058B00003FD00003728F20708FD0000B328F207B7
:1058C0000EFD00000F29F20705FD00004123FC0733
:1058D00000141C02595A08E4862A9E8FE911BC7CE8
:1058E00098434218595A08E4862A9E8FE911BC7CD5
:1058F0007C46421848004F000800170001000100D4
:105900005300010148004F0008001700010001008A
:105910001F00010101000001B509FC0701000002A0
:10592000A50AFC070000000000000000F4010B00C5
:10593000F4352348F40108C4140A000014000000E0
:105940009D19FC0700000000FF000000000000009F
:105950000000000014000000ED14F207FD0000003C
:105960002126F207FF00000000000000F519FC07E7
:105970004919FC07C85EFC07914DFC078C55FC07D4
:105980006A8DFC0700000000898CFC070500000000
:10599000E86CFC07000400003492FC07AC02000035
:1059A000288EFC0700040000EC94FC077005000042
:1059B0002003000000A60E0004000000D20000003A
:1059C000320000003C000000010000000100000067
:1059D00002000000020000000400000003000000BC
:1059E00006000000000000000200000002000000AD
:1059F00000000000000000000300000003000000A1
:105A00000500000005000000060000000A0000007C
:105A10000A000000C8000000B80B000002000000EF
:105A2000B80B0000B80B000010000000D40100000B
:105A3000CC010000700200006A00000004000000B9
:105A400001000000200000000A000000010000002A
:105A5000E20400008A020000DC050000AF00000044
:105A6000385CFC07785AFC07AC5AFC07405CFC0722
:105A70006C59FC07885AFC07A8B8FC07A0B8FC07BB
:105A8000B8B8FC07F8B8FC07E664FC07C08BFC0755
:105A9000C18BFC07C48BFC07C88BFC07254BFC079C
:105AA000094BFC07E91CFC07B51CFC07D058FC0798
:105AB000D358FC075056FC07B923FC07F144FC07F8
:105AC0008546FC0793DEF007F1DEF007F9DEF0070C
:105AD00049DFF00761DFF00777DFF00799DFF007B4
:105AE00019E3F007BDE5F007FDE3F0071DE4F0075B
:105AF0003DE4F0077BE4F0078BE4F007F5F9F007ED
:105B0000B1F7F007CFF7F007EBF7F00705F8F0076C
:105B100019F8F00797F8F007AFF8F007DFCDF107B5
:105B200067D0F107DBB9F007CD0DF207B10EF20730
:105B3000AD0EF207A90EF2078D21F007F541FC0723
