:0200000407FCF7
:10000000B059FC077142FC078542FC079F42FC0780
:10001000B942FC07B942FC07B942FC07B942FC07E8
:10002000000000000000000000000000B942FC07D2
:100030000000000000000000B942FC077F13FC072D
:100040000510FC07313CFC07A526F0078113FC07CF
:10005000AD12FC07B942FC07C90FFC07B942FC0707
:10006000D50FFC07B942FC074511FC074F11FC07EF
:100070005911FC076311FC076D11FC07B942FC071D
:100080001514FC07B942FC07B942FC07B110FC0784
:10009000B942FC07B942FC07B942FC07B942FC0768
:0800A00000008E070E000000B5
:0200000407FCF7
:100110000348854600F040FF00480047C122FC0725
:10012000B059FC07F8B507460120002302460090AD
:100130001946032049F766F9044602218030017010
:10014000FF4DFE482A6843881146FF31F7310B8680
:1001500080884886FB48066A0123DB069E431E43CF
:100160000662FF320020FF32383250829082D08205
:100170001D200882F4484884F448C882F448088363
:1001800000204882384649F77DFC01462868FF3048
:10019000F730C28B920992010A43C283ED4841684D
:1001A00000208847002C02D0204648F714FD204646
:1001B000F8BDFFB58BB0064616980027022821D05F
:1001C0000D9801881498814278D371880846403888
:1001D0003F2802D8159855F711FD0C98361D008858
:1001E000149A80190E995EF787FF0C98018814986D
:1001F00008180C9908800D9801881498081A0D9910
:1002000008805CE100200E9D079069782C78090237
:1002100021433180E978AC780902214371808C4612
:10022000403904242D1D024603468E46402900D342
:100230002878614604291FD0052914D0062918D032
:1002400070463F283DD8159855F7D8FC0006000E9B
:1002500004D0C148008D0006C00F30D00223012019
:10026000BE4A002712E0697800290FD0BC4A172344
:100270000CE0BC4A0F2309E0522802D0D22802D059
:1002800002E0142000E01520B74A1F23002A1AD0EC
:10029000984218D2800010580490002813D00020F3
:1002A0000890059070884038402803D328780524AA
:1002B00030716D1C701D00900498B5E0FEE0302791
:1002C000F0E03327EEE07088042872D10627E9E0D9
:1002D000522862D00CDC4B283FD004DC41286AD085
:1002E000422858D111E04C2820D0502853D140E06A
:1002F000632830D004DC572818D061284BD19BE00C
:100300006C2864D0772846D109E0009829780170DC
:100310000098641C401CA4B26D1C009081E00498FD
:10032000401C04900178089881427AD10098A41C5E
:10033000401C41084900881C009068782A78000217
:10034000104308800599AD1CA4B2002969D008901B
:100350000020059065E00120FBE710222946009867
:100360005EF7CAFE009810341030A4B21035009029
:1003700057E0204640301499039088420BD8402221
:10038000294600985EF7B8FE009840300090039828
:10039000403584B245E0342743E0082229460098DE
:1003A0005EF7AAFE009808340830A4B20835009021
:1003B00037E068E0FFE70622294600985EF79CFEDA
:1003C0000098A41D801DA4B2AD1D009029E01498D2
:1003D000001B80B203903088001B001D81B20120F9
:1003E00007900498401C04900098401C400840006E
:1003F00000900498007857281CD04228CBD1009850
:100400000170090A417000982946801C0090039AE7
:100410005EF772FE03980399201884B20098401882
:1004200000900498401C0490007800281ED0002FF3
:1004300017D01BE04908E2E71498001B81B200982E
:100440000391401C40084000009001200A4607909C
:10045000294600985EF750FE0399601884B2009810
:10046000DDE70D990988A14200D331E70D98008896
:10047000A04208D304990978002904D107990029DA
:1004800003D1A04201D034270CE00D99001B088055
:100490000C9801880098801B001F08180C99002FE9
:1004A00008800CD07088042809D0062807D040386E
:1004B000402804D30E984079707100E03427384604
:1004C0000FB0F0BDFFB581B01F4616460C46104672
:1004D0005CF7D6FC00257F2802D02189062909D0A7
:1004E0003B4632462146019855F71BFF05462846F4
:1004F00005B0F0BDC00601D50225F8E72078002838
:10050000F5D1300AA11D42F7A4F8F0E7F1B598B093
:10051000189842F79CFA0446189805210079134A66
:100520004006C00F099068460184618B08460A386E
:10053000904276D2E08A062873D319E030BCFC07DB
:100540004CB9FC07C00000401080000029410000A9
:100550007671000058BFFC0748BEFC073803F2075D
:100560004003F2079C03F207D803F207770C000060
:100570001922D201904254D8228BFF23F5339A429C
:100580004FD8521C9300D2184243521C0A235210D7
:1005900059438A4245DC217F00290CD1617F002923
:1005A00009D1A17F002906D1E17F002903D12021B3
:1005B000095DC90635D0274620377978C906C90EA6
:1005C000491F0C292DD2A18A81422AD8E17C002919
:1005D00027D0421E082A01D9082000E0401E81428F
:1005E0001FD8684646F7F4FA00281AD1FE4D0622B5
:1005F000286221460AA85EF77FFDA8792E46803E34
:1006000000287DD06079800901280BD00AA80999BB
:100610004CF7ADFD010003D03820405C002870D0BD
:100620009BE008E1F06A807A012808D0042806D00F
:100630000AA84CF709FE286200284ED054E0686AE8
:1006400006220AA932305EF77BFD002806D00AA8F0
:100650004CF7FAFD2862002802D012E0686AF9E738
:1006600000210AA84CF706FE2862F16A897A01295E
:1006700005D18B071A6849068A430A431A60002885
:1006800011D0F16A286A0622253010315EF758FD34
:10069000002808D1286AF16A2030C07AC97B8842D4
:1006A00001D1286A1EE0D148D1490088C96880B2CA
:1006B00006225043081842F7CFF9014614A8062233
:1006C00002305EF719FD13AA00213C2042F791FC8D
:1006D0000121B06D47F7B8FEA9E011A90AA84CF7AF
:1006E000C9FD2862002838D00146253106220FA80E
:1006F0005EF702FD286A08AA2030C17A0FA801E03F
:1007000041E024E04CF716FC002812D0286A203083
:10071000C07A002809D16846B649008C4BF77DFBAA
:1007200008AA0121B3484CF705FC68460AA9008CC9
:100730000AE008AA012111A84CF7FCFB00280CD004
:10074000296A6846008C32314BF77DFB05E00A18B8
:10075000527D002A08D010286DDBF06A407A02280A
:1007600006D0032804D00EE0401C1028EFDBF4E78D
:100770006846008C052806D308AA0AA809994CF7F0
:10078000D9FB002857D00022694620464CF77BFC55
:10079000002850D1F06A407A02280BD0032809D0F3
:1007A0000023684602880AA809994CF78DFC0028A6
:1007B00002D02FE00123F4E7E18A68460181218B12
:1007C0004181618B81817878062241096846817573
:1007D0007878C106C90E6846417521460E305EF72D
:1007E0008BFC189800794006C10F68460175038894
:1007F000214602A8B26D47F7CDF90146B06502A8BF
:1008000042F745FC0020B065214668461C3100884F
:1008100046F731FA49F7B0FA734C2034207A0028B1
:1008200005D0002109205CF76EFC00202072002119
:1008300008465CF710FB19B0F0BDF8B56E4C0646E3
:1008400085000F4660594C21095C24290ED140696E
:100850001022791D2E305EF74FFC61592520403162
:10086000087300221146304654F71BFB60594C2197
:10087000095C0C291FD140691022791D2E305EF7CA
:100880003BFC60595F214069095C09072DD4014692
:100890002E3110221E305EF753FC00280CD0605918
:1008A000092140300173304655F718F801460022FF
:1008B000304653F775FEF8BD0421684601706A465C
:1008C0000521304654F716F8684601786020014348
:1008D00068460170304655F701F8014668460278CF
:1008E0000123304653F771FFF8BD304654F7F6FF49
:1008F000012809D0605907214030017300221146B8
:10090000304654F7CEFAF8BD615900204969C0312C
:10091000887160590421426930461E3253F7EAFF5C
:10092000605941694031897F002907D01A21403040
:1009300001730021304654F73EFBF8BD1B214030C7
:100940000173304654F78CFBF8BDF8B52A4C0546C8
:100950008600A0594C22125C192A11D140224D3038
:10096000491D5EF7C9FBA059402224494D305EF76E
:10097000E7FB002805D02149284620395BF74BFDCD
:10098000F8BD0B21684601706A460521284653F7D9
:10099000B1FF68460178602001436846017028462F
:1009A00054F79CFF0146684602780123284653F716
:1009B0000CFFF8BDFFB581B003980C46060A002570
:1009C0005CF75EFA002827D0132825D0142823D0FE
:1009D0000B48B700C0592030407BC00637D503987C
:1009E0005CF74EFA15280DE030BCFC0768B9FC072F
:1009F00060BBFC0750F5F1073CBEFC07FCBDFC07E3
:100A000078BBFC070CD0A07942F714F8304647F7C2
:100A1000AFF8032806D015E0A07942F70BF81FE0E5
:100A200002251DE03248C0592030407B400704D5E4
:100A30003D21304642F7FCFC04E03D2200213046D7
:100A400042F705FD3D21304646F7DAF808E020463A
:100A5000103828490181468120464EF7C3FD012503
:100A6000284645E524485222006864308188C37EC8
:100A70005143224A12688918FF225F32525AFF31CD
:100A8000120AD21A01310B8CD2B2DB0B09D00B8CBB
:100A90005B045B0C0B84002A03D18088184A012177
:100AA00011547047FFB51746140A81B0104A0298D6
:100AB000A100515840780026114D002907D0295D2A
:100AC000002905D0002803D1204643F715FF2E55F5
:100AD0003A46049B0299019844F79FFE08E50A48AC
:100AE000084901600949416070477047704700003C
:100AF00078BBFC070608000084BBFC074CB9FC0768
:100B0000C98BFC070459F007C0000840490C00BF1E
:100B10007FB5E4486B460188428889186A4611808F
:100B200001214C0022181546403DED8F065B52888E
:100B3000AD19AA18491CC9B21A530729F1D38189E2
:100B4000C089081881B2D981D888002821D0188995
:100B5000002820D0988800281FD0588900281ED04F
:100B6000988900281DD0588800281CD000291CD046
:100B7000188800280BD00720062254001C5B8C42EA
:100B800001D22146D0B2521E52B2002AF5DA04B088
:100B900070BD0320FBE70420F9E70220F7E70520FA
:100BA000F5E70620F3E70120F1E70720EFE7F0B5CE
:100BB00095B0EFF310801090012080F31088BA48B0
:100BC000816B4A07520F69460A800A92816B0122A3
:100BD000C908C9008163B5498B8869464B800224E6
:100BE000B24B00219980C16A09078B0F69468B803F
:100BF0000F93C16A0C2399430831C162052109078B
:100C000009880906CB0F6946CB800521090709939E
:100C100009888023194305231B071980A449898A61
:100C20004906CB0F69460B81A1490893898A402365
:100C300019439F4B9982016A09074B0F69464B8103
:100C40000C93036A0E218B4303629B4D99486860A5
:100C5000FF204030A8602888A0432880974841683A
:100C60000B071B0F69468B810B934168090909012A
:100C700008314160416849064B0F6946CB810D93AD
:100C8000416870239943603141608748403801686A
:100C90008904CB0F69460B820293036841140B430E
:100CA00003600168CB07DB0F69464B820E93016836
:100CB0001143016041688903CA0D69468A82039223
:100CC0004168CA05D20D6946CA82049281688903C7
:100CD000CA0D69460A8301928168CA05D20D694628
:100CE0004A8305924168764A11400322D20389184B
:100CF00041604168490A4902FF31413141608168E0
:100D00006F4A11400322D203891881608168490A21
:100D10004902FF3141318160642000F02DF9A8893A
:100D200069468007C00F8883A8892043A8810024D2
:100D3000604F288800260121084328800A2000F0FF
:100D40001BF9FF205F4941303A680A4200D0761C07
:100D5000401E3F1D0004000CF6D1A88A8004FCD17F
:100D60005149886B671CC208D2007807400F0243C4
:100D70008A630A2000F000F960004A49FCB20E5272
:100D8000082CD5D348480A99826BD208D2000A436E
:100D900082636946454A498891800F998A00C16AF1
:100DA0000C2399431143C1620999CA01052109071E
:100DB000098880239943114305221207118008995D
:100DC0008A013B49898A402399431143384A9182D9
:100DD0000C994A00016A0E23994311430162374876
:100DE0000B994268120912010A4342600D99426848
:100DF000090170239A430A434260029841032A483A
:100E00004038006801225203904308432649403984
:100E100008600E9809684908490001432248403893
:100E20000160039842022048403840682449084045
:100E300010431D4A403A506004985268520A5202C8
:100E400002431948403842600198174A4002403A2C
:100E500092680A400243144840388260124905985B
:100E600040398968490A490201430F484038816086
:100E70001098002800D0012080F3108815B0F0BD34
:100E800010B5114C2078002808D0FFF790FEFFF72E
:100E90003FFE0E4908700020207010BD02F0B4FC27
:100EA0000120F9E74851FC07801000400012004083
:100EB00020300050484CFC070035005040200040D6
:100EC000FF01FCFFC0C0C0C0E08CFC07DE8CFC074B
:100ED00010B5FF22154901320A60BFF34F8FBFF3EF
:100EE0006F8F13490A6013490B6840241B0A1B02C9
:100EF00023430B601049898A0021C30700D03521A4
:100F0000830702D57D231B021943430702D57523AE
:100F10001B041943000702D53D2000060143064883
:100F20002038016301488038026010BD80E100E094
:100F300080E200E008E400E0A010004010B50620C8
:100F400000F01AF810BD10B5092000F015F810BD1A
:100F500010B5812000F010F810BD10B5044800F065
:100F60000BF810BD10B5034800F006F810BD0000E6
:100F7000010200000108000000280CD000BF00BFE3
:100F800000BF00BF00BF00BF00BF00BF00BF00BF69
:100F900000BF401EF0D170471CB5094800900948B9
:100FA000019005460126009C05E0E36807CC334329
:100FB0000C3C98471034AC42F7D3FFF7ADF8000073
:100FC000144CFC07444CFC07014801210180704788
:100FD0000E1500500A48011F0988CA0706D002886A
:100FE00007239A432E4B9B7B13430380490706D567
:100FF0000188072291432A4A527C0A4302807047A3
:10100000B8100040B0B5D74B082018800520000765
:101010000188302211430180048803210C4304809D
:101020001C896407FCD403889343038003888B43A3
:101030000380F64CE38C4380238D9D1E194B5D800D
:1010400007251D8005881543058005880D4305800B
:101050001D886D07FCD403889343038002888A436C
:1010600002804289920702D042898A4342810189E3
:1010700080220A430281018A042291430182818AEB
:101080008907FCD541F74DF9E06B0749086007482F
:101090000168490700D500BE01684907FCD5B0BD0D
:1010A000D08CFC07001600500802004010000040E1
:1010B000FEB51F48058801200190C004029000245D
:1010C0001C4E1D4F002D32D0042C30D2E80729D001
:1010D000B889000605D438897989401A41424141CE
:1010E00000E000210198A040114A50803889029AFE
:1010F000124B1A60BFF34F8FBFF36F8F002907D0D9
:10110000B989019A9143B981B98908229143B9817A
:101110003268002A03D0411C706889B29047029857
:1011200007490860103708366D08641CCAE7FEBD21
:1011300082360050388CFC070036005080E100E019
:1011400000E100E080B50A2000F04EF880BD80B5D7
:101150000B2000F049F880BD80B50C2000F044F869
:1011600080BD80B50D2000F03FF880BD80B50E2019
:1011700000F03AF880BD0000FEB5019302920091A4
:10118000064601270021384632465DF7F9FFD54A69
:10119000D3680B40956805401D4300D100BED3685D
:1011A0000B4095680540019C002C06D01D4300D1E2
:1011B00000BEB7400B4D2F8005E01D4300D100BE9F
:1011C000B740084D6F80D3680B40916801401943C8
:1011D00000D100BE02980099014370002818818058
:1011E000FEBDC04602300050F0B503460A3B012167
:1011F0000A469A4093B20B4D5C19661C5E400A4B3E
:101200001C8800272E4203D07F1C7608B6B2F9E76F
:101210009443BAB20D46954025431D808140504805
:101220000160F0BDFEFF01000E140050F8B5044649
:1012300001273E0205200507688DC00506D51B2045
:1012400002F0BAFE48480188394301808036288878
:1012500040013040698A454A0A4002436A82216857
:101260001148016061684160A1688160E168C16006
:101270002169016161694161A1698161E169C161BE
:1012800004623C490A6842624A6882628A68C262B1
:101290004A690263CA68426309698163A88AC00611
:1012A00000D4FEE700BEF8BD0090FC0702480088AD
:1012B0002B481021016070472C130050F8B50446EC
:1012C00005200507288A0421014329822889402115
:1012D0000143298122480127076022480821018013
:1012E0003E02688DC00506D51B2002F065FE1E4833
:1012F0000188394301808036288840013040698A5E
:101300001A4A0A4002436A822168194801606168EA
:101310004160A1688160E168C16021690161616922
:101320004161A1698161E169C161046211490A6891
:1013300042624A6882628A68C2624A690263CA6813
:10134000426309698163A88AC00600D4FEE700BE33
:10135000688A094908404018001D6882F8BDC046E7
:1013600080E200E000330050800000507FFE00006B
:101370005090FC0728ED00E0FC7F000070477047AC
:1013800070B5214CDB4D224EA1880F200840022869
:1013900009D0042804D00C2820D00128F4D132E050
:1013A00002F02CFEF0E72A8CA88C90421DD2696BCB
:1013B0009042E9D2A288C0231340C02B03D13288C7
:1013C000920703D4E0E7228A9206DDD5421CAA8464
:1013D000085C221F10802A8CA88CE9E702F00EFE20
:1013E0002088012188432080CEE72088022188437D
:1013F00020802088802188432080A96B0029C3D0C9
:10140000288C8847C0E770BD04110050D08CFC07C1
:101410007C11005005210807028830239A4302807E
:10142000028803239A430280828812050DD5184A48
:1014300013880B40052B08D110880421014311802B
:10144000108801218843108070478188C90606D51D
:1014500010498A88D20702D00A88120610D48088E0
:10146000C0060CD50B488188890708D50188C905B5
:1014700005D5022181800188074A0A400280704711
:101480000120888008888022904308807047C046E9
:101490000002005000010050FFFE0000F8B51A20C5
:1014A000944F38560F4C25461C353B3400282946AE
:1014B00000DA21467F2210400E1801F08DFF3946D8
:1014C0006C31062230465DF717FEFB7DB97D28465C
:1014D000224662F731F80448044900F019F93876D9
:1014E000F8BDC046488DFC07B80B00009D14FC07F2
:1014F00070B5364809210424182322465BF77AFA8E
:1015000005461B202870FD26304662F7C5F80021ED
:10151000A982E96029616C606E80687028465BF77B
:1015200084FA70BD1FB51446002202920192069AF9
:1015300000921A46234661F7DBFE04B010BD00009E
:1015400010B5F448C17C124ACCB20C236343D45C7E
:10155000FF2C06D0D318491CC1745B68002BF3D054
:101560000DE0017D0B4ACCB21C236343D45CFF2CFD
:1015700008D0D318491C0175DB68002BF3D09847BD
:10158000002010BD0021C1740175012010BDC046AE
:10159000D447FC07D044FC0770B50C48092104244B
:1015A0000A2322465BF726FA05461B2028701426DC
:1015B000304662F771F8FF21743129816C606E80CA
:1015C000687028465BF731FA70BDC0461B0D0000FD
:1015D0001FB5144601220292044A0192069A009213
:1015E0001A46234661F784FE04B010BDD443FC07BD
:1015F000F8B5C84FF86D00283FD1224809210422D0
:101600002C235BF7F7F90446F865172020841E4861
:1016100020800120A0760025658020460A30102118
:101620005DF783FD201D00901848461D18490622CD
:1016300030465DF785FD002801D000BE04E03E463F
:101640006636304600F052FA0622009831465DF7C1
:1016500053FD6584E583A5832020E0767E210D4837
:10166000415AFB2900D3FB21E1848021405A0A49D9
:10167000884200D308462085F86D5BF7D6F9002034
:10168000F865F8BD040D0000030A0000E84BFC07F4
:10169000DCF1F107B0BBFC074808000070B5154D40
:1016A000686D002800D070BD134809210422522320
:1016B0005BF7A0F904466865072020720F48E080B8
:1016C000A0800D2020800026A6721622E272012042
:1016D000607220460C300A495DF70EFD2B2026541F
:1016E00020462B302C34082106A3224661F712FF36
:1016F000686D70BDD08CFC070D0D00004C0400001F
:10170000784BFC07444C472D5052504800000000D5
:10171000B0B502460024604823460A2B0BD005686A
:10172000002D02D0001D5B1CF7E701605C1CE0B2DD
:10173000114600F053F9E0B2B0BDC046F8B504461A
:10174000401E09281BD8A00053494018071F3868BD
:10175000002816D0524DA84213D04D482018401CE6
:10176000042631465BF7CFFC3D60082348483146EC
:1017700032465BF73FF904705BF757F9F8BD00BEDE
:10178000F8BD00BEF8BDC0461FB514460D2202923A
:10179000044A0192069A00921A46234661F7A8FD70
:1017A00004B010BDDC43FC07B0B50C46A749884225
:1017B00031D0364A90421CD0354988423CD12078FD
:1017C000401E092856D88000334A1158344B99429C
:1017D00052D03248814253D12C48042108230A4672
:1017E0005BF708F921780170616841605BF71DF9CA
:1017F00046E02078411ECAB2092A39D88900264A13
:101800005358264DAB423BD151188A6A0A60616831
:1018100000F0E4F834E06268002A01D100BE62689A
:101820001C48824201D300BE6268207817494018E4
:1018300004215BF71EFC23E0531C0121984222D3B4
:101840000A3290421FD8C1B2091F8A00124B995820
:10185000002915D0114CA14212D0114CA1420FD039
:101860009A18C01E002313609362C0B2884707E035
:1018700000BE05E000BE03E0101800210160816297
:101880000498002101700846B0BDC0460304000062
:1018900002040000FDFF3F00C88DFC07EB3FFC0782
:1018A000E93FFC074C488178491C81700178002988
:1018B00000D0704767490023CB7017490A780B7036
:1018C000012A01D0012100E00221022A00D10321D6
:1018D0000170704740488178002904D0491E81700A
:1018E000090600D070474178012902D1002101800A
:1018F000704701780029F5D000220270FE200840D0
:101900000228EFD153480122C270481E02490870D4
:101910007047C046D08CFC07B4BAFC07B0B50C4683
:101920000025202D04D040F7EAFF60556D1CF8E734
:101930000020B0BD10B504460548064970225DF789
:10194000DBFB0548001B054908801430488010BDAA
:1019500070A0FC075844FC07B8A0FFFF78A0FC0764
:1019600010B507480188074A1368114C23405918DD
:1019700011604088516821400818506010BDC04671
:10198000183000408CA0FC0710B507480188074AB2
:101990001368074C23405918116040885168214052
:1019A0000818506010BDC0463830004098A0FC07B1
:1019B0000000FFFF07481E214180018803220A43DF
:1019C0000280018804220A43028003480121C17079
:1019D0007047C04600160050D08CFC0770B50C460E
:1019E000054619490888000618480ED5184A126895
:1019F00012040AD4174A1288D20706D14019801C53
:101A0000042122465BF735FB70BDEFF31083012202
:101A100082F310880988090603D40F490E881643FB
:101A20000E80002B02D082F3108802E0002181F3A7
:101A30001088042108230A465AF7DCFF4460057029
:101A40005AF7F3FF70BDC0460800005001040000C3
:101A50003000004054BAFC070833005070470000C3
:101A600070B514460D4610465BF70AFA01282ED1D0
:101A7000287801020831AA791648002A0CD089B2C8
:101A8000062322465AF7B6FF0646A87860F7CEFC32
:101A90003080A879307113E0AA8889B2921D93B280
:101AA00022465AF7A7FF0646A87860F7BFFC002138
:101AB00031713080AA887280701DE91D5DF71CFBB2
:101AC00030465AF7B2FF002120465BF7C4F90020E8
:101AD00070BDC046140C0000FD2801D000207047E6
:101AE00000487047D044FC077047704710B5044663
:101AF00040793F280FD840F702FF2070010EE170B7
:101B0000010CA170000A607040F7F9FE2071000A14
:101B1000C0210143617110BD80B502F0BBFA80BDE8
:101B20007C21F04A515A01807047C04680B55A2244
:101B3000EC498A5C0270401C5B315DF7DDFA80BDC8
:101B40007D21C180002181801021418008210180F8
:101B5000704780B561F7B4FC002801D002F09AFA12
:101B600080BD000010B50C46017801290CD0002979
:101B700010D142885A21DB4B5A545B33011DD2B23B
:101B800018465DF7B9FA03E040887C21D54A5052E7
:101B9000002000E04820207010BDC0460020888052
:101BA000488001200870704780B55FF7E5F980BD77
:101BB000F8B56946C870020A8A70020C4A70000EB5
:101BC000087008465FF7C0F98FBD000080B59948DE
:101BD00000210160FFF7BCF9944800781F214901FA
:101BE000914A13688B43C006800DC018106080BDF9
:101BF00080B58F4802210170FFF7A0F980BDC04673
:101C0000F8B51F460C46087808281CD8072500217F
:101C100000911AA6784400794000874419040C0406
:101C200006060F0912001A4E12E00D25174E0FE09E
:101C3000062514A60CE00A2516A609E008251AA612
:101C400006E017A604E000BE0026012000903546FD
:101C5000AB1C184839465AF7CDFE07462078387035
:101C60007D700098002804D1B81C31462A465DF7E3
:101C700043FA38465AF7D9FE0020F8BD52656E6522
:101C800073617300FFEEDDCCBBAA0000EC4AFC07D9
:101C9000E44AFC07312E302E302E302D4C4500000A
:101CA00001D2008005000100123456FFFE9ABCDE0E
:101CB0000000000003140000F0B50A79530140242D
:101CC0001C40130180251D401609360275192C1978
:101CD000D20020251540621910241C4012190B78DF
:101CE0005B0008241C40121906241C401219CB79F1
:101CF000DB079B0C4C796508ED07ED0CEB18E4074E
:101D0000240D1B19134383818A790F2A43D0354A46
:101D100082180423DA41931E022B1BD3012A3AD8DE
:101D2000EFF31083012282F310888D792E4C2688E0
:101D3000F6B23609B54203D12688F027374327800B
:101D400026880F27BE432E432680002B1CD082F30B
:101D5000108820E0EFF31083012282F31088224CD8
:101D600027880F2637408D79AF4202D12788374325
:101D700027802688F027BE432D0135432580002B80
:101D800006D082F3108806E0002282F3108802E079
:101D9000002282F310888A680280120C4280CA688E
:101DA0008280120CC2800A8A521E42814A88002A0E
:101DB00000D10A8A430838241C404B690B4D2B5133
:101DC000521E0281281989694160FF2000060849D6
:101DD0000A6882430120C307D2180A60C00405497B
:101DE0000860F0BD00CAFFAF80360050388CFC0799
:101DF00010E400E000E100E080B50B4801688905CF
:101E0000C90E0A4A11701F21490102688A43026003
:101E10000748012101700748016803220A43026054
:101E2000FFF796F880BDC0464C120040444CFC07BA
:101E300006100040AC10004010B50C78012C03D007
:101E4000092C09D04C7802E04C78432C02D0002CAD
:101E500000D000BE02F0B0F9002010BDF8B51D465C
:101E600010460C465BF70CF8022824D12D0A00D04E
:101E700000BE0C20684343490F18BD74FF2D15D0D8
:101E800010370126FE70042003215AF7E4FF208852
:101E90003880607A3871781D21460A3106225DF754
:101EA0002BF900212846324661F71EFB28462146C1
:101EB00002F046F900E000BE0020F8BD10B51C4657
:101EC00010465AF7DDFF032809D1200A0C214143AF
:101ED0002C484018FF21418202F05EF900E000BE6C
:101EE000002010BD488DFC07F0B589B01D46144692
:101EF000087802282ED0012820D000283CD101AE3D
:101F0000202130465DF711F95A201E490F5C5B31E4
:101F100030463A465DF7F0F83B460A331848294602
:101F200022465AF767FD0446478000202070201D96
:101F300031463A465DF7E0F820461BE07C20114927
:101F40000E5A0F480A23294622465AF753FD468067
:101F500001210EE00A480A23294622465AF74AFD83
:101F60007D2101810021C1801021818008214180D3
:101F7000022101705AF759FD002009B0F0BDC0469A
:101F80000B0E0000488DFC0780B561F755F980BD48
:101F900080B561F731F980BD80B561F768F980BD22
:101FA00080B561F7EFF880BD80B561F76BF880BD53
:101FB000B0B50C78641E122C1ED8C0467C4424791F
:101FC0006400A7440B1910191919191919191909BD
:101FD00015090919090909000020B0BD4878002831
:101FE0000DD000BEF8E7487800280BD000BEF3E71C
:101FF000487802F09FF8EFE702F0DEF8ECE7FFF731
:10200000F7FAE9E7FFF7A5FDE6E7000010B510468F
:102010005AF736FF002801D000BE09E00548092123
:102020000422012423465AF7E5FC04705AF7FDFC0C
:10203000002010BD020D000080B561F7C4F880BD1E
:1020400080B561F706F980BDF0B589B003931646F7
:102050000C46FD205FF7CCF80290002800D100BEAE
:1020600008A900270F70208860F7EEF90546608800
:10207000002800D000BE002D78D1FD20FFF72CFDF8
:10208000002800D100BE0399090A009108A90A7826
:1020900014215143436859180B79022B24D1096844
:1020A0000988394B99421FD100200590049020885F
:1020B00060F765F9002800D100BE07A9002204AB33
:1020C0004EF752FF0120400207990140480A21467D
:1020D00060F740F9C5B2002D29D1E28808A801783F
:1020E000009860F712FB22E001968669002E3D46BB
:1020F00006D0A5886188A31D10462A46B04705462C
:1021000005970497208804A94EF7A9FC002D019E8D
:102110000DD108200499085E002807D46288A188A0
:102120002088A31D4EF705FD054600E00025002D83
:102130001CD10298009F39465FF778F80146A088C5
:10214000801D83B2114832465AF754FC0546801D63
:10215000A288A11D5CF7D0FF08A800786880A0883D
:10216000A8802F7028465AF760FC002508480423F1
:10217000039932465AF73EFC8570218801805AF750
:1021800054FC002009B0F0BD022900000AFD000047
:10219000160C000070B5EFF31085012484F310884D
:1021A00005200607708DC00509D54248447301F02B
:1021B000F9FE1149087011480088204048703088A5
:1021C0008021014331800E4801680722914301605C
:1021D00041684907FCD53188090600D400BE094989
:1021E000016109494161002D02D084F3108870BD5E
:1021F000002080F3108870BD5851FC07800000500B
:102200000000F4070F009909090404A470B5174EE3
:10221000B06800F02DF827490A6C00230B641518EC
:10222000084C284621465CF7EDFE706106494143A3
:10223000481901D0201A80B230613068082101436A
:10224000316070BD710200008FFDFFFF80B5064850
:102250000021016001F06CFE0120C00703490A68FB
:1022600082430A6080BDC046A8B9FC073000004028
:1022700080B50246C00B09D00E48006D00210B4608
:102280005CF7EAFE8905800A401880BD0948006DA8
:102290004243900A80BDC04680B5FFF7E9FF80BD8C
:1022A00080B50449896C41430348081803495CF729
:1022B000A9FE80BDD08CFC0720A1070040420F0082
:1022C00000B59DB0B348082303800020B24C1A909B
:1022D0001A98002811DC00201C901C991A980B29D0
:1022E00009DC3021414360181C99890000224250CA
:1022F0001C98401CF0E7401CE9E70B93656900203F
:10230000C1430126002D189600D00E467201A34F3E
:10231000BB681343FA681792BB601696F30E002D44
:102320000F4600D12F467A01D218179B1A439B4FB4
:10233000FA60666A002E189A00D00A461792D30DEA
:10234000002E0D4600D135466A02D218FB681343B1
:10235000BA68FB60179B5B021343BB606768002F82
:10236000189E00D00E46F30F002F0D4600D13D46BB
:102370006A00D218894DEB681343AA68EB607300BA
:102380001343AB602369002B189F00D00F463D0F0D
:10239000002B0A4600D11A461596120152197F4D9C
:1023A000EB681343AA68EB603B011343AB602368FF
:1023B000002B0D4600D11D46784EF2682A43B568C1
:1023C000F260002B189B00D00B461D43734A9560AA
:1023D000179A62622761169A62612360159A626099
:1023E000E568002D189B00D00B46DA00B76817434C
:1023F000F2681792B7605F0F002D0A4600D12A4697
:10240000D200D219179D2A43F260E360A568002D1F
:10241000189B00D00B469A00B7681743F2681792D2
:10242000B7609F0F002D0A4600D12A469200D219AC
:10243000179D2A43594FFA60A360236A002B00D0EE
:102440001891189D2A02BE681643FA68BE602E0EC7
:10245000002B00D11946090289191143F960189916
:102460002162F860B8601A901A98002834DC0020C5
:102470001C901C980B282CDC1C981A990B2828D827
:1024800030201A99414361181C9A92008958491CBE
:1024900000D100BE1A99414361181C9A92008958D4
:1024A000002913D01A99484320181C9989004058D4
:1024B000C1171C9A5CF764FE1A9A12015CF760FE61
:1024C000FA680A43B968FA600143B9601C98401C75
:1024D000CEE71A98401CC6E79F4E308819AC208082
:1024E0002088C046C046208804211891C94308426C
:1024F00002D00020308003E0B08901218843B08100
:102500000B9BB08B9549014007201390C00208181F
:10251000B083934F388818433880F88D0622904353
:10252000F8850124A003B18B0143B18338888D491C
:1025300001403980788809921043984378800520BB
:102540000E900507698D0F2000900202F88D9043D0
:102550007D22D200C9058449049221D40321490275
:102560000843F8858148401CF98D0143F985B08BFB
:102570009843B083B08B04218843B08378887C492A
:1025800001407980F88D2043F8852646688D400704
:10259000FCD51CE000330050A08CFC07488DFC07E4
:1025A00010181830F885F88D0840E1034018F885B8
:1025B000B08B1843B083B08B18998843B083F88DE3
:1025C000A043F885B08B40218843B0832646300273
:1025D00011906149888B03220392104388833888C5
:1025E0002022104340231293DB4318403880088C8C
:1025F0001492104318400884E88A80210C91084303
:102600001840E882288EFF210A9188432886288F67
:10261000189A10431821089188432887288FA021F1
:1026200001430F931940298752480280A8885249D4
:102630000140A980300451490860FFF7ABFD504AC2
:102640001068139908401AA90870087802280E9C8F
:102650001CD0688D1199084210D001F0A3FC0A2803
:1026600002D80B2001F0A8FCF88DC007444A05D120
:10267000F88D3043F885688D4007FCD5106802213D
:102680000143A143116050684007FCD53D480068F4
:10269000C1B20C20AA29014600D018992A88824389
:1026A00088182880C046C0463748006837490988DE
:1026B0006823374C00220D921093E252354B1A4694
:1026C0006032918018663046C046C0463248001FCE
:1026D000006832498842169600D050E100980707FA
:1026E000042000210791159703462B4A1118081F53
:1026F000EC32904200D345E1189300681C901C9B7B
:102700003B40092004071C9AA3425AD11C9B1E0A75
:10271000F3B21793D2B2531E162B00D9F2E05B002E
:102720007B449B885B009F4407010701ED00070184
:10273000ED003B00B100ED00ED00ED00ED00ED001F
:10274000ED00ED00ED00ED00C4009300D9008C0019
:10275000ED00E700A700C04604030050FFC30000DF
:1027600052000050FFBF0000FF0F0000FFEF00000D
:10277000FFF9000000020050FFF7000080E200E0D7
:102780000000F407D07FF807D47FF807D87FF80758
:10279000CC8BFC07D08CFC07D47EF807A5A5A5A59B
:1027A000C04C109FE05DC0002018179A92005CF7A3
:1027B000A3FCE05D8019E055C0B2052877D300BEC8
:1027C00075E0900F11D01C98B74988420DD8189B1E
:1027D00018460830294628311C9A8A42B14C26D125
:1027E000B2495958B24A11807EE71C983840139973
:1027F00009078842AB4C05D10020C046C046189856
:10280000001D71E71C983840F1078842189A0CD0D7
:102810001C9838400E994907884206D01C983840C9
:1028200003994907884200D098E0101D5CE7A91C75
:102830001C9A8A4200D087E09C4959586622A152CE
:1028400052E79A48189908586221964A505273E004
:10285000964A189B995848439A58120C801A00B20D
:10286000C0085A238F4CE052501A8108914A1140F7
:102870000818401C58212FE08C48189908586421EA
:10288000884A5052000457D100BE55E06924854F54
:10289000385DC00038181030179A92005CF72CFC95
:1028A000385D80193855C0B20D2800D300BE159F81
:1028B00042E07E4A189B995848439A58120C801A55
:1028C00000B2C0085623774CE052501A8108794A6A
:1028D00011400818401C542160522DE0079CA000B4
:1028E0001AAA1018179EB2005CF706FC3419079458
:1028F000032C21D300BE1FE06C4818990858694981
:10290000086519E01E2A17D117984008020613D04F
:102910000B684A680831002426460836382E08D04D
:10292000604F3C1924699C423446F6D15D4B9B199B
:10293000DA60401E159FE9E717988000189908187B
:10294000001D169E574CCFE6294624311C9A8A4218
:102950000AD156495958564A5180C5E61C98401C20
:1029600010D000BE1046BFE6294620311C9A8A428C
:1029700000D0B9E64D4959584D4A9180B4E66620D9
:10298000265A36E05C201A99215209201B994843A7
:102990000A0C801A00B2C0086023E052501A810865
:1029A000444A11400818401C5E216052109AA05CF5
:1029B000C10701D000BEA05C4008A0546920215C82
:1029C000CA073D4F049A01D000BE215C490821543A
:1029D0006420215A002900D122526620265A002E56
:1029E00007D136490968C9B2AA290C9E00D06E26C3
:1029F00026523348C684A88C169CA043A8840D2078
:102A0000FEF7BAFA68892043022110918843688151
:102A100068894006FCD56E800498FEF7ADFA688997
:102A20000399884368810E9C68890006FCD57F2045
:102A3000234908712148806922498860EFF3108694
:102A4000169880F3108828880C99084328801E4A1D
:102A5000106813998843106011990D9B50684007C6
:102A6000FCD51A4810611A48506128880C9A904386
:102A70002880688D08420ED011484373114C20788D
:102A800001F09AFA0D9B60780E9C002803D1F88D16
:102A900016998843F885002E1CD0169880F310886C
:102AA0001BE0C046CC8BFC074C420050D47EF8079C
:102AB000A000FC07FF3F000052000050D07FF80745
:102AC000D08CFC075851FC070000F4070F0099094F
:102AD000090404A4002080F31088B34EB3480068B2
:102AE000B349884200D0C6E0B248B3495CF71DFB49
:102AF00013980102B1485CF718FBFDF7F7FFB048E7
:102B0000B0490160B048B149302202925CF7F4FA52
:102B1000AF4827460024C471847144710471C470A5
:102B2000847044703F2117910170AA48AAA1129A9B
:102B30005CF7E2FA8C4804708C488D4901608D483E
:102B40008D4901608D498E4808608E480A210170C8
:102B50008D48189404708D4832210E9101708C4874
:102B600007608C48169901608B4807608B4809996B
:102B700001608B48139901608A480B9C046011988E
:102B8000801DA5490860A5490860A54889490160DC
:102B900000F080FC288902998843288128890C99B3
:102BA00008432881288920432881288C1699884346
:102BB000288468890899884368812889129908437C
:102BC0002881288A042188432882A88A8007FCD586
:102BD000E88CF44908400B2109020143E984E88CA0
:102BE000169B1843E8846889204310210D9188437F
:102BF0006881688C98436884288912998843288161
:102C0000E94837309C07216801402160179840024D
:102C1000E64A11688143580308181060E448401CD4
:102C2000116801431160DC480068DC498842E14FCB
:102C300015943DD0DA480068DC498860DE4A906827
:102C40001071010ED171010C9171000A507111982F
:102C5000C030DA490A46002817D0401E435C167877
:102C60003446039F3C40D44F3C1924795C40744067
:102C70001470521CEFE7D248D0496202934200D947
:102C800032E71A585A501B1DF7E7CB4C1C34CB497E
:102C90001C2220465EF7C4F90028BE4EC54F00D066
:102CA00000BE20465EF750F9BB48BC490160159C48
:102CB000BB4800683FF7CEFAC24918980871C8703F
:102CC0002068119908432060FEF774FE169C204688
:102CD00000F060FD3878002801D07C7004E000200E
:102CE000B849C870B84908705A20B849B84A115252
:102CF000189C146154619461104613465B3048215E
:102D0000C171502181715222427101712D21C17016
:102D1000472181704C21417018465A304484042761
:102D2000AC4938465AF765F80A98A9498874139748
:102D3000384621465AF78FF89E4F38466C308480CB
:102D4000A548F8667C75A2481C30A4491624224682
:102D50005CF7D2F9FC8260F7CBFC3878002861D0B0
:102D60003846169F477063E0FDB9FC0750B9FC0771
:102D7000603FF20754B9FC075449FC0758B9FC07F7
:102D80002448FC07B0B9FC07B1B9FC07D9B9FC0766
:102D90005CB9FC0760B9FC0764B9FC0768B9FC07BB
:102DA0006CB9FC0770B9FC07003300509CB8FC07F5
:102DB0006587341200A0FC07AC14000000B9FC07C2
:102DC00060BAFC07AC47FC0700BAFC077CFCF107C3
:102DD000DAB9FC07B0BCFC072000800000C000008E
:102DE0000000840000002822000000000000040011
:102DF00000F7FFFF7F00000030F0FF0F0000000031
:102E000000040000000000000000000000000000BE
:102E1000000000000000000048B9FC0744B9FC07AE
:102E20004CB9FC0700206749C87067490870169FB5
:102E3000FFF70CFA0520FEF74BF8694869490818B6
:102E4000694940188008401E0A907802019017983E
:102E500080020990F8031790564F159C594928890C
:102E6000000600D454E1206B179A104200D04FE1C5
:102E70000888C00700D04BE15AF7BFFA002420466B
:102E800000F088FCF87B042800D03DE1169800F0A3
:102E900081FC1A941AA8042631464AF74FFE0028EE
:102EA00000D130E116985149086008680028FCD12B
:102EB0001598C069F96A884201D2FC622146411A1C
:102EC000CA09397C182A00D8A2E0C90700D0A1E0BD
:102ED000474F3988089179880791B9880691F98810
:102EE00005913C80019C214610317980129ABA806C
:102EF0005C21404B595AB9812E49C862B8891043A8
:102F00000299C9430840B8813B480260BFF34F8F24
:102F1000BFF36F8F388810433880F888104308401B
:102F2000F8803888B0433880B888C0B2B880F88854
:102F300070210140402900D072E06220185A002818
:102F40002E4900D001461C4841802D48401C39883C
:102F5000014339801920FEF70FF838882043388064
:102F60003888129908433880788830437880788888
:102F7000244908407880009840027988014379808C
:102F800078882149084011990818803078801F48B6
:102F900059E0C046003300509CB8FC0765873412E6
:102FA0004CB9FC07FFF00000C8FEFFFF0002004024
:102FB000FFFF1F00D08CFC075851FC07188EFC0740
:102FC00000B0FC0754BAFC07B4BAFC070844000080
:102FD000488DFC07B443FC0705FFCDAB784BFC07DD
:102FE000384B00001001FC07030004F8FC0000400F
:102FF00000150050CC8BFC0780E100E0407600001B
:10300000FF0F0000FF1F00003FFE0000FCFF00005C
:10301000C80778D0386B401C386300F06BFD72E055
:103020003888D749084038807888E2490840788055
:103030007888039988437880DA4A1046403839887E
:1030400001403980104623467988014079803888CC
:10305000169A10433880049C204617303989014065
:10306000E54EB18379890140F18338890999084097
:103070001843388178890840184378813888109936
:103080000843388038888007FCD4FA81388ABE49E2
:103090004988D94EB28B3B893746099E334013434A
:1030A000C14A1381FA8BC04B5B893340BE4E134338
:1030B0007381401A21464143002804DCBE4A891826
:1030C000C017084001E0BD480818BD495BF7B0FFD4
:1030D0008409193438797F280CD0201A41B2C911DB
:1030E0004840401A40B2052805DB386B401C386365
:1030F00000F000FD3C71079870800698B08005983C
:10310000F080089830809B4E5DF70AFE159CA3491D
:1031100072B608790228189802D09C480068806A24
:103120001A903089C00700D021E159F732FA9B4943
:10313000002800D11BE1C878012800D0A5E0A88AAA
:10314000C00700D089E00888002800D09DE09D4895
:10315000806A002803D08D480068806A1A9000F0C9
:10316000E7FE8E4FB9781AA85AF70BF839460028AF
:10317000C64F00D189E02069400600D585E0874828
:1031800081781AA84AF7DAFC844900287DD009988A
:10319000FF30864A118801401198014311801A9826
:1031A000002806D0216A7A4A8918DA2901D8401EF7
:1031B0001A90388D744AD16808181061E06B824B00
:1031C00018400843E063E06B804908405169890278
:1031D0000143E163E06B7049084011694905081833
:1031E000E0631A9A7A48824200D300BE624903C95A
:1031F00000235BF731FF0903000D41186248406965
:10320000821C8A4200D0481E644909794A1E9141B5
:1032100046F7AAFB6F48C06A80471799206B08429F
:10322000FCD011995B4A10680842FCD010680C99D8
:10323000884310607089452803D846217181081A97
:1032400038643FF742F853498868F8630868000615
:10325000FCD528890C998843288151480178288A0F
:10326000139B18432882524A106818431060434E3B
:103270003089169FB8433081688A012907D10D999A
:103280008843688211993B4E31E030BF6FE00D9C5E
:1032900020436882688A18436882FEF77BFF688A49
:1032A0002043688237480A990162EFF3108087F360
:1032B000108829880C9A91432980002802D087F32E
:1032C000108802E0002080F310881199EB4A294E03
:1032D000688D0842159C0AD0002050730B2000F026
:1032E0006BFEE749C88D169A1043C88511990020D6
:1032F0002883688D084206D1E1490888129A104354
:10330000149A904308801D4A108C1299084314990E
:1033100088431084A88C169FB843A8840D20FDF71D
:103320002BFE688938431099884368816889400674
:10333000FCD50E986880A88AC006139F01D50B980B
:10334000308030BFA88ACE490888149A10430F9B5A
:10335000184008800949088C10431840088400F080
:1033600099F813490868B8430860C44F0B4962B61E
:1033700075E5C04600330050488DFC07040300503B
:10338000FFEF00000000F4075851FC0758B9FC0794
:10339000C8FEFFFF00020040FFFF1F0054BAFC07F9
:1033A000B4BAFC073FFE0000001500503830005052
:1033B00010ED00E0FFE100002BFDFFFFD502000053
:1033C000AA05000074BEFC0700FCFFFFFF03E0FF3E
:1033D00040420F0058BFFC07A84801466C318A885C
:1033E000521C0A71130A4B7191B2044A914202D1E4
:1033F0007021002242527047D08CFC07FFFF000072
:1034000010B569210D48415C143000228A4206D271
:103410000368041F246823600830521CF6E710BDBF
:1034200010B568210548415C00228A4204D218C8C0
:103430001C600030521CF8E710BDC046CC8BFC0766
:10344000B0B5E84C617E002900D000BE8800251888
:10345000A86D5835002813D109020A310C480422FE
:103460000E2359F7C7FA09210170286010218180C5
:103470000021818141817D220281C180082141801A
:1034800059F7D3FA002060752860B0BDD08CFC07D6
:103490000E0E0000F0B58DB0754FF88975490140EA
:1034A000F9810125F88CC005734E19D57348407B0E
:1034B000012803D100F076FD1B2811D8704C20881C
:1034C000C00400D4B08AFF201C306E4908801B2045
:1034D00000F072FDE08D2843E085F88C4007FCD5B4
:1034E00069486AA118225BF707FE6EA070491CC8E4
:1034F0001CC1FDF7F4FA6F486F490160EFF31080CB
:1035000085F31088398840220292114339800028BF
:1035100002D085F3108802E0002080F31088280292
:10352000039066480188664CA18980231943A181D4
:1035300064490B220A80082121800026A680A189E7
:1035400001939943A1810327A7812146858306849E
:10355000868406AC26826680042020700C960B962A
:1035600009960891584807900595584D28462146D8
:10357000FEF7A2FBE67104972771514809901035B8
:103580002846059D2146FEF797FB3C488663057358
:10359000EFF3108185F31088AA02354C238813437A
:1035A0002380002902D085F3108801E086F310887B
:1035B000474920220A808B881C24009423436024DE
:1035C000A3438B808B88049CA34327468B808B88E6
:1035D000019DAB438B80037AFE241C4004728E81D4
:1035E0000B892B430B81037AF1241C40A31C03722B
:1035F000088938437C23984308810888029B9843B4
:1036000008800888904308803C0205200427314D3B
:1036100021463A463346A8470920029021463246C1
:103620003346A8471D22059803462146A847384639
:103630002146009A3346A8471B223046214633468E
:10364000A8471A22049831463346A8470220039C13
:103650002146029A3346A84708200A2221463346CB
:10366000A84705490888059A104308800DB0F0BDA9
:10367000040000507FFE00000C030050D08CFC07BB
:10368000520000505851FC0720000840F99DF007F7
:1036900000000000E3A1F107000000004FA4F107C3
:1036A000000000000D05FC073B08FC074B09FC0768
:1036B000C000FC0700000840070010007C1100500B
:1036C00000110050C01100500500030000360050EA
:1036D000001200507911FC070549884200D000BE55
:1036E00004480188044A11408918091D0180704767
:1036F0001111111112000050FC7F0000F8B50446B2
:103700000026234F302E0FD0BD19E88AFD2801D1A5
:10371000064969605DF7F2FD002803D082682846FB
:10372000214690471836EDE7F8BDC0463847FC07FC
:10373000B0B50025164C002826D1012D26D8FF2033
:10374000E082002020606060A060E06020611020C6
:103750002843C0B2A082214659F74BFB18346D1C98
:10376000EBE7E08A5DF7CAFD002802D041682046F9
:1037700088470020E0816060A060FF20E082207D1B
:1037800059F791FB18346D1C012DEAD9B0BDC04624
:10379000588CFC07B0B5D14DE978012921D11249E7
:1037A000002803D008884007FCD402E008884007BE
:1037B00017D40023EB70C8888988000444181F20A0
:1037C0004006492122465FF74BFE084A03C26421A6
:1037D0004143080CA86406486043800B401C400825
:1037E0002865B0BDD08CFC0700160050488DFC0742
:1037F0001111010010B5F24C082020701120FDF7C6
:10380000BBFB0320607010BDFEB562480325057048
:10381000614C20461438016814220A436B218A4304
:103820000260A06A5D4988610020C043A0622068F0
:103830003F21884320602068594908402060606823
:1038400058490840012101918902029140186060A5
:10385000606840210143302081436160A069524982
:1038600008400B2149064018A061A0694F49084053
:1038700069024018A061A0691821014327208143F3
:10388000A161432020714A4880474A4880474A48FE
:10389000804740480570009548480668484880477A
:1038A00048488047206848490840F1054018206092
:1038B0003B4E403620683040490C4018206041277C
:1038C000277160683749084002994018606038489D
:1038D000804738488047384880472E480570374829
:1038E0000568374880473748804720683649084090
:1038F000E9054018206020683040490C40182060DD
:10390000277160682749084002994018606028487C
:10391000804728488047284880471E480099017002
:10392000264800682168284A1140C205891821608C
:1039300021683140254D0540A801081820606068C5
:10394000019988436060154EB069A06220681C210F
:1039500001432320814321602068114908402060F1
:10396000A06911490840072189064018A061A06993
:103970000E4908400F21C9014018A061A0691E210D
:10398000014321208143A1610D4880470D488047B4
:10399000F586FEBD05100040183000405851FC0768
:1039A000FF7FFFFFFFF9FFFFFFFFFFC03FF0FFFFBB
:1039B000F11BFC07F91DFC075B0FFC07883000407A
:1039C000CD1BFC07470FFC07FFFF7F00FF01000036
:1039D00070470000F0B58BB03022002181541F22C7
:1039E0001204344B1D68954301246204AA181A601E
:1039F000324B334D4561334D334E344F344AC261FF
:103A0000066243622C4A8262C562324A07604260A3
:103A1000E004C74A136883431360282903D001A830
:103A20004154491CF9E72C480068403001A928227C
:103A30005BF762FBC24DAC74FFF7DCFEFFF7F0FCF6
:103A4000FFF7DEFC00F07EF900F00CFB00F06AF8F6
:103A5000FFF7DAFE2C7422480088072101406974C0
:103A6000FDF70EFAFDF77CFFFDF78EFF1D490B8871
:103A70001D4804681D4A1440E31803601C4B1C8851
:103A8000856915402C1984615B88C4691440E3186A
:103A9000C3614B8A046A1440E3180362898A436A4B
:103AA000134059184162A44802218170002101800D
:103AB0000BB0F0BD74000040213BFC071D3BFC0730
:103AC000093CFC07ED3BFC077D13FC07C53BFC07ED
:103AD000C73BFC07D139FC074CB9FC07D08CFC076D
:103AE000B81000401030004088A0FC070000FFFF25
:103AF0006430004080B5FFF77DFEFFF781FC00F0E9
:103B000021F900F0AFFAFDF7BBF9FDF729FF8A486C
:103B1000022181700021018080BDC04600207047D5
:103B2000704700000E4908880E4A024001204302F7
:103B3000D2180A8041057E4A13688B4313608107BF
:103B400000224A671F2212044B6F93434004181847
:103B500048670868E0220243102082430A607047E9
:103B600038300050FFFC000080B51F200004012108
:103B70008A07536F83434804181850671068072159
:103B8000884310600D48018808220A430280FFF72D
:103B900031FEFFF745FCFFF733FC00F0D3F800F0EF
:103BA00061FAFFF7BFFFFDF7EFFE63480221817066
:103BB000002101800520FDF78BF980BD0800005031
:103BC00004100040704780B5E62800D3E62028287E
:103BD00000D82820F9214A0042437D20C100104628
:103BE0005BF710FA7F38C0B280BD0000054801685D
:103BF00007220A430260012080044D490A6882437B
:103C00000A60704730000040022902D0012900D02C
:103C100000BE002802D0FF2804D000BE022901D136
:103C20000C207047D848807C002800D009207047BD
:103C3000F8B53F480168C90703D0016802220A436A
:103C4000026001240168490203D5A10502680A4304
:103C50000260270265023749009508460838066861
:103C6000002E63D0300606D58020086049F70FFE8D
:103C7000FDF7A0FE2F49B00704D50220086045F7E4
:103C800004FD2C49300714D508200860FCF7EAFE33
:103C90003D4627460024204645F7B0FC2549042030
:103CA000EC4AD0730220244A907014803C462F4680
:103CB000009D3E4204D00F60012045F79FFC1D4946
:103CC0002E4203D00D6049F74BFE1A49700604D509
:103CD0004020086045F78DFC1649F00604D51020F9
:103CE000086044F749F8134970070FD504200860AD
:103CF00012490888A043088059F7E6FB3EF7A0FC6C
:103D0000FDF758FE0B490020D24AD073F00707D0C8
:103D10000C6059F7F5FB49F7BAFD0649CD48C47365
:103D2000B0069AD52020086000BE96E7F8BDC046D0
:103D3000000200401800004004100040083300500A
:103D4000D08CFC07FCB57F2000025A4A51698143A0
:103D50000B20000208185061106880B256494018C4
:103D600010609069554C04400123580300902018BE
:103D70009061032001900002146B04431463908F40
:103D8000102404439487908818439080BE484C4A7E
:103D900002604C4A104610384B4CA58B054015204C
:103DA0004301E8185030A0836069484D05404848F9
:103DB00028186061A069474D054009204002281875
:103DC000A0612068444D0540444828182060606880
:103DD000434D0540434828186060A068424D0540A7
:103DE00042482818A060E068414D05404148281825
:103DF000E060F048807C002802D1C120400100E052
:103E00003D483E4D2860052080023D4F3880401DD2
:103E1000B880388C55260643AA2086433E84FF2668
:103E20006C363046C9303885364908460E30B8857C
:103E300035483886B986C01D388734482085A06B40
:103E40003349014033480818A063334C2680208F43
:103E500010401F462037C019208730480188114084
:103E60008919D531018081881140C9188180018963
:103E70001140C91901812136A680294801881140C5
:103E8000C91860310180818A19220A4306218A43B8
:103E90008282A88F2349014000980818A8872248E9
:103EA0000168019A11430422914301601F4868662A
:103EB000FCBDC0462030004000008888FF00FEFFA7
:103EC00059055C071FFCFFFF042000400000E0FFD5
:103ED00009581A00FEE1FFFFE0E000000809294947
:103EE00000000303696A686C031FFFFF7060000035
:103EF000E0E0E0E00B0A0A0820180009001000408A
:103F000028130040260A000051080000070F000097
:103F10002F64E0FE101A0601001200404412004017
:103F200088120040FF9F00008010004050015001A7
:103F3000F8B5642013490E5A9E4FBC6C304660435E
:103F40001249401812495BF75DF8054638853C3642
:103F500066430E4830180E495BF754F8001D0D49B2
:103F6000C8602818C01D48610B4A1278022A01D186
:103F700011304861FEF77CF90849401880B259F7C2
:103F8000CDFAF8BDCC8BFC07D08CFC0720A1070034
:103F900040420F005851FC07B4BAFC07E20400008D
:103FA000704700000D480188890918220A400088DE
:103FB0008004400F8018704708490A88084B134056
:103FC000F822024092011A430A800A88054B1340E6
:103FD0004007800C181808807047C04654000050F5
:103FE000FFF90000FFC700007047704702480188D2
:103FF0004906FCD57047C046141100501648018888
:10400000012291430180704710B56A4B00249C84C3
:1040100058639A631984CA4908200860BFF34F8F18
:10402000BFF36F8F0C490A88022414430C800A885E
:10403000802414430C80197B4A1E9141C907FF223A
:104040001206064B1C689443611819600449086005
:1040500010BDC046D08CFC070411005000E400E005
:1040600000E100E018B50848016800910099074A8E
:10407000009B1A40FF2424040C40D9B20919044BB8
:10408000C9181143016018BD8000004000FF00FF07
:104090000A000A00F8B525482549FDF739FB454EC9
:1040A0003076FDF7FBFA0446C57A162D0AD860195A
:1040B0000C3031466C3106225BF71EF8AA1DE27205
:1040C000B57617E02B20275C192F11D820462B300E
:1040D0000090E0192C3031466C3106225BF70CF869
:1040E000B81D0099087080203843B0762A4601E058
:1040F00000BEE27AB275534D28461C3021460C3181
:104100005AF7FAFF2B20225CF2753B352C342846F7
:1041100021465AF7F1FFFDF7C1FA58F786FC002057
:1041200070650420022158F796FEF8BDB80B000018
:104130009D14FC0780B5442801D1FFF7ABFF80BD7B
:1041400070B50C460C2141433E4A5518A97C1235E6
:10415000FF2916D0174E7076307EFDF7EFFA608893
:10416000082807D3102805D8A088002802D1E088A5
:104170007D2808D07D20C0000649FDF7C9FA70757A
:1041800001E0FFF787FF2878FF2800D070BDFFF718
:1041900081FF70BD4134FC0710B5064C607D0028DE
:1041A00003D0FDF7CBFA00206075FFF715F9FFF794
:1041B00071FF10BDD08CFC07B0B50C461D4988427C
:1041C0002DD01D49884216D01C49884231D11C4847
:1041D000082519462B4658F70DFC03218171002153
:1041E00081806188418021780C224A4315498918D1
:1041F000897C01701BE01448082519462B4658F7A6
:10420000F9FB21780C224A430E498918897C0170F8
:1042100061884180002181808021817107E00B4805
:10422000022519462B4658F7E5FBA188018058F76F
:10423000FCFBB0BD0D0C000004FD00000DFD0000F6
:104240000EFD0000488DFC0705FD00000E0C00006F
:1042500002E008C8121F08C1002AFAD1704770474F
:10426000002001E001C1121F002AFBD170470000AD
:10427000034880F3098800F025F8FBF749FFC046A2
:10428000B059FC0704207146084203D0EFF30980BF
:104290000A490847EFF30880084908477047042097
:1042A0007146084203D0EFF3098005490847EFF350
:1042B0000880034908477047FEE70000BD12FC076D
:1042C0002D12FC071A498888072290438880052010
:1042D00000078A89D2070DD0098800290AD115491B
:1042E0000A8802854A88828489880184418A124A20
:1042F0000A404282114906220A800121CA03104B5A
:104300001A60BFF34F8FBFF36F8F02221A60BFF3A3
:104310004F8FBFF36F8F1960BFF34F8FBFF36F8F56
:1043200041890422914341810021018062B6704796
:1043300004030050A000FC077FFE00000034005082
:1043400080E100E04F43313C939242E6A876FA3B8D
:10435000EFB4875A17B967984C664C01963331B160
:104360009159001517B967984C664C01963331B1D5
:104370009159001520EE8D0CE1F04A0CB325DC5369
:104380006A68862D9EE7BA08B9A948ABA1AC031CA0
:104390002E0D296C20EE8D0CE1F04A0CB325DC5378
:1043A0006A68862C4F43313C939242E6A876FA3BEA
:1043B000EFB4875900000000C443FC07888CFC0759
:1043C00004000100CC43FC0701000000FFFF0000D7
:1043D000A932F20702140000011CFC07010D0000C5
:1043E0000D20FC07000D0000B11FFC07000E0000AF
:1043F000391EFC07010E00005D1EFC07030E0000C5
:10440000BD1EFC070A0E0000E91EFC070C0E000092
:10441000A11FFC071C0D00003920FC07100D000037
:10442000A91FFC070F0E0000911FFC072C0E0000B7
:10443000891FFC07120C00004120FC07080E000039
:10444000991FFC078917FC07A917FC07D115FC0762
:104450002515FC07F800000008000490000000008B
:1044600000000000030005D08B0035F010005CF068
:10447000000010B0000018B000001AB0030051F0A6
:10448000000038B000003AB0000064B0000066B030
:10449000000022B0000024B0010005D000000000A0
:1044A0000A00008008030490000004F0030006D016
:1044B000000000000A00008008030490000004F0DF
:1044C000030006D00000000003280028022901296B
:1044D000FD0000000845FC071C000000F114FC076B
:1044E000000000000000000000000000FF000000CD
:1044F00000000000000000000000000000000000BC
:104500000000000000000000CA44FC07100000008A
:1045100001000000100010008C47FC07C844FC0795
:104520000200000001000000000000000000000088
:104530007443FC07100000000900020001000000A5
:1045400000000000CE44FC07020000000100000053
:1045500011001100FA4AFC07C844FC0702000000E1
:104560000100000000000000000000004443FC07C0
:1045700010000000000200000080080000000000A1
:10458000CC44FC0702000000090002000200000009
:1045900000000000CE44FC07020000000100000003
:1045A0000F000F000C4BFC07C844FC070200000082
:1045B0000100000000000000000000005443FC0760
:1045C0001000000000020000008008000000000051
:1045D000CC44FC07020000000900020002000000B9
:1045E00000000000CE44FC070200000001000000B3
:1045F0000F000F001C4BFC07C844FC070200000022
:104600000100000000000000000000006443FC07FF
:104610001000000000020000008008000000000000
:10462000CC44FC0702000000090002000200000068
:1046300000000000CE44FC07020000000100000062
:104640000F000F002C4BFC07C844FC0702000000C1
:104650000100000000000000000000008443FC078F
:1046600010000000000200000080060000000000B2
:10467000CC44FC0702000000090002000200000018
:1046800000000000CE44FC07020000000100000012
:104690000E000E003C4BFC07CA44FC071000000053
:1046A00001000000100010009C47FC07C844FC07F4
:1046B00002000000010000000000000000000000F7
:1046C0009443FC07100000000900020001000000F4
:1046D00000000000CE44FC070200000001000000C2
:1046E000190019005C4BFC07C844FC0702000000DD
:1046F000010000000000000000000000A443FC07CF
:10470000100000000002000000800900000000000E
:10471000CC44FC0702000000090002000200000077
:1047200000000000CE44FC07020000000100000071
:10473000100010004B4BFC074047FC07090000002D
:10474000130C00004B29F207150C00004920FC0750
:10475000170C0000572BF207000C00002328F2076B
:1047600006FD00005728F20703FD00003728F20776
:1047700008FD0000B328F2070EFD00000F29F20724
:1047800005FD0000611AFC0700141C02595A08E4D8
:10479000862A9E8FE911BC7C98434218595A08E436
:1047A000862A9E8FE911BC7C7C46421801000001DC
:1047B000B509FC0701000002A50AFC070000000083
:1047C00000000000F4010B00F4352348F40108C494
:1047D000140A0000140000009915FC0700000000F6
:1047E000FF000000000000000000000014000000B6
:1047F000ED14F207FD0000002126F207FF00000083
:1048000000000000F115FC074115FC07904BFC0768
:10481000B941FC074444FC07588DFC070000000028
:10482000898CFC0705000000B059FC07000400005B
:104830002492FC07AC020000188EFC070004000064
:10484000DC94FC07700500002003000000A60E00A9
:1048500004000000D2000000320000003C00000014
:104860000100000001000000020000000200000042
:10487000040000000300000006000000000000002B
:104880000200000002000000000000000000000024
:104890000300000003000000050000000500000008
:1048A000060000000A0000000A000000C800000026
:1048B000B80B000002000000B80B0000B80B0000AD
:1048C00010000000D4010000CC01000070020000C4
:1048D0006A00000004000000010000002000000049
:1048E0000A00000001000000E20400008A0200004B
:1048F000DC050000AF000000D04AFC071049FC07AF
:104900004449FC07D84AFC070448FC072049FC0737
:10491000A8B8FC07A0B8FC07B8B8FC07F8B8FC07B3
:10492000AE51FC07C08BFC07C18BFC07C48BFC0796
:10493000C88BFC070940FC07ED3FFC07D518FC07B6
:10494000A518FC078847FC078B47FC070845FC07B0
:10495000D91AFC07D539FC07693BFC0793DEF00741
:10496000F1DEF007F9DEF00749DFF00761DFF0075D
:1049700077DFF00799DFF00719E3F007BDE5F007EF
:10498000FDE3F0071DE4F0073DE4F0077BE4F007EA
:104990008BE4F007F5F9F007B1F7F007CFF7F00770
:1049A000EBF7F00705F8F00719F8F00797F8F007AC
:1049B000AFF8F007DFCDF10767D0F107DBB9F007FB
:1049C000CD0DF207B10EF207AD0EF207A90EF207F8
:1049D0008D21F007D936FC070D22FC074D22FC077C
:1049E000A122FC079922FC07B57EF007837DF00722
:1049F0002501FC07599EF107634CF1073137FC078D
:104A0000D110F207FD36FC07B111F2074112F2078F
:104A10007912F20700000000E91AFC07EB1AFC0704
:104A2000B9C6F007D592F107B301FC075F9DF10706
:104A30005F9CF107C504FC07EB72F107B922F1078F
:104A40006B04F1075D1AFC072BA4F007F1D2F00705
:104A50005FBDF007D5BDF00785BEF007DB2DF00781
:104A6000752EF0071581F007DF7FF0070937F00793
:104A700000000000A91BFC07B11BFC071D19FC0767
:104A8000F3C3F10775C4F107A13FFC073519FC0713
:104A90000000000000000000000000000000000016
:104AA0000000000000000000000000000000000006
:104AB00000000000000000000000000000000000F6
:104AC00000000000000000000000000000000000E6
:104AD000C447FC07308DFC07EC47FC07588CFC07EB
:104AE000020000004441313435333100765F362E08
:104AF000302E32342E3134363400436F6E74726F80
:104B00006C20506F696E74204143430041636365BC
:104B10006C65726F6D6574657220580041636365E2
:104B20006C65726F6D6574657220590041636365D1
:104B30006C65726F6D65746572205A004779726F8B
:104B400073636F706520446174610054656D7065B6
:104B5000726174757265204461746100436F6E7494
:104B6000726F6C20506F696E742054656D70657241
:104B7000617475726500000003030A181107595A21
:104B800008E4862A9E8FE911BC7C984342180000F5
:104B90004141FC079941FC070000000000000000B3
:104BA000531BFC07000000003541FC07000000001B
:104BB000191BFC07000000000000000000000000BE
:104BC0002D1BFC07211BFC07411BFC07651BFC0779
:104BD000000000009D1BFC07ED1AFC070000000010
:104BE00000000000000000000A00170001000000A3
:104BF00000000000983A00010203040506070809B6
:104C00000A0B0C0D0E0F2000000000000000FB003E
:104C100048080000484CFC07484CFC0768060000A8
:104C20006042FC07484CFC07B052FC07000700003C
:104C30006042FC07C08BFC07C08BFC0758020000D9
:084C40006042FC070E000000B9
:0400000507FC0111E2
:00000001FF
