:0200000407FCF7
:10000000786CFC074553FC075953FC077353FC07F6
:100010008D53FC078D53FC078D53FC078D53FC0754
:100020000000000000000000000000008D53FC07ED
:1000300000000000000000008D53FC075717FC076C
:10004000A913FC07D946FC07A526F0075917FC079A
:100050008516FC078D53FC076D13FC078D53FC07B9
:100060007913FC078D53FC07E914FC07F314FC0714
:10007000FD14FC070715FC071115FC078D53FC0741
:10008000E917FC078D53FC078D53FC075514FC073B
:100090008D53FC078D53FC078D53FC078D53FC07D4
:0800A00000008E070E000000B5
:0200000407FCF7
:100110000348854601F05AF800480047852CFC0743
:10012000786CFC07F8B507460120002302460090D2
:100130001946032049F766F9044602218030017010
:10014000FF4DFE482A6843881146FF31F7310B8680
:1001500080884886FB48066A0123DB069E431E43CF
:100160000662FF320020FF32383250829082D08205
:100170001D200882F4484884F448C882F448088363
:1001800000204882384649F77DFC01462868FF3048
:10019000F730C28B920992010A43C283ED4841684D
:1001A00000208847002C02D0204648F714FD204646
:1001B000F8BDFFB58BB0064616980027022821D05F
:1001C0000D9801881498814278D371880846403888
:1001D0003F2802D8159855F711FD0C98361D008858
:1001E000149A80190E995EF787FF0C98018814986D
:1001F00008180C9908800D9801881498081A0D9910
:1002000008805CE100200E9D079069782C78090237
:1002100021433180E978AC780902214371808C4612
:10022000403904242D1D024603468E46402900D342
:100230002878614604291FD0052914D0062918D032
:1002400070463F283DD8159855F7D8FC0006000E9B
:1002500004D0C148008D0006C00F30D00223012019
:10026000BE4A002712E0697800290FD0BC4A172344
:100270000CE0BC4A0F2309E0522802D0D22802D059
:1002800002E0142000E01520B74A1F23002A1AD0EC
:10029000984218D2800010580490002813D00020F3
:1002A0000890059070884038402803D328780524AA
:1002B00030716D1C701D00900498B5E0FEE0302791
:1002C000F0E03327EEE07088042872D10627E9E0D9
:1002D000522862D00CDC4B283FD004DC41286AD085
:1002E000422858D111E04C2820D0502853D140E06A
:1002F000632830D004DC572818D061284BD19BE00C
:100300006C2864D0772846D109E0009829780170DC
:100310000098641C401CA4B26D1C009081E00498FD
:10032000401C04900178089881427AD10098A41C5E
:10033000401C41084900881C009068782A78000217
:10034000104308800599AD1CA4B2002969D008901B
:100350000020059065E00120FBE710222946009867
:100360005EF7CAFE009810341030A4B21035009029
:1003700057E0204640301499039088420BD8402221
:10038000294600985EF7B8FE009840300090039828
:10039000403584B245E0342743E0082229460098DE
:1003A0005EF7AAFE009808340830A4B20835009021
:1003B00037E068E0FFE70622294600985EF79CFEDA
:1003C0000098A41D801DA4B2AD1D009029E01498D2
:1003D000001B80B203903088001B001D81B20120F9
:1003E00007900498401C04900098401C400840006E
:1003F00000900498007857281CD04228CBD1009850
:100400000170090A417000982946801C0090039AE7
:100410005EF772FE03980399201884B20098401882
:1004200000900498401C0490007800281ED0002FF3
:1004300017D01BE04908E2E71498001B81B200982E
:100440000391401C40084000009001200A4607909C
:10045000294600985EF750FE0399601884B2009810
:10046000DDE70D990988A14200D331E70D98008896
:10047000A04208D304990978002904D107990029DA
:1004800003D1A04201D034270CE00D99001B088055
:100490000C9801880098801B001F08180C99002FE9
:1004A00008800CD07088042809D0062807D040386E
:1004B000402804D30E984079707100E03427384604
:1004C0000FB0F0BDFFB581B01F4616460C46104672
:1004D0005CF7D6FC00257F2802D02189062909D0A7
:1004E0003B4632462146019855F71BFF05462846F4
:1004F00005B0F0BDC00601D50225F8E72078002838
:10050000F5D1300AA11D42F7A4F8F0E7F1B598B093
:10051000189842F79CFA0446189805210079134A66
:100520004006C00F099068460184618B08460A386E
:10053000904276D2E08A062873D319E030BCFC07DB
:100540004CB9FC07C00000401080000029410000A9
:100550007671000058BFFC0748BEFC073803F2075D
:100560004003F2079C03F207D803F207770C000060
:100570001922D201904254D8228BFF23F5339A429C
:100580004FD8521C9300D2184243521C0A235210D7
:1005900059438A4245DC217F00290CD1617F002923
:1005A00009D1A17F002906D1E17F002903D12021B3
:1005B000095DC90635D0274620377978C906C90EA6
:1005C000491F0C292DD2A18A81422AD8E17C002919
:1005D00027D0421E082A01D9082000E0401E81428F
:1005E0001FD8684646F7F4FA00281AD1FE4D0622B5
:1005F000286221460AA85EF77FFDA8792E46803E34
:1006000000287DD06079800901280BD00AA80999BB
:100610004CF7ADFD010003D03820405C002870D0BD
:100620009BE008E1F06A807A012808D0042806D00F
:100630000AA84CF709FE286200284ED054E0686AE8
:1006400006220AA932305EF77BFD002806D00AA8F0
:100650004CF7FAFD2862002802D012E0686AF9E738
:1006600000210AA84CF706FE2862F16A897A01295E
:1006700005D18B071A6849068A430A431A60002885
:1006800011D0F16A286A0622253010315EF758FD34
:10069000002808D1286AF16A2030C07AC97B8842D4
:1006A00001D1286A1EE0D148D1490088C96880B2CA
:1006B00006225043081842F7CFF9014614A8062233
:1006C00002305EF719FD13AA00213C2042F791FC8D
:1006D0000121B06D47F7B8FEA9E011A90AA84CF7AF
:1006E000C9FD2862002838D00146253106220FA80E
:1006F0005EF702FD286A08AA2030C17A0FA801E03F
:1007000041E024E04CF716FC002812D0286A203083
:10071000C07A002809D16846B649008C4BF77DFBAA
:1007200008AA0121B3484CF705FC68460AA9008CC9
:100730000AE008AA012111A84CF7FCFB00280CD004
:10074000296A6846008C32314BF77DFB05E00A18B8
:10075000527D002A08D010286DDBF06A407A02280A
:1007600006D0032804D00EE0401C1028EFDBF4E78D
:100770006846008C052806D308AA0AA809994CF7F0
:10078000D9FB002857D00022694620464CF77BFC55
:10079000002850D1F06A407A02280BD0032809D0F3
:1007A0000023684602880AA809994CF78DFC0028A6
:1007B00002D02FE00123F4E7E18A68460181218B12
:1007C0004181618B81817878062241096846817573
:1007D0007878C106C90E6846417521460E305EF72D
:1007E0008BFC189800794006C10F68460175038894
:1007F000214602A8B26D47F7CDF90146B06502A8BF
:1008000042F745FC0020B065214668461C3100884F
:1008100046F731FA49F7B0FA734C2034207A0028B1
:1008200005D0002109205CF76EFC00202072002119
:1008300008465CF710FB19B0F0BDF8B56E4C0646E3
:1008400085000F4660594C21095C24290ED140696E
:100850001022791D2E305EF74FFC61592520403162
:10086000087300221146304654F71BFB60594C2197
:10087000095C0C291FD140691022791D2E305EF7CA
:100880003BFC60595F214069095C09072DD4014692
:100890002E3110221E305EF753FC00280CD0605918
:1008A000092140300173304655F718F801460022FF
:1008B000304653F775FEF8BD0421684601706A465C
:1008C0000521304654F716F8684601786020014348
:1008D00068460170304655F701F8014668460278CF
:1008E0000123304653F771FFF8BD304654F7F6FF49
:1008F000012809D0605907214030017300221146B8
:10090000304654F7CEFAF8BD615900204969C0312C
:10091000887160590421426930461E3253F7EAFF5C
:10092000605941694031897F002907D01A21403040
:1009300001730021304654F73EFBF8BD1B214030C7
:100940000173304654F78CFBF8BDF8B52A4C0546C8
:100950008600A0594C22125C192A11D140224D3038
:10096000491D5EF7C9FBA059402224494D305EF76E
:10097000E7FB002805D02149284620395BF74BFDCD
:10098000F8BD0B21684601706A460521284653F7D9
:10099000B1FF68460178602001436846017028462F
:1009A00054F79CFF0146684602780123284653F716
:1009B0000CFFF8BDFFB581B003980C46060A002570
:1009C0005CF75EFA002827D0132825D0142823D0FE
:1009D0000B48B700C0592030407BC00637D503987C
:1009E0005CF74EFA15280DE030BCFC0768B9FC072F
:1009F00060BBFC0750F5F1073CBEFC07FCBDFC07E3
:100A000078BBFC070CD0A07942F714F8304647F7C2
:100A1000AFF8032806D015E0A07942F70BF81FE0E5
:100A200002251DE03248C0592030407B400704D5E4
:100A30003D21304642F7FCFC04E03D2200213046D7
:100A400042F705FD3D21304646F7DAF808E020463A
:100A5000103828490181468120464EF7C3FD012503
:100A6000284645E524485222006864308188C37EC8
:100A70005143224A12688918FF225F32525AFF31CD
:100A8000120AD21A01310B8CD2B2DB0B09D00B8CBB
:100A90005B045B0C0B84002A03D18088184A012177
:100AA00011547047FFB51746140A81B0104A0298D6
:100AB000A100515840780026114D002907D0295D2A
:100AC000002905D0002803D1204643F715FF2E55F5
:100AD0003A46049B0299019844F79FFE08E50A48AC
:100AE000084901600949416070477047704700003C
:100AF00078BBFC070608000084BBFC074CB9FC0768
:100B0000C98BFC070459F007C0000840490C00BF1E
:100B10007FB5E4486B460188428889186A4611808F
:100B200001214C0022181546403DED8F065B52888E
:100B3000AD19AA18491CC9B21A530729F1D38189E2
:100B4000C089081881B2D981D888002821D0188995
:100B5000002820D0988800281FD0588900281ED04F
:100B6000988900281DD0588800281CD000291CD046
:100B7000188800280BD00720062254001C5B8C42EA
:100B800001D22146D0B2521E52B2002AF5DA04B088
:100B900070BD0320FBE70420F9E70220F7E70520FA
:100BA000F5E70620F3E70120F1E70720EFE7F0B5CE
:100BB00095B0EFF310801090012080F31088BA48B0
:100BC000816B4A07520F69460A800A92816B0122A3
:100BD000C908C9008163B5498B8869464B800224E6
:100BE000B24B00219980C16A09078B0F69468B803F
:100BF0000F93C16A0C2399430831C162052109078B
:100C000009880906CB0F6946CB800521090709939E
:100C100009888023194305231B071980A449898A61
:100C20004906CB0F69460B81A1490893898A402365
:100C300019439F4B9982016A09074B0F69464B8103
:100C40000C93036A0E218B4303629B4D99486860A5
:100C5000FF204030A8602888A0432880974841683A
:100C60000B071B0F69468B810B934168090909012A
:100C700008314160416849064B0F6946CB810D93AD
:100C8000416870239943603141608748403801686A
:100C90008904CB0F69460B820293036841140B430E
:100CA00003600168CB07DB0F69464B820E93016836
:100CB0001143016041688903CA0D69468A82039223
:100CC0004168CA05D20D6946CA82049281688903C7
:100CD000CA0D69460A8301928168CA05D20D694628
:100CE0004A8305924168764A11400322D20389184B
:100CF00041604168490A4902FF31413141608168E0
:100D00006F4A11400322D203891881608168490A21
:100D10004902FF3141318160642000F02DF9A8893A
:100D200069468007C00F8883A8892043A8810024D2
:100D3000604F288800260121084328800A2000F0FF
:100D40001BF9FF205F4941303A680A4200D0761C07
:100D5000401E3F1D0004000CF6D1A88A8004FCD17F
:100D60005149886B671CC208D2007807400F0243C4
:100D70008A630A2000F000F960004A49FCB20E5272
:100D8000082CD5D348480A99826BD208D2000A436E
:100D900082636946454A498891800F998A00C16AF1
:100DA0000C2399431143C1620999CA01052109071E
:100DB000098880239943114305221207118008995D
:100DC0008A013B49898A402399431143384A9182D9
:100DD0000C994A00016A0E23994311430162374876
:100DE0000B994268120912010A4342600D99426848
:100DF000090170239A430A434260029841032A483A
:100E00004038006801225203904308432649403984
:100E100008600E9809684908490001432248403893
:100E20000160039842022048403840682449084045
:100E300010431D4A403A506004985268520A5202C8
:100E400002431948403842600198174A4002403A2C
:100E500092680A400243144840388260124905985B
:100E600040398968490A490201430F484038816086
:100E70001098002800D0012080F3108815B0F0BD34
:100E800010B5114C2078002808D0FFF790FEFFF72E
:100E90003FFE0E4908700020207010BD03F008FAD4
:100EA0000120F9E71064FC078010004000120040A8
:100EB00020300050105FFC070035005040200040FB
:100EC000FF01FCFFC0C0C0C0DC8CFC07DA8CFC0753
:100ED00010B5FF22154901320A60BFF34F8FBFF3EF
:100EE0006F8F13490A6013490B6840241B0A1B02C9
:100EF00023430B601049898A0021C30700D03521A4
:100F0000830702D57D231B021943430702D57523AE
:100F10001B041943000702D53D2000060143064883
:100F20002038016301488038026010BD80E100E094
:100F300080E200E008E400E0A010004010B50620C8
:100F400000F01AF810BD10B5092000F015F810BD1A
:100F500010B5812000F010F810BD10B5044800F065
:100F60000BF810BD10B5034800F006F810BD0000E6
:100F7000010200000108000000280CD000BF00BFE3
:100F800000BF00BF00BF00BF00BF00BF00BF00BF69
:100F900000BF401EF0D17047F0B5074608465840E4
:100FA00087B0C00F049048000E4659004008490819
:100FB000BC1A884105D2384631461E4617460B46B4
:100FC00002465800400810434CD0300D03904005B5
:100FD0005900400D490D0590401A0290402872DAE0
:100FE00018030121000B09050843019004980092A1
:100FF000002805D0019952420020884100920190BA
:10100000029840210A1A019900985EF7B9F805463E
:101010000C466B4607CB00F0F1F8C0197141039AFA
:101020000E0D0023D71756401A467A40164344D077
:10103000049A002A2DD0029A012A039A15DC12057F
:10104000C01A914101263605001C7141D20F059E40
:10105000D2070093019202962A46234600F0EEF84A
:1010600007B0F0BD38463146FAE71605224A0F466A
:10107000B218C01AB74101210905001C4F410018E0
:101080007F41114618187941E20F10436D196441F0
:1010900013E0E2076D0815436408C2071443039A7E
:1010A00001261205C01A91413605001C7141CE0778
:1010B000400830434908C01851412A46234600F0F1
:1010C000B0F8CDE7FFE7049801224000C117121ADB
:1010D00000238B4104983146C417381AA141EEE72A
:1010E00030B40124E407634030BC55E730B4012438
:1010F000E407614030BC4FE70000E0FFF0B51FB4EB
:1011000088B00B990998002448400999C00F4900FC
:1011100049080991C0070B990090490049080B91B3
:1011200009990898A64608431CD00B990A980843C9
:1011300018D0099801244000420D4800410D09983B
:1011400024050003000B204309900B980003000BBB
:1011500020430B9050181C4940180022019014465F
:10116000104605E0002001460DB0F0BD032801DA6D
:10117000034600E003239C46C11A0AAE0AE05F0062
:1011800008ADED5B4F00F75B7D430027AA187C415B
:10119000491C5B1E6145F2DD410004AB5A5221043B
:1011A000120C0A43240C401C0828DFDB0198029033
:1011B0000099704601910090059B049A0799069842
:1011C00000F03CF8D0E700000DFCFFFF1CB509481B
:1011D00000900948019005460126009C05E0E3685F
:1011E00007CC33430C3C98471034AC42F7D3FEF79E
:1011F00093FF0000D85EFC07085FFC0710B5202AAB
:1012000006DBCB170846203A1041C1170B4306E016
:101210000B461341D0402024A21A9140084319469E
:1012200010BD10B5002B08DA0024401C6141921853
:101230005B411A4301D14008400010BDF0B51FB416
:1012400082B005460C0003D0084603F09DFE02E084
:1012500003F09AFE203002460090214628465DF7B2
:101260008FFF049B059A04460F4618431143084319
:1012700014D0184610431BD0009840210A1A184673
:10128000059962F7DCF805460E46009A0599049820
:101290005DF776FF084305D0012004E0204639467B
:1012A00007B0F0BD0020C11705430E432C43374360
:1012B00000990E986305401A7905E40A00220C4350
:1012C000FD0A0A3002D500200146E9E701051019A0
:1012D00069410C9C0D9D00196941FFF7A2FFDFE7F2
:1012E0000EB5C217C10F5040CA0740180021054B68
:1012F0000293019200910A460B46FFF79FFF03B04D
:1013000000BD0000330400000EB505490291002124
:1013100000910A460B460191FFF790FF03B000BD14
:101320003304000070B5CD0F4A0009030123090BF7
:101330001B0519430B4BED070024520D9A4201DAAD
:10134000002070BD074B34339A4203DC9A1A62F7CF
:1013500076F802E00449511888402C43F1D040420D
:1013600070BD0000FF030000CDFBFFFF014801211D
:10137000018070470E1500500A48011F0988CA07EE
:1013800006D0028807239A432E4B9B7A134303808F
:10139000490706D50188072291432A4A527B0A430E
:1013A00002807047B8100040B0B5E44B08201880A8
:1013B00005200007018830221143018004880321A1
:1013C0000C4304801C896407FCD403889343038086
:1013D00003888B4303801B4C638C4380A38C9D1E2E
:1013E000194B5D8007251D800588154305800588FC
:1013F0000D4305801D886D07FCD40388934303804B
:1014000002888A4302804289920702D042898A4335
:101410004281018980220A430281018A0422914388
:101420000182818A8907FCD540F77BFFE06B074981
:10143000086007480168490700D500BE01684907F0
:10144000FCD5B0BDD08CFC0700160050080200404F
:1014500010000040FEB51F48058801200190C0041F
:10146000029000241C4E1D4F002D32D0042C30D28F
:10147000E80729D0B889000605D438897989401A47
:101480004142414100E000210198A040114A5080B2
:101490003889029A124B1A60BFF34F8FBFF36F8FD8
:1014A000002907D0B989019A9143B981B9890822E5
:1014B0009143B9813268002A03D0411C706889B217
:1014C0009047029807490860103708366D08641C79
:1014D000CAE7FEBD82360050388CFC07003600504B
:1014E00080E100E000E100E080B50A2000F068F84B
:1014F00080BD80B50B2000F063F880BD80B50C2066
:1015000000F05EF880BD80B50D2000F059F880BD78
:1015100080B50E2000F054F880BD0000FEB50193A8
:1015200002920C4606460120002132465DF728FE55
:1015300007460D46E049C86828408968394001439C
:1015400000D100BE0198002803D0304600F014F806
:1015500002E0304600F022F8D749C8682840896880
:101560003940014300D100BE029804437000014994
:101570004452FEBD0630005010B50446CE4988687E
:10158000C968224661F75BFFC00700D100BE012099
:10159000A0400149088010BD0230005010B504463B
:1015A000C5498868C968224661F749FFC00700D16C
:1015B00000BE0120A0400149088010BD0430005049
:1015C000F0B503460A3B01210A469A4093B20B4DFF
:1015D0005C19661C5E400A4B1C8800272E4203D013
:1015E0007F1C7608B6B2F9E79443BAB20D4695402F
:1015F00025431D80814050480160F0BDFEFF010081
:101600000E140050F8B5044601273E0205200507D8
:10161000688DC00506D51B2003F022FA48480188D2
:10162000394301808036288840013040698A454A24
:101630000A4002436A822168114801606168416082
:10164000A1688160E168C1602169016161694161EE
:10165000A1698161E169C16104623C490A68426231
:101660004A6882628A68C2624A690263CA684263DF
:1016700009698163A88AC00600D4FEE700BEF8BDF0
:101680000090FC07024800882B4810210160704739
:101690002C130050F8B5044605200507288A0421BC
:1016A00001432982288940210143298122480127B9
:1016B00007602248082101803E02688DC00506D5DA
:1016C0001B2003F0CDF91E48018839430180803684
:1016D000288840013040698A1A4A0A4002436A82D7
:1016E00021681948016061684160A1688160E16812
:1016F000C1602169016161694161A1698161E1693B
:10170000C161046211490A6842624A6882628A6859
:10171000C2624A690263CA68426309698163A88A2E
:10172000C00600D4FEE700BE688A09490840401898
:10173000001D6882F8BDC04680E200E00033005022
:10174000800000507FFE00005090FC0728ED00E074
:10175000FC7F00007047704770B5214CDA4D214E78
:10176000A1880F200840022809D0042804D00C28A2
:1017700020D00128F4D132E003F094F9F0E7AA8BED
:10178000288C90421DD2696B9042E9D2A288C02376
:101790001340C02B03D13288920703D4E0E7228A9A
:1017A0009206DDD5421C2A84085C221F1080AA8B79
:1017B000288CE9E703F076F920880121884320800E
:1017C000CEE720880221884320802088802188431A
:1017D0002080A96B0029C3D0A88B8847C0E770BDC3
:1017E000041100507C1100500521080702883023A5
:1017F0009A430280028803239A430280828812055A
:101800000DD5184A13880B40052B08D110880421E8
:10181000014311801088012188431080704781881E
:10182000C90606D510498A88D20702D00A8812064E
:1018300010D48088C0060CD50B488188890708D54C
:101840000188C90505D5022181800188074A0A401F
:101850000280704701208880088880229043088099
:101860007047C0460002005000010050FFFE00001B
:10187000F8B51620944F38560F4C25462E354D346A
:101880000028294600DA21467F2210400E1802F077
:10189000E9FA39466C31062230465DF72DFCFB7CB7
:1018A000B97C2846224661F747FE0448044900F007
:1018B00019F93875F8BDC046488DFC07DC050000F5
:1018C0007118FC0770B536480921042418232246F4
:1018D0005BF790F805461B202870FD26304661F71F
:1018E000DBFE0021A982E96029616C606E8068706E
:1018F00028465BF79AF870BD1FB514460022029285
:101900000192069A00921A46234661F7F1FC04B050
:1019100010BD000010B5E748C17B124ACCB20C23C1
:101920006343D45CFF2C06D0D318491CC1735B6899
:10193000002BF3D00DE0017C0B4ACCB21C23634397
:10194000D45CFF2C08D0D318491C0174DB68002B31
:10195000F3D09847002010BD0021C173017401200D
:1019600010BDC046C858FC07A455FC0770B50C480C
:10197000092104240A2322465BF73CF805461B2074
:1019800028701426304661F787FEFF2174312981C3
:101990006C606E80687028465BF747F870BDC04683
:1019A0001B0D00001FB5144601220292044A019249
:1019B000069A00921A46234661F79AFC04B010BDBD
:1019C000A854FC07F8B5CD4FF86D00283FD1224848
:1019D000092104222C235BF70DF80446F865172033
:1019E00020841E4820800120A076002565802046A6
:1019F0000A3010215DF799FB201D00901848461D04
:101A00001849062230465DF79BFB002801D000BE36
:101A100004E03E466636304600F044FC062200985C
:101A200031465DF769FB6584E583A5832020E07678
:101A30007E210D48415AFB2900D3FB21E1848021FE
:101A4000405A0A49884200D308462085F86D5AF763
:101A5000ECFF0020F865F8BD040D0000030A00004B
:101A6000AC5EFC07DCF1F107B0BBFC0748080000E6
:101A700070B5154D686D002800D070BD1348092160
:101A8000042252235AF7B6FF0446686507202072E5
:101A90000F48E080A0800D2020800026A67216222C
:101AA000E2720120607220460C300A495DF724FB87
:101AB0002B20265420462B302C34082106A3224606
:101AC00061F728FD686D70BDD08CFC070D0D00001E
:101AD0004C0400003C5EFC07444C472D50525048DB
:101AE00000000000B0B502466348243000242346BD
:101AF0000A2B0BD00568002D02D0001D5B1CF7E7F8
:101B000001605C1CE0B2114600F044FBE0B2B0BDE5
:101B1000F8B50446401E09281BD8A00056494718AE
:101B2000386A002817D0564DA84214D020375048A4
:101B30002018401C042631465BF7E5FA3D60082377
:101B40004B48314632465AF755FF04705AF76DFF3D
:101B5000F8BD00BEF8BD00BEF8BDC0461FB51446B6
:101B60000D220292044A0192069A00921A462346D6
:101B700061F7BEFB04B010BDB054FC0710B50C46B5
:101B80003949884233D0394A90421DD03849884279
:101B90003ED12078401E09285AD8800036490818BE
:101BA000416A374A914255D03448814257D12F4833
:101BB000042108230A465AF71DFF21780170616845
:101BC00041605AF732FF4AE02078411ECAB2092A22
:101BD0003CD88900284A51184A6A284B9A423ED17B
:101BE000CA6C24310A60616800F0D4FA37E0626898
:101BF000002A01D100BE62681E48824201D300BEA5
:101C0000626820781949401804215BF732FA26E00F
:101C1000531C0121984225D30A32904222D8C1B2E6
:101C2000091F8900144A5218516A002917D0134B12
:101C3000994214D0124B994211D013462433C01E3E
:101C400000241C60D464C0B2884708E000BE06E0EF
:101C500000BE04E00146243100220A60C2640298FA
:101C600000210170084610BD0104000003040000BB
:101C700002040000FDFF3F00B48DFC07934AFC07FF
:101C8000914AFC07DD488178491C81700178002960
:101C900000D070471A490023CB701A490A780B709C
:101CA000012A01D0012100E00221022A00D10321F2
:101CB00001707047D08CFC07D0488178002904D08F
:101CC000491E8170090600D070474178002904D070
:101CD000002242700322114003E001780029F3D072
:101CE000491E00220270481EC0B20128ECD80448E8
:101CF0000122C270034801707047C046D08CFC07B7
:101D000054BAFC07B4BAFC07B0B50C460025202D28
:101D100004D040F7F4FD60556D1CF8E70020B0BD1D
:101D200010B504460548064970225DF7E5F90548F7
:101D3000001B054908801430488010BD70A0FC07C6
:101D40002C55FC07B8A0FFFF78A0FC0710B507488A
:101D50000188074A1368114C2340591811604088C4
:101D6000516821400818506010BDC046183000402E
:101D70008CA0FC0710B507480188074A1368074C78
:101D8000234059181160408851682140081850605C
:101D900010BDC0463830004098A0FC070000FFFF8F
:101DA00007481E214180018803220A4302800188DE
:101DB00004220A430280F6480121C1707047C046E0
:101DC00000160050F0B591B08949C868886840068F
:101DD00000D400BE8748402106910180864800F06B
:101DE000EDFD0FA832210170012110AC00230C91F0
:101DF0002246059300F0A4FE0DA806263146224691
:101E000000F06EFE05200890C0437C4D002817D0DE
:101E10000DA909188A79CB791B029A1812B20323EB
:101E200053432A187824145D7927D25D12021219BF
:101E300012B29A18930ACB7192088A71801CE5E756
:101E4000284672300DAC214632465DF755F90494B0
:101E500067790396E678647800F0A8FE200204B261
:101E6000300202B20192380203B2029364A021460A
:101E70005EF744FFFD200790674988470146B64852
:101E800004220B920E230A93644EB04707460820A3
:101E90000990B880089878800C9800020C903880DF
:101EA0002046FFF71DFA5E4A5E4BFFF727F9FFF762
:101EB00039FA02464E4E3046103008905A495B4B74
:101EC0009847306971697981F880090CB981000CF3
:101ED0003881574938468847059C34617461079EAC
:101EE00030464D49884701469B480B9A0A9B4B4F09
:101EF000B84707460998B880092078800C98388040
:101F00000198FFF7EDF9464A464BFFF7F7F8FFF760
:101F100009FA024608984449444B984734490869ED
:101F200049697981F880090CB981000C38813846FB
:101F30003F4988472E4F3C617C613046364988478F
:101F4000014685480B9A0A9B344EB04706460998CD
:101F5000B0800D2070800C9830800298FFF7C0F997
:101F60002F4A304BFFF7CAF8FFF7DCF90246089812
:101F70002D492E4B9847386979697181F080090C99
:101F8000B181000C30813046294988473C617C6131
:101F900007982149884701460C236F480B9E32461B
:101FA0001E4CA0470446039A8280112060800C9842
:101FB0002080A01D04995DF79FF820461C498847A2
:101FC0005EF7AEFE30465AF75BFF032805D14B2083
:101FD00080001849FFF786FDE8840549C8688868CD
:101FE000400600D400BE03480699418011B0F0BD00
:101FF000488DFC07023000508058FC07D08CFC074D
:10200000583A2025642C20593A2025642C205A3A2D
:102010002025640D0A000000C727F007F5C9F10765
:102020003333333333330F401E5EFC07614FFC07FD
:102030002BCAF107C51DFC07F0B587B0FD2040F79E
:10204000C2FB0146444804220F235AF7D3FC0390F5
:102050004249C8688868400600D400BE4048402114
:10206000049101803F4800F0A9FC06AC05202070D7
:1020700005AD00262E800121204602912A463346D6
:1020800000F05EFD022120462A4600F029FD20785E
:102090000827074061780007000D4018FFF734F962
:1020A000314B3246FFF72AF805460C462F4B324695
:1020B000FEF772FF002F00D00546002F00D00C461F
:1020C00028462146FFF72EF90746FFF709F9024691
:1020D0000B4628462146FFF703F8254B3246FFF70B
:1020E0000DF8FFF71FF9044600F060FD21A0394606
:1020F00022465EF703FE0094184E34461834092534
:1021000020A2204629463B4602F00EFF039FBD80D9
:1021100019207880029800023880B81D21462A468E
:102120005CF7EAFF38465AF780FC5EF7F9FD0420B9
:102130005AF7A6FE032805D1C8201449FFF7D2FCA0
:1021400013490885F068B068400600D400BE044812
:102150000499418007B0F0BD06FD0000488DFC07E2
:10216000023000509058FC070000B03F000070C0E3
:102170000088C34054656D703A2025642E25640D97
:102180000A00000025642E25303464003920FC0745
:10219000D08CFC0770B50C46054619490888000626
:1021A00018480ED5184A126812040AD4174A128821
:1021B000D20706D14019801C042122465AF759FF44
:1021C00070BDEFF31083012282F31088098809069D
:1021D00003D40F490E8816430E80002B02D082F3E1
:1021E000108802E0002181F31088042108230A46A8
:1021F0005AF700FC446005705AF717FC70BDC046E2
:1022000008000050010400003000004054BAFC07F0
:10221000083300507047000070B514460D46104654
:102220005AF72EFE01282ED1287801020831AA790A
:102230001648002A0CD089B2062322465AF7DAFB48
:102240000646A87860F7F2F83080A879307113E07C
:10225000AA8889B2921D93B222465AF7CBFB064652
:10226000A87860F7E3F8002131713080AA88728085
:10227000701DE91D5CF740FF30465AF7D6FB002180
:1022800020465AF7E8FD002070BDC046140C00003F
:10229000FD2801D00020704700487047A455FC0776
:1022A0007047704710B5044640793F280FD840F773
:1022B00026FB2070010EE170010CA170000A607015
:1022C00040F71DFB2071000AC0210143617110BD60
:1022D00080B502F035FC80BD1C49498C01807047F7
:1022E00080B51A490A780270401C491C5CF704FF4B
:1022F00080BDC0467D21C1800021818010214180A8
:1023000008210180704780B561F7DAF8002801D014
:1023100002F016FC80BD000010B50C4601780129C2
:102320000BD000290ED1428808490A704B1C011DB0
:10233000D2B218465CF7E0FE02E0408803494884C8
:10234000002000E04820207010BDC046B48DFC077E
:1023500000208880488001200870704780B55EF7B3
:102360000BFE80BDF8B56946C870020A8A70020C7F
:102370004A70000E087008465EF7E6FD8FBD00004B
:1023800080B5994800210160FEF7E2FD944800788D
:102390001F214901914A13688B43C006800DC01864
:1023A000106080BD80B58F4802210170FEF7C6FD28
:1023B00080BDC046F8B51F460C46087808281CD8D2
:1023C0000725002100911AA678440079400087442F
:1023D00019040C0406060F0912001A4E12E00D250E
:1023E000174E0FE0062514A60CE00A2516A609E0F4
:1023F00008251AA606E017A604E000BE0026012064
:1024000000903546AB1C184839465AF7F3FA074690
:10241000207838707D700098002804D1B81C3146AF
:102420002A465CF769FE38465AF7FFFA0020F8BDE5
:1024300052656E6573617300FFEEDDCCBBAA0000D0
:10244000AE5DFC07A65DFC07312E302E302E302D00
:102450004C45000001D2008005000100123456FFF7
:10246000FE9ABCDE0000000003140000F0B50A79FB
:10247000530140241C40130180251D4016093602DB
:1024800075192C19D20020251540621910241C4002
:1024900012190B785B0008241C40121906241C40FA
:1024A0001219CB79DB079B0C4C796508ED07ED0C15
:1024B000EB18E407240D1B19134383818A790F2A33
:1024C00043D0354A82180423DA41931E022B1BD3D2
:1024D000012A3AD8EFF31083012282F310888D7914
:1024E0002E4C2688F6B23609B54203D12688F0274D
:1024F0003743278026880F27BE432E432680002B94
:102500001CD082F3108820E0EFF31083012282F3C5
:102510001088224C27880F2637408D79AF4202D190
:102520002788374327802688F027BE432D0135436F
:102530002580002B06D082F3108806E0002282F36B
:10254000108802E0002282F310888A680280120C50
:102550004280CA688280120CC2800A8A521E42815E
:102560004A88002A00D10A8A430838241C404B6953
:102570000B4D2B51521E0281281989694160FF20A1
:10258000000608490A6882430120C307D2180A607E
:10259000C00405490860F0BD00CAFFAF8036005096
:1025A000388CFC0710E400E000E100E080B50B4847
:1025B00001688905C90E0A4A11701F214901026884
:1025C0008A4302600748012101700748016803221D
:1025D0000A430260FEF7BCFC80BDC0464C120040BE
:1025E000085FFC0706100040AC10004010B50C78E6
:1025F000012C03D0092C09D04C7802E04C78432CF4
:1026000002D0002C00D000BE02F088FB002010BDDC
:10261000F8B51D4610460C465AF732FC022824D164
:102620002D0A00D000BE0C2068431B490F1822372A
:10263000BD70FF2D14D00126FE70042003215AF72F
:102640000AFC20883880607A3871781D21460A316A
:1026500006225CF751FD00212846324660F744FF10
:102660002846214602F0E4FA00E000BE0020F8BD52
:1026700010B51C4610465AF703FC032809D1200A5E
:102680000C21414304484018FF21818402F028FBBB
:1026900000E000BE002010BD488DFC07F0B589B0F9
:1026A0001D461446087802282CD001281FD0002887
:1026B0003AD101AE202130465CF737FD1D4807783E
:1026C000411C30463A465CF717FD3B460A33184832
:1026D000294622465AF78EF904464780002020708A
:1026E000201D31463A465CF707FD20461AE01148A6
:1026F000468C0F480A23294622465AF77BF9468022
:1027000001210EE00A480A23294622465AF772F9A7
:102710007D2101810021C18010218180082141801B
:10272000022101705AF781F9002009B0F0BDC046BE
:102730000B0E0000B48DFC0780B560F77DFD80BDF9
:1027400080B560F759FD80BD80B560F790FD80BD14
:1027500080B560F717FD80BD80B560F793FC80BD44
:10276000B0B50C78641E122C1ED8C0467C44247967
:102770006400A7440B191019191919191919190905
:1027800015090919090909000020B0BD4878002879
:102790000DD000BEF8E7487800280BD000BEF3E764
:1027A000487802F031FAEFE702F0B8FAECE7FFF709
:1027B00009F9E9E7FFF7A7FDE6E7000010B51046C5
:1027C0005AF75EFB002801D000BE09E00548092148
:1027D0000422012423465AF70DF904705AF725F90B
:1027E000002010BD020D000080B560F7ECFC80BD3C
:1027F00080B560F72EFD80BDF0B589B00393164615
:102800000C46FD205EF7F4FC0290002800D100BECB
:1028100008A900270F7020885FF716FE054660881C
:10282000002800D000BE002D78D1FD20FFF730FD3C
:10283000002800D100BE0399090A009108A90A786E
:1028400014215143436859180B79022B24D109688C
:102850000988394B99421FD10020059004902088A7
:102860005FF78DFD002800D100BE07A9002204AB50
:102870004EF77AFB0120400207990140480A2146A1
:102880005FF768FDC5B2002D29D1E28808A801785C
:1028900000985FF73AFF22E001968669002E3D46D8
:1028A00006D0A5886188A31D10462A46B047054674
:1028B00005970497208804A94EF7D1F8002D019EB2
:1028C0000DD108200499085E002807D46288A188E9
:1028D0002088A31D4EF72DF9054600E00025002DA8
:1028E0001CD10298009F39465EF7A0FC0146A088E3
:1028F000801D83B2114832465AF77CF80546801D88
:10290000A288A11D5CF7F8FB08A800786880A08861
:10291000A8802F7028465AF788F800250848042315
:10292000039932465AF766F88570218801805AF774
:102930007CF8002009B0F0BD022900000AFD00006B
:10294000160C000070B5EFF31085012484F3108895
:1029500005200607708DC00509D5C748447202F0EE
:1029600075F8114908701148008820404870308877
:102970008021014331800E480168072291430160A4
:1029800041684907FCD53188090600D400BE0949D1
:10299000016109494161002D02D084F3108870BDA6
:1029A000002080F3108870BD2064FC078000005078
:1029B0000000F4070F009909090404A4F8B5EFF327
:1029C0001082012181F31088804B1D88202425432B
:1029D0001D80002A02D081F3108802E0002282F3D9
:1029E0001088794A13888B4313801388DB07FCD146
:1029F000384B00251D8605889D8245881D83858866
:102A00009D83C5881D841D880626B543467A7600B9
:102A10002E431E80857B002D00D100BEC57B002D7E
:102A200000D100BE1F25ED439E8F2E40877B7F1E69
:102A300037439F871E8F2E40C57B6D1E35431D87F4
:102A40003F25AD02867A012E0FD1868900961F8818
:102A50000F431F801F8840263E431E801F88A743C8
:102A6000C47A012C15D1204614E084891E888E4337
:102A70001E801E884027BE431E801E880827BE4336
:102A8000C07AC0003043188018892840204318813C
:102A90000FE0007AC0B2400107431F80188810265B
:102AA000B043240104431C8098882840009C2043A4
:102AB00098801088084310801088C007FCD0064812
:102AC000016880220A437F218A4302600348102163
:102AD0000160F8BD0013005004E400E000E100E0F4
:102AE000F8B500920022304D144C174616468F421E
:102AF0001DD28E420ED2A38B9B070BD5761C8E4225
:102B000001D0012300E003231B022B80F1E72B8877
:102B1000C3557F1C8F4204D2A38C9B06F7D1BFB252
:102B200000E00F46A38D002BE1D0208800E0134683
:102B30000098002800D00380F8BDC0465413005010
:102B4000FCB501925A0000931A4302251540002655
:102B5000144C154B0F0416D0491E2788BF07FCD50F
:102B60008AB257425741002D01D12F4600E07F0223
:102B7000825D3A431A80761C278A002FEAD01C3CDB
:102B8000208801990AE000270098C007019905D024
:102B900020884007FCD520888006FCD4002900D07E
:102BA0000F80FCBD701300501013005006480188C0
:102BB0000122914301800188C907FCD103480188A3
:102BC00020229143018070476C1300500400005094
:102BD00070B5174EB06800F02DF827490A6C002335
:102BE0000B641518084C284621465CF70BFA7061F7
:102BF00006494143481901D0201A80B2306130683B
:102C000008210143316070BD710200008FFDFFFF9C
:102C100080B506480021016001F0DEFE0120C007FA
:102C200003490A6882430A6080BDC046A8B9FC0710
:102C30003000004080B50246C00B09D00E48006D40
:102C400000210B465CF708FA8905800A401880BD10
:102C50000948006D4243900A80BDC04680B5FFF729
:102C6000E9FF80BD80B50449896C414303480818D9
:102C700003495CF7C7F980BDD08CFC0720A1070091
:102C800040420F0000B5A1B0B248082303800020E5
:102C9000B14C1C901C98002811DC00201E901E993D
:102CA0001C980B2909DC3021414360181E998900CA
:102CB000002242501E98401CF0E7401CE9E70D93AB
:102CC00061690020C343012200291A92154600D0F1
:102CD0001D466A01A14FBE6816432A46FD68BE60C4
:102CE0001792D60E00291F4600D10F467901891987
:102CF00029439A4FF960616800291A9A00D01A4650
:102D00001992D50F00291E4600D10E4671004919AF
:102D1000FA680A43B968FA60199A52000A43BA601D
:102D2000216900291A9A00D01A461892150F002915
:102D30001E4600D10E4631014919FA680A43B968A6
:102D4000FA60189A12010A43BA60216800291D46E8
:102D500000D10D46FA682A43BD68FA6000291A9F1F
:102D600000D01F463D437D498D60E568002D1A99CE
:102D700000D019464E0F002D1A4600D12A46D20027
:102D80009219764EF5681543B268F560CD0015438B
:102D9000B5602760199A6260E160189921611799FE
:102DA0006161256A002D1A9900D019460A02B76898
:102DB0001743F2681992B7600F0E002D1A4600D122
:102DC0002A461202D219199D2A43F2602162656ACD
:102DD000002D1A9900D019464A02B7681743F268C5
:102DE0001992B760CF0D002D1A4600D12A46520223
:102DF000D219199D2A43594FFA606162A1690029CD
:102E000000D01A931A9DAA01BE681643FA68BE60E4
:102E1000AE0E002900D10B46990189191143F960C2
:102E20001A99A161F860B8601C901C98002834DCE5
:102E300000201E901E980B282CDC1E981C990B2835
:102E400028D830201C99414361181E9A9200895855
:102E5000491C00D100BE1C99414361181E9A920082
:102E60008958002913D01C99484320181E998900BD
:102E70004058C1171E9A5CF783F91C9A12015CF73F
:102E80007FF9FA680A43B968FA600143B9601E988D
:102E9000401CCEE71C98401CC6E7A14D28881BACFF
:102EA00020802088C046C04620880422D1430842A2
:102EB0001A9202D00020288003E0A88901218843CB
:102EC000A8810D9BA88B9749014007201390C00251
:102ED0000818A883944F388818433880F88D062244
:102EE0009043F8850126B003A98B0143A983388854
:102EF0008E490140398078880B921043984378803E
:102F0000052012900407618D0F2001900202F88DB8
:102F100090437D22D200C9058549099220D403211E
:102F200049020843F8858348401CF98D0143F9851F
:102F3000A88B9843A883A88B04218843A88378880A
:102F40007D4901407980F88D3043F885608D4007D8
:102F5000FCD51BE000330050A08CFC07488DFC071B
:102F600010181830F885F88D0840F1034018F885DE
:102F7000A88B1843A883A88B1A998843A883F88D37
:102F8000B043F885A88B40218843A8833002149071
:102F90006349888B03220392104388833888202258
:102FA000104340231593DB4318403880088C169259
:102FB000104318400884E08A80210E91084318408D
:102FC000E082208EFF210C9188432086208F1A9A60
:102FD000104318210A9188432087208FA0210143A4
:102FE00011931940218755480280A0885449014017
:102FF000A1803746300453490860FFF7A3FC524ACA
:103000001068139908401CA9087008780228129DBE
:103010001ED0608D1499084212D001F017FD0A28C5
:1030200002D80B2001F01CFD3F48C08DC007464A66
:1030300006D13D49C88D3843C885608D4007FCD511
:10304000106802210143A943116050684007FCD574
:103050003E480068C1B20C20AA29014600D01A9946
:103060002288824388182080C046C04638480068BD
:10307000384909886823384D002210920F93EA528C
:10308000364B1A4660329180186601201890C0466F
:10309000C0463348001F00683249884200D051E1E1
:1030A00001980707042000210891099E17970346FD
:1030B0002B4A1118081FEC32904200D347E11A93B3
:1030C00000681E901E9B3B40092005071E9AAB42DC
:1030D0005BD11E9B1E0AF3B21993D2B2531E162B5C
:1030E00000D9F3E05B00C0467B449B885B009F44B3
:1030F00007010701ED000701ED003B00B100ED0005
:10310000ED00ED00ED00ED00ED00ED00ED00ED0057
:10311000C4009300D9008C00ED00E700A700C04672
:1031200004030050FFC3000052000050FFBF000026
:10313000FF0F0000FFEF0000FFF900000002005049
:10314000FFF7000080E200E00000F407D07FF807FE
:10315000D47FF807D87FF807CC8BFC07D08CFC070E
:10316000D47EF807A5A5A5A5BD4D0F9FE85DC000BD
:103170002818199A92005BF7BFFFE85D8019E8559F
:10318000C0B2052877D300BE75E0900F10D01E980E
:10319000B44988420CD81A9B184608302146283179
:1031A0001E9A8A4226D1B0495958B04A11807EE70A
:1031B0001E983840139909078842189905D10020B4
:1031C000C046C0461A98001D71E71E983840C907CE
:1031D00088421A9A0CD01E983840129949078842A2
:1031E00006D01E98384003994907884200D098E0DD
:1031F000101D5CE7A11C1E9A8A4200D087E09A4904
:1032000059586622964B995251E797481A9908588F
:103210006221934A505273E0934A1A9B995848434B
:103220009A58120C801A00B2C0085A238C4DE852EA
:10323000501A81088E4A11400818401C58212FE06E
:1032400089481A9908586421854A5052000457D178
:1032500000BE55E06925824F785DC00038181030F7
:10326000199A92005BF748FF785D80197855C0B2D3
:103270000D2800D300BE179F42E07B4A1A9B995845
:1032800048439A58120C801A00B2C0085623744D55
:10329000E852501A8108764A11400818401C5421FF
:1032A00068522DE0089DA8001CAA1018199EB200B3
:1032B0005BF722FF75190895032D21D300BE1FE08F
:1032C00069481A9908586649086519E01E2A17D1F5
:1032D00019984008020613D00B684A680831002587
:1032E0002E460836382E08D05D4F7D192D699D4237
:1032F0003546F6D15A4B9B19DA60401E179FE9E715
:10330000199880001A990818001D099ECFE62146D9
:1033100024311E9A8A420AD153495958534A51803E
:10332000C5E61E98401C12D000BE1046BFE62146DE
:1033300020311E9A8A4200D0B9E64B4959584B4A6F
:103340009180B4E666202E5A4A4A189D38E05C20E7
:103350001C99434D295209201D9948430A0C801A93
:1033600000B2C0086023E852501A8108404A114058
:103370000818401C5E2168520F9AA85CC10701D052
:1033800000BEA85C4008A8546920295CCA07394AD5
:1033900001D000BE295C490829546420295A00291B
:1033A00000D12E5266202E5A002E189D08D1324987
:1033B0000968C9B2AA290E9E00D06E2628490E526D
:1033C0005684A08CA843A0840D20FDF7D5FD60890C
:1033D000284302218843608160894006FCD56680CD
:1033E0000998FDF7C9FD6089039988436081608968
:1033F0000006FCD57F201F4A10711F4880691F49B5
:103400008860EFF3108685F3108820880E990843B2
:1034100020801B490868139B984308604868400750
:10342000FCD5184808611848486120880E998843DF
:103430002080608D14990842109B0CD053720F4F5E
:10344000387801F00DFB109B7878104F002802D1DE
:10345000F88DA843F885002E1AD085F310881AE05D
:10346000CC8BFC074C420050D47EF807A000FC0730
:10347000FF3F0000D08CFC07D07FF8072064FC07DA
:103480000000F4070F009909090404A45200005039
:10349000002080F31088129E9D4800689D49884254
:1034A00000D0C6E09C489D495BF73FFE139801029F
:1034B0009B485BF73AFEFDF719FB9A489A49016071
:1034C0009A489B4930273A465BF716FE99480025F3
:1034D000C571857145710571C570857045703F2155
:1034E00019910170944895A1159A5BF705FEA348C0
:1034F0000570A348A3490160A348A4490160A449F9
:10350000A4480860A4480A210170A44812950570D7
:10351000A348322110910170A2480660A248189D6C
:103520000560A2480660A2480B990160A148139962
:103530000160A1480D9E066028020090801D9F49F1
:1035400008609F4908609F487349016000F0E8FCEB
:10355000324620890297B843208120890E9908437A
:103560002081208930432081208CA84320846089D9
:103570000A99884360812089159908432081208A0F
:10358000042188432082A08A8007FCD5E08C8E49E4
:1035900008408E494018D430E084E08C189D2843C0
:1035A000E0846089104310210F9188436081608C12
:1035B000A843608420891599884320818448373046
:1035C000AE0731680140316019984002814A1168A4
:1035D00081436803081810607F48401C116801434C
:1035E00011604B4800684B498842129F17963CD0A7
:1035F0007448006877498860784A90681071010EB5
:10360000D171010C9171000A50710098C030744A58
:10361000002818D0401E7249435C1678354603993D
:103620000D406E494D192D795D4075401570521C45
:10363000EEE76C486A497202934200D932E71A58A1
:103640005A501B1DF7E7654D1C3565491C2228465D
:103650005DF7E6FC0028179E00D000BE28465DF707
:1036600073FC2B482B490160189D564800683EF7B3
:10367000F1FD5D480771C7703068009908433060FC
:10368000FEF78EFB284600F0D9FD5849087800283F
:1036900002D00E98487004E000205349C870544985
:1036A0000870544D22350C2128465BF73EFD5248E8
:1036B000482101725021C1715222827141712D2124
:1036C000017147844D49016004264D49304659F740
:1036D00090FB0C98A8701A963046394659F7BBFBF8
:1036E000424E30466C3087804648F06677744148D9
:1036F0002E30454916252A465BF7FEFC75825FF79A
:10370000F7FF3078002800D180E08120707082E0DF
:103710009CB8FC076587341200A0FC07AC140000BD
:1037200000B9FC0760BAFC07A058FC0700BAFC0708
:103730007CFCF107DAB9FC07B0BCFC072000800074
:1037400000C00000000084000000282200000000EB
:103750000000040000F7FFFF7F00000030F0FF0FC3
:103760000000000000040000000000000000000055
:10377000000000000000000000000000FDB9FC0790
:1037800050B9FC07603FF20754B9FC07485AFC07E0
:1037900058B9FC071859FC07B0B9FC07B1B9FC07C8
:1037A000D9B9FC075CB9FC0760B9FC0764B9FC0730
:1037B00068B9FC076CB9FC0770B9FC0748B9FC078D
:1037C00044B9FC074CB9FC07FFF000002C0A0000CC
:1037D000C8FEFFFF00020040FFFF1F002064FC073F
:1037E000288EFC0700B0FC0754BAFC07D08CFC07FD
:1037F000B4BAFC07488DFC07B48DFC0708444C475D
:103800008854FC0705FFCDAB3C5EFC071899A74820
:10381000C170A7480170A7A0AB498847AB48FFF724
:10382000CDF81CA8AA4901801EAA0B92A9491180B3
:1038300020AA0C92A84911801FAA1392022529469A
:103840002B46A64EB0470B982946139A2B46A34EFB
:10385000B0470C982946139A2B46B047A0A09A4E21
:10386000B047FFF7A3F9A448FFF7A8F81CA80399ED
:1038700041700D9901701EAA294613952B46974D4C
:10388000A8479EA0B047FFF791F9FFF7C1F90520BF
:10389000FDF71EFB9F48A0490818A0494018800862
:1038A000401E0C90189948020890199880020A90BE
:1038B000C80319909A4D179E7C492089000600D4B0
:1038C00072E1306B199A104200D06DE10888C00790
:1038D00000D069E159F791FD0026304600F0AEFCBA
:1038E0009048C07A042800D05AE1189800F0A6FC4D
:1038F0001C961CA8042529464AF720F9002800D167
:103900004DE1189888490860864B08680028FCD16A
:103910001798C069D96A884201D2DE623146411ADD
:10392000CA09197B182A65D9C90766D10B957F4D3D
:103930002988079169880691A9880591E9880491E9
:103940002E80089910316980159AAA805C21784BE5
:10395000595AA9817349C862A88910430299C94379
:103960000840A88173480260BFF34F8FBFF36F8F89
:10397000288810432880E88810430840E880288879
:103980000B9988432880A888C0B2A880E888702155
:103990000140402938D16220185A0028664900D0D9
:1039A0000146664841806648401C298801432980B9
:1039B0001920FDF7E1FA2888089E304328802888DE
:1039C00015990843288068880B990843688068889F
:1039D0005C49084068800198400269880143698019
:1039E00068885949084014990818803068805748F9
:1039F000099B1EE0C80700D1D1E04A49086B401C72
:103A0000086300F0CBFDCAE02888514908402880AF
:103A100068885049084068806888039988436880AE
:103A2000494A104640382988014029801046099BA0
:103A3000089E6988014069802888189A1043288068
:103A40001846173029890140F34B198369890140D1
:103A5000598328890A990840304328816889084099
:103A60003043688128881399084328802888800774
:103A7000FCD4EA81288AE94949881A8B1D46EE4B15
:103A80001B890A9E33401343EB4A13816A8BEA4D2C
:103A90006B89334013436B81401A099941430028D5
:103AA0005ADCE84A8918C017084057E054BAFC07A6
:103AB000B4BAFC0741707020496E697469616C6921
:103AC0007A65640D0A000000110DF2078058FC07AA
:103AD0002D080000310B00002C0A0000412BFC07D0
:103AE0004144584C33343520696E697469616C699E
:103AF0007A65640D0A0000009058FC074D43503968
:103B000038303820696E697469616C697A65640D52
:103B10000A000000FC5D00001001FC07030004F82F
:103B200000330050D08CFC07FC0000400015005012
:103B3000CC8BFC0780E100E0407600002064FC07AD
:103B4000FF0F0000FF1F00003FFE0000FCFF000011
:103B5000FFEF0000FFE10000BB480818BB495BF71E
:103B600067FA85091935EC4A10797F280DD0281A93
:103B700041B2C9114840401A40B2052806DB106B1B
:103B8000401C106300F00AFDE34A1571AA4806992B
:103B90004180059981800499C180079901809A4DDF
:103BA0005DF7BEF8179EA24972B60879022838461A
:103BB00002D09B480068806A1C902889C00700D00A
:103BC00020E158F7E6FC1A9A9949002800D119E13A
:103BD000C878012800D0A4E0A08AC00700D08BE0FC
:103BE0000888002800D09CE09948806A002803D00B
:103BF0008B480068806A1C9000F0EEFE8C4881784B
:103C00001CA859F7BEFA8A49002800D189E030691A
:103C1000400600D585E0864881781CA849F78EFFCC
:103C2000834900287DD00A98FF30844A11880140DA
:103C30001498014311801C98002806D0316A794AF3
:103C40008918DA2901D8401E1C90B348808C734A29
:103C5000D16808181061F06B7E4B18400843F06380
:103C6000F06B7D490840516989020143F163F06BB3
:103C70006E490840116949050818F0631C9A774895
:103C80008242694F00D300BE604903C900235BF73D
:103C9000E3F90903000D411860484069821C8A421B
:103CA00000D0481E624909794A1E914145F75CFEE1
:103CB0006B48C06A80471999306B0842FCD0009964
:103CC00038680842FCD038680E99884338606889A3
:103CD000452804D846216981081A8F4908643EF7AF
:103CE000F4FAB8688C49C86338680006FCD52089A6
:103CF0000E99884320811A9A4E480178208A1043F1
:103D000020824F4B186810431860414B1889189F48
:103D1000B8431881608A012905D10F9988436082D0
:103D20002FE030BF6EE00F9E30436082608A104308
:103D30006082FEF707FE608A3043608235480C9946
:103D40000162EFF3108087F3108821880E9A914367
:103D50002180002802D087F3108802E0002080F341
:103D60001088608D14990842179E0AD00020ED49F2
:103D700048720B2000F074FEEB49C88D189A10436E
:103D8000C88500202083608D1499084206D1E64939
:103D90000888159A1043169A904308801C4A108C84
:103DA00015990843169988431084A08C189FB8432E
:103DB000A0840D20FDF7E0F860893843139988430B
:103DC000608160894006FCD510986080A08AC0069A
:103DD000129F01D50D98288030BFA08AD24908884B
:103DE000169A1043119B184008800949088C10430B
:103DF0001840088400F094F8114A10681A99884312
:103E000010600B4962B658E500330050488DFC073E
:103E1000040300500000F407D08CFC072064FC076A
:103E200058B9FC07C8FEFFFF00020040FFFF1F005B
:103E300054BAFC07B4BAFC070015005038300050E3
:103E400010ED00E02BFDFFFFD5020000AA050000E9
:103E500074BEFC0700FCFFFFFF03E0FF40420F00C1
:103E600058BFFC07AF4801466C318A88521C0A7162
:103E7000130A4B7191B2034A914202D17021002280
:103E800042527047FFFF000010B569210D48415CA8
:103E9000143000228A4206D20368041F246823607B
:103EA0000830521CF6E710BD10B568210548415C8A
:103EB00000228A4204D218C81C600030521CF8E765
:103EC00010BDC046CC8BFC0770B5F04D697D002954
:103ED00000D000BE88002E18B06D5836002815D1CD
:103EE00009020A310D4804240E23224658F782FDA8
:103EF000092101703060C8218180002181814181C8
:103F0000192109010181C480A021418058F78DFD4C
:103F100000206874306070BDD08CFC070E0E00006D
:103F2000F0B58DB07C4CE0897C490140E1810126EF
:103F3000E08CC0057A4F19D57A48407A012803D120
:103F400000F084FD1B2811D8774D2888C00400D4C8
:103F5000B88AFF201C30754908801B2000F080FDC6
:103F6000E88D3043E885E08C4007FCD5704871A1AE
:103F700018225BF7C1F875A077492CC82CC1FCF753
:103F8000AEFD764876490160EFF3108086F3108825
:103F9000218840220A432280002802D086F310881C
:103FA00002E0002080F3108834026E4801886E4FD2
:103FB000B98980221143B9816C490B230B800821F8
:103FC000039139800025BD80B9899143B9810321CE
:103FD0000491B981868305848584059606AE358271
:103FE00075800420029030700C950B950995089708
:103FF0005F4807905F4F38463146FEF737FAF57154
:104000000498307158480990103738463146FEF709
:104010002DFA4448856305990172049806020196B9
:1040200005203146029A2B46534FB8471D2205986A
:104030003146059B504FB8471C22029831462B460B
:10404000B8471B22284631462B46B8471A22049807
:1040500029462B46B84709270497039829463A462C
:104060002B46454EB0470A22384629462B46424F3A
:10407000B8470620019E31462A462B46B847284AB3
:10408000108805990843108003983146059F2A46F9
:104090003B46394EB047049829462A463B46364EA1
:1040A000B04736487B49092D25D0CA688A689205F1
:1040B00000D400BE028892051DD4CA688A682242D4
:1040C00000D100BE848000220692069A282A02DAD5
:1040D000069A521CF8E7CA688A68224200D100BEDC
:1040E000448000220692069A282A02DA069A521C76
:1040F000F8E76D1CD7E708200024092521462A4649
:104100003B46FDF70BFA0A22284621463B46FDF7BF
:1041100005FA0DB0F0BDC046040000507FFE00005F
:104120000C030050D08CFC07520000502064FC07A8
:1041300020000840F99DF00700000000E3A1F1070E
:10414000000000004FA4F107000000000D05FC076F
:104150003B08FC074B09FC07C000FC0700000840B7
:10416000070010007C11005000110050C0110050D9
:1041700005000300003600501D15FC0700300050FC
:104180000549884200D000BE04480188044A114015
:104190008918091D0180704711111111120000507A
:1041A000FC7F0000F8B504460026234F302E0FD0C8
:1041B000BD19E88AFD2801D1064969605DF79EF8BE
:1041C000002803D082682846214690471836EDE73C
:1041D000F8BDC0460C58FC07B0B50025164C0028A9
:1041E00026D1012D26D8FF20E082002020606060CB
:1041F000A060E060206110202843C0B2A082214668
:1042000058F7F7FD18346D1CEBE7E08A5DF776F898
:10421000002802D04168204688470020E081606085
:10422000A060FF20E082207D58F73DFE18346D1C11
:10423000012DEAD9B0BDC046588CFC07B0B5D14DB0
:10424000E978012921D11249002803D008884007C4
:10425000FCD402E00888400717D40023EB70C8881C
:104260008988000444181F204006492122465FF730
:10427000F7F8084A03C264214143080CA8640648C1
:104280006043800B401C40082865B0BDD08CFC0703
:1042900000160050488DFC071111010010B5F24CBA
:1042A000082020701120FCF767FE0320607010BD0D
:1042B000FEB5624803250570614C2046143801683C
:1042C00014220A436B218A430260A06A5D49886117
:1042D0000020C043A06220683F21884320602068FE
:1042E00059490840206060685849084001210191FF
:1042F00089020291401860606068402101433020CB
:1043000081436160A069524908400B214906401869
:10431000A061A0694F49084069024018A061A069E6
:104320001821014327208143A161432020714A487D
:1043300080474A4880474A48804740480570009572
:1043400048480668484880474848804720684849A8
:104350000840F105401820603B4E40362068304050
:10436000490C401820604127277160683749084090
:10437000029940186060384880473848804738487C
:1043800080472E48057037480568374880473748CA
:104390008047206836490840E905401820602068B9
:1043A0003040490C40182060277160682749084058
:1043B000029940186060284880472848804728486C
:1043C00080471E4800990170264800682168284AE5
:1043D0001140C2058918216021683140254D0540F2
:1043E000A801081820606068019988436060154E34
:1043F000B069A06220681C21014323208143216011
:104400002068114908402060A0691149084007212F
:1044100089064018A061A0690E4908400F21C90112
:104420004018A061A0691E21014321208143A161A0
:104430000D4880470D488047F586FEBD05100040B9
:10444000183000402064FC07FF7FFFFFFFF9FFFFEB
:10445000FFFFFFC03FF0FFFFA523FC07AD25FC07D2
:104460005B0FFC07883000408123FC07470FFC07E7
:10447000FFFF7F00FF01000070470000F0B58BB028
:104480003022002181541F221204344B1D689543B1
:1044900001246204AA181A60324B334D4561334D32
:1044A000334E344F344AC261066243622C4A826200
:1044B000C562324A07604260E004C74A136883431A
:1044C0001360282903D001A84154491CF9E72C485E
:1044D0000068403001A928225AF70EFEC24DAC7385
:1044E000FFF7DCFEFFF7E0FCFFF7CEFC00F07EF903
:1044F00000F00EFB00F06AF8FFF7DAFE2C7322489A
:104500000088072101406973FCF7BAFCFDF71EFC27
:10451000FDF730FC1D490B881D4804681D4A1440F6
:10452000E31803601C4B1C88856915402C198461B5
:104530005B88C4691440E318C3614B8A046A144061
:10454000E3180362898A436A134059184162A448F8
:1045500002218170002101800BB0F0BD7400004089
:10456000C945FC07C545FC07B146FC079546FC0755
:104570005517FC076D46FC076F46FC077944FC079E
:104580004CB9FC07D08CFC07B8100040103000403C
:1045900088A0FC070000FFFF6430004080B5FFF7F3
:1045A0007DFEFFF771FC00F021F900F0B1FAFCF795
:1045B00067FCFDF7CBFB8A48022181700021018056
:1045C00080BDC04600207047704700000E49088833
:1045D0000E4A024001204302D2180A8041057E4A59
:1045E00013688B431360810700224A671F2212045D
:1045F0004B6F93434004181848670868E022024351
:10460000102082430A60704738300050FFFC0000E1
:1046100080B51F20000401218A07536F834348049B
:104620001818506710680721884310600D480188EA
:1046300008220A430280FFF731FEFFF735FCFFF73F
:1046400023FC00F0D3F800F063FAFFF7BFFFFDF79B
:1046500091FB634802218170002101800520FCF755
:1046600037FC80BD0800005004100040704780B542
:10467000E62800D3E620282800D82820F9214A007F
:1046800042437D20C10010465AF7BCFC7F38C0B2BF
:1046900080BD00000548016807220A43026001202E
:1046A00080044D490A6882430A6070473000004028
:1046B000022902D0012900D000BE002802D0FF2824
:1046C00004D000BE022901D10C207047D848807B5D
:1046D000002800D009207047F8B53F480168C90795
:1046E00003D0016802220A430260012401684902E2
:1046F00003D5A10502680A43026027026502374913
:104700000095084608380668002E63D0300606D5A6
:104710008020086049F7BBF8FDF742FB2F49B0073E
:1047200004D50220086044F7B0FF2C49300714D5A7
:1047300008200860FCF796F93D46274600242046ED
:1047400044F75CFF25490420EC4AD0720220244A39
:10475000907014803C462F46009D3E4204D00F606E
:10476000012044F74BFF1D492E4203D00D6049F74D
:10477000F7F81A49700604D54020086044F739FF5D
:104780001649F00604D51020086043F7F5FA1349DE
:1047900070070FD50420086012490888A0430880DC
:1047A00058F792FE3DF74CFFFDF7FAFA0B4900204F
:1047B000D24AD072F00707D00C6058F7A1FE49F733
:1047C00066F80649CD48C472B0069AD52020086024
:1047D00000BE96E7F8BDC046000200401800004049
:1047E0000410004008330050D08CFC07FCB57F203B
:1047F00000025A4A516981430B2000020818506197
:10480000106880B25649401810609069554C0440B9
:1048100001235803009020189061032001900002AA
:10482000146B04431463908F10240443948790887E
:1048300018439080BF484C4A02604C4A10461038DA
:104840004B4CA58B054015204301E8185030A08340
:104850006069484D0540484828186061A069474D87
:104860000540092040022818A0612068444D0540F9
:104870004448281820606068434D05404348281884
:104880006060A068424D054042482818A060E0687A
:10489000414D054041482818E060D348807B0028FE
:1048A00002D1C120400100E03D483E4D2860052076
:1048B00080023D4F3880401DB880388C5526064315
:1048C000AA2086433E84FF266C363046C9303885A0
:1048D000364908460E30B88535483886B986C01D39
:1048E000388734482085A06B334901403348081885
:1048F000A063334C2680208F10401F462037C019FC
:1049000020873048018811408919D531018081887C
:104910001140C918818001891140C91901812136CE
:10492000A680294801881140C91860310180818A18
:1049300019220A4306218A438282A88F2349014013
:1049400000980818A88722480168019A1143042298
:10495000914301601F486866FCBDC046203000409E
:1049600000008888FF00FEFF59055C071FFCFFFF61
:10497000042000400000E0FF09581A00FEE1FFFF9C
:10498000E0E000000809294900000303696A686C37
:10499000031FFFFF70600000E0E0E0E00B0A0A0880
:1049A000201800090010004028130040260A0000CB
:1049B00051080000070F00002F64E0FE101A0601E6
:1049C000001200404412004088120040FF9F000087
:1049D0008010004050015001F8B5642013490E5A70
:1049E000CD4FBC6C304660431249401812495AF70B
:1049F00009FB0546B8843C3666430E4830180E491C
:104A00005AF700FB001D0D49C8602818C01D4861F9
:104A10000B4A1278022A01D111304861FEF70AF9D7
:104A20000849401880B258F779FDF8BDCC8BFC07D7
:104A3000D08CFC0720A1070040420F002064FC0737
:104A4000B4BAFC07E2040000704700000D4801887A
:104A5000890918220A4000888004400F8018704796
:104A600008490A88084B1340F822024092011A4371
:104A70000A800A88054B13404007800C18180880EC
:104A80007047C04654000050FFF90000FFC7000007
:104A900070477047024801884906FCD57047C046F8
:104AA000141100501748018801229143018070477A
:104AB00010B5994B00241C8458639A63998310495C
:104AC00008200860BFF34F8FBFF36F8F0D490A882E
:104AD000022414430C800A88802414430C80197A21
:104AE0004A1E9141C907FF221206074B1C689443D6
:104AF000611819600549086010BDC046D08CFC07DC
:104B000080E100E00411005000E400E000E100E07A
:104B100018B50848016800910099074A009B1A409F
:104B2000FF2424040C40D9B20919044BC9181143BD
:104B3000016018BD8000004000FF00FF0A000A006D
:104B4000F8B527482749FCF7CDFF274E3075FCF70D
:104B50008FFF0446C57A162D0AD860190C303146ED
:104B60006C3106225AF7C8FAAA1DE272B57517E031
:104B70002B20275C192F11D820462B300090E019EC
:104B80002C3031466C3106225AF7B6FAB81D00991E
:104B9000087080203843B0752A4601E000BEE27AF2
:104BA000B274124D28462E3021460C315AF7A4FA21
:104BB0002B20225CF2744D352C34284621465AF7BE
:104BC0009BFAFCF755FF57F730FF00207065042073
:104BD000022158F740F906A05CF79AF8F8BDC046E4
:104BE000DC0500007118FC07D08CFC07488DFC0721
:104BF0004164766572746973696E6720537461727B
:104C00007465640D0A00000010B5044603A05CF74B
:104C10007FF8442C01D1FFF793FF10BD4164766506
:104C200072746973696E6720456E6465640D0A006D
:104C300070B50C460C214143174A55182421695C74
:104C40002435FF291ED0154E7075307DFCF760FFAE
:104C50006088A02809D3C82807D8A088042804D1D0
:104C600019200001E188814208D07D2080000C4994
:104C7000FCF738FF70740BA05CF74AF814A05CF7DF
:104C800047F801E0FFF75CFF2878FF2800D070BDEF
:104C9000FFF756FF70BDC046488DFC07D08CFC075F
:104CA000C93EFC07436F6E6E656374696F6E20507A
:104CB0006172616D6574657273207570646174658D
:104CC00020696E697469617465640D0A00000000F2
:104CD00041707020436F6E6E65637465640D0A00E9
:104CE00010B508A05CF714F8874C607C002803D04E
:104CF000FCF70EFF00206074FFF7B4F8FFF720FF09
:104D000010BDC04641707020446973636F6E6E655C
:104D1000637465640D0A0000D08CFC077CB50C46FA
:104D20004D49884228D04D4988423BD16088801E39
:104D30000221C841062835D87844007940008744CC
:104D40000341373C32465D006D4600262E70A28836
:104D5000A11D28465AF7D0F92878002861D00128EB
:104D600051D16F485BF7D4FF4B2080006D49FCF7B1
:104D7000B9FE6549C8847CBD3948082519462B46CB
:104D800057F738FE21780C224A43364989182422E5
:104D9000895C01706188418000218180802181715E
:104DA00057F743FE7CBDA07901282ED14F4835E04E
:104DB000A07901282BD1514830E0A079012828D1D1
:104DC0004C482BE0A079012825D14E4826E001ADC2
:104DD00000262E70A288A11D28465AF78DF9287842
:104DE00000282BD001280ED149485BF791FFC8203D
:104DF0004849FCF777FE444908857CBDA079012825
:104E00000BD124A00AE0444808E02CA006E03A4870
:104E100004E0374802E03A4800E013A05BF778FF6F
:104E20007CBD394CE08C0028BCD03C485BF770FF5F
:104E30002620205CFCF76CFEE6847CBD324C208D85
:104E40000028AFD031485BF763FF2820205CFCF7D7
:104E50005FFE26857CBDC04604FD00000AFD000003
:104E600005FD0000488DFC0744697361626C656450
:104E7000204E6F74696669636174696F6E73206632
:104E80006F722054656D70657261747572650D0A7C
:104E900000000000456E61626C6564204E6F7469AD
:104EA0006669636174696F6E7320666F7220546502
:104EB0006D70657261747572650D0A004469736185
:104EC000626C6564204E6F74696669636174696FB2
:104ED0006E7320666F7220416363656C65726F6DDF
:104EE0006574657220470D0A00000000FB5BFC073B
:104EF000055DFC07D95CFC07AC5CFC07805CFC072B
:104F0000535CFC07275CFC07D08CFC07885DFC0722
:104F10004E5DFC073920FC07D85BFC076A5DFC0787
:104F2000325DFC07C51DFC070FB47CB50C0009AD54
:104F300001D0611E00E0002101910090074B6A46FC
:104F40002946089800F046F8002C02D0009A00216B
:104F500011707CBC08BC04B0184700002553FC0746
:104F60000FB410B504A9074B02AA039800F032F859
:104F7000044602A9002000F0E0F9204610BC08BC5D
:104F800004B018473B53FC072021020C01D010212C
:104F90001046020A01D010460839020901D0104615
:104FA000091F820801D01046891E420801D0881EC0
:104FB0007047081A704702E008C8121F08C1002A8B
:104FC000FAD170477047002001E001C1121F002A8A
:104FD000FBD17047FFB58FB00546002606E02528B7
:104FE0000AD0129A119990476D1C761C28780028D7
:104FF000F5D1304613B0F0BD002402940121B54A2A
:10500000009400E004436D1C2B780846203B984038
:105010001042F7D128782A280ED00222287801469B
:105020003039092916D802990A23594330394018D2
:1050300014436D1C0290F1E7109802C80291109081
:10504000002904DA01204003044348420290022070
:1050500004436D1C28782E2817D104200443687857
:105060006D1C2A280CD110986D1C02C8009110905C
:105070000BE000990A225143303940186D1C009012
:105080002878014630390929F3D928786C2810D0BE
:1050900006DC4C281AD068280ED06A2817D104E004
:1050A000742813D07A2812D110E00120400504435F
:1050B0000CE00121090501E0032109050C43697891
:1050C000814203D10120000524186D1C6D1C287835
:1050D000692874D006DC00288BD0632827D0642888
:1050E00006D16CE06E2808D073282CD0752878D0B3
:1050F000129A11999047761C5FE06002400F0228D7
:1051000009D003280DD00428109801680DD00E6036
:10511000001D109051E01098F21701680E604A606F
:10512000F6E7109801680E80F2E70E70F0E710982D
:105130006A4601781173001D10900020507303A877
:105140000190012005E0109802C801911090002004
:10515000C04361070CD5002700E07F1C00998F42F7
:105160000FDA8742F9DB0199C95D0029F5D108E022
:10517000002700E07F1C8742FCDB0199C95D002904
:10518000F8D102982146C01B0290129B119A00F0A0
:10519000B3F88019C61907E0019801990078491CF5
:1051A0000191129A119990477F1EF5D22146129BC8
:1051B000119A029800F090F886196D1C16E70A20E3
:1051C0000190109901C910916102490F032900D182
:1051D00000B2042900D140B2002803DA40422D2158
:1051E00003E00DE0210504D52B216A46117301214E
:1051F00003E0E10711D02021F7E70CAF0C9114E098
:105200000A200190109901C910916102490F0329E8
:1052100000D180B2042900D1C0B20021EDE701998C
:1052200059F7F0FE30317F1E39700028F7D104A8FD
:10523000C01B20300190600704D501200004844386
:10524000009801E0012000900199884201DD401A98
:1052500000E00020411800900C9809180298401AAC
:105260000290E00306D42146129B119A029800F0A6
:1052700043F8861900200D9008E003A9085C129AF3
:10528000119990470D98401C761C0D900C998842FE
:10529000F3DBE0030CD52146129B119A029800F033
:1052A0002BF8861904E0129A302011999047761C49
:1052B0000099481E00900029F5DC05E03878129A24
:1052C0007F1C11999047761C0199481E0190002976
:1052D000F4DC6BE709280100F8B5044600251E46FA
:1052E0001746880404D405E039462020B0476D1CD9
:1052F000641EF9D52846F8BDFFB50446002581B0E7
:105300001E46C80301D5302700E02027880404D5B5
:1053100005E038460399B0476D1C641EF9D5284650
:1053200005B0F0BD4A68002A06D00A68531C0B601D
:1053300010704868401E486070470A68531C0B6034
:1053400010707047034880F3098800F025F8FAF7D9
:10535000DFFEC046786CFC0704207146084203D08B
:10536000EFF309800A490847EFF308800849084726
:10537000704704207146084203D0EFF309800549C5
:105380000847EFF30880034908477047FEE700002D
:105390009516FC070516FC071A49888807229043D2
:1053A0008880052000078A89D2070DD00988002946
:1053B0000AD115490A8802854A888284898801842D
:1053C000418A124A0A404282114906220A8001217A
:1053D000CA03104B1A60BFF34F8FBFF36F8F0222C7
:1053E0001A60BFF34F8FBFF36F8F1960BFF34F8FFA
:1053F000BFF36F8F418904229143418100210180D5
:1054000062B6704704030050A000FC077FFE000056
:105410000034005080E100E04F43313C939242E67B
:10542000A876FA3BEFB4875A17B967984C664C01D7
:10543000963331B1915900152368EC521E624474C1
:105440009A1BD18BAB75B66E20EE8D0CE1F04A0C39
:10545000B325DC536A68862D9EE7BA08B9A948AB24
:10546000A1AC031C2E0D296C20EE8D0CE1F04A0C32
:10547000B325DC536A68862C4F43313C939242E655
:10548000A876FA3BEFB48759000000009854FC0757
:10549000888CFC0704000100A054FC0701000000F8
:1054A000FFFF0000A932F20702140000B523FC0739
:1054B000010D0000BD27FC07000D00006127FC075F
:1054C000000E0000ED25FC07010E00001126FC0770
:1054D000030E00007126FC070A0E00009D26FC0743
:1054E0000C0E00005127FC071C0D0000E927FC07EB
:1054F000100D00005927FC070F0E00004127FC0784
:105500002C0E00003927FC07120C0000F127FC07C5
:10551000080E00004927FC075D1BFC077D1BFC07EC
:10552000A519FC07F918FC07F80000000800049012
:105530000000000000000000030005D08B0035F0E3
:1055400010005CF0000010B0000018B000001AB0AD
:10555000030051F0000038B000003AB0000064B021
:10556000000066B0000022B0000024B0010005D0A9
:10557000000000000A00008008030490000004F00E
:10558000030006D0000000000A0000800803049019
:10559000000004F0030006D00000000003280028EB
:1055A00002290129FD000000DC55FC071C00000059
:1055B000C518FC070000000000000000000000000B
:1055C000FF000000000000000000000000000000DC
:1055D0000000000000000000000000009E55FC07D5
:1055E0001000000001000000100010006058FC07CF
:1055F0009C55FC07020000000100000000000000B4
:10560000000000004854FC071000000009000200E0
:105610000100000000000000A255FC07020000008D
:105620000100000011001100BC5DFC079C55FC0747
:105630000200000001000000000000000000000067
:105640001854FC07100000000102000008000000D0
:1056500000000000A055FC07020000000900020045
:105660000200000000000000A255FC07020000003C
:10567000010000000F000F00CE5DFC079C55FC07E9
:105680000200000001000000000000000000000017
:105690002854FC0710000000010200000800000070
:1056A00000000000A055FC070200000009000200F5
:1056B0000200000000000000A255FC0702000000EC
:1056C000010000000F000F00DE5DFC079C55FC0789
:1056D00002000000010000000000000000000000C7
:1056E0003854FC0710000000010200000800000010
:1056F00000000000A055FC070200000009000200A5
:105700000200000000000000A255FC07020000009B
:10571000010000000F000F00EE5DFC079C55FC0728
:105720000200000001000000000000000000000076
:105730005854FC07100000000102000006000000A1
:1057400000000000A055FC07020000000900020054
:105750000200000000000000A255FC07020000004B
:10576000010000000E000E00FE5DFC079E55FC07C8
:105770001000000001000000100010007058FC072D
:105780009C55FC0702000000010000000000000022
:10579000000000006854FC0710000000090002002F
:1057A0000100000000000000A255FC0702000000FC
:1057B0000100000019001900215EFC079C55FC0740
:1057C00002000000010000000000000000000000D6
:1057D0007854FC07100000000102000009000000DE
:1057E00000000000A055FC070200000009000200B4
:1057F0000200000000000000A255FC0702000000AB
:1058000001000000100010000D5EFC071458FC079A
:1058100009000000130C00004B29F207150C0000D2
:10582000F927FC07170C0000572BF207000C0000AB
:105830002328F20706FD00005728F20703FD0000A9
:105840003728F20708FD0000B328F2070EFD00001C
:105850000F29F20705FD00001922FC0700141C02A5
:10586000595A08E4862A9E8FE911BC7C9843421855
:10587000595A08E4862A9E8FE911BC7C7C4642185E
:1058800048004F000800170001000100530001010B
:1058900048004F0008001700010001001F0001012F
:1058A00001000001B509FC0701000002A50AFC0780
:1058B0000000000000000000F4010B00F435234854
:1058C000F40108C4140A0000140000006D19FC075C
:1058D00000000000FF0000000000000000000000C9
:1058E00014000000ED14F207FD0000002126F2076D
:1058F000FF00000000000000C519FC071519FC0797
:10590000545EFC071D4DFC071855FC076A8DFC070B
:1059100000000000898CFC0705000000786CFC0783
:10592000000400003492FC07AC020000288EFC0743
:1059300000040000EC94FC07700500002003000048
:1059400000A60E0004000000D2000000320000009B
:105950003C00000001000000010000000200000007
:105960000200000004000000030000000600000028
:105970000000000002000000020000000000000023
:10598000000000000300000003000000050000000C
:1059900005000000060000000A0000000A000000E8
:1059A000C8000000B80B000002000000B80B0000A7
:1059B000B80B000010000000D4010000CC01000072
:1059C000700200006A0000000400000001000000F6
:1059D000200000000A00000001000000E2040000B6
:1059E0008A020000DC050000AF000000C45BFC0779
:1059F000045AFC07385AFC07CC5BFC07F858FC0734
:105A0000145AFC07A8B8FC07A0B8FC07B8B8FC07F4
:105A1000F8B8FC077664FC07C08BFC07C18BFC0759
:105A2000C48BFC07C88BFC07B14AFC07954AFC07EE
:105A3000B91CFC07851CFC075C58FC075F58FC0779
:105A4000DC55FC079122FC077D44FC071146FC074E
:105A500093DEF007F1DEF007F9DEF00749DFF0072B
:105A600061DFF00777DFF00799DFF00719E3F00750
:105A7000BDE5F007FDE3F0071DE4F0073DE4F007A6
:105A80007BE4F0078BE4F007F5F9F007B1F7F007D6
:105A9000CFF7F007EBF7F00705F8F00719F8F00774
:105AA00097F8F007AFF8F007DFCDF10767D0F107FF
:105AB000DBB9F007CD0DF207B10EF207AD0EF2071C
:105AC000A90EF2078D21F0078141FC07D12BFC07BD
:105AD000112CFC07652CFC075D2CFC07B57EF0073C
:105AE000837DF0072501FC07599EF107634CF10700
:105AF000D941FC07D110F207A541FC07B111F2070B
:105B00004112F2077912F20700000000A122FC07FF
:105B1000A322FC07B9C6F007D592F107B301FC0731
:105B20005F9DF1075F9CF107C504FC07EB72F1076D
:105B3000B922F1076B04F1071522FC072BA4F0072B
