:0200000407FCF7
:100000001C71FC076D56FC078156FC079B56FC07CC
:10001000B556FC07B556FC07B556FC07B556FC07A8
:10002000000000000000000000000000B556FC07C2
:100030000000000000000000B556FC078B17FC070D
:10004000D513FC07E148FC07A526F0078D17FC0730
:10005000B916FC07B556FC079913FC07B556FC0703
:10006000A513FC07B556FC071515FC071F15FC0763
:100070002915FC073315FC073D15FC07B556FC0791
:100080001D18FC07B556FC07B556FC078114FC0784
:10009000B556FC07B556FC07B556FC07B556FC0728
:0800A00000008E070E000000B5
:0200000407FCF7
:100110000348854601F05AF800480047D52DFC07F2
:100120001C71FC07F8B50746012000230246009029
:100130001946032049F766F9044602218030017010
:10014000FF4DFE482A6843881146FF31F7310B8680
:1001500080884886FB48066A0123DB069E431E43CF
:100160000662FF320020FF32383250829082D08205
:100170001D200882F4484884F448C882F448088363
:1001800000204882384649F77DFC01462868FF3048
:10019000F730C28B920992010A43C283ED4841684D
:1001A00000208847002C02D0204648F714FD204646
:1001B000F8BDFFB58BB0064616980027022821D05F
:1001C0000D9801881498814278D371880846403888
:1001D0003F2802D8159855F711FD0C98361D008858
:1001E000149A80190E995EF787FF0C98018814986D
:1001F00008180C9908800D9801881498081A0D9910
:1002000008805CE100200E9D079069782C78090237
:1002100021433180E978AC780902214371808C4612
:10022000403904242D1D024603468E46402900D342
:100230002878614604291FD0052914D0062918D032
:1002400070463F283DD8159855F7D8FC0006000E9B
:1002500004D0C148008D0006C00F30D00223012019
:10026000BE4A002712E0697800290FD0BC4A172344
:100270000CE0BC4A0F2309E0522802D0D22802D059
:1002800002E0142000E01520B74A1F23002A1AD0EC
:10029000984218D2800010580490002813D00020F3
:1002A0000890059070884038402803D328780524AA
:1002B00030716D1C701D00900498B5E0FEE0302791
:1002C000F0E03327EEE07088042872D10627E9E0D9
:1002D000522862D00CDC4B283FD004DC41286AD085
:1002E000422858D111E04C2820D0502853D140E06A
:1002F000632830D004DC572818D061284BD19BE00C
:100300006C2864D0772846D109E0009829780170DC
:100310000098641C401CA4B26D1C009081E00498FD
:10032000401C04900178089881427AD10098A41C5E
:10033000401C41084900881C009068782A78000217
:10034000104308800599AD1CA4B2002969D008901B
:100350000020059065E00120FBE710222946009867
:100360005EF7CAFE009810341030A4B21035009029
:1003700057E0204640301499039088420BD8402221
:10038000294600985EF7B8FE009840300090039828
:10039000403584B245E0342743E0082229460098DE
:1003A0005EF7AAFE009808340830A4B20835009021
:1003B00037E068E0FFE70622294600985EF79CFEDA
:1003C0000098A41D801DA4B2AD1D009029E01498D2
:1003D000001B80B203903088001B001D81B20120F9
:1003E00007900498401C04900098401C400840006E
:1003F00000900498007857281CD04228CBD1009850
:100400000170090A417000982946801C0090039AE7
:100410005EF772FE03980399201884B20098401882
:1004200000900498401C0490007800281ED0002FF3
:1004300017D01BE04908E2E71498001B81B200982E
:100440000391401C40084000009001200A4607909C
:10045000294600985EF750FE0399601884B2009810
:10046000DDE70D990988A14200D331E70D98008896
:10047000A04208D304990978002904D107990029DA
:1004800003D1A04201D034270CE00D99001B088055
:100490000C9801880098801B001F08180C99002FE9
:1004A00008800CD07088042809D0062807D040386E
:1004B000402804D30E984079707100E03427384604
:1004C0000FB0F0BDFFB581B01F4616460C46104672
:1004D0005CF7D6FC00257F2802D02189062909D0A7
:1004E0003B4632462146019855F71BFF05462846F4
:1004F00005B0F0BDC00601D50225F8E72078002838
:10050000F5D1300AA11D42F7A4F8F0E7F1B598B093
:10051000189842F79CFA0446189805210079134A66
:100520004006C00F099068460184618B08460A386E
:10053000904276D2E08A062873D319E030BCFC07DB
:100540004CB9FC07C00000401080000029410000A9
:100550007671000058BFFC0748BEFC073803F2075D
:100560004003F2079C03F207D803F207770C000060
:100570001922D201904254D8228BFF23F5339A429C
:100580004FD8521C9300D2184243521C0A235210D7
:1005900059438A4245DC217F00290CD1617F002923
:1005A00009D1A17F002906D1E17F002903D12021B3
:1005B000095DC90635D0274620377978C906C90EA6
:1005C000491F0C292DD2A18A81422AD8E17C002919
:1005D00027D0421E082A01D9082000E0401E81428F
:1005E0001FD8684646F7F4FA00281AD1FE4D0622B5
:1005F000286221460AA85EF77FFDA8792E46803E34
:1006000000287DD06079800901280BD00AA80999BB
:100610004CF7ADFD010003D03820405C002870D0BD
:100620009BE008E1F06A807A012808D0042806D00F
:100630000AA84CF709FE286200284ED054E0686AE8
:1006400006220AA932305EF77BFD002806D00AA8F0
:100650004CF7FAFD2862002802D012E0686AF9E738
:1006600000210AA84CF706FE2862F16A897A01295E
:1006700005D18B071A6849068A430A431A60002885
:1006800011D0F16A286A0622253010315EF758FD34
:10069000002808D1286AF16A2030C07AC97B8842D4
:1006A00001D1286A1EE0D148D1490088C96880B2CA
:1006B00006225043081842F7CFF9014614A8062233
:1006C00002305EF719FD13AA00213C2042F791FC8D
:1006D0000121B06D47F7B8FEA9E011A90AA84CF7AF
:1006E000C9FD2862002838D00146253106220FA80E
:1006F0005EF702FD286A08AA2030C17A0FA801E03F
:1007000041E024E04CF716FC002812D0286A203083
:10071000C07A002809D16846B649008C4BF77DFBAA
:1007200008AA0121B3484CF705FC68460AA9008CC9
:100730000AE008AA012111A84CF7FCFB00280CD004
:10074000296A6846008C32314BF77DFB05E00A18B8
:10075000527D002A08D010286DDBF06A407A02280A
:1007600006D0032804D00EE0401C1028EFDBF4E78D
:100770006846008C052806D308AA0AA809994CF7F0
:10078000D9FB002857D00022694620464CF77BFC55
:10079000002850D1F06A407A02280BD0032809D0F3
:1007A0000023684602880AA809994CF78DFC0028A6
:1007B00002D02FE00123F4E7E18A68460181218B12
:1007C0004181618B81817878062241096846817573
:1007D0007878C106C90E6846417521460E305EF72D
:1007E0008BFC189800794006C10F68460175038894
:1007F000214602A8B26D47F7CDF90146B06502A8BF
:1008000042F745FC0020B065214668461C3100884F
:1008100046F731FA49F7B0FA734C2034207A0028B1
:1008200005D0002109205CF76EFC00202072002119
:1008300008465CF710FB19B0F0BDF8B56E4C0646E3
:1008400085000F4660594C21095C24290ED140696E
:100850001022791D2E305EF74FFC61592520403162
:10086000087300221146304654F71BFB60594C2197
:10087000095C0C291FD140691022791D2E305EF7CA
:100880003BFC60595F214069095C09072DD4014692
:100890002E3110221E305EF753FC00280CD0605918
:1008A000092140300173304655F718F801460022FF
:1008B000304653F775FEF8BD0421684601706A465C
:1008C0000521304654F716F8684601786020014348
:1008D00068460170304655F701F8014668460278CF
:1008E0000123304653F771FFF8BD304654F7F6FF49
:1008F000012809D0605907214030017300221146B8
:10090000304654F7CEFAF8BD615900204969C0312C
:10091000887160590421426930461E3253F7EAFF5C
:10092000605941694031897F002907D01A21403040
:1009300001730021304654F73EFBF8BD1B214030C7
:100940000173304654F78CFBF8BDF8B52A4C0546C8
:100950008600A0594C22125C192A11D140224D3038
:10096000491D5EF7C9FBA059402224494D305EF76E
:10097000E7FB002805D02149284620395BF74BFDCD
:10098000F8BD0B21684601706A460521284653F7D9
:10099000B1FF68460178602001436846017028462F
:1009A00054F79CFF0146684602780123284653F716
:1009B0000CFFF8BDFFB581B003980C46060A002570
:1009C0005CF75EFA002827D0132825D0142823D0FE
:1009D0000B48B700C0592030407BC00637D503987C
:1009E0005CF74EFA15280DE030BCFC0768B9FC072F
:1009F00060BBFC0750F5F1073CBEFC07FCBDFC07E3
:100A000078BBFC070CD0A07942F714F8304647F7C2
:100A1000AFF8032806D015E0A07942F70BF81FE0E5
:100A200002251DE03248C0592030407B400704D5E4
:100A30003D21304642F7FCFC04E03D2200213046D7
:100A400042F705FD3D21304646F7DAF808E020463A
:100A5000103828490181468120464EF7C3FD012503
:100A6000284645E524485222006864308188C37EC8
:100A70005143224A12688918FF225F32525AFF31CD
:100A8000120AD21A01310B8CD2B2DB0B09D00B8CBB
:100A90005B045B0C0B84002A03D18088184A012177
:100AA00011547047FFB51746140A81B0104A0298D6
:100AB000A100515840780026114D002907D0295D2A
:100AC000002905D0002803D1204643F715FF2E55F5
:100AD0003A46049B0299019844F79FFE08E50A48AC
:100AE000084901600949416070477047704700003C
:100AF00078BBFC070608000084BBFC074CB9FC0768
:100B0000C98BFC070459F007C0000840490C00BF1E
:100B10007FB5E4486B460188428889186A4611808F
:100B200001214C0022181546403DED8F065B52888E
:100B3000AD19AA18491CC9B21A530729F1D38189E2
:100B4000C089081881B2D981D888002821D0188995
:100B5000002820D0988800281FD0588900281ED04F
:100B6000988900281DD0588800281CD000291CD046
:100B7000188800280BD00720062254001C5B8C42EA
:100B800001D22146D0B2521E52B2002AF5DA04B088
:100B900070BD0320FBE70420F9E70220F7E70520FA
:100BA000F5E70620F3E70120F1E70720EFE7F0B5CE
:100BB00095B0EFF310801090012080F31088BA48B0
:100BC000816B4A07520F69460A800A92816B0122A3
:100BD000C908C9008163B5498B8869464B800224E6
:100BE000B24B00219980C16A09078B0F69468B803F
:100BF0000F93C16A0C2399430831C162052109078B
:100C000009880906CB0F6946CB800521090709939E
:100C100009888023194305231B071980A449898A61
:100C20004906CB0F69460B81A1490893898A402365
:100C300019439F4B9982016A09074B0F69464B8103
:100C40000C93036A0E218B4303629B4D99486860A5
:100C5000FF204030A8602888A0432880974841683A
:100C60000B071B0F69468B810B934168090909012A
:100C700008314160416849064B0F6946CB810D93AD
:100C8000416870239943603141608748403801686A
:100C90008904CB0F69460B820293036841140B430E
:100CA00003600168CB07DB0F69464B820E93016836
:100CB0001143016041688903CA0D69468A82039223
:100CC0004168CA05D20D6946CA82049281688903C7
:100CD000CA0D69460A8301928168CA05D20D694628
:100CE0004A8305924168764A11400322D20389184B
:100CF00041604168490A4902FF31413141608168E0
:100D00006F4A11400322D203891881608168490A21
:100D10004902FF3141318160642000F02DF9A8893A
:100D200069468007C00F8883A8892043A8810024D2
:100D3000604F288800260121084328800A2000F0FF
:100D40001BF9FF205F4941303A680A4200D0761C07
:100D5000401E3F1D0004000CF6D1A88A8004FCD17F
:100D60005149886B671CC208D2007807400F0243C4
:100D70008A630A2000F000F960004A49FCB20E5272
:100D8000082CD5D348480A99826BD208D2000A436E
:100D900082636946454A498891800F998A00C16AF1
:100DA0000C2399431143C1620999CA01052109071E
:100DB000098880239943114305221207118008995D
:100DC0008A013B49898A402399431143384A9182D9
:100DD0000C994A00016A0E23994311430162374876
:100DE0000B994268120912010A4342600D99426848
:100DF000090170239A430A434260029841032A483A
:100E00004038006801225203904308432649403984
:100E100008600E9809684908490001432248403893
:100E20000160039842022048403840682449084045
:100E300010431D4A403A506004985268520A5202C8
:100E400002431948403842600198174A4002403A2C
:100E500092680A400243144840388260124905985B
:100E600040398968490A490201430F484038816086
:100E70001098002800D0012080F3108815B0F0BD34
:100E800010B5114C2078002808D0FFF790FEFFF72E
:100E90003FFE0E4908700020207010BD03F00AFBD1
:100EA0000120F9E7A868FC0780100040001200400C
:100EB00020300050A863FC0700350050402000405F
:100EC000FF01FCFFC0C0C0C0DF8CFC07DD8CFC074D
:100ED00010B5FF22154901320A60BFF34F8FBFF3EF
:100EE0006F8F13490A6013490B6840241B0A1B02C9
:100EF00023430B601049898A0021C30700D03521A4
:100F0000830702D57D231B021943430702D57523AE
:100F10001B041943000702D53D2000060143064883
:100F20002038016301488038026010BD80E100E094
:100F300080E200E008E400E0A010004010B50620C8
:100F400000F01AF810BD10B5092000F015F810BD1A
:100F500010B5812000F010F810BD10B5044800F065
:100F60000BF810BD10B5034800F006F810BD0000E6
:100F7000010200000108000000280CD000BF00BFE3
:100F800000BF00BF00BF00BF00BF00BF00BF00BF69
:100F900000BF401EF0D17047F0B5074608465840E4
:100FA00087B0C00F049048000E4659004008490819
:100FB000BC1A884105D2384631461E4617460B46B4
:100FC00002465800400810434CD0300D03904005B5
:100FD0005900400D490D0590401A0290402872DAE0
:100FE00018030121000B09050843019004980092A1
:100FF000002805D0019952420020884100920190BA
:10100000029840210A1A019900985EF7B9F805463E
:101010000C466B4607CB00F0F1F8C0197141039AFA
:101020000E0D0023D71756401A467A40164344D077
:10103000049A002A2DD0029A012A039A15DC12057F
:10104000C01A914101263605001C7141D20F059E40
:10105000D2070093019202962A46234600F0EEF84A
:1010600007B0F0BD38463146FAE71605224A0F466A
:10107000B218C01AB74101210905001C4F410018E0
:101080007F41114618187941E20F10436D196441F0
:1010900013E0E2076D0815436408C2071443039A7E
:1010A00001261205C01A91413605001C7141CE0778
:1010B000400830434908C01851412A46234600F0F1
:1010C000B0F8CDE7FFE7049801224000C117121ADB
:1010D00000238B4104983146C417381AA141EEE72A
:1010E00030B40124E407634030BC55E730B4012438
:1010F000E407614030BC4FE70000E0FFF0B51FB4EB
:1011000088B00B990998002448400999C00F4900FC
:1011100049080991C0070B990090490049080B91B3
:1011200009990898A64608431CD00B990A980843C9
:1011300018D0099801244000420D4800410D09983B
:1011400024050003000B204309900B980003000BBB
:1011500020430B9050181C4940180022019014465F
:10116000104605E0002001460DB0F0BD032801DA6D
:10117000034600E003239C46C11A0AAE0AE05F0062
:1011800008ADED5B4F00F75B7D430027AA187C415B
:10119000491C5B1E6145F2DD410004AB5A5221043B
:1011A000120C0A43240C401C0828DFDB0198029033
:1011B0000099704601910090059B049A0799069842
:1011C00000F03CF8D0E700000DFCFFFF1CB509481B
:1011D00000900948019005460126009C05E0E3685F
:1011E00007CC33430C3C98471034AC42F7D3FEF79E
:1011F00093FF00007063FC07A063FC0710B5202A72
:1012000006DBCB170846203A1041C1170B4306E016
:101210000B461341D0402024A21A9140084319469E
:1012200010BD10B5002B08DA0024401C6141921853
:101230005B411A4301D14008400010BDF0B51FB416
:1012400082B005460C0003D0084604F031F802E0F5
:1012500004F02EF8203002460090214628465DF723
:101260008FFF049B059A04460F4618431143084319
:1012700014D0184610431BD0009840210A1A184673
:10128000059962F7DCF805460E46009A0599049820
:101290005DF776FF084305D0012004E0204639467B
:1012A00007B0F0BD0020C11705430E432C43374360
:1012B00000990E986305401A7905E40A00220C4350
:1012C000FD0A0A3002D500200146E9E701051019A0
:1012D00069410C9C0D9D00196941FFF7A2FFDFE7F2
:1012E00010B5002904DB0C460121C9074042A14189
:1012F000002B04DB1C460123DB075242A341101ADA
:101300008B4101D2012010BD002010BD0EB5C217C7
:10131000C10F5040CA0740180021054B02930192AB
:1013200000910A460B46FFF789FF03B000BD00009D
:10133000330400000EB505490291002100910A46D0
:101340000B460191FFF77AFF03B000BD33040000A4
:1013500070B5CD0F4A0009030123090B1B05194382
:101360000B4BED070024520D9A4201DA002070BDAC
:10137000074B34339A4203DC9A1A62F760F802E0B2
:101380000449511888402C43F1D0404270BD000000
:10139000FF030000CDFBFFFF0148012101807047E2
:1013A0000E1500500A48011F0988CA0706D0028896
:1013B00007239A432E4B5B7B13430380490706D5D3
:1013C0000188072291432A4A127C0A43028070470F
:1013D000B8100040B0B50520000701883022114345
:1013E0000180038803210B430380204B1C88640782
:1013F000FCD403889343038003888B4303801C4CF5
:10140000E38C4380238D9D1E1A4B5D8007251D8034
:1014100005881543058005880D4305801D886D07E7
:10142000FCD403889343038002888A430280428964
:10143000920702D042898A434281018980220A436D
:101440000281018A042291430182818A8907FCD5A5
:1014500040F767FF206C08490860084801684907A1
:1014600000D500BE01684907FCD5B0BD0833005067
:10147000D08CFC070016005008020040100000400D
:10148000FEB51F48058801200190C0040290002489
:101490001C4E1D4F002D32D0042C30D2E80729D02D
:1014A000B889000605D438897989401A41424141FA
:1014B00000E000210198A040114A50803889029A2A
:1014C000124B1A60BFF34F8FBFF36F8F002907D005
:1014D000B989019A9143B981B98908229143B981A7
:1014E0003268002A03D0411C706889B29047029884
:1014F00007490860103708366D08641CCAE7FEBD4E
:1015000082360050388CFC070036005080E100E045
:1015100000E100E080B50A2000F068F880BD80B5E9
:101520000B2000F063F880BD80B50C2000F05EF861
:1015300080BD80B50D2000F059F880BD80B50E202B
:1015400000F054F880BD0000FEB5019302920C46F5
:1015500006460120002132465DF712FE07460D4681
:10156000E249C868284089683940014300D100BE7B
:101570000198002803D0304600F014F802E030460D
:1015800000F022F8D949C8682840896839400143E9
:1015900000D100BE02980443700001494452FEBDD0
:1015A0000630005010B50446D0498868C968224604
:1015B00061F745FFC00700D100BE0120A0400149EE
:1015C000088010BD0230005010B50446C749886835
:1015D000C968224661F733FFC00700D100BE012071
:1015E000A0400149088010BD04300050F0B503460A
:1015F0000A3B01210A469A4093B20B4D5C19661CC6
:101600005E400A4B1C8800272E4203D07F1C7608C0
:10161000B6B2F9E79443BAB20D46954025431D8012
:10162000814052480160F0BDFEFF01000E140050E1
:10163000F8B5044601273E0205200507688DC00560
:1016400006D51B2003F0A0FB4A48018839430180DE
:101650008036288840013040698A474A0A40024360
:101660006A8221681348016061684160A1688160F5
:10167000E168C1602169016161694161A1698161BC
:10168000E169C16104623E490A6842624A68826255
:101690008A68C2624A690263CA68426309698163EF
:1016A000334808210180A88AC00600D4FEE700BEA6
:1016B000F8BDC0460090FC07024800882B48102166
:1016C000016070472C130050F8B50446052005074B
:1016D000288A042101432982288940210143298144
:1016E0002248012707602248082101803E02688DB8
:1016F000C00506D51B2003F047FB1E48018839436F
:1017000001808036288840013040698A1A4A0A40A0
:1017100002436A8221681948016061684160A168DA
:101720008160E168C1602169016161694161A1690C
:101730008161E169C161046211490A6842624A68D3
:1017400082628A68C2624A690263CA68426309693E
:101750008163A88AC00600D4FEE700BE688A0949F2
:1017600008404018001D6882F8BDC04680E200E0D5
:1017700000330050800000507FFE00005090FC07B6
:1017800028ED00E0FC7F00007047704770B5214CE9
:10179000D94D214EA1880F200840022809D00428E5
:1017A00004D00C2820D00128F4D132E003F00EFB45
:1017B000F0E72A8CA88C90421DD2A96B9042E9D206
:1017C000A288C0231340C02B03D13288920703D4D0
:1017D000E0E7228A9206DDD5421CAA84085C221F1B
:1017E00010802A8CA88CE9E703F0F0FA2088012108
:1017F00088432080CEE720880221884320802088EB
:10180000802188432080E96B0029C3D0288C884739
:10181000C0E770BD041100507C110050052108077D
:10182000028830239A430280028803239A4302806D
:10183000828812050DD5184A13880B40052B08D154
:1018400010880421014311801088012188431080F1
:1018500070478188C90606D510498A88D20702D008
:101860000A88120610D48088C0060CD50B488188DF
:10187000890708D50188C90505D50221818001881D
:10188000074A0A4002807047012088800888802229
:10189000904308807047C04600020050000100508D
:1018A000FFFE0000F8B51820934F38560F4C254620
:1018B0002E354D340028294600DA21467F2210407B
:1018C0000E1802F0EFFB39466C31062230465DF708
:1018D00013FCBB7D797D2846224661F72DFE044826
:1018E000044900F017F9F875F8BDC046488DFC07AB
:1018F000DC050000A518FC0770B535480921042453
:10190000182322465BF776F805461B202870FD2633
:10191000304661F7C1FE0021A982E96029616C604F
:101920006E80687028465BF780F870BD1FB514465E
:10193000002202920192069A00921A46234661F70B
:10194000D7FC04B010BD000010B5E648817C114AF8
:10195000CCB20C236343D45CFF2C06D0D318491CB3
:1019600081745B68002BF3D00DE0C17C0A4ACCB2D5
:101970001C236343D45CFF2C08D0D318491CC174CA
:10198000DB68002BF3D09847002010BD0021418276
:10199000012010BDD45CFC07B059FC0770B50C48A1
:1019A000092104240A2322465BF724F805461B205C
:1019B00028701426304661F76FFEFF2174312981AB
:1019C0006C606E80687028465BF72FF870BDC0466B
:1019D0001B0D00001FB5144601220292044A019219
:1019E000069A00921A46234661F782FC04B010BDA5
:1019F000B458FC07F8B5CD4FF86D00283FD1224808
:101A0000092104222C235AF7F5FF0446F865172014
:101A100020841E4820800120A07600256580204675
:101A20000A3010215DF781FB201D00901848461DEB
:101A30001849062230465DF783FB002801D000BE1E
:101A400004E03E466636304600F0D6FC062200989A
:101A500031465DF751FB6584E583A5832020E07660
:101A60007E210D48415AFB2900D3FB21E1848021CE
:101A7000405A0A49884200D308462085F86D5AF733
:101A8000D4FF0020F865F8BD040D0000030A000033
:101A90004463FC07DCF1F107B0BBFC074808000019
:101AA00070B5154D686D002800D070BD1348092130
:101AB000042252235AF79EFF0446686507202072CD
:101AC0000F48E080A0800D2020800026A6721622FC
:101AD000E2720120607220460C300A495DF70CFB6F
:101AE0002B20265420462B302C34082106A32246D6
:101AF00061F710FD686D70BDD08CFC070D0D000006
:101B00004C040000D462FC07444C472D505250480E
:101B100000000000B0B5024663482430002423468C
:101B20000A2B0BD00568002D02D0001D5B1CF7E7C7
:101B300001605C1CE0B2114600F0D6FBE0B2B0BD23
:101B4000F8B50446401E09281BD8A000564947187E
:101B5000386A002817D0564DA84214D02037504874
:101B60002018401C042631465BF7CDFA3D6008235F
:101B70004B48314632465AF73DFF04705AF755FF3D
:101B8000F8BD00BEF8BD00BEF8BDC0461FB5144686
:101B90000D220292044A0192069A00921A462346A6
:101BA00061F7A6FB04B010BDBC58FC0710B50C468D
:101BB0003949884233D0394A90421DD03849884249
:101BC0003ED12078401E09285AD88000364908188E
:101BD000416A374A914255D03448814257D12F4803
:101BE000042108230A465AF705FF2178017061682D
:101BF00041605AF71AFF4AE02078411ECAB2092A0A
:101C00003CD88900284A51184A6A284B9A423ED14A
:101C1000CA6C24310A60616800F066FB37E06268D4
:101C2000002A01D100BE62681E48824201D300BE74
:101C3000626820781949401804215BF71AFA26E0F7
:101C4000531C0121984225D30A32904222D8C1B2B6
:101C5000091F8900144A5218516A002917D0134BE2
:101C6000994214D0124B994211D013462433C01E0E
:101C700000241C60D464C0B2884708E000BE06E0BF
:101C800000BE04E00146243100220A60C2640298CA
:101C900000210170084610BD01040000030400008B
:101CA00002040000FDFF3F00B48DFC07BB4DFC07A4
:101CB000B94DFC074F488178491C81700178002993
:101CC00000D070471A490023CB701A490A780B706C
:101CD000012A01D0012100E00221022A00D10321C2
:101CE00001707047D08CFC07F0488178002904D03F
:101CF000491E8170090600D070474178002904D040
:101D0000002242700322114003E001780029F3D041
:101D1000491E00220270481EC0B20128ECD80448B7
:101D20000122C270034801707047C046D08CFC0786
:101D300054BAFC07B4BAFC07B0B50C460025202DF8
:101D400004D040F7DCFD60556D1CF8E70020B0BD05
:101D500010B504460548064970225DF7CDF90548DF
:101D6000001B054908801430488010BD70A0FC0796
:101D70003859FC07B8A0FFFF78A0FC0710B507484A
:101D80000188074A1368114C234059181160408894
:101D9000516821400818506010BDC04618300040FE
:101DA0008CA0FC0710B507480188074A1368074C48
:101DB000234059181160408851682140081850602C
:101DC00010BDC0463830004098A0FC070000FFFF5F
:101DD00007481E214180018803220A4302800188AE
:101DE00004220A430280B1480121C1707047C046F5
:101DF00000160050D08CFC07F0B591B0A449C8681B
:101E00008868400600D400BEA248402104910180A9
:101E1000A14800F07BFE0CA8A049018010AFA049AA
:101E200039800FAA0B929F4911800EAE02252946D8
:101E300032462B469C4CA0473846294632462B4614
:101E4000994FB8470B98294632462B46B8470FA8FA
:101E500032210170012110AE00230A9132460B930A
:101E6000B8470CA806210891324600F0E1FE052093
:101E70000790C0438D4C002817D00CA909188A7907
:101E8000CB791B029A1812B20323534322187826E7
:101E9000965D7927D25D1202921912B29A18930AAE
:101EA000CB7192088A71801CE5E7204672300CAF36
:101EB00003973946089A5DF71FF90B98385E06902C
:101EC0007C5F019404203E5E02960746099010A8AC
:101ED0002D2101800FAA29462B4600F0D9FE00F0E3
:101EE0000DFF73A0069D2946224633465EF706FF86
:101EF000FD200590744988470146EA480E26734C38
:101F00003A4633460096A04707466848407E3870F8
:101F10000A9878700798788008200790B88028463B
:101F2000FFF7F4F96A4A6B4BFFF7E8F8FFF710FA8E
:101F30000246574C2046103006906749674B984739
:101F4000206961697981F880090CB981000C3881B8
:101F50006349384688470B9820616061059D284693
:101F6000594988470146CF48099A3346574EB047EA
:101F700006464E48407E30700A9F77700920708078
:101F80000798B0800198FFF7C1F9514A514BFFF70C
:101F9000B5F8FFF7DDF9024606984F494F4B9847D1
:101FA000206961697181F080090CB181000C308178
:101FB00030464B49884720463C4C0B9901614161B2
:101FC0002846414988470146B648099A009B3F4D3B
:101FD000A8470646607E307077700D2070800798A5
:101FE000B0800298FFF792F9394A3A4BFFF786F82A
:101FF000FFF7AEF9024606983749384B9847244D0B
:10200000286969697181F080090CB181000C308107
:102010003046334FB8470B9C2C616C6105982A49B8
:10202000884701460C239F48099E3246274DA84702
:1020300005461E480446407E28700A9868701120A4
:102040006880089AAA80A81D03995DF755F828466C
:10205000B84730465AF714FF032805D14B208000BB
:102060002149FFF757FD07E01E485EF751FE2A2081
:10207000205CFFF765FD0B9860850549C868886896
:10208000400600D400BE03480499418011B0F0BD61
:10209000488DFC07023000508C5CFC072D080000C6
:1020A000310B00002C0A0000912CFC07D08CFC079F
:1020B000583A2025642C20593A2025642C205A3A7D
:1020C0002025640D0A000000C727F007F5C9F107B5
:1020D0003333333333330F40B462FC078952FC0788
:1020E0002BCAF107B261FC07F91DFC07F0B58FB0F0
:1020F000FD2040F768FB01466A4804220F235AF787
:1021000079FC07906849C8688868400600D400BE1A
:102110006648402208920280084618300024069043
:1021200004728C61CC61624800F0F0FC0EA88470EF
:10213000447001210A9101700BAA148003270597AE
:1021400002255C4E39462B46B0470DA84770082142
:10215000099101700CAA049529462B46B0470EAF91
:10216000052038700DAE348038460A993246234631
:10217000504DA8473846049D2946324600F058FD88
:102180007E783F780EA884700A99417001700DAA7C
:1021900005992B46474DA847099D3D403807000D3E
:1021A0008019FFF7C7F8444B2246FEF7A7FF064603
:1021B0000F46424B09942246FEF7EEFE2A46002DBA
:1021C00000D00646002A00D00F4630463946099A0C
:1021D0001346FFF785F8049030463946FFF7B8F804
:1021E0000590FFF793F805460C46304639462A46D7
:1021F0002346FEF775FF029003912846214632469A
:102200003B46FEF76DFF049A002A00D10298002A8F
:1022100000D103992A4B099AFEF770FFFFF798F84F
:10222000044600F06BFD27A0059E314622465EF76E
:1022300065FD0094092527A2069F384629463346A6
:1022400003F006F8079CA580192060800A98000218
:102250002080A01D39462A465CF74EFF20465AF7DB
:10226000E4FB04205AF70CFE032804D1C8201D49C2
:10227000FFF750FC08E019485EF74AFD2C2018498A
:10228000085CFFF75DFC0998154988850649C86810
:102290008868400600D400BE0448089941800FB009
:1022A000F0BDC04606FD0000488DFC07023000501E
:1022B0009C5CFC07912CFC070000B03F000070C044
:1022C0000088C34054656D703A2025642E25640D46
:1022D0000A00000025642E2530346400F761FC07F5
:1022E000D08CFC07ED20FC0770B50C46054619495B
:1022F0000888000618480ED5184A126812040AD435
:10230000174A1288D20706D14019801C04212246A0
:102310005AF7AFFE70BDEFF31083012282F31088ED
:102320000988090603D40F490E8816430E80002B36
:1023300002D082F3108802E0002181F3108804218A
:1023400008230A465AF756FB446005705AF76DFB9E
:1023500070BDC0460800005001040000300000407D
:1023600054BAFC07083300507047000070B514469B
:102370000D4610465AF784FD01282ED12878010217
:102380000831AA791648002A0CD089B206232246C1
:102390005AF730FB0646A87860F748F83080A879ED
:1023A000307113E0AA8889B2921D93B222465AF77F
:1023B00021FB0646A87860F739F80021317130809A
:1023C000AA887280701DE91D5CF796FE30465AF7A8
:1023D0002CFB002120465AF73EFD002070BDC04670
:1023E000140C0000FD2801D0002070470048704701
:1023F000B059FC077047704710B5044640793F2834
:102400000FD840F77CFA2070010EE170010CA1702A
:10241000000A607040F773FA2071000AC02101437E
:10242000617110BD80B502F01FFD80BD1C49498C53
:102430000180704780B51A490A780270401C491C17
:102440005CF75AFE80BDC0467D21C180002181809D
:102450001021418008210180704780B561F730F874
:10246000002801D002F000FD80BD000010B50C4630
:10247000017801290BD000290ED1428808490A7041
:102480004B1C011DD2B218465CF736FE02E04088B4
:1024900003494884002000E04820207010BDC04659
:1024A000B48DFC07002088804880012008707047A8
:1024B00080B55EF761FD80BDF8B56946C870020A57
:1024C0008A70020C4A70000E087008465EF73CFDE8
:1024D0008FBD000080B5994800210160FEF738FDEE
:1024E000944800781F214901914A13688B43C00624
:1024F000800DC018106080BD80B58F48022101702A
:10250000FEF71CFD80BDC046F8B51F460C46087896
:1025100008281CD80725002100911AA678440079C4
:102520004000874419040C0406060F0912001A4ED5
:1025300012E00D25174E0FE0062514A60CE00A2523
:1025400016A609E008251AA606E017A604E000BEB4
:102550000026012000903546AB1C184839465AF732
:1025600049FA0746207838707D700098002804D119
:10257000B81C31462A465CF7BFFD38465AF755FA73
:102580000020F8BD52656E6573617300FFEEDDCC0F
:10259000BBAA00004462FC073C62FC07312E302ECF
:1025A000302E302D4C45000001D200800500010086
:1025B000123456FFFE9ABCDE000000000314000037
:1025C000F0B50A79530140241C40130180251D40B9
:1025D0001609360275192C19D200202515406219EA
:1025E00010241C4012190B785B0008241C4012199F
:1025F00006241C401219CB79DB079B0C4C7965082B
:10260000ED07ED0CEB18E407240D1B191343838130
:102610008A790F2A43D0354A82180423DA41931E5F
:10262000022B1BD3012A3AD8EFF31083012282F345
:1026300010888D792E4C2688F6B23609B54203D122
:102640002688F0273743278026880F27BE432E434E
:102650002680002B1CD082F3108820E0EFF310833B
:10266000012282F31088224C27880F2637408D796B
:10267000AF4202D12788374327802688F027BE4300
:102680002D0135432580002B06D082F3108806E00B
:10269000002282F3108802E0002282F310888A6808
:1026A0000280120C4280CA688280120CC2800A8AA0
:1026B000521E42814A88002A00D10A8A43083824DF
:1026C0001C404B690B4D2B51521E02812819896900
:1026D0004160FF20000608490A6882430120C307C1
:1026E000D2180A60C00405490860F0BD00CAFFAFF7
:1026F00080360050388CFC0710E400E000E100E078
:1027000080B50B4801688905C90E0A4A11701F215E
:10271000490102688A4302600748012101700748A5
:10272000016803220A430260FEF712FC80BDC04626
:102730004C120040A063FC0706100040AC100040A3
:1027400010B50C78012C03D0092C09D04C7802E08C
:102750004C78432C02D0002C00D000BE02F072FC5A
:10276000002010BDF8B51D4610460C465AF788FBF0
:10277000022824D12D0A00D000BE0C2068431B493A
:102780000F182237BD70FF2D14D00126FE700420D3
:1027900003215AF760FB20883880607A3871781DF1
:1027A00021460A3106225CF7A7FC00212846324662
:1027B00060F79AFE2846214602F0CEFB00E000BEFC
:1027C0000020F8BD10B51C4610465AF759FB0328E7
:1027D00009D1200A0C21414304484018FF2181847B
:1027E00002F012FC00E000BE002010BD488DFC0786
:1027F000F0B589B01D461446087802282CD001286F
:102800001FD000283AD101AE202130465CF78DFC64
:102810001D480778411C30463A465CF76DFC3B4644
:102820000A331848294622465AF7E4F804464780F6
:1028300000202070201D31463A465CF75DFC2046A2
:102840001AE01148468C0F480A23294622465AF7B7
:10285000D1F8468001210EE00A480A232946224683
:102860005AF7C8F87D2101810021C18010218180A3
:1028700008214180022101705AF7D7F8002009B0E1
:10288000F0BDC0460B0E0000B48DFC0780B560F7AC
:10289000D3FC80BD80B560F7AFFC80BD80B560F72C
:1028A000E6FC80BD80B560F76DFC80BD80B560F74B
:1028B000E9FB80BDB0B50C78641E122C1ED8C04652
:1028C0007C4424796400A7440B19101919191919AB
:1028D0001919190915090919090909000020B0BDBC
:1028E000487800280DD000BEF8E7487800280BD0C3
:1028F00000BEF3E7487802F01BFBEFE702F0A2FB13
:10290000ECE7FFF777F8E9E7FFF7A7FDE6E7000058
:1029100010B510465AF7B4FA002801D000BE09E0FD
:10292000054809210422012423465AF763F804705C
:102930005AF77BF8002010BD020D000080B560F74B
:1029400042FC80BD80B560F784FC80BDF0B589B0E5
:10295000039316460C46FD205EF74AFC02900028C1
:1029600000D100BE08A900270F7020885FF76CFD1A
:1029700005466088002800D000BE002D78D1FD20DB
:10298000FFF730FD002800D100BE0399090A00912D
:1029900008A90A7814215143436859180B79022B6E
:1029A00024D109680988394B99421FD1002005902C
:1029B000049020885FF7E3FC002800D100BE07A93F
:1029C000002204AB4EF7D0FA0120400207990140E3
:1029D000480A21465FF7BEFCC5B2002D29D1E28826
:1029E00008A8017800985FF790FE22E001968669BA
:1029F000002E3D4606D0A5886188A31D10462A46B4
:102A0000B047054605970497208804A94EF727F894
:102A1000002D019E0DD108200499085E002807D4DE
:102A20006288A1882088A31D4EF783F8054600E040
:102A30000025002D1CD10298009F39465EF7F6FB59
:102A40000146A088801D83B21148324659F7D2FF53
:102A50000546801DA288A11D5CF74EFB08A80078E2
:102A60006880A088A8802F70284659F7DEFF0025CF
:102A7000084804230399324659F7BCFF8570218822
:102A8000018059F7D2FF002009B0F0BD02290000F3
:102A90000AFD0000160C000070B5EFF3108501244C
:102AA00084F3108805200607708DC00507D502F055
:102AB00061F9114908701148008820404870308839
:102AC0008021014331800E48016807229143016053
:102AD00041684907FCD53188090600D400BE094980
:102AE000016109494161002D02D084F3108870BD55
:102AF000002080F3108870BDB868FC07800000508B
:102B00000000F4070F009909090404A4F8B5EFF3D5
:102B10001082012181F31088804B1D8820242543D9
:102B20001D80002A02D081F3108802E0002282F387
:102B30001088794A13888B4313801388DB07FCD1F4
:102B4000384B00251D8605889D8245881D83858814
:102B50009D83C5881D841D880626B543467A760068
:102B60002E431E80857B002D00D100BEC57B002D2D
:102B700000D100BE1F25ED439E8F2E40877B7F1E18
:102B800037439F871E8F2E40C57B6D1E35431D87A3
:102B90003F25AD02867A012E0FD1868900961F88C7
:102BA0000F431F801F8840263E431E801F88A74377
:102BB000C47A012C15D1204614E084891E888E43E6
:102BC0001E801E884027BE431E801E880827BE43E5
:102BD000C07AC000304318801889284020431881EB
:102BE0000FE0007AC0B2400107431F80188810260A
:102BF000B043240104431C8098882840009C204353
:102C000098801088084310801088C007FCD00648C0
:102C1000016880220A437F218A4302600348102111
:102C20000160F8BD0013005004E400E000E100E0A2
:102C3000F8B500920022304D144C174616468F42CC
:102C40001DD28E420ED2A38B9B070BD5761C8E42D3
:102C500001D0012300E003231B022B80F1E72B8826
:102C6000C3557F1C8F4204D2A38C9B06F7D1BFB201
:102C700000E00F46A38D002BE1D0208800E0134632
:102C80000098002800D00380F8BDC04654130050BF
:102C9000FCB501925A0000931A4302251540002604
:102CA000144C154B0F0416D0491E2788BF07FCD5BE
:102CB0008AB257425741002D01D12F4600E07F02D2
:102CC000825D3A431A80761C278A002FEAD01C3C8A
:102CD000208801990AE000270098C007019905D0D3
:102CE00020884007FCD520888006FCD4002900D02D
:102CF0000F80FCBD7013005010130050064801886F
:102D00000122914301800188C907FCD10348018851
:102D100020229143018070476C1300500400005042
:102D200070B5174EB06800F02DF827494A6C0023A3
:102D30004B641518084C284621465CF763F970610E
:102D400006494143481901D0201A80B230613068E9
:102D500008210143316070BD710200008FFDFFFF4B
:102D600080B506480021016001F03CFF0120C0074A
:102D700003490A6882430A6080BDC046A8B9FC07BF
:102D80003000004080B50246C00B09D00E48006DEF
:102D900000210B465CF760F98905800A401880BD68
:102DA0000948006D4243900A80BDC04680B5FFF7D8
:102DB000E9FF80BD80B50449896C41430348081888
:102DC00003495CF71FF980BDD08CFC0720A10700E8
:102DD00040420F0000B59FB0B649C8230B800020C9
:102DE0004880B54908250D80B44C1C901C980028DB
:102DF00011DC00201E901E991C980B2909DC302143
:102E0000414360181E998900002242501E98401CC0
:102E1000F0E7401CE9E71095159361690020C34372
:102E2000012200291A92154600D01D466A01A44FBE
:102E3000BE6816432A46FD68BE601892D60E002969
:102E40001F4600D10F467901891929439C4AD16058
:102E5000616800291A9F00D01F46FD0F00291E46F9
:102E600000D10E4671004919954DEA680A43A968D8
:102E7000EA607A000A43AA60216900291A9A00D000
:102E80001A461992150F00291E4600D10E461797B3
:102E9000310149198A4EF2680A43B168F260199A01
:102EA00012010A43B260216800291D4600D10D4677
:102EB000F2682A43B568F26000291A9F00D01F46C5
:102EC0003D43B560E568002D1A9900D019464E0FB4
:102ED000002D1A4600D12A46D2009219784EF56884
:102EE0001543B268F560CD001543B5602760179AA9
:102EF0006260E1601999216118996161256A002D6C
:102F00001A9900D019460A02B76817433246F66884
:102F100097600F0E002D1A4600D12A461202D219D0
:102F20003243674EF2602162656A002D1A9900D023
:102F300019464A02B76817433246F6689760CF0DC4
:102F4000002D1A4600D12A465202D21932435C4F54
:102F5000FA606162A169002900D01A931A9DAA0142
:102F6000BE681643FA68BE60AE0E002900D10B465B
:102F7000990189191143524DE9601A99A161E860DC
:102F8000A8601C901C98002834DC00201E901E981D
:102F90000B282CDC1E981C990B2828D830201C9953
:102FA000414361181E9A92008958491C00D100BE05
:102FB0001C99414361181E9A92008958002913D028
:102FC0001C99484320181E9989004058C1171E9A21
:102FD0005CF7D6F81C9A12015CF7D2F8EA680A434B
:102FE000A968EA600143A9601E98401CCEE71C98BE
:102FF000401CC6E7A24E30881BAC20802088C0460B
:10300000C04620880422D14308421A9202D00020F0
:10301000308003E0B08901218843B081109CB08BDF
:103020009849014007201490C0020818B083964FB9
:10303000388820433880F88D06229043F88533463F
:103040000126B003998B0143998338888F49014049
:10305000398078880D921043A043788005200E9027
:103060000407618D0F2001900202F88D90437D22AC
:10307000D200C9058649874D049223D40321490211
:103080000843F885681CF98D0143F985988B1099E0
:1030900088439883988B04218843988378887E4955
:1030A00001407980F88D3043F8851A9D608D400786
:1030B000FCD51EE00031005002330050A08CFC070C
:1030C000488DFC0710181830F885F88D0840F1037A
:1030D0004018F885988B109908439883988B1A9D0F
:1030E000A8439883F88DB043F885988B4021884396
:1030F0009883300212906249888B03220392104316
:10310000888338882022104340231393DB431840E0
:103110003880088C1692104318400884E08A802179
:103120000C9108431840E082208EFF210B918843C8
:103130002086208F284318210A9188432087208FDA
:10314000A02101430F931940218754480580A0888E
:1031500053490140A180300452490860FFF79CFCAC
:10316000514A1068149908401CA908700878022870
:103170001FD0608D1299084212D001F0FBFD0A2881
:1031800002D80B2001F000FE3F48C08DC007464A20
:1031900006D13D49C88D3043C885608D4007FCD5B8
:1031A0001068022101430E98814311605068400766
:1031B000FCD53E480068C1B20C20AA29014600D0C7
:1031C00029462288824388182080C046C046384855
:1031D0000068384909886823374D00220992119305
:1031E000EA52364F3A466032918038660120179095
:1031F000C046C0463248001F00683249884200D0AD
:1032000053E101980507042000210891049E1895B8
:1032100003462B4A1118081FEC32904200D347E1B5
:103220001A9300681E901E9B2B40092005071E9ACA
:10323000AB425AD11E9B1E0AF3B21993D2B2531E4F
:10324000162B00D9F4E05B007B449B885B009F4415
:1032500009010901EF000901EF003B00B300EF0095
:10326000EF00EF00EF00EF00EF00EF00EF00EF00E6
:10327000C6009500DB008E00EF00E900A900C04603
:1032800004030050FFC3000052000050FFBF0000C5
:10329000FF0F0000FFEF0000FFF9000000020050E8
:1032A000FFF7000080E200E00000F407D07FF8079D
:1032B000D47FF807D87FF807CC8BFC07D08CFC07AD
:1032C000D47EF807A5A5A5A5BC4D119FE85DC0005B
:1032D0002818199A92005BF70FFFE85D8019E855EE
:1032E000C0B2052879D300BE77E0900F11D01E98A8
:1032F000B34988420DD81A9B184608302146283118
:103300001E9A8A42189D27D1AE495958AE4A11805B
:103310007EE71E98189D284014990907884205D118
:103320000020C046C0461A98001D71E71E9828402C
:103330001799C90788421A9A0CD01E9828400E99EE
:103340004907884206D01E982840039949078842B9
:1033500000D099E0101D5BE7A11C1E9A8A4200D0A4
:1033600088E0984959586622944B995250E79548FD
:103370001A9908586221914A505273E0914A1A9B57
:10338000995848439A58120C801A00B2C0085A2320
:103390008A4DE852501A81088C4A11400818401C86
:1033A00058212FE087481A9908586421834A5052BF
:1033B000000457D100BE55E06925804F785DC000FC
:1033C00038181030199A92005BF796FE785D8019D4
:1033D0007855C0B20D2800D300BE7D4F42E0794A37
:1033E0001A9B995848439A58120C801A00B2C00888
:1033F0005623724DE852501A8108744A1140081839
:10340000401C542168522DE0089DA8001CAA1018E9
:10341000199EB2005BF770FE75190895032D21D334
:1034200000BE1FE067481A9908586449086519E00A
:103430001E2A17D119984008020613D00B684A6853
:10344000083100252E460836382E08D05B4F7D19EE
:103450002D699D423546F6D1584B9B19DA60401EC6
:103460005B4FE9E7199880001A990818001D049E1F
:10347000189DCDE6214624311E9A8A420AD151492F
:103480005958514A5180C3E61E98401C10D000BEC6
:103490001046BDE6214620311E9A8A4200D0B7E68A
:1034A00048495958484A9180B2E666202E5A36E07B
:1034B0005C201C99414D295209201D9948430A0C52
:1034C000801A00B2C0086023E852501A81083F4AAF
:1034D00011400818401C5E216852119AA85CC1076F
:1034E00001D000BEA85C4008A8546920295CCA0726
:1034F00001D000BE295C490829546420295A0029BA
:1035000000D12E5266202E5A002E08D1314909686A
:10351000C9B2AA290C9E00D06E2628490E52FE84FC
:10352000A08C179DA843A0840D20FDF725FD608980
:103530002843022111918843608160894006FCD5AF
:1035400066800498FDF718FD6089039988436081BF
:1035500060890006FCD57F2038711E4880691E49AD
:103560008860EFF31086179D85F3108820880C99EA
:103570000843208019490868149A904308604868F5
:103580004007FCD5164808611648486120880C9908
:1035900088432080608D129908420AD00E4F3878F7
:1035A00001F0F2FB10497878002802D1C88DA843B9
:1035B000C885002E1AD085F310881AE0CC8BFC0742
:1035C0004C420050D47EF807A000FC07FF3F0000EB
:1035D000D08CFC07D07FF807B868FC070000F40720
:1035E0000F009909090404A452000050002080F340
:1035F00010880E9E099BD7480068D749884200D0A2
:10360000C6E0D648D6495BF790FD14980102D5482C
:103610005BF78BFDFDF76AFAD348D4490160D448C3
:10362000D44930273A465BF767FDD3480025C5717A
:10363000857145710571C570857045703F21189180
:103640000170CE48CEA1139A5BF756FDDC48057099
:10365000DC48DD490160DD48DD490160DD49DE48C7
:103660000860DE480A210170DD481A950570DD48C2
:1036700032210E910170DC480660DC48179D056020
:10368000DB480660DB480D990160DB481499016056
:10369000DA48109E066028020090801DD849086014
:1036A000D8490860D848AD49016000F059FD20892B
:1036B0000297B843208120890C99084320812089F2
:1036C00030432081208CA843208460890A99884354
:1036D00060812089139908432081208A042188432E
:1036E0002082A08A8007FCD5E08CC84908400B21C5
:1036F00009020143E184E08C179A1043E084608959
:103700001099084310210D9188436081608C90438B
:1037100060842089139988432081BD4837309507FC
:1037200029680140296018984002BA4B1968814302
:10373000500308181860B848401C19680143196004
:103740008448006884498842B44F19953CD0AE48FB
:103750000068B0498860B24A90681071010ED1715A
:10376000010C9171000A50710098C030AD490A46B1
:10377000002817D0401E435C16783546039F3D4015
:10378000A74F7D192D795D4075401570521CEFE7EC
:10379000A548A4497202934200D932E71A585A50F8
:1037A0001B1DF7E79E4D28359E491C2228465DF7D4
:1037B00037FC0028994F00D000BE28465DF7C4FBB7
:1037C000644865490160199D8F4800683EF742FDD5
:1037D000964E1A983071F070286800990843286056
:1037E000FEF7F6FA179800F02BFE3878002802D082
:1037F0000C98787003E00020F0708D4908708D4DB2
:1038000022350C2128465BF790FC8B484821017239
:103810005021C1715222827141712D2101711A9E74
:1038200046848649016004278549384659F7E1FAFC
:103830000B98A87014973846314659F70CFB774817
:10384000067577491C317FA009912CC82CC1EFF374
:103850001080179B83F3108804991831A2880A43BB
:10386000A280002802D083F3108802E0002080F3B9
:103870001088774F16983880B8881C252843602117
:103880000A91C9430B910840B880B888039A9043C5
:10389000B880B8880C9B9843B880604E307AFE217F
:1038A000014031721A98B881388918433881307ACA
:1038B000F1210140881C3072388910437C218843F3
:1038C000388138881399884338803888169EB043E9
:1038D000388001F01BFA1A98B88438883043388051
:1038E000B8882E4628430B990840B880AB2001F0D9
:1038F0002FFA4B48007F002804D101F015FA002868
:1039000000D164E301F010FA002807D1B8883043F1
:103910000A998843B880B92001F01AFA4D483F4E01
:10392000F06630466C301A9F878042482E304A49F4
:1039300016252A465BF7E0FBB77575755FF7D8FE6D
:103940003078002800D18BE081207070434E159DA7
:10395000179F8CE09CB8FC076587341200A0FC0719
:10396000AC14000000B9FC0760BAFC07AC5CFC07B3
:1039700000BAFC077CFCF107DAB9FC07B0BCFC0715
:103980002000800000C00000000084000000282209
:10399000000000000000040000F7FFFF7F000000AF
:1039A00030F0FF0F000000000004000000000000E5
:1039B0000000000000000000000000000000000007
:1039C000FDB9FC0750B9FC07603FF20754B9FC078A
:1039D000545EFC0758B9FC07245DFC07B0B9FC072E
:1039E000B1B9FC07D9B9FC075CB9FC0760B9FC07A1
:1039F00064B9FC0768B9FC076CB9FC0770B9FC072F
:103A000048B9FC0744B9FC074CB9FC07FFF00000BB
:103A1000C8FEFFFF00020040FFFF1F00D08CFC0724
:103A2000B868FC07288EFC0700B0FC0754BAFC07F6
:103A3000B4BAFC07488DFC07B48DFC0708444C471A
:103A40009458FC07060000001223C2000000040086
:103A50000012005005FFCDABD462FC0700310050CE
:103A6000179F8D48C7708D4807708D4E159D8DA08E
:103A70005DF74EF9FFF774F90520FDF729FA358057
:103A80008D48109901808D488D4908188D4940183E
:103A90008008401E0B9078020990189880020A90C6
:103AA000F8031890884F7C4933462089000600D4DB
:103AB0004EE11998006B189A104200D048E108882E
:103AC000C00700D044E11D4659F797FC0026304658
:103AD00000F0B6FCB87B042800D033E1179800F062
:103AE000AFFC1C961CA8042529464AF727F8002895
:103AF00000D126E117987549086008680028FCD1B4
:103B00001998C069396B884201D23E633146411A27
:103B1000CA09F97B182A62D9C90763D16C4F398861
:103B2000089179880791B9880691F98805913E80B6
:103B3000099910317980139ABA805C21654B595AE2
:103B4000B98161490863B88910430299C9430840A3
:103B5000B88161480260BFF34F8FBFF36F8F388821
:103B600010433880F88810430840F8803888A8430C
:103B70003880B888C0B2B880F888702101404029E8
:103B800036D16220185A00285449049E00D00146BC
:103B9000534841805348401C3988014339801920DB
:103BA000FDF7EAF93888099A104338803888139964
:103BB0000843388078882843788078884A490840C4
:103BC0007880019840027988014379807888474954
:103BD0000840129908188030788045481DE0C807D1
:103BE00000D1AEE0786B401C786300F0DBFDA8E00C
:103BF000388840490840388078883F4908407880B4
:103C00007888039988437880384A10464038398844
:103C1000014039801046049E099A798801407980D4
:103C20003888179908433880304617303989014061
:103C3000254B598379890140998338890A9908402D
:103C40001043388178890840104378813888119969
:103C50000843388038888007FCD41798F881388A60
:103C60001F494988184D6A8B3B892F460A9D2B4076
:103C70001343174A1381BA8B154B5B892B401343AF
:103C8000134A5381401A31464143002838DC1B4A0D
:103C90008918C017084035E054BAFC07B4BAFC07CD
:103CA0000031005041707020496E697469616C691F
:103CB0007A65640D0A00000002330050946200002F
:103CC0001001FC07030004F8D08CFC07FC00004046
:103CD00000150050CC8BFC0780E100E0407600002E
:103CE000B868FC07FF0F0000FF1F00003FFE000048
:103CF000FCFF0000FFEF0000FFE100002BFDFFFFD5
:103D0000E1480818E1495BF793F9850919353879D5
:103D10007F280CD0281A41B2C9114840401A40B23D
:103D2000052805DB786B401C786300F03BFD3D7196
:103D3000D24807994180069981800599C1800899E8
:103D40000180BF4D5CF7ECFF1598C8492B4605462E
:103D500072B6087902281A9802D0C0480068806AB2
:103D60001C90B848C088C00700D02DE11E4658F707
:103D700010FC3346BD49002800D125E1C878012850
:103D800000D0ADE0A08AC00700D093E008880028EA
:103D900000D0A5E0BE48806A002803D0AF48006884
:103DA000806A1C9000F01EFFB04FB9781CA859F72C
:103DB000E8F939460028E84F334600D190E01998D9
:103DC0000069400600D58BE0A84881781CA849F717
:103DD000B5FE3346A549002800D181E00A98FF309E
:103DE000A74A118801401298014311801C980028AD
:103DF000199B06D0196A9A4A8918DA2901D8401EF7
:103E00001C90388D944AD16808181061D86B1A46F6
:103E1000A04B18400843D063D06B9F4908408E4B9D
:103E2000596989020143D163D06B8F4908401969F0
:103E300049050818D0631C9A9848824200D300BEF6
:103E4000814903C900235BF707F90903000D4118F5
:103E500081484069821C8A4200D0481E8349097902
:103E60004A1E914145F780FD8D48C06A80471899E8
:103E7000199A106B0842FCD000997A4A10680842DF
:103E8000FCD010680C99884310606E480089452862
:103E900004D846216B4A1181081A78643EF715FA56
:103EA00070498868386408680006FCD520890C9938
:103EB000884320816E480178208A149B1843208211
:103EC000704A106818431060604A1089179FB84301
:103ED0001081608A012905D10D99884360822BE009
:103EE00030BF71E00D9D28436082608A1843608274
:103EF000FEF7D2FD608A2843608256480B99016222
:103F0000EFF3108087F3108821880C9A9143218069
:103F1000002802D087F3108802E0002080F3108888
:103F2000608D12990842159D06D00B2000F02CFFE1
:103F30004749C88D3843C88500202083608D129979
:103F4000084206D142490888139A1043169A9043B2
:103F500008803E49088C139A1043169A90430884AF
:103F6000A08CB843A0840D20FDF706F86089384383
:103F700011998843608160894006FCD50E98608065
:103F8000A08AC00603D52F48801E1099018030BF3B
:103F9000A08AC0062E4A02D52A48109901801088AE
:103FA000169B18430F9F384010802849088C1843EF
:103FB0003840088400F0D4F8324A106814998843D5
:103FC0001060EC4F2949334662B61D806DE5B88814
:103FD00030430A998843B88000F098FE9F20254915
:103FE000884700252846234988470B9028462149C1
:103FF00088472049089028468847BD843988169A02
:10400000114339800B990906090A089A1206120C05
:104010005118C0B2081800D174E4114B4833164946
:104020001A460C3200D16DE4CB18F4255B59984246
:104030001346F6D18818E430099D0EC80EC561E418
:104040000031005002330050488DFC07040300503B
:10405000520000500000F407B868FC0758B9FC078C
:10406000C8FEFFFF00020040FFFF1F0054BAFC071C
:10407000B4BAFC07594CFC074057FC070015005028
:104080003830005010ED00E0D5020000AA05000015
:1040900074BEFC0700FCFFFFFF03E0FF40420F007F
:1040A00058BFFC07FA4801466C318A88521C0A71D5
:1040B000130A4B7191B2034A914202D1702100223E
:1040C00042527047FFFF000010B569210D48415C66
:1040D000143000228A4206D20368041F2468236039
:1040E0000830521CF6E710BD10B568210548415C48
:1040F00000228A4204D218C81C600030521CF8E723
:1041000010BDC046CC8BFC0770B5E14D697E00291F
:1041100000D000BE88002E18B06D5836002815D18A
:1041200009020A310D4804240E23224658F762FC86
:10413000092101703060C821818000218181418185
:10414000192109010181C480A021418058F76DFC2B
:1041500000202875306070BDD08CFC070E0E00006A
:10416000F0B58BB06F4CE0896F490140E1816F4839
:104170006FA118225AF7C0FF73A076492CC82CC132
:10418000FCF7ADFC744875490160EFF31080012520
:1041900085F31088218840220A432280002802D01B
:1041A00085F3108802E0002080F310886C480188B5
:1041B0006C4CA18980221143A1816B490B230B8098
:1041C0000821029121800026A680A1899143A18126
:1041D00003210191A181858306848684039504AD22
:1041E0002E826E800420009028700A960996079609
:1041F00006945E4805905E4F38462946FEF7E0F982
:10420000EE71019C2C7157480790103738462946AB
:10421000FEF7D6F99E48C663039D05732402052068
:104220002146009A3346544FB8471D22284621465E
:104230002B46514DA8471C22009821463346A847DB
:104240001B22304621463346A8471A2201983146A0
:104250003346A8470927029831463A463346A847CD
:104260000A22384631463346A847062021463246C0
:104270003346A84741480188039B194301800298AF
:104280000294214632461C46A847384631463246FB
:104290002346A84724023A4D7F4E002F1BD0F068DA
:1042A000B068800500D400BE2888800513D4F0686B
:1042B000B068204200D100BEAC800520FCF75CFE57
:1042C000F068B068204200D100BE6C800520FCF789
:1042D00053FE7F1EE1E70920002202991346FDF7F5
:1042E00033F90320FCF748FEF068B068204200D1A3
:1042F00000BE6C8003252846FCF73EFE09240026FC
:104300000A2220463146039F3B46FDF71DF9284609
:10431000FCF732FE0820314622463B46FDF714F9F1
:104320000BB0F0BD040000507FFE000020000840EC
:10433000F99DF00700000000E3A1F1070000000074
:104340004FA4F107000000000D05FC073B08FC0727
:104350004B09FC07C000FC070000084007001000E4
:104360007C11005000110050C011005005000300E6
:1043700000360050D08CFC074915FC070C03005098
:10438000003000500549884200D000BE0448018832
:10439000044A11408918091D01807047111111113B
:1043A00012000050FC7F0000F8B504460026234FA1
:1043B000302E0FD0BD19E88AFD2801D10649696069
:1043C0005CF79CFF002803D082682846214690476E
:1043D0001836EDE7F8BDC046185CFC07B0B50025FF
:1043E000164C002826D1012D26D8FF20E08200207F
:1043F00020606060A060E060206110202843C0B2AF
:10440000A082214658F7F5FC18346D1CEBE7E08AD2
:104410005CF774FF002802D04168204688470020DE
:10442000E0816060A060FF20E082207D58F73BFDC6
:1044300018346D1C012DEAD9B0BDC046588CFC075C
:10444000B0B5D24DE978012921D11249002803D015
:1044500008884007FCD402E00888400717D40023EE
:10446000EB70C8888988000444181F204006492141
:1044700022465EF7F5FF084A03C264214143080C57
:10448000A86406486043800B401C40082865B0BD06
:10449000D08CFC0700160050488DFC07111101005C
:1044A00010B5F34C082020701120FCF765FD0320A7
:1044B000607010BDFEB5634803250570624C204650
:1044C0001438016814220A436B218A430260A06AEF
:1044D0005E4988610020C043A06220683F21884374
:1044E000206020685A4908402060606859490840A7
:1044F00001210191890202914018606060684021A9
:104500000143302081436160A069534908400B2179
:1045100049064018A061A069504908406902401846
:10452000A061A0691821014327208143A161432094
:1045300020714B4880474B4880474B488047414853
:1045400005700095494806684948804749488047B2
:10455000206849490840F105401820603C4E40362B
:1045600020683040490C401820604127277160685E
:1045700038490840029940186060394880473948F6
:104580008047394880472F480570384805683848C3
:10459000804738488047206837490840E905401877
:1045A000206020683040490C401820602771606806
:1045B00028490840029940186060294880472948E6
:1045C0008047294880471F480099017027480068A4
:1045D0002168294A1140C2058918216021683140AB
:1045E000264D0540A801081820606068019988439D
:1045F0006060164EB069A06220681C210143232030
:10460000814321602068124908402060A069124956
:104610000840072189064018A061A0690F49084099
:104620000F21C9014018A061A0691E21014321206A
:104630008143A1610E4880470E4880474220355291
:10464000FEBDC0460510004018300040B868FC07A9
:10465000FF7FFFFFFFF9FFFFFFFFFFC03FF0FFFFFE
:10466000F924FC070127FC075B0FFC07883000409A
:10467000D524FC07470FFC07FFFF7F00FF01000068
:1046800070470000F0B58BB03022002181541F220A
:104690001204344B1D68954301246204AA181A6061
:1046A000324B334D4561334D334E344F344AC26142
:1046B000066243622C4A8262C562324A07604260E7
:1046C000E004C74A136883431360282903D001A874
:1046D0004154491CF9E72C480068403001A92822C0
:1046E0005AF70AFDC24D6C74FFF7DAFEFFF7FCFCC7
:1046F000FFF7EAFC00F07EF900F09EFB00F06AF89C
:10470000FFF7D8FEEC732248008807210140297486
:10471000FCF7B6FBFDF732FBFDF744FB1D490B88A8
:104720001D4804681D4A1440E31803601C4B1C8894
:10473000856915402C1984615B88C4691440E318AD
:10474000C3614B8A046A1440E3180362898A436A8E
:10475000134059184162A448022181700021018050
:104760000BB0F0BD74000040D147FC07CD47FC07FB
:10477000B948FC079D48FC078917FC077548FC07EA
:104780007748FC078146FC074CB9FC07D08CFC0736
:10479000B81000401030004088A0FC070000FFFF68
:1047A0006430004080B5FFF77BFEFFF78DFC00F022
:1047B00021F900F041FBFCF763FBFDF7DFFA8A48C3
:1047C000022181700021018080BDC0460020704719
:1047D000704700000E4908880E4A0240012043023B
:1047E000D2180A8041057E4A13688B431360810703
:1047F00000224A671F2212044B6F9343400418188B
:1048000048670868E0220243102082430A6070472C
:1048100038300050FFFC000080B51F20000401214B
:104820008A07536F8343480418185067106807219C
:10483000884310600D48018808220A430280FFF770
:104840002FFEFFF751FCFFF73FFC00F0D3F800F01C
:10485000F3FAFFF7BFFFFDF7A5FA63480221817065
:10486000002101800520FCF733FB80BD08000050CB
:1048700004100040704780B5E62800D3E6202828C1
:1048800000D82820F9214A0042437D20C10010466B
:104890005AF7B8FB7F38C0B280BD000005480168F8
:1048A00007220A430260012080044D490A688243BE
:1048B0000A60704730000040022902D0012900D070
:1048C00000BE002802D0FF2804D000BE022901D17A
:1048D0000C207047D948407C002800D00920704740
:1048E000F8B53F480168C90703D0016802220A43AE
:1048F000026001240168490203D5A10502680A4348
:1049000002602702650237490095084608380668A4
:10491000002E63D0300606D58020086048F7B7FF28
:10492000FDF756FA2F49B00704D50220086044F776
:10493000ACFE2C49300714D508200860FCF792F82B
:104940003D4627460024204644F758FE25490420CA
:10495000F44A90730220244A907014803C462F46FB
:10496000009D3E4204D00F60012044F747FE1D49E0
:104970002E4203D00D6048F7F3FF1A49700604D5A4
:104980004020086044F735FE1649F00604D5102093
:10499000086043F7F1F9134970070FD50420086048
:1049A00012490888A043088058F78EFD3DF748FE5D
:1049B000FDF70EFA0B490020DA4A9073F00707D092
:1049C0000C6058F79DFD48F762FF0649D54884738F
:1049D000B0069AD52020086000BE96E7F8BDC04614
:1049E000000200401800004004100040083300504E
:1049F000D08CFC07FCB57F2000025A4A51698143E4
:104A00000B20000208185061106880B25649401807
:104A100010609069554C0440012358030090201801
:104A20009061032001900002146B04431463908F83
:104A30001024044394879088184390804C484D4A32
:104A400002604D4A104610384C4CA58B054015208D
:104A50004301E8185030A0836069494D054049483A
:104A600028186061A069484D0540092040022818B7
:104A7000A0612068454D05404548281820606068C1
:104A8000444D0540444828186060A068434D0540E7
:104A900043482818A060E068424D05404248281865
:104AA000E060E048407C002802D1C120400100E0E5
:104AB0003E483F4D2860052080023E4F3880401D13
:104AC000B880388C55260643AA2086433E84FF26AC
:104AD0006C363046C9303885374908460E30B885BF
:104AE00036483886B986C01D388735482085A06B82
:104AF0003449014034480818A063344C2680208F84
:104B000010401F462037C0192087314801881140C6
:104B10008919D531018081881140C91881800189A6
:104B20001140C91901812136A6802A480188114007
:104B3000C91860310180818A19220A4306218A43FB
:104B40008282A88F2449014000980818A88723482A
:104B50000168019A1143042291430160204868666C
:104B6000FCBDC0462030004000008888FF00FEFFEA
:104B70008000004059055C071FFCFFFF0420004037
:104B80000000E0FF09581A00FEE1FFFFE0E000002E
:104B90000809294900000303696A686C031FFFFFC5
:104BA00070600000E0E0E0E00B0A0A08201800094D
:104BB0000010004028130040260A000051080000A1
:104BC000070F00002F64E0FE101A060100120040DB
:104BD0004412004088120040FF9F000080100040F7
:104BE00050015001F8B5642013490E5AF54FBC6CC2
:104BF000304660431249401812495AF703FA0546F5
:104C000038853C3666430E4830180E495AF7FAF993
:104C1000001D0D49C8602818C01D48610B4A127854
:104C2000022A01D111304861FEF7ACF8084940185A
:104C300080B258F773FCF8BDCC8BFC07D08CFC0716
:104C400020A1070040420F00B868FC07B4BAFC0777
:104C5000E20400007047000010B545498A885206FA
:104C6000D20E1CD0530813439C081C431209224344
:104C7000130A13431A0C1A43D24353081F4C1C4007
:104C8000121B1F4B94081A401C4012191309D2180A
:104C90001C4B13401C4A5A43120E1D3A00E00322DB
:104CA0000B881F24A3430B800B8802241C430C8019
:104CB0000B8804241C430C800B8801241C430C80AB
:104CC000D31714465C40E31A022B01D300240C8551
:104CD0000884088BC004FCD4022B02D3088D020484
:104CE00002E0002A07D00022888B104318228A5E37
:104CF000002AFBD410BD888BC0B2F7E75555555537
:104D0000333333330F0F0F0F0101010118480188AE
:104D1000202291430180CA49097A0907490F8184F9
:104D20007047C046D08CFC0780B5084801883C22FB
:104D30000A4340218A4302800520000200F008F85F
:104D40000121014048420D21884380BD04120050DA
:104D500010B50446FFF7DAFF2046FFF77DFF044950
:104D600000228A840A88202313430B8010BDC0468A
:104D7000001200500D480188890918220A40008855
:104D80008004400F8018704708490A88084B134078
:104D9000F822024092011A430A800A88054B134008
:104DA0004007800C181808807047C0465400005017
:104DB000FFF90000FFC700007047704702480188F4
:104DC0004906FCD57047C0461411005017480188A9
:104DD000012291430180704710B5994B00249C84B7
:104DE0009863DA631984104908200860BFF34F8F75
:104DF000BFF36F8F0D490A88022414430C800A8880
:104E0000802414430C80197B4A1E9141C907FF225C
:104E10001206074B1C689443611819600549086025
:104E200010BDC046D08CFC0780E100E004110050AA
:104E300000E400E000E100E018B5084801680091D6
:104E40000099074A009B1A40FF2424040C40D9B261
:104E50000919044BC9181143016018BD80000040B6
:104E600000FF00FF0A000A00F8B527482749FCF7B1
:104E700051FE274EF075FCF713FE0446C57A162D39
:104E80000AD860190C3031466C3106225AF734F9D1
:104E9000AA1DE272357617E02B20275C192F11D856
:104EA00020462B300090E0192C3031466C31062220
:104EB0005AF722F9B81D00990870802038433076DF
:104EC0002A4601E000BEE27A7275124D28462E3065
:104ED00021460C315AF710F92B20225CB2754D3562
:104EE0002C34284621465AF707F9FCF7D9FD57F725
:104EF0009CFD002070650420022157F7ACFF06A03E
:104F00005BF706FFF8BDC046DC050000A518FC07EE
:104F1000D08CFC07488DFC07416476657274697318
:104F2000696E6720537461727465640D0A00000035
:104F300010B5044603A05BF7EBFE442C01D1FFF74C
:104F400093FF10BD4164766572746973696E672062
:104F5000456E6465640D0A0070B50C460C21414332
:104F6000174A55182421695C2435FF291ED0154E97
:104F70007076F07DFCF7E4FD6088A02809D3C8288E
:104F800007D8A088042804D119200001E1888142B3
:104F900008D07D2080000C49FCF7BCFD30750BA0CB
:104FA0005BF7B6FE14A05BF7B3FE01E0FFF75CFF12
:104FB0002878FF2800D070BDFFF756FF70BDC046AF
:104FC000488DFC07D08CFC070941FC07436F6E6ECF
:104FD000656374696F6E20506172616D657465728E
:104FE000732075706461746520696E697469617499
:104FF00065640D0A0000000041707020436F6E6E02
:1050000065637465640D0A0010B508A05BF780FE47
:10501000874C207D002803D0FCF792FD00202075EE
:10502000FFF740F8FFF720FF10BDC0464170702029
:10503000446973636F6E6E65637465640D0A000086
:10504000D08CFC077CB50C464D49884228D04D4990
:1050500088423BD16088801E0221C841062835D88D
:1050600078440079400087440341373C32465D0074
:105070006D4600262E70A288A11D28465AF73CF8DE
:105080002878002861D0012851D16F485BF740FE95
:105090004B2080006D49FCF73DFD654948857CBD8E
:1050A0003948082519462B4657F7A4FC21780C22CD
:1050B0004A43364989182422895C017061884180FD
:1050C000002181808021817157F7AFFC7CBDA079E0
:1050D00001282ED14F4835E0A07901282BD1514825
:1050E00030E0A079012828D14C482BE0A079012894
:1050F00025D14E4826E001AD00262E70A288A11DC4
:10510000284659F7F9FF287800282BD001280ED11E
:1051100049485BF7FDFDC8204849FCF7FBFC4449C2
:1051200088857CBDA07901280BD124A00AE04448E1
:1051300008E02CA006E03A4804E0374802E03A488C
:1051400000E013A05BF7E4FD7CBD394C608D0028C6
:10515000BCD03C485BF7DCFD2A20205CFCF7F0FC6F
:1051600066857CBD324CA08D0028AFD031485BF7FE
:10517000CFFD2C20205CFCF7E3FCA6857CBDC0465F
:1051800004FD00000AFD000005FD0000488DFC073D
:1051900044697361626C6564204E6F74696669630B
:1051A0006174696F6E7320666F722054656D7065EF
:1051B0007261747572650D0A00000000456E6162CF
:1051C0006C6564204E6F74696669636174696F6EA3
:1051D0007320666F722054656D70657261747572AC
:1051E000650D0A0044697361626C6564204E6F74DA
:1051F000696669636174696F6E7320666F722041BE
:105200006363656C65726F6D6574657220470D0A26
:10521000000000000760FC071161FC07E560FC0767
:10522000B860FC078C60FC075F60FC073360FC071C
:10523000D08CFC079461FC075A61FC07ED20FC0749
:10524000E45FFC077661FC073E61FC07F91DFC0783
:105250000FB47CB50C0009AD01D0611E00E0002147
:1052600001910090074B6A462946089800F046F8DD
:10527000002C02D0009A002111707CBC08BC04B044
:10528000184700004D56FC070FB410B504A9074B92
:1052900002AA039800F032F8044602A9002000F0A8
:1052A000E0F9204610BC08BC04B018476356FC0760
:1052B0002021020C01D010211046020A01D0104614
:1052C0000839020901D01046091F820801D0104692
:1052D000891E420801D0881E7047081A704702E0F4
:1052E00008C8121F08C1002AFAD170477047002071
:1052F00001E001C1121F002AFBD17047FFB58FB03A
:105300000546002606E025280AD0129A11999047F2
:105310006D1C761C28780028F5D1304613B0F0BDFE
:10532000002402940121B54A009400E004436D1C5E
:105330002B780846203B98401042F7D128782A283D
:105340000ED00222287801463039092916D8029950
:105350000A2359433039401814436D1C0290F1E779
:10536000109802C802911090002904DA012040032D
:10537000044348420290022004436D1C28782E28E2
:1053800017D10420044368786D1C2A280CD110988A
:105390006D1C02C8009110900BE000990A22514345
:1053A000303940186D1C00902878014630390929A1
:1053B000F3D928786C2810D006DC4C281AD068283D
:1053C0000ED06A2817D104E0742813D07A2812D19D
:1053D00010E00120400504430CE00121090501E033
:1053E000032109050C436978814203D1012000059E
:1053F00024186D1C6D1C2878692874D006DC0028E0
:105400008BD0632827D0642806D16CE06E2808D0A2
:1054100073282CD0752878D0129A11999047761C51
:105420005FE06002400F022809D003280DD0042855
:10543000109801680DD00E60001D109051E010987A
:10544000F21701680E604A60F6E7109801680E8056
:10545000F2E70E70F0E710986A4601781173001DAC
:1054600010900020507303A80190012005E01098CF
:1054700002C8019110900020C04361070CD500279D
:1054800000E07F1C00998F420FDA8742F9DB019917
:10549000C95D0029F5D108E0002700E07F1C8742A4
:1054A000FCDB0199C95D0029F8D102982146C01B97
:1054B0000290129B119A00F0B3F88019C61907E008
:1054C000019801990078491C0191129A119990470D
:1054D0007F1EF5D22146129B119A029800F090F897
:1054E00086196D1C16E70A200190109901C91091C8
:1054F0006102490F032900D100B2042900D140B252
:10550000002803DA40422D2103E00DE0210504D5F7
:105510002B216A461173012103E0E10711D02021FC
:10552000F7E70CAF0C9114E00A200190109901C923
:1055300010916102490F032900D180B2042900D1E2
:10554000C0B20021EDE7019959F75CFD30317F1EB3
:1055500039700028F7D104A8C01B203001906007E3
:1055600004D5012000048443009801E0012000904C
:105570000199884201DD401A00E0002041180090A6
:105580000C9809180298401A0290E00306D42146AC
:10559000129B119A029800F043F8861900200D9092
:1055A00008E003A9085C129A119990470D98401CD5
:1055B000761C0D900C998842F3DBE0030CD5214654
:1055C000129B119A029800F02BF8861904E0129AA7
:1055D000302011999047761C0099481E00900029B0
:1055E000F5DC05E03878129A7F1C11999047761CFB
:1055F0000199481E01900029F4DC6BE7092801009D
:10560000F8B5044600251E461746880404D405E074
:1056100039462020B0476D1C641EF9D52846F8BDD8
:10562000FFB50446002581B01E46C80301D53027CA
:1056300000E02027880404D505E038460399B047E8
:105640006D1C641EF9D5284605B0F0BD4A68002AD5
:1056500006D00A68531C0B6010704868401E4860F2
:1056600070470A68531C0B6010707047034880F342
:10567000098800F025F8FAF74BFDC0461C71FC07BD
:1056800004207146084203D0EFF309800A49084715
:10569000EFF3088008490847704704207146084224
:1056A00003D0EFF3098005490847EFF30880034969
:1056B00008477047FEE70000C916FC073116FC07D3
:1056C0001A498888072290438880052000078A8924
:1056D000D2070DD0098800290AD115490A88028508
:1056E0004A88828489880184418A124A0A40428217
:1056F000114906220A800121CA03104B1A60BFF328
:105700004F8FBFF36F8F02221A60BFF34F8FBFF32B
:105710006F8F1960BFF34F8FBFF36F8F41890422E2
:10572000914341810021018062B67047040300501B
:10573000A000FC077FFE00000034005080E100E084
:10574000010000001130EF00000002000200000024
:105750001230EF00000004000300000000421F00B0
:1057600000000200040000001120C200000002003E
:10577000050000001128C200000002000600000021
:105780001228C200000004000F0000001160850014
:10579000000002001000000011408500000002001F
:1057A000130000001264C800000004001400000090
:1057B00001431F00000004001500000001111F003C
:1057C000000004001600000002441F000000080052
:1057D0001700000008441F00000008001800000027
:1057E00001841F0000000800190000000C441F0085
:1057F000000008001B0000000C451F000000100006
:105800001C00000001651F00000001001D000000D9
:1058100001101F00000002001E00000008451F00CC
:10582000000010004F43313C939242E6A876FA3BC9
:10583000EFB4875A17B967984C664C01963331B16B
:10584000915900152368EC521E6244749A1BD18B47
:10585000AB75B66E20EE8D0CE1F04A0CB325DC532F
:105860006A68862D9EE7BA08B9A948ABA1AC031CAB
:105870002E0D296C20EE8D0CE1F04A0CB325DC5383
:105880006A68862C4F43313C939242E6A876FA3BF5
:10589000EFB4875900000000A458FC07888CFC076F
:1058A00004000100AC58FC0701000000FFFF0000ED
:1058B000A932F207021400000925FC07010D0000BF
:1058C0001129FC07000D0000B528FC07000E0000A0
:1058D0004127FC07010E00006527FC07030E0000AE
:1058E000C527FC070A0E0000F127FC070C0E00007C
:1058F000A528FC071C0D00003D29FC07100D000029
:10590000AD28FC070F0E00009528FC072C0E0000A8
:105910008D28FC07120C00004529FC07080E00002A
:105920009D28FC078D1BFC07AD1BFC07D519FC0748
:105930002D19FC07F800000008000490000000008A
:1059400000000000030005D08B0035F010005CF073
:10595000000010B0000018B000001AB0030051F0B1
:10596000000038B000003AB0000064B0000066B03B
:10597000000022B0000024B0010005D000000000AB
:105980000A00008008030490000004F0030006D021
:10599000000000000A00008008030490000004F0EA
:1059A000030006D000000000032800280229012976
:1059B000FD000000E859FC071C000000F918FC0776
:1059C000000000000000000000000000FF000000D8
:1059D00000000000000000000000000000000000C7
:1059E0000000000000000000AA59FC0710000000A1
:1059F00001000000100010006C5CFC07A859FC07B7
:105A00000200000001000000000000000000000093
:105A10005458FC07100000000900020001000000BB
:105A200000000000AE59FC07020000000100000069
:105A3000110011005262FC07A859FC070200000087
:105A40000100000000000000000000002458FC07D6
:105A5000100000000102000008000000000000002B
:105A6000AC59FC070200000009000200020000001F
:105A700000000000AE59FC07020000000100000019
:105A80000F000F006462FC07A859FC070200000029
:105A90000100000000000000000000003458FC0776
:105AA00010000000010200000800000000000000DB
:105AB000AC59FC07020000000900020002000000CF
:105AC00000000000AE59FC070200000001000000C9
:105AD0000F000F007462FC07A859FC0702000000C9
:105AE0000100000000000000000000004458FC0716
:105AF000100000000102000008000000000000008B
:105B0000AC59FC070200000009000200020000007E
:105B100000000000AE59FC07020000000100000078
:105B20000F000F008462FC07A859FC070200000068
:105B30000100000000000000000000006458FC07A5
